{"address":"0xB06c856C8eaBd1d8321b687E188204C1018BC4E5","bytecode":"0x608060405234801561001057600080fd5b506126af806100206000396000f3fe608060405234801561001057600080fd5b50600436106101005760003560e01c8063819ed86311610097578063d2e0fe6011610066578063d2e0fe6014610255578063f2fde38b14610273578063f34822b41461028f578063fbebb830146102ab57610100565b8063819ed863146101dd5780638da5cb5b146101fb57806399189dc914610219578063bcead63e1461023757610100565b8063322e9f04116100d3578063322e9f041461018f57806346e368d414610199578063715018a6146101b557806371a97305146101bf57610100565b806301e1d1141461010557806306fdde03146101235780631f1fcd51146101415780632e1a7d4d1461015f575b600080fd5b61010d6102c7565b60405161011a9190611fdd565b60405180910390f35b61012b6102e8565b6040516101389190611e7b565b60405180910390f35b610149610376565b6040516101569190611dbd565b60405180910390f35b61017960048036038101906101749190611b41565b6103a0565b6040516101869190611fdd565b60405180910390f35b61019761052b565b005b6101b360048036038101906101ae9190611a0d565b61055b565b005b6101bd61061b565b005b6101c76106a3565b6040516101d49190611e2a565b60405180910390f35b6101e56106c9565b6040516101f29190611e45565b60405180910390f35b6102036106ef565b6040516102109190611dbd565b60405180910390f35b610221610719565b60405161022e9190611fdd565b60405180910390f35b61023f6107cd565b60405161024c9190611dbd565b60405180910390f35b61025d6107f7565b60405161026a9190611fdd565b60405180910390f35b61028d60048036038101906102889190611a0d565b61095a565b005b6102a960048036038101906102a49190611ac6565b610a52565b005b6102c560048036038101906102c09190611a5f565b610b2e565b005b60006102d16107f7565b6102d9610c26565b6102e39190612080565b905090565b606780546102f590612286565b80601f016020809104026020016040519081016040528092919081815260200182805461032190612286565b801561036e5780601f106103435761010080835404028352916020019161036e565b820191906000526020600020905b81548152906001019060200180831161035157829003601f168201915b505050505081565b6000606560009054906101000a900473ffffffffffffffffffffffffffffffffffffffff16905090565b60003373ffffffffffffffffffffffffffffffffffffffff16606660009054906101000a900473ffffffffffffffffffffffffffffffffffffffff1673ffffffffffffffffffffffffffffffffffffffff1614610432576040517f08c379a000000000000000000000000000000000000000000000000000000000815260040161042990611f3d565b60405180910390fd5b60026068541415610478576040517f08c379a000000000000000000000000000000000000000000000000000000000815260040161046f90611fbd565b60405180910390fd5b60026068819055506104886102c7565b8211156104ca576040517f08c379a00000000000000000000000000000000000000000000000000000000081526004016104c190611f1d565b60405180910390fd5b6104d2610c26565b82106104ea576104e182610cd8565b6000905061051e565b60006105076104f7610c26565b846105029190612161565b610d07565b9050610519610514610c26565b610cd8565b809150505b6001606881905550919050565b610533610dcf565b600061053d610c26565b9050600081141561054e5750610559565b61055781610f4a565b505b565b61056361103f565b73ffffffffffffffffffffffffffffffffffffffff166105816106ef565b73ffffffffffffffffffffffffffffffffffffffff16146105d7576040517f08c379a00000000000000000000000000000000000000000000000000000000081526004016105ce90611efd565b60405180910390fd5b80606660006101000a81548173ffffffffffffffffffffffffffffffffffffffff021916908373ffffffffffffffffffffffffffffffffffffffff16021790555050565b61062361103f565b73ffffffffffffffffffffffffffffffffffffffff166106416106ef565b73ffffffffffffffffffffffffffffffffffffffff1614610697576040517f08c379a000000000000000000000000000000000000000000000000000000000815260040161068e90611efd565b60405180910390fd5b6106a16000611047565b565b606560009054906101000a900473ffffffffffffffffffffffffffffffffffffffff1681565b606660009054906101000a900473ffffffffffffffffffffffffffffffffffffffff1681565b6000603360009054906101000a900473ffffffffffffffffffffffffffffffffffffffff16905090565b6000609a60009054906101000a900473ffffffffffffffffffffffffffffffffffffffff1673ffffffffffffffffffffffffffffffffffffffff16633af9e669306040518263ffffffff1660e01b81526004016107769190611dbd565b602060405180830381600087803b15801561079057600080fd5b505af11580156107a4573d6000803e3d6000fd5b505050506040513d601f19601f820116820180604052508101906107c89190611b6a565b905090565b6000606660009054906101000a900473ffffffffffffffffffffffffffffffffffffffff16905090565b6000610955609a60009054906101000a900473ffffffffffffffffffffffffffffffffffffffff1673ffffffffffffffffffffffffffffffffffffffff166370a08231306040518263ffffffff1660e01b81526004016108579190611dbd565b60206040518083038186803b15801561086f57600080fd5b505afa158015610883573d6000803e3d6000fd5b505050506040513d601f19601f820116820180604052508101906108a79190611b6a565b609a60009054906101000a900473ffffffffffffffffffffffffffffffffffffffff1673ffffffffffffffffffffffffffffffffffffffff1663182df0f56040518163ffffffff1660e01b815260040160206040518083038186803b15801561090f57600080fd5b505afa158015610923573d6000803e3d6000fd5b505050506040513d601f19601f820116820180604052508101906109479190611b6a565b61110d90919063ffffffff16565b905090565b61096261103f565b73ffffffffffffffffffffffffffffffffffffffff166109806106ef565b73ffffffffffffffffffffffffffffffffffffffff16146109d6576040517f08c379a00000000000000000000000000000000000000000000000000000000081526004016109cd90611efd565b60405180910390fd5b600073ffffffffffffffffffffffffffffffffffffffff168173ffffffffffffffffffffffffffffffffffffffff161415610a46576040517f08c379a0000000000000000000000000000000000000000000000000000000008152600401610a3d90611e9d565b60405180910390fd5b610a4f81611047565b50565b6000610a5e6001611144565b90508015610a82576001600060016101000a81548160ff0219169083151502179055505b610a8d858585610b2e565b81609a60006101000a81548173ffffffffffffffffffffffffffffffffffffffff021916908373ffffffffffffffffffffffffffffffffffffffff1602179055508015610b275760008060016101000a81548160ff0219169083151502179055507f7f26b83ff96e1f2b6a682f133852f6798a09c465da95921460cefb38474024986001604051610b1e9190611e60565b60405180910390a15b5050505050565b6000610b3a6001611144565b90508015610b5e576001600060016101000a81548160ff0219169083151502179055505b610b66611234565b610b6f8361128d565b8360679080519060200190610b859291906118ae565b5081606660006101000a81548173ffffffffffffffffffffffffffffffffffffffff021916908373ffffffffffffffffffffffffffffffffffffffff1602179055508015610c205760008060016101000a81548160ff0219169083151502179055507f7f26b83ff96e1f2b6a682f133852f6798a09c465da95921460cefb38474024986001604051610c179190611e60565b60405180910390a15b50505050565b6000606560009054906101000a900473ffffffffffffffffffffffffffffffffffffffff1673ffffffffffffffffffffffffffffffffffffffff166370a08231306040518263ffffffff1660e01b8152600401610c839190611dbd565b60206040518083038186803b158015610c9b57600080fd5b505afa158015610caf573d6000803e3d6000fd5b505050506040513d601f19601f82011682018060405250810190610cd39190611b6a565b905090565b610d04606660009054906101000a900473ffffffffffffffffffffffffffffffffffffffff168261135b565b50565b600080610d12610c26565b9050609a60009054906101000a900473ffffffffffffffffffffffffffffffffffffffff1673ffffffffffffffffffffffffffffffffffffffff16639629417830856040518363ffffffff1660e01b8152600401610d71929190611e01565b600060405180830381600087803b158015610d8b57600080fd5b505af1158015610d9f573d6000803e3d6000fd5b50505050600081610dae610c26565b610db89190612161565b90508084610dc69190612161565b92505050919050565b6000606660009054906101000a900473ffffffffffffffffffffffffffffffffffffffff1673ffffffffffffffffffffffffffffffffffffffff1663112c1f9b6040518163ffffffff1660e01b815260040160206040518083038186803b158015610e3957600080fd5b505afa158015610e4d573d6000803e3d6000fd5b505050506040513d601f19601f82011682018060405250810190610e719190611b6a565b90506000811415610e825750610f48565b606660009054906101000a900473ffffffffffffffffffffffffffffffffffffffff1673ffffffffffffffffffffffffffffffffffffffff1663c5ebeaec826040518263ffffffff1660e01b8152600401610edd9190611fdd565b600060405180830381600087803b158015610ef757600080fd5b505af1158015610f0b573d6000803e3d6000fd5b505050507f69c0ed5a77051ba5f0c42418bb6db6d3f73884dea69811c50bf320298df6ca5c81604051610f3e9190611fdd565b60405180910390a1505b565b610f76609a60009054906101000a900473ffffffffffffffffffffffffffffffffffffffff16826113ac565b609a60009054906101000a900473ffffffffffffffffffffffffffffffffffffffff1673ffffffffffffffffffffffffffffffffffffffff166340c10f1930836040518363ffffffff1660e01b8152600401610fd3929190611e01565b600060405180830381600087803b158015610fed57600080fd5b505af1158015611001573d6000803e3d6000fd5b505050507f1173f0f4ddef6f5472b33be1444c48f989f7680be122b01a79ee45e5d45a9ecb816040516110349190611fdd565b60405180910390a150565b600033905090565b6000603360009054906101000a900473ffffffffffffffffffffffffffffffffffffffff16905081603360006101000a81548173ffffffffffffffffffffffffffffffffffffffff021916908373ffffffffffffffffffffffffffffffffffffffff1602179055508173ffffffffffffffffffffffffffffffffffffffff168173ffffffffffffffffffffffffffffffffffffffff167f8be0079c531659141344cd1fd0a4f28419497f9722a3daafe3b4186f6b6457e060405160405180910390a35050565b600061113c670de0b6b3a764000061112e84866113fd90919063ffffffff16565b61141390919063ffffffff16565b905092915050565b60008060019054906101000a900460ff16156111bb5760018260ff16148015611173575061117130611429565b155b6111b2576040517f08c379a00000000000000000000000000000000000000000000000000000000081526004016111a990611edd565b60405180910390fd5b6000905061122f565b8160ff1660008054906101000a900460ff1660ff1610611210576040517f08c379a000000000000000000000000000000000000000000000000000000000815260040161120790611edd565b60405180910390fd5b816000806101000a81548160ff021916908360ff160217905550600190505b919050565b600060019054906101000a900460ff16611283576040517f08c379a000000000000000000000000000000000000000000000000000000000815260040161127a90611f7d565b60405180910390fd5b61128b61144c565b565b60006112996001611144565b905080156112bd576001600060016101000a81548160ff0219169083151502179055505b81606560006101000a81548173ffffffffffffffffffffffffffffffffffffffff021916908373ffffffffffffffffffffffffffffffffffffffff16021790555080156113575760008060016101000a81548160ff0219169083151502179055507f7f26b83ff96e1f2b6a682f133852f6798a09c465da95921460cefb3847402498600160405161134e9190611e60565b60405180910390a15b5050565b6113a88282606560009054906101000a900473ffffffffffffffffffffffffffffffffffffffff1673ffffffffffffffffffffffffffffffffffffffff166114ad9092919063ffffffff16565b5050565b6113f98282606560009054906101000a900473ffffffffffffffffffffffffffffffffffffffff1673ffffffffffffffffffffffffffffffffffffffff166115339092919063ffffffff16565b5050565b6000818361140b9190612107565b905092915050565b6000818361142191906120d6565b905092915050565b6000808273ffffffffffffffffffffffffffffffffffffffff163b119050919050565b600060019054906101000a900460ff1661149b576040517f08c379a000000000000000000000000000000000000000000000000000000000815260040161149290611f7d565b60405180910390fd5b6114ab6114a661103f565b611047565b565b61152e8363a9059cbb60e01b84846040516024016114cc929190611e01565b604051602081830303815290604052907bffffffffffffffffffffffffffffffffffffffffffffffffffffffff19166020820180517bffffffffffffffffffffffffffffffffffffffffffffffffffffffff8381831617835250505050611654565b505050565b6000818473ffffffffffffffffffffffffffffffffffffffff1663dd62ed3e30866040518363ffffffff1660e01b8152600401611571929190611dd8565b60206040518083038186803b15801561158957600080fd5b505afa15801561159d573d6000803e3d6000fd5b505050506040513d601f19601f820116820180604052508101906115c19190611b6a565b6115cb9190612080565b905061164e8463095ea7b360e01b85846040516024016115ec929190611e01565b604051602081830303815290604052907bffffffffffffffffffffffffffffffffffffffffffffffffffffffff19166020820180517bffffffffffffffffffffffffffffffffffffffffffffffffffffffff8381831617835250505050611654565b50505050565b60006116b6826040518060400160405280602081526020017f5361666545524332303a206c6f772d6c6576656c2063616c6c206661696c65648152508573ffffffffffffffffffffffffffffffffffffffff1661171b9092919063ffffffff16565b905060008151111561171657808060200190518101906116d69190611a36565b611715576040517f08c379a000000000000000000000000000000000000000000000000000000000815260040161170c90611f9d565b60405180910390fd5b5b505050565b606061172a8484600085611733565b90509392505050565b606082471015611778576040517f08c379a000000000000000000000000000000000000000000000000000000000815260040161176f90611ebd565b60405180910390fd5b61178185611429565b6117c0576040517f08c379a00000000000000000000000000000000000000000000000000000000081526004016117b790611f5d565b60405180910390fd5b6000808673ffffffffffffffffffffffffffffffffffffffff1685876040516117e99190611da6565b60006040518083038185875af1925050503d8060008114611826576040519150601f19603f3d011682016040523d82523d6000602084013e61182b565b606091505b509150915061183b828286611847565b92505050949350505050565b60608315611857578290506118a7565b60008351111561186a5782518084602001fd5b816040517f08c379a000000000000000000000000000000000000000000000000000000000815260040161189e9190611e7b565b60405180910390fd5b9392505050565b8280546118ba90612286565b90600052602060002090601f0160209004810192826118dc5760008555611923565b82601f106118f557805160ff1916838001178555611923565b82800160010185558215611923579182015b82811115611922578251825591602001919060010190611907565b5b5090506119309190611934565b5090565b5b8082111561194d576000816000905550600101611935565b5090565b600061196461195f8461201d565b611ff8565b90508281526020810184848401111561197c57600080fd5b611987848285612244565b509392505050565b60008135905061199e81612634565b92915050565b6000815190506119b38161264b565b92915050565b600082601f8301126119ca57600080fd5b81356119da848260208601611951565b91505092915050565b6000813590506119f281612662565b92915050565b600081519050611a0781612662565b92915050565b600060208284031215611a1f57600080fd5b6000611a2d8482850161198f565b91505092915050565b600060208284031215611a4857600080fd5b6000611a56848285016119a4565b91505092915050565b600080600060608486031215611a7457600080fd5b600084013567ffffffffffffffff811115611a8e57600080fd5b611a9a868287016119b9565b9350506020611aab8682870161198f565b9250506040611abc8682870161198f565b9150509250925092565b60008060008060808587031215611adc57600080fd5b600085013567ffffffffffffffff811115611af657600080fd5b611b02878288016119b9565b9450506020611b138782880161198f565b9350506040611b248782880161198f565b9250506060611b358782880161198f565b91505092959194509250565b600060208284031215611b5357600080fd5b6000611b61848285016119e3565b91505092915050565b600060208284031215611b7c57600080fd5b6000611b8a848285016119f8565b91505092915050565b611b9c81612195565b82525050565b6000611bad8261204e565b611bb78185612064565b9350611bc7818560208601612253565b80840191505092915050565b611bdc816121ea565b82525050565b611beb8161220e565b82525050565b611bfa81612232565b82525050565b6000611c0b82612059565b611c15818561206f565b9350611c25818560208601612253565b611c2e816123a5565b840191505092915050565b6000611c4660268361206f565b9150611c51826123b6565b604082019050919050565b6000611c6960268361206f565b9150611c7482612405565b604082019050919050565b6000611c8c602e8361206f565b9150611c9782612454565b604082019050919050565b6000611caf60208361206f565b9150611cba826124a3565b602082019050919050565b6000611cd260218361206f565b9150611cdd826124cc565b604082019050919050565b6000611cf5601f8361206f565b9150611d008261251b565b602082019050919050565b6000611d18601d8361206f565b9150611d2382612544565b602082019050919050565b6000611d3b602b8361206f565b9150611d468261256d565b604082019050919050565b6000611d5e602a8361206f565b9150611d69826125bc565b604082019050919050565b6000611d81601f8361206f565b9150611d8c8261260b565b602082019050919050565b611da0816121d3565b82525050565b6000611db28284611ba2565b915081905092915050565b6000602082019050611dd26000830184611b93565b92915050565b6000604082019050611ded6000830185611b93565b611dfa6020830184611b93565b9392505050565b6000604082019050611e166000830185611b93565b611e236020830184611d97565b9392505050565b6000602082019050611e3f6000830184611bd3565b92915050565b6000602082019050611e5a6000830184611be2565b92915050565b6000602082019050611e756000830184611bf1565b92915050565b60006020820190508181036000830152611e958184611c00565b905092915050565b60006020820190508181036000830152611eb681611c39565b9050919050565b60006020820190508181036000830152611ed681611c5c565b9050919050565b60006020820190508181036000830152611ef681611c7f565b9050919050565b60006020820190508181036000830152611f1681611ca2565b9050919050565b60006020820190508181036000830152611f3681611cc5565b9050919050565b60006020820190508181036000830152611f5681611ce8565b9050919050565b60006020820190508181036000830152611f7681611d0b565b9050919050565b60006020820190508181036000830152611f9681611d2e565b9050919050565b60006020820190508181036000830152611fb681611d51565b9050919050565b60006020820190508181036000830152611fd681611d74565b9050919050565b6000602082019050611ff26000830184611d97565b92915050565b6000612002612013565b905061200e82826122b8565b919050565b6000604051905090565b600067ffffffffffffffff82111561203857612037612376565b5b612041826123a5565b9050602081019050919050565b600081519050919050565b600081519050919050565b600081905092915050565b600082825260208201905092915050565b600061208b826121d3565b9150612096836121d3565b9250827fffffffffffffffffffffffffffffffffffffffffffffffffffffffffffffffff038211156120cb576120ca6122e9565b5b828201905092915050565b60006120e1826121d3565b91506120ec836121d3565b9250826120fc576120fb612318565b5b828204905092915050565b6000612112826121d3565b915061211d836121d3565b9250817fffffffffffffffffffffffffffffffffffffffffffffffffffffffffffffffff0483118215151615612156576121556122e9565b5b828202905092915050565b600061216c826121d3565b9150612177836121d3565b92508282101561218a576121896122e9565b5b828203905092915050565b60006121a0826121b3565b9050919050565b60008115159050919050565b600073ffffffffffffffffffffffffffffffffffffffff82169050919050565b6000819050919050565b600060ff82169050919050565b60006121f5826121fc565b9050919050565b6000612207826121b3565b9050919050565b600061221982612220565b9050919050565b600061222b826121b3565b9050919050565b600061223d826121dd565b9050919050565b82818337600083830152505050565b60005b83811015612271578082015181840152602081019050612256565b83811115612280576000848401525b50505050565b6000600282049050600182168061229e57607f821691505b602082108114156122b2576122b1612347565b5b50919050565b6122c1826123a5565b810181811067ffffffffffffffff821117156122e0576122df612376565b5b80604052505050565b7f4e487b7100000000000000000000000000000000000000000000000000000000600052601160045260246000fd5b7f4e487b7100000000000000000000000000000000000000000000000000000000600052601260045260246000fd5b7f4e487b7100000000000000000000000000000000000000000000000000000000600052602260045260246000fd5b7f4e487b7100000000000000000000000000000000000000000000000000000000600052604160045260246000fd5b6000601f19601f8301169050919050565b7f4f776e61626c653a206e6577206f776e657220697320746865207a65726f206160008201527f6464726573730000000000000000000000000000000000000000000000000000602082015250565b7f416464726573733a20696e73756666696369656e742062616c616e636520666f60008201527f722063616c6c0000000000000000000000000000000000000000000000000000602082015250565b7f496e697469616c697a61626c653a20636f6e747261637420697320616c72656160008201527f647920696e697469616c697a6564000000000000000000000000000000000000602082015250565b7f4f776e61626c653a2063616c6c6572206973206e6f7420746865206f776e6572600082015250565b7f4e6f74206861766520656e6f756768206d6f6e657920746f207769746864726160008201527f7700000000000000000000000000000000000000000000000000000000000000602082015250565b7f53747261746567793a2063616c6c6572206973206e6f742061207661756c7400600082015250565b7f416464726573733a2063616c6c20746f206e6f6e2d636f6e7472616374000000600082015250565b7f496e697469616c697a61626c653a20636f6e7472616374206973206e6f74206960008201527f6e697469616c697a696e67000000000000000000000000000000000000000000602082015250565b7f5361666545524332303a204552433230206f7065726174696f6e20646964206e60008201527f6f74207375636365656400000000000000000000000000000000000000000000602082015250565b7f5265656e7472616e637947756172643a207265656e7472616e742063616c6c00600082015250565b61263d81612195565b811461264857600080fd5b50565b612654816121a7565b811461265f57600080fd5b50565b61266b816121d3565b811461267657600080fd5b5056fea2646970667358221220eaa3201d325b406cb068010447c3d8af27deea5ea52810f5c2fade403fe8e2ab64736f6c63430008040033","abi":[{"anonymous":false,"inputs":[{"indexed":false,"internalType":"uint256","name":"amount","type":"uint256"}],"name":"Borrowed","type":"event"},{"anonymous":false,"inputs":[{"indexed":false,"internalType":"uint8","name":"version","type":"uint8"}],"name":"Initialized","type":"event"},{"anonymous":false,"inputs":[{"indexed":true,"internalType":"address","name":"previousOwner","type":"address"},{"indexed":true,"internalType":"address","name":"newOwner","type":"address"}],"name":"OwnershipTransferred","type":"event"},{"anonymous":false,"inputs":[{"indexed":false,"internalType":"uint256","name":"amount","type":"uint256"}],"name":"PutInStake","type":"event"},{"anonymous":false,"inputs":[{"indexed":false,"internalType":"uint256","name":"amount","type":"uint256"}],"name":"Redeemed","type":"event"},{"anonymous":false,"inputs":[{"indexed":false,"internalType":"uint256","name":"amount","type":"uint256"}],"name":"ReturnToLender","type":"event"},{"inputs":[{"internalType":"string","name":"_name","type":"string"},{"internalType":"address","name":"wantAddress","type":"address"},{"internalType":"address","name":"lenderAddress","type":"address"}],"name":"__BaseStrategy__init","outputs":[],"stateMutability":"nonpayable","type":"function"},{"inputs":[],"name":"_lender","outputs":[{"internalType":"contract ILender","name":"","type":"address"}],"stateMutability":"view","type":"function"},{"inputs":[],"name":"assets","outputs":[{"internalType":"contract IERC20Upgradeable","name":"","type":"address"}],"stateMutability":"view","type":"function"},{"inputs":[],"name":"balanceOfAssetsInStake","outputs":[{"internalType":"uint256","name":"","type":"uint256"}],"stateMutability":"view","type":"function"},{"inputs":[],"name":"directBalanceOfAssetsInStake","outputs":[{"internalType":"uint256","name":"","type":"uint256"}],"stateMutability":"nonpayable","type":"function"},{"inputs":[{"internalType":"string","name":"_name","type":"string"},{"internalType":"address","name":"wantTokenAddress","type":"address"},{"internalType":"address","name":"lenderAddress","type":"address"},{"internalType":"address","name":"stakingAddress","type":"address"}],"name":"initialize","outputs":[],"stateMutability":"nonpayable","type":"function"},{"inputs":[],"name":"lender","outputs":[{"internalType":"address","name":"","type":"address"}],"stateMutability":"view","type":"function"},{"inputs":[],"name":"name","outputs":[{"internalType":"string","name":"","type":"string"}],"stateMutability":"view","type":"function"},{"inputs":[],"name":"owner","outputs":[{"internalType":"address","name":"","type":"address"}],"stateMutability":"view","type":"function"},{"inputs":[],"name":"renounceOwnership","outputs":[],"stateMutability":"nonpayable","type":"function"},{"inputs":[{"internalType":"address","name":"lender","type":"address"}],"name":"setLender","outputs":[],"stateMutability":"nonpayable","type":"function"},{"inputs":[],"name":"totalAssets","outputs":[{"internalType":"uint256","name":"","type":"uint256"}],"stateMutability":"view","type":"function"},{"inputs":[{"internalType":"address","name":"newOwner","type":"address"}],"name":"transferOwnership","outputs":[],"stateMutability":"nonpayable","type":"function"},{"inputs":[],"name":"want","outputs":[{"internalType":"address","name":"","type":"address"}],"stateMutability":"view","type":"function"},{"inputs":[{"internalType":"uint256","name":"amount","type":"uint256"}],"name":"withdraw","outputs":[{"internalType":"uint256","name":"","type":"uint256"}],"stateMutability":"nonpayable","type":"function"},{"inputs":[],"name":"work","outputs":[],"stateMutability":"nonpayable","type":"function"}]}