{"address":"0xB06c856C8eaBd1d8321b687E188204C1018BC4E5","bytecode":"0x608060405234801561001057600080fd5b506129f8806100206000396000f3fe608060405234801561001057600080fd5b50600436106101005760003560e01c8063819ed86311610097578063d2e0fe6011610066578063d2e0fe6014610255578063f2fde38b14610275578063f34822b414610291578063fbebb830146102ad57610100565b8063819ed863146101dd5780638da5cb5b146101fb57806399189dc914610219578063bcead63e1461023757610100565b8063322e9f04116100d3578063322e9f041461018f57806346e368d414610199578063715018a6146101b557806371a97305146101bf57610100565b806301e1d1141461010557806306fdde03146101235780631f1fcd51146101415780632e1a7d4d1461015f575b600080fd5b61010d6102c9565b60405161011a9190612281565b60405180910390f35b61012b6102f1565b604051610138919061211f565b60405180910390f35b61014961037f565b6040516101569190612061565b60405180910390f35b61017960048036038101906101749190611de5565b6103a9565b6040516101869190612281565b60405180910390f35b610197610574565b005b6101b360048036038101906101ae9190611cb1565b6105a4565b005b6101bd610664565b005b6101c76106ec565b6040516101d491906120ce565b60405180910390f35b6101e5610712565b6040516101f291906120e9565b60405180910390f35b610203610738565b6040516102109190612061565b60405180910390f35b610221610762565b60405161022e9190612281565b60405180910390f35b61023f610816565b60405161024c9190612061565b60405180910390f35b61025d610840565b60405161026c939291906122c5565b60405180910390f35b61028f600480360381019061028a9190611cb1565b6109b9565b005b6102ab60048036038101906102a69190611d6a565b610ab1565b005b6102c760048036038101906102c29190611d03565b610b8d565b005b6000806102d4610840565b50509050806102e1610c85565b6102eb91906123c9565b91505090565b606780546102fe906125cf565b80601f016020809104026020016040519081016040528092919081815260200182805461032a906125cf565b80156103775780601f1061034c57610100808354040283529160200191610377565b820191906000526020600020905b81548152906001019060200180831161035a57829003601f168201915b505050505081565b6000606560009054906101000a900473ffffffffffffffffffffffffffffffffffffffff16905090565b60003373ffffffffffffffffffffffffffffffffffffffff16606660009054906101000a900473ffffffffffffffffffffffffffffffffffffffff1673ffffffffffffffffffffffffffffffffffffffff161461043b576040517f08c379a0000000000000000000000000000000000000000000000000000000008152600401610432906121e1565b60405180910390fd5b60026068541415610481576040517f08c379a000000000000000000000000000000000000000000000000000000000815260040161047890612261565b60405180910390fd5b60026068819055506104916102c9565b8211156104d3576040517f08c379a00000000000000000000000000000000000000000000000000000000081526004016104ca906121c1565b60405180910390fd5b7fd982696658cace6e0854cebe8f1ddca77da4c1c46566284fcc6b0a5d5cd6553c826104fd610c85565b60405161050b92919061229c565b60405180910390a161051b610c85565b82116105335761052a82610d37565b60009050610567565b6000610550610540610c85565b8461054b91906124aa565b610d66565b905061056261055d610c85565b610d37565b809150505b6001606881905550919050565b61057c610e67565b6000610586610c85565b9050600081141561059757506105a2565b6105a081610fe2565b505b565b6105ac6112e3565b73ffffffffffffffffffffffffffffffffffffffff166105ca610738565b73ffffffffffffffffffffffffffffffffffffffff1614610620576040517f08c379a0000000000000000000000000000000000000000000000000000000008152600401610617906121a1565b60405180910390fd5b80606660006101000a81548173ffffffffffffffffffffffffffffffffffffffff021916908373ffffffffffffffffffffffffffffffffffffffff16021790555050565b61066c6112e3565b73ffffffffffffffffffffffffffffffffffffffff1661068a610738565b73ffffffffffffffffffffffffffffffffffffffff16146106e0576040517f08c379a00000000000000000000000000000000000000000000000000000000081526004016106d7906121a1565b60405180910390fd5b6106ea60006112eb565b565b606560009054906101000a900473ffffffffffffffffffffffffffffffffffffffff1681565b606660009054906101000a900473ffffffffffffffffffffffffffffffffffffffff1681565b6000603360009054906101000a900473ffffffffffffffffffffffffffffffffffffffff16905090565b6000609a60009054906101000a900473ffffffffffffffffffffffffffffffffffffffff1673ffffffffffffffffffffffffffffffffffffffff16633af9e669306040518263ffffffff1660e01b81526004016107bf9190612061565b602060405180830381600087803b1580156107d957600080fd5b505af11580156107ed573d6000803e3d6000fd5b505050506040513d601f19601f820116820180604052508101906108119190611e0e565b905090565b6000606660009054906101000a900473ffffffffffffffffffffffffffffffffffffffff16905090565b600080600080609a60009054906101000a900473ffffffffffffffffffffffffffffffffffffffff1673ffffffffffffffffffffffffffffffffffffffff1663182df0f56040518163ffffffff1660e01b815260040160206040518083038186803b1580156108ae57600080fd5b505afa1580156108c2573d6000803e3d6000fd5b505050506040513d601f19601f820116820180604052508101906108e69190611e0e565b90506000609a60009054906101000a900473ffffffffffffffffffffffffffffffffffffffff1673ffffffffffffffffffffffffffffffffffffffff166370a08231306040518263ffffffff1660e01b81526004016109459190612061565b60206040518083038186803b15801561095d57600080fd5b505afa158015610971573d6000803e3d6000fd5b505050506040513d601f19601f820116820180604052508101906109959190611e0e565b90506109aa81836113b190919063ffffffff16565b82829450945094505050909192565b6109c16112e3565b73ffffffffffffffffffffffffffffffffffffffff166109df610738565b73ffffffffffffffffffffffffffffffffffffffff1614610a35576040517f08c379a0000000000000000000000000000000000000000000000000000000008152600401610a2c906121a1565b60405180910390fd5b600073ffffffffffffffffffffffffffffffffffffffff168173ffffffffffffffffffffffffffffffffffffffff161415610aa5576040517f08c379a0000000000000000000000000000000000000000000000000000000008152600401610a9c90612141565b60405180910390fd5b610aae816112eb565b50565b6000610abd60016113e8565b90508015610ae1576001600060016101000a81548160ff0219169083151502179055505b610aec858585610b8d565b81609a60006101000a81548173ffffffffffffffffffffffffffffffffffffffff021916908373ffffffffffffffffffffffffffffffffffffffff1602179055508015610b865760008060016101000a81548160ff0219169083151502179055507f7f26b83ff96e1f2b6a682f133852f6798a09c465da95921460cefb38474024986001604051610b7d9190612104565b60405180910390a15b5050505050565b6000610b9960016113e8565b90508015610bbd576001600060016101000a81548160ff0219169083151502179055505b610bc56114d8565b610bce83611531565b8360679080519060200190610be4929190611b52565b5081606660006101000a81548173ffffffffffffffffffffffffffffffffffffffff021916908373ffffffffffffffffffffffffffffffffffffffff1602179055508015610c7f5760008060016101000a81548160ff0219169083151502179055507f7f26b83ff96e1f2b6a682f133852f6798a09c465da95921460cefb38474024986001604051610c769190612104565b60405180910390a15b50505050565b6000606560009054906101000a900473ffffffffffffffffffffffffffffffffffffffff1673ffffffffffffffffffffffffffffffffffffffff166370a08231306040518263ffffffff1660e01b8152600401610ce29190612061565b60206040518083038186803b158015610cfa57600080fd5b505afa158015610d0e573d6000803e3d6000fd5b505050506040513d601f19601f82011682018060405250810190610d329190611e0e565b905090565b610d63606660009054906101000a900473ffffffffffffffffffffffffffffffffffffffff16826115ff565b50565b600080610d71610c85565b90507fe3829d5463fae0f748d927f86f762044188c9ce53d91a394eb93e98354cc30928382604051610da492919061229c565b60405180910390a1609a60009054906101000a900473ffffffffffffffffffffffffffffffffffffffff1673ffffffffffffffffffffffffffffffffffffffff16639629417830856040518363ffffffff1660e01b8152600401610e099291906120a5565b600060405180830381600087803b158015610e2357600080fd5b505af1158015610e37573d6000803e3d6000fd5b50505050600081610e46610c85565b610e5091906124aa565b90508084610e5e91906124aa565b92505050919050565b6000606660009054906101000a900473ffffffffffffffffffffffffffffffffffffffff1673ffffffffffffffffffffffffffffffffffffffff1663112c1f9b6040518163ffffffff1660e01b815260040160206040518083038186803b158015610ed157600080fd5b505afa158015610ee5573d6000803e3d6000fd5b505050506040513d601f19601f82011682018060405250810190610f099190611e0e565b90506000811415610f1a5750610fe0565b606660009054906101000a900473ffffffffffffffffffffffffffffffffffffffff1673ffffffffffffffffffffffffffffffffffffffff1663c5ebeaec826040518263ffffffff1660e01b8152600401610f759190612281565b600060405180830381600087803b158015610f8f57600080fd5b505af1158015610fa3573d6000803e3d6000fd5b505050507f69c0ed5a77051ba5f0c42418bb6db6d3f73884dea69811c50bf320298df6ca5c81604051610fd69190612281565b60405180910390a1505b565b61100e609a60009054906101000a900473ffffffffffffffffffffffffffffffffffffffff1682611650565b6000609a60009054906101000a900473ffffffffffffffffffffffffffffffffffffffff1673ffffffffffffffffffffffffffffffffffffffff166370a08231306040518263ffffffff1660e01b815260040161106b9190612061565b60206040518083038186803b15801561108357600080fd5b505afa158015611097573d6000803e3d6000fd5b505050506040513d601f19601f820116820180604052508101906110bb9190611e0e565b9050609a60009054906101000a900473ffffffffffffffffffffffffffffffffffffffff1673ffffffffffffffffffffffffffffffffffffffff166340c10f1930846040518363ffffffff1660e01b815260040161111a9291906120a5565b600060405180830381600087803b15801561113457600080fd5b505af1158015611148573d6000803e3d6000fd5b505050507ffa34ebae1defb74447b51cc3cebc758dc2a4053f484434dfb8a455203e7a13b88282609a60009054906101000a900473ffffffffffffffffffffffffffffffffffffffff1673ffffffffffffffffffffffffffffffffffffffff166370a08231306040518263ffffffff1660e01b81526004016111ca9190612061565b60206040518083038186803b1580156111e257600080fd5b505afa1580156111f6573d6000803e3d6000fd5b505050506040513d601f19601f8201168201806040525081019061121a9190611e0e565b609a60009054906101000a900473ffffffffffffffffffffffffffffffffffffffff1673ffffffffffffffffffffffffffffffffffffffff16633af9e669306040518263ffffffff1660e01b81526004016112759190612061565b602060405180830381600087803b15801561128f57600080fd5b505af11580156112a3573d6000803e3d6000fd5b505050506040513d601f19601f820116820180604052508101906112c79190611e0e565b6040516112d794939291906122fc565b60405180910390a15050565b600033905090565b6000603360009054906101000a900473ffffffffffffffffffffffffffffffffffffffff16905081603360006101000a81548173ffffffffffffffffffffffffffffffffffffffff021916908373ffffffffffffffffffffffffffffffffffffffff1602179055508173ffffffffffffffffffffffffffffffffffffffff168173ffffffffffffffffffffffffffffffffffffffff167f8be0079c531659141344cd1fd0a4f28419497f9722a3daafe3b4186f6b6457e060405160405180910390a35050565b60006113e0670de0b6b3a76400006113d284866116a190919063ffffffff16565b6116b790919063ffffffff16565b905092915050565b60008060019054906101000a900460ff161561145f5760018260ff161480156114175750611415306116cd565b155b611456576040517f08c379a000000000000000000000000000000000000000000000000000000000815260040161144d90612181565b60405180910390fd5b600090506114d3565b8160ff1660008054906101000a900460ff1660ff16106114b4576040517f08c379a00000000000000000000000000000000000000000000000000000000081526004016114ab90612181565b60405180910390fd5b816000806101000a81548160ff021916908360ff160217905550600190505b919050565b600060019054906101000a900460ff16611527576040517f08c379a000000000000000000000000000000000000000000000000000000000815260040161151e90612221565b60405180910390fd5b61152f6116f0565b565b600061153d60016113e8565b90508015611561576001600060016101000a81548160ff0219169083151502179055505b81606560006101000a81548173ffffffffffffffffffffffffffffffffffffffff021916908373ffffffffffffffffffffffffffffffffffffffff16021790555080156115fb5760008060016101000a81548160ff0219169083151502179055507f7f26b83ff96e1f2b6a682f133852f6798a09c465da95921460cefb384740249860016040516115f29190612104565b60405180910390a15b5050565b61164c8282606560009054906101000a900473ffffffffffffffffffffffffffffffffffffffff1673ffffffffffffffffffffffffffffffffffffffff166117519092919063ffffffff16565b5050565b61169d8282606560009054906101000a900473ffffffffffffffffffffffffffffffffffffffff1673ffffffffffffffffffffffffffffffffffffffff166117d79092919063ffffffff16565b5050565b600081836116af9190612450565b905092915050565b600081836116c5919061241f565b905092915050565b6000808273ffffffffffffffffffffffffffffffffffffffff163b119050919050565b600060019054906101000a900460ff1661173f576040517f08c379a000000000000000000000000000000000000000000000000000000000815260040161173690612221565b60405180910390fd5b61174f61174a6112e3565b6112eb565b565b6117d28363a9059cbb60e01b84846040516024016117709291906120a5565b604051602081830303815290604052907bffffffffffffffffffffffffffffffffffffffffffffffffffffffff19166020820180517bffffffffffffffffffffffffffffffffffffffffffffffffffffffff83818316178352505050506118f8565b505050565b6000818473ffffffffffffffffffffffffffffffffffffffff1663dd62ed3e30866040518363ffffffff1660e01b815260040161181592919061207c565b60206040518083038186803b15801561182d57600080fd5b505afa158015611841573d6000803e3d6000fd5b505050506040513d601f19601f820116820180604052508101906118659190611e0e565b61186f91906123c9565b90506118f28463095ea7b360e01b85846040516024016118909291906120a5565b604051602081830303815290604052907bffffffffffffffffffffffffffffffffffffffffffffffffffffffff19166020820180517bffffffffffffffffffffffffffffffffffffffffffffffffffffffff83818316178352505050506118f8565b50505050565b600061195a826040518060400160405280602081526020017f5361666545524332303a206c6f772d6c6576656c2063616c6c206661696c65648152508573ffffffffffffffffffffffffffffffffffffffff166119bf9092919063ffffffff16565b90506000815111156119ba578080602001905181019061197a9190611cda565b6119b9576040517f08c379a00000000000000000000000000000000000000000000000000000000081526004016119b090612241565b60405180910390fd5b5b505050565b60606119ce84846000856119d7565b90509392505050565b606082471015611a1c576040517f08c379a0000000000000000000000000000000000000000000000000000000008152600401611a1390612161565b60405180910390fd5b611a25856116cd565b611a64576040517f08c379a0000000000000000000000000000000000000000000000000000000008152600401611a5b90612201565b60405180910390fd5b6000808673ffffffffffffffffffffffffffffffffffffffff168587604051611a8d919061204a565b60006040518083038185875af1925050503d8060008114611aca576040519150601f19603f3d011682016040523d82523d6000602084013e611acf565b606091505b5091509150611adf828286611aeb565b92505050949350505050565b60608315611afb57829050611b4b565b600083511115611b0e5782518084602001fd5b816040517f08c379a0000000000000000000000000000000000000000000000000000000008152600401611b42919061211f565b60405180910390fd5b9392505050565b828054611b5e906125cf565b90600052602060002090601f016020900481019282611b805760008555611bc7565b82601f10611b9957805160ff1916838001178555611bc7565b82800160010185558215611bc7579182015b82811115611bc6578251825591602001919060010190611bab565b5b509050611bd49190611bd8565b5090565b5b80821115611bf1576000816000905550600101611bd9565b5090565b6000611c08611c0384612366565b612341565b905082815260208101848484011115611c2057600080fd5b611c2b84828561258d565b509392505050565b600081359050611c428161297d565b92915050565b600081519050611c5781612994565b92915050565b600082601f830112611c6e57600080fd5b8135611c7e848260208601611bf5565b91505092915050565b600081359050611c96816129ab565b92915050565b600081519050611cab816129ab565b92915050565b600060208284031215611cc357600080fd5b6000611cd184828501611c33565b91505092915050565b600060208284031215611cec57600080fd5b6000611cfa84828501611c48565b91505092915050565b600080600060608486031215611d1857600080fd5b600084013567ffffffffffffffff811115611d3257600080fd5b611d3e86828701611c5d565b9350506020611d4f86828701611c33565b9250506040611d6086828701611c33565b9150509250925092565b60008060008060808587031215611d8057600080fd5b600085013567ffffffffffffffff811115611d9a57600080fd5b611da687828801611c5d565b9450506020611db787828801611c33565b9350506040611dc887828801611c33565b9250506060611dd987828801611c33565b91505092959194509250565b600060208284031215611df757600080fd5b6000611e0584828501611c87565b91505092915050565b600060208284031215611e2057600080fd5b6000611e2e84828501611c9c565b91505092915050565b611e40816124de565b82525050565b6000611e5182612397565b611e5b81856123ad565b9350611e6b81856020860161259c565b80840191505092915050565b611e8081612533565b82525050565b611e8f81612557565b82525050565b611e9e8161257b565b82525050565b6000611eaf826123a2565b611eb981856123b8565b9350611ec981856020860161259c565b611ed2816126ee565b840191505092915050565b6000611eea6026836123b8565b9150611ef5826126ff565b604082019050919050565b6000611f0d6026836123b8565b9150611f188261274e565b604082019050919050565b6000611f30602e836123b8565b9150611f3b8261279d565b604082019050919050565b6000611f536020836123b8565b9150611f5e826127ec565b602082019050919050565b6000611f766021836123b8565b9150611f8182612815565b604082019050919050565b6000611f99601f836123b8565b9150611fa482612864565b602082019050919050565b6000611fbc601d836123b8565b9150611fc78261288d565b602082019050919050565b6000611fdf602b836123b8565b9150611fea826128b6565b604082019050919050565b6000612002602a836123b8565b915061200d82612905565b604082019050919050565b6000612025601f836123b8565b915061203082612954565b602082019050919050565b6120448161251c565b82525050565b60006120568284611e46565b915081905092915050565b60006020820190506120766000830184611e37565b92915050565b60006040820190506120916000830185611e37565b61209e6020830184611e37565b9392505050565b60006040820190506120ba6000830185611e37565b6120c7602083018461203b565b9392505050565b60006020820190506120e36000830184611e77565b92915050565b60006020820190506120fe6000830184611e86565b92915050565b60006020820190506121196000830184611e95565b92915050565b600060208201905081810360008301526121398184611ea4565b905092915050565b6000602082019050818103600083015261215a81611edd565b9050919050565b6000602082019050818103600083015261217a81611f00565b9050919050565b6000602082019050818103600083015261219a81611f23565b9050919050565b600060208201905081810360008301526121ba81611f46565b9050919050565b600060208201905081810360008301526121da81611f69565b9050919050565b600060208201905081810360008301526121fa81611f8c565b9050919050565b6000602082019050818103600083015261221a81611faf565b9050919050565b6000602082019050818103600083015261223a81611fd2565b9050919050565b6000602082019050818103600083015261225a81611ff5565b9050919050565b6000602082019050818103600083015261227a81612018565b9050919050565b6000602082019050612296600083018461203b565b92915050565b60006040820190506122b1600083018561203b565b6122be602083018461203b565b9392505050565b60006060820190506122da600083018661203b565b6122e7602083018561203b565b6122f4604083018461203b565b949350505050565b6000608082019050612311600083018761203b565b61231e602083018661203b565b61232b604083018561203b565b612338606083018461203b565b95945050505050565b600061234b61235c565b90506123578282612601565b919050565b6000604051905090565b600067ffffffffffffffff821115612381576123806126bf565b5b61238a826126ee565b9050602081019050919050565b600081519050919050565b600081519050919050565b600081905092915050565b600082825260208201905092915050565b60006123d48261251c565b91506123df8361251c565b9250827fffffffffffffffffffffffffffffffffffffffffffffffffffffffffffffffff0382111561241457612413612632565b5b828201905092915050565b600061242a8261251c565b91506124358361251c565b92508261244557612444612661565b5b828204905092915050565b600061245b8261251c565b91506124668361251c565b9250817fffffffffffffffffffffffffffffffffffffffffffffffffffffffffffffffff048311821515161561249f5761249e612632565b5b828202905092915050565b60006124b58261251c565b91506124c08361251c565b9250828210156124d3576124d2612632565b5b828203905092915050565b60006124e9826124fc565b9050919050565b60008115159050919050565b600073ffffffffffffffffffffffffffffffffffffffff82169050919050565b6000819050919050565b600060ff82169050919050565b600061253e82612545565b9050919050565b6000612550826124fc565b9050919050565b600061256282612569565b9050919050565b6000612574826124fc565b9050919050565b600061258682612526565b9050919050565b82818337600083830152505050565b60005b838110156125ba57808201518184015260208101905061259f565b838111156125c9576000848401525b50505050565b600060028204905060018216806125e757607f821691505b602082108114156125fb576125fa612690565b5b50919050565b61260a826126ee565b810181811067ffffffffffffffff82111715612629576126286126bf565b5b80604052505050565b7f4e487b7100000000000000000000000000000000000000000000000000000000600052601160045260246000fd5b7f4e487b7100000000000000000000000000000000000000000000000000000000600052601260045260246000fd5b7f4e487b7100000000000000000000000000000000000000000000000000000000600052602260045260246000fd5b7f4e487b7100000000000000000000000000000000000000000000000000000000600052604160045260246000fd5b6000601f19601f8301169050919050565b7f4f776e61626c653a206e6577206f776e657220697320746865207a65726f206160008201527f6464726573730000000000000000000000000000000000000000000000000000602082015250565b7f416464726573733a20696e73756666696369656e742062616c616e636520666f60008201527f722063616c6c0000000000000000000000000000000000000000000000000000602082015250565b7f496e697469616c697a61626c653a20636f6e747261637420697320616c72656160008201527f647920696e697469616c697a6564000000000000000000000000000000000000602082015250565b7f4f776e61626c653a2063616c6c6572206973206e6f7420746865206f776e6572600082015250565b7f4e6f74206861766520656e6f756768206d6f6e657920746f207769746864726160008201527f7700000000000000000000000000000000000000000000000000000000000000602082015250565b7f53747261746567793a2063616c6c6572206973206e6f742061207661756c7400600082015250565b7f416464726573733a2063616c6c20746f206e6f6e2d636f6e7472616374000000600082015250565b7f496e697469616c697a61626c653a20636f6e7472616374206973206e6f74206960008201527f6e697469616c697a696e67000000000000000000000000000000000000000000602082015250565b7f5361666545524332303a204552433230206f7065726174696f6e20646964206e60008201527f6f74207375636365656400000000000000000000000000000000000000000000602082015250565b7f5265656e7472616e637947756172643a207265656e7472616e742063616c6c00600082015250565b612986816124de565b811461299157600080fd5b50565b61299d816124f0565b81146129a857600080fd5b50565b6129b48161251c565b81146129bf57600080fd5b5056fea2646970667358221220e18fb13622b245aae782ced4c034f3a7aeae3a1dfbcc4e4b8fbbf1fc1e4c202664736f6c63430008040033","abi":[{"anonymous":false,"inputs":[{"indexed":false,"internalType":"uint256","name":"amount","type":"uint256"}],"name":"Borrowed","type":"event"},{"anonymous":false,"inputs":[{"indexed":false,"internalType":"uint256","name":"amount","type":"uint256"},{"indexed":false,"internalType":"uint256","name":"availableAssets","type":"uint256"}],"name":"DuringWithdraw","type":"event"},{"anonymous":false,"inputs":[{"indexed":false,"internalType":"uint8","name":"version","type":"uint8"}],"name":"Initialized","type":"event"},{"anonymous":false,"inputs":[{"indexed":true,"internalType":"address","name":"previousOwner","type":"address"},{"indexed":true,"internalType":"address","name":"newOwner","type":"address"}],"name":"OwnershipTransferred","type":"event"},{"anonymous":false,"inputs":[{"indexed":false,"internalType":"uint256","name":"amount","type":"uint256"},{"indexed":false,"internalType":"uint256","name":"balanceBeforeMint","type":"uint256"},{"indexed":false,"internalType":"uint256","name":"balanceAfterMint","type":"uint256"},{"indexed":false,"internalType":"uint256","name":"balanceOfUnderlying","type":"uint256"}],"name":"PutInStake","type":"event"},{"anonymous":false,"inputs":[{"indexed":false,"internalType":"uint256","name":"amount","type":"uint256"},{"indexed":false,"internalType":"uint256","name":"balance","type":"uint256"}],"name":"Redeem","type":"event"},{"anonymous":false,"inputs":[{"indexed":false,"internalType":"uint256","name":"amount","type":"uint256"}],"name":"Redeemed","type":"event"},{"anonymous":false,"inputs":[{"indexed":false,"internalType":"uint256","name":"amount","type":"uint256"}],"name":"ReturnToLender","type":"event"},{"inputs":[{"internalType":"string","name":"_name","type":"string"},{"internalType":"address","name":"wantAddress","type":"address"},{"internalType":"address","name":"lenderAddress","type":"address"}],"name":"__BaseStrategy__init","outputs":[],"stateMutability":"nonpayable","type":"function"},{"inputs":[],"name":"_lender","outputs":[{"internalType":"contract ILender","name":"","type":"address"}],"stateMutability":"view","type":"function"},{"inputs":[],"name":"assets","outputs":[{"internalType":"contract IERC20Upgradeable","name":"","type":"address"}],"stateMutability":"view","type":"function"},{"inputs":[],"name":"balanceOfAssetsInStake","outputs":[{"internalType":"uint256","name":"","type":"uint256"},{"internalType":"uint256","name":"","type":"uint256"},{"internalType":"uint256","name":"","type":"uint256"}],"stateMutability":"view","type":"function"},{"inputs":[],"name":"directBalanceOfAssetsInStake","outputs":[{"internalType":"uint256","name":"","type":"uint256"}],"stateMutability":"nonpayable","type":"function"},{"inputs":[{"internalType":"string","name":"_name","type":"string"},{"internalType":"address","name":"wantTokenAddress","type":"address"},{"internalType":"address","name":"lenderAddress","type":"address"},{"internalType":"address","name":"stakingAddress","type":"address"}],"name":"initialize","outputs":[],"stateMutability":"nonpayable","type":"function"},{"inputs":[],"name":"lender","outputs":[{"internalType":"address","name":"","type":"address"}],"stateMutability":"view","type":"function"},{"inputs":[],"name":"name","outputs":[{"internalType":"string","name":"","type":"string"}],"stateMutability":"view","type":"function"},{"inputs":[],"name":"owner","outputs":[{"internalType":"address","name":"","type":"address"}],"stateMutability":"view","type":"function"},{"inputs":[],"name":"renounceOwnership","outputs":[],"stateMutability":"nonpayable","type":"function"},{"inputs":[{"internalType":"address","name":"lender","type":"address"}],"name":"setLender","outputs":[],"stateMutability":"nonpayable","type":"function"},{"inputs":[],"name":"totalAssets","outputs":[{"internalType":"uint256","name":"","type":"uint256"}],"stateMutability":"view","type":"function"},{"inputs":[{"internalType":"address","name":"newOwner","type":"address"}],"name":"transferOwnership","outputs":[],"stateMutability":"nonpayable","type":"function"},{"inputs":[],"name":"want","outputs":[{"internalType":"address","name":"","type":"address"}],"stateMutability":"view","type":"function"},{"inputs":[{"internalType":"uint256","name":"amount","type":"uint256"}],"name":"withdraw","outputs":[{"internalType":"uint256","name":"","type":"uint256"}],"stateMutability":"nonpayable","type":"function"},{"inputs":[],"name":"work","outputs":[],"stateMutability":"nonpayable","type":"function"}]}