{
	"data": {
		"bytecode": {
			"linkReferences": {},
			"object": "608060405234801561001057600080fd5b5061729d80620000216000396000f3fe60806040526004361061037a5760003560e01c80637a27d9f6116101d1578063b2a02ff111610102578063dd62ed3e116100a0578063f3fdb15a1161006f578063f3fdb15a14610d3c578063f77c479114610d67578063f8f9da2814610d92578063fc4d33f914610dbd576103df565b8063dd62ed3e14610c8f578063e30c397814610ccc578063e597461914610cf7578063f2b3abbd14610d13576103df565b8063c5ebeaec116100dc578063c5ebeaec14610be9578063c9f30e5314610c12578063d148279114610c3b578063d505accf14610c66576103df565b8063b2a02ff114610b6c578063b3efd5b414610b95578063bd6d894d14610bbe576103df565b806395dd91931161016f578063a9059cbb11610149578063a9059cbb14610abd578063aa5af0fd14610afa578063aae40a2a14610b25578063ae9d70b014610b41576103df565b806395dd919314610a1a5780639629417814610a57578063a457c2d714610a80576103df565b80638da5cb5b116101ab5780638da5cb5b146109705780638f15b4141461099b5780638f840ddd146109c457806395d89b41146109ef576103df565b80637a27d9f6146108df5780637ecebe001461090a57806383de424e14610947576103df565b806339509351116102ab5780636a627842116102495780636f307dc3116102235780636f307dc31461082157806370a082311461084c57806373acee981461088957806374427937146108b4576103df565b80636a627842146107b15780636c540baf146107cd5780636e96dfd7146107f8576103df565b806347bd37181161028557806347bd3718146107285780634e4d9fea14610753578063508fe21f1461075d578063621fd50714610786576103df565b806339509351146106835780633af9e669146106c05780633b1d21a2146106fd576103df565b80631e9a69501161031857806330adf81f116102f257806330adf81f146105c4578063313ce567146105ef5780633644e5151461061a57806337d3361814610645576103df565b80631e9a69501461053557806323b872dd1461055e578063269aafee1461059b576103df565b806317bfdfbc1161035457806317bfdfbc1461047757806318160ddd146104b4578063182df0f5146104df578063197523f81461050a576103df565b806306fdde03146103e4578063095ea7b31461040f5780630c7d5cd81461044c576103df565b366103df5761039e3373ffffffffffffffffffffffffffffffffffffffff16610dd4565b6103dd576040517f08c379a00000000000000000000000000000000000000000000000000000000081526004016103d4906162c4565b60405180910390fd5b005b600080fd5b3480156103f057600080fd5b506103f9610df7565b6040516104069190615f22565b60405180910390f35b34801561041b57600080fd5b5061043660048036038101906104319190615315565b610e85565b6040516104439190615d42565b60405180910390f35b34801561045857600080fd5b50610461610e9c565b60405161046e9190616304565b60405180910390f35b34801561048357600080fd5b5061049e60048036038101906104999190615186565b610ea2565b6040516104ab9190616304565b60405180910390f35b3480156104c057600080fd5b506104c9610f11565b6040516104d69190616304565b60405180910390f35b3480156104eb57600080fd5b506104f4610f17565b6040516105019190616304565b60405180910390f35b34801561051657600080fd5b5061051f610f26565b60405161052c9190616304565b60405180910390f35b34801561054157600080fd5b5061055c60048036038101906105579190615315565b610f2c565b005b34801561056a57600080fd5b5061058560048036038101906105809190615220565b610fee565b6040516105929190615d42565b60405180910390f35b3480156105a757600080fd5b506105c260048036038101906105bd919061547b565b6110eb565b005b3480156105d057600080fd5b506105d961125d565b6040516105e69190615d5d565b60405180910390f35b3480156105fb57600080fd5b50610604611284565b60405161061191906163e0565b60405180910390f35b34801561062657600080fd5b5061062f611297565b60405161063c9190615d5d565b60405180910390f35b34801561065157600080fd5b5061066c60048036038101906106679190615186565b61129d565b60405161067a92919061631f565b60405180910390f35b34801561068f57600080fd5b506106aa60048036038101906106a59190615315565b61132f565b6040516106b79190615d42565b60405180910390f35b3480156106cc57600080fd5b506106e760048036038101906106e29190615186565b6113d4565b6040516106f49190616304565b60405180910390f35b34801561070957600080fd5b50610712611437565b60405161071f9190616304565b60405180910390f35b34801561073457600080fd5b5061073d611446565b60405161074a9190616304565b60405180910390f35b61075b61144c565b005b34801561076957600080fd5b50610784600480360381019061077f919061547b565b61155f565b005b34801561079257600080fd5b5061079b6116d1565b6040516107a89190615d42565b60405180910390f35b6107cb60048036038101906107c69190615186565b6116da565b005b3480156107d957600080fd5b506107e2611797565b6040516107ef9190616304565b60405180910390f35b34801561080457600080fd5b5061081f600480360381019061081a91906151b3565b61179d565b005b34801561082d57600080fd5b506108366119bd565b6040516108439190615ec3565b60405180910390f35b34801561085857600080fd5b50610873600480360381019061086e9190615186565b6119e3565b6040516108809190616304565b60405180910390f35b34801561089557600080fd5b5061089e6119fb565b6040516108ab9190616304565b60405180910390f35b3480156108c057600080fd5b506108c9611a0d565b6040516108d69190615d42565b60405180910390f35b3480156108eb57600080fd5b506108f4611a12565b6040516109019190616304565b60405180910390f35b34801561091657600080fd5b50610931600480360381019061092c9190615186565b611a18565b60405161093e9190616304565b60405180910390f35b34801561095357600080fd5b5061096e60048036038101906109699190615382565b611a30565b005b34801561097c57600080fd5b50610985611c22565b6040516109929190615a2f565b60405180910390f35b3480156109a757600080fd5b506109c260048036038101906109bd91906153dc565b611c48565b005b3480156109d057600080fd5b506109d9611da4565b6040516109e69190616304565b60405180910390f35b3480156109fb57600080fd5b50610a04611daa565b604051610a119190615f22565b60405180910390f35b348015610a2657600080fd5b50610a416004803603810190610a3c9190615186565b611e38565b604051610a4e9190616304565b60405180910390f35b348015610a6357600080fd5b50610a7e6004803603810190610a799190615315565b611e4a565b005b348015610a8c57600080fd5b50610aa76004803603810190610aa29190615315565b611f0c565b604051610ab49190615d42565b60405180910390f35b348015610ac957600080fd5b50610ae46004803603810190610adf9190615315565b611fb1565b604051610af19190615d42565b60405180910390f35b348015610b0657600080fd5b50610b0f61201b565b604051610b1c9190616304565b60405180910390f35b610b3f6004803603810190610b3a91906151e0565b612021565b005b348015610b4d57600080fd5b50610b566120e0565b604051610b639190616304565b60405180910390f35b348015610b7857600080fd5b50610b936004803603810190610b8e9190615220565b61216d565b005b348015610ba157600080fd5b50610bbc6004803603810190610bb7919061547b565b6121d3565b005b348015610bca57600080fd5b50610bd36123b3565b604051610be09190616304565b60405180910390f35b348015610bf557600080fd5b50610c106004803603810190610c0b919061547b565b61241f565b005b348015610c1e57600080fd5b50610c396004803603810190610c34919061547b565b6124cd565b005b348015610c4757600080fd5b50610c5061263f565b604051610c5d9190615d42565b60405180910390f35b348015610c7257600080fd5b50610c8d6004803603810190610c889190615273565b612650565b005b348015610c9b57600080fd5b50610cb66004803603810190610cb191906151e0565b6128c3565b604051610cc39190616304565b60405180910390f35b348015610cd857600080fd5b50610ce16128e8565b604051610cee9190615a2f565b60405180910390f35b610d116004803603810190610d0c9190615186565b61290e565b005b348015610d1f57600080fd5b50610d3a6004803603810190610d3591906153af565b612a22565b005b348015610d4857600080fd5b50610d51612c14565b604051610d5e9190615ede565b60405180910390f35b348015610d7357600080fd5b50610d7c612c3a565b604051610d899190615e7f565b60405180910390f35b348015610d9e57600080fd5b50610da7612c60565b604051610db49190616304565b60405180910390f35b348015610dc957600080fd5b50610dd2612d21565b005b6000808273ffffffffffffffffffffffffffffffffffffffff163b119050919050565b606a8054610e04906166d0565b80601f0160208091040260200160405190810160405280929190818152602001828054610e30906166d0565b8015610e7d5780601f10610e5257610100808354040283529160200191610e7d565b820191906000526020600020905b815481529060010190602001808311610e6057829003601f168201915b505050505081565b6000610e92338484612fa0565b6001905092915050565b609f5481565b600060026001541415610eea576040517f08c379a0000000000000000000000000000000000000000000000000000000008152600401610ee1906162a4565b60405180910390fd5b6002600181905550610efa61316b565b610f038261342b565b905060018081905550919050565b60695481565b6000610f216134c6565b905090565b60a05481565b60026001541415610f72576040517f08c379a0000000000000000000000000000000000000000000000000000000008152600401610f69906162a4565b60405180910390fd5b6002600181905550610f8261316b565b4360a65414610fc6576040517f08c379a0000000000000000000000000000000000000000000000000000000008152600401610fbd906160a4565b60405180910390fd5b610fe38282610fd36134c6565b84610fde91906164ff565b61351e565b600180819055505050565b600060026001541415611036576040517f08c379a000000000000000000000000000000000000000000000000000000000815260040161102d906162a4565b60405180910390fd5b60026001819055506110d0843384606860008973ffffffffffffffffffffffffffffffffffffffff1673ffffffffffffffffffffffffffffffffffffffff16815260200190815260200160002060003373ffffffffffffffffffffffffffffffffffffffff1673ffffffffffffffffffffffffffffffffffffffff168152602001908152602001600020546110cb9190616559565b612fa0565b6110db8484846136db565b9050600180819055509392505050565b3373ffffffffffffffffffffffffffffffffffffffff16603360009054906101000a900473ffffffffffffffffffffffffffffffffffffffff1673ffffffffffffffffffffffffffffffffffffffff161461117b576040517f08c379a000000000000000000000000000000000000000000000000000000000815260040161117290616124565b60405180910390fd5b61118361316b565b4360a654146111c7576040517f08c379a00000000000000000000000000000000000000000000000000000000081526004016111be906160a4565b60405180910390fd5b670de0b6b3a7640000811115611212576040517f08c379a000000000000000000000000000000000000000000000000000000000815260040161120990616084565b60405180910390fd5b600060a15490508160a1819055507f1f6917c8223f142d2549d7531b9897b963f67c4cd1d266e9771080a608ebe188818360405161125192919061631f565b60405180910390a15050565b7f576144ed657c8304561e56ca632e17751956250114636e8c01f64a7f2c6d98cf60001b81565b606c60009054906101000a900460ff1681565b60aa5481565b60008060a960008473ffffffffffffffffffffffffffffffffffffffff1673ffffffffffffffffffffffffffffffffffffffff1681526020019081526020016000206000015460a960008573ffffffffffffffffffffffffffffffffffffffff1673ffffffffffffffffffffffffffffffffffffffff1681526020019081526020016000206001015491509150915091565b60006113ca33846113c585606860003373ffffffffffffffffffffffffffffffffffffffff1673ffffffffffffffffffffffffffffffffffffffff16815260200190815260200160002060008973ffffffffffffffffffffffffffffffffffffffff1673ffffffffffffffffffffffffffffffffffffffff1681526020019081526020016000205461388890919063ffffffff16565b612fa0565b6001905092915050565b60006113de61316b565b606760008373ffffffffffffffffffffffffffffffffffffffff1673ffffffffffffffffffffffffffffffffffffffff168152602001908152602001600020546114266134c6565b61143091906164ff565b9050919050565b600061144161389e565b905090565b60a75481565b60026001541415611492576040517f08c379a0000000000000000000000000000000000000000000000000000000008152600401611489906162a4565b60405180910390fd5b60026001819055503460ac819055506114a961316b565b4360a654146114ed576040517f08c379a00000000000000000000000000000000000000000000000000000000081526004016114e4906160a4565b60405180910390fd5b6114f83333346138b3565b50600060ac54111561154e573373ffffffffffffffffffffffffffffffffffffffff166108fc60ac549081150290604051600060405180830381858888f1935050505015801561154c573d6000803e3d6000fd5b505b600060ac8190555060018081905550565b3373ffffffffffffffffffffffffffffffffffffffff16603360009054906101000a900473ffffffffffffffffffffffffffffffffffffffff1673ffffffffffffffffffffffffffffffffffffffff16146115ef576040517f08c379a00000000000000000000000000000000000000000000000000000000081526004016115e690616124565b60405180910390fd5b6115f761316b565b4360a6541461163b576040517f08c379a0000000000000000000000000000000000000000000000000000000008152600401611632906160a4565b60405180910390fd5b670de0b6b3a7640000811115611686576040517f08c379a000000000000000000000000000000000000000000000000000000000815260040161167d90616144565b60405180910390fd5b600060a05490508160a0819055507fcc8d29bd7a6ccb34210e5349873398367afa955e6b745621430e8152677d7c7581836040516116c592919061631f565b60405180910390a15050565b60006001905090565b60026001541415611720576040517f08c379a0000000000000000000000000000000000000000000000000000000008152600401611717906162a4565b60405180910390fd5b60026001819055503460ac8190555061173761316b565b4360a6541461177b576040517f08c379a0000000000000000000000000000000000000000000000000000000008152600401611772906160a4565b60405180910390fd5b6117858134613ae3565b600060ac819055506001808190555050565b60a65481565b3373ffffffffffffffffffffffffffffffffffffffff16603360009054906101000a900473ffffffffffffffffffffffffffffffffffffffff1673ffffffffffffffffffffffffffffffffffffffff161461182d576040517f08c379a000000000000000000000000000000000000000000000000000000000815260040161182490616124565b60405180910390fd5b600073ffffffffffffffffffffffffffffffffffffffff168173ffffffffffffffffffffffffffffffffffffffff16141580156118b85750603460009054906101000a900473ffffffffffffffffffffffffffffffffffffffff1673ffffffffffffffffffffffffffffffffffffffff168173ffffffffffffffffffffffffffffffffffffffff1614155b6118f7576040517f08c379a00000000000000000000000000000000000000000000000000000000081526004016118ee90615fa4565b60405180910390fd5b6000603460009054906101000a900473ffffffffffffffffffffffffffffffffffffffff16905081603460006101000a81548173ffffffffffffffffffffffffffffffffffffffff021916908373ffffffffffffffffffffffffffffffffffffffff1602179055508173ffffffffffffffffffffffffffffffffffffffff168173ffffffffffffffffffffffffffffffffffffffff167fb3d55174552271a4f1aaf36b72f50381e892171636b3fb5447fe00e995e7a37b60405160405180910390a35050565b60a260009054906101000a900473ffffffffffffffffffffffffffffffffffffffff1681565b60676020528060005260406000206000915090505481565b6000611a0561316b565b60a754905090565b600181565b60a15481565b60ab6020528060005260406000206000915090505481565b3373ffffffffffffffffffffffffffffffffffffffff16603360009054906101000a900473ffffffffffffffffffffffffffffffffffffffff1673ffffffffffffffffffffffffffffffffffffffff1614611ac0576040517f08c379a0000000000000000000000000000000000000000000000000000000008152600401611ab790616124565b60405180910390fd5b600060a460009054906101000a900473ffffffffffffffffffffffffffffffffffffffff1690508173ffffffffffffffffffffffffffffffffffffffff16634e1647fb6040518163ffffffff1660e01b815260040160206040518083038186803b158015611b2d57600080fd5b505afa158015611b41573d6000803e3d6000fd5b505050506040513d601f19601f82011682018060405250810190611b659190615355565b611ba4576040517f08c379a0000000000000000000000000000000000000000000000000000000008152600401611b9b90615f64565b60405180910390fd5b8160a460006101000a81548173ffffffffffffffffffffffffffffffffffffffff021916908373ffffffffffffffffffffffffffffffffffffffff1602179055507ff9b6a28700579d5c8fab50f0ac2dcaa52109b85c369c4f511fcc873330ab6cbb8183604051611c16929190615e9a565b60405180910390a15050565b603360009054906101000a900473ffffffffffffffffffffffffffffffffffffffff1681565b60008054906101000a900460ff1615611c96576040517f08c379a0000000000000000000000000000000000000000000000000000000008152600401611c8d906160c4565b60405180910390fd5b600073ffffffffffffffffffffffffffffffffffffffff168273ffffffffffffffffffffffffffffffffffffffff161415611d06576040517f08c379a0000000000000000000000000000000000000000000000000000000008152600401611cfd90616184565b60405180910390fd5b600073ffffffffffffffffffffffffffffffffffffffff168173ffffffffffffffffffffffffffffffffffffffff161415611d76576040517f08c379a0000000000000000000000000000000000000000000000000000000008152600401611d6d90615f84565b60405180910390fd5b611d84848460128585613caf565b60016000806101000a81548160ff02191690831515021790555050505050565b60a85481565b606b8054611db7906166d0565b80601f0160208091040260200160405190810160405280929190818152602001828054611de3906166d0565b8015611e305780601f10611e0557610100808354040283529160200191611e30565b820191906000526020600020905b815481529060010190602001808311611e1357829003601f168201915b505050505081565b6000611e438261342b565b9050919050565b60026001541415611e90576040517f08c379a0000000000000000000000000000000000000000000000000000000008152600401611e87906162a4565b60405180910390fd5b6002600181905550611ea061316b565b4360a65414611ee4576040517f08c379a0000000000000000000000000000000000000000000000000000000008152600401611edb906160a4565b60405180910390fd5b611f0182611ef06134c6565b83611efb91906164ce565b8361351e565b600180819055505050565b6000611fa73384611fa285606860003373ffffffffffffffffffffffffffffffffffffffff1673ffffffffffffffffffffffffffffffffffffffff16815260200190815260200160002060008973ffffffffffffffffffffffffffffffffffffffff1673ffffffffffffffffffffffffffffffffffffffff16815260200190815260200160002054613e2590919063ffffffff16565b612fa0565b6001905092915050565b600060026001541415611ff9576040517f08c379a0000000000000000000000000000000000000000000000000000000008152600401611ff0906162a4565b60405180910390fd5b600260018190555061200c3384846136db565b90506001808190555092915050565b60a55481565b60026001541415612067576040517f08c379a000000000000000000000000000000000000000000000000000000000815260040161205e906162a4565b60405180910390fd5b60026001819055503460ac8190555061207e61316b565b4360a654146120c2576040517f08c379a00000000000000000000000000000000000000000000000000000000081526004016120b9906160a4565b60405180910390fd5b6120cd823483613e3b565b600060ac81905550600180819055505050565b6000806120eb6134c6565b6069546120f891906164ff565b9050600081141561210d57600091505061216a565b6000670de0b6b3a764000060a75461212591906164ff565b9050818161213391906164ce565b609f54670de0b6b3a76400006121499190616559565b612151612c60565b61215b91906164ff565b61216591906164ff565b925050505b90565b600260015414156121b3576040517f08c379a00000000000000000000000000000000000000000000000000000000081526004016121aa906162a4565b60405180910390fd5b60026001819055506121c73384848461431d565b60018081905550505050565b3373ffffffffffffffffffffffffffffffffffffffff16603360009054906101000a900473ffffffffffffffffffffffffffffffffffffffff1673ffffffffffffffffffffffffffffffffffffffff1614612263576040517f08c379a000000000000000000000000000000000000000000000000000000000815260040161225a90616124565b60405180910390fd5b61226b61316b565b4360a654146122af576040517f08c379a00000000000000000000000000000000000000000000000000000000081526004016122a6906160a4565b60405180910390fd5b60a85481111580156122c857506122c461389e565b8111155b612307576040517f08c379a00000000000000000000000000000000000000000000000000000000081526004016122fe90616164565b60405180910390fd5b600060a85490508160a85461231c9190616559565b60a88190555061234e603360009054906101000a900473ffffffffffffffffffffffffffffffffffffffff16836144c7565b7f2e8843ddc3123732d720f1cb17a6e81d71d5bb90a346f13498b87c5639d47440603360009054906101000a900473ffffffffffffffffffffffffffffffffffffffff168360a854846040516123a79493929190615a4a565b60405180910390a15050565b6000600260015414156123fb576040517f08c379a00000000000000000000000000000000000000000000000000000000081526004016123f2906162a4565b60405180910390fd5b600260018190555061240b61316b565b6124136134c6565b90506001808190555090565b60026001541415612465576040517f08c379a000000000000000000000000000000000000000000000000000000000815260040161245c906162a4565b60405180910390fd5b600260018190555061247561316b565b4360a654146124b9576040517f08c379a00000000000000000000000000000000000000000000000000000000081526004016124b0906160a4565b60405180910390fd5b6124c33382614512565b6001808190555050565b3373ffffffffffffffffffffffffffffffffffffffff16603360009054906101000a900473ffffffffffffffffffffffffffffffffffffffff1673ffffffffffffffffffffffffffffffffffffffff161461255d576040517f08c379a000000000000000000000000000000000000000000000000000000000815260040161255490616124565b60405180910390fd5b61256561316b565b4360a654146125a9576040517f08c379a00000000000000000000000000000000000000000000000000000000081526004016125a0906160a4565b60405180910390fd5b670de0b6b3a76400008111156125f4576040517f08c379a00000000000000000000000000000000000000000000000000000000081526004016125eb90616064565b60405180910390fd5b6000609f54905081609f819055507f619970c7b73e9bc2b93e0fc379d50dbf7eced564f397fba395b2e7efc0b4894d818360405161263392919061631f565b60405180910390a15050565b600061264961316b565b6001905090565b42841015612693576040517f08c379a000000000000000000000000000000000000000000000000000000000815260040161268a90616284565b60405180910390fd5b600060ab60008973ffffffffffffffffffffffffffffffffffffffff1673ffffffffffffffffffffffffffffffffffffffff168152602001908152602001600020549050600060aa547f576144ed657c8304561e56ca632e17751956250114636e8c01f64a7f2c6d98cf60001b8a8a61270a61470a565b8b878c6040516020016127239796959493929190615d78565b6040516020818303038152906040528051906020012060405160200161274a9291906159f8565b6040516020818303038152906040528051906020012090506000600182878787604051600081526020016040526040516127879493929190615e3a565b6020604051602081039080840390855afa1580156127a9573d6000803e3d6000fd5b505050602060405103519050600073ffffffffffffffffffffffffffffffffffffffff168173ffffffffffffffffffffffffffffffffffffffff161415801561281d57508973ffffffffffffffffffffffffffffffffffffffff168173ffffffffffffffffffffffffffffffffffffffff16145b61285c576040517f08c379a0000000000000000000000000000000000000000000000000000000008152600401612853906160e4565b60405180910390fd5b6001836128699190616478565b60ab60008c73ffffffffffffffffffffffffffffffffffffffff1673ffffffffffffffffffffffffffffffffffffffff168152602001908152602001600020819055506128b78a8a8a612fa0565b50505050505050505050565b6068602052816000526040600020602052806000526040600020600091509150505481565b603460009054906101000a900473ffffffffffffffffffffffffffffffffffffffff1681565b60026001541415612954576040517f08c379a000000000000000000000000000000000000000000000000000000000815260040161294b906162a4565b60405180910390fd5b60026001819055503460ac8190555061296b61316b565b4360a654146129af576040517f08c379a00000000000000000000000000000000000000000000000000000000081526004016129a6906160a4565b60405180910390fd5b6129ba3382346138b3565b50600060ac541115612a10573373ffffffffffffffffffffffffffffffffffffffff166108fc60ac549081150290604051600060405180830381858888f19350505050158015612a0e573d6000803e3d6000fd5b505b600060ac819055506001808190555050565b3373ffffffffffffffffffffffffffffffffffffffff16603360009054906101000a900473ffffffffffffffffffffffffffffffffffffffff1673ffffffffffffffffffffffffffffffffffffffff1614612ab2576040517f08c379a0000000000000000000000000000000000000000000000000000000008152600401612aa990616124565b60405180910390fd5b600060a360009054906101000a900473ffffffffffffffffffffffffffffffffffffffff1690508173ffffffffffffffffffffffffffffffffffffffff16632191f92a6040518163ffffffff1660e01b815260040160206040518083038186803b158015612b1f57600080fd5b505afa158015612b33573d6000803e3d6000fd5b505050506040513d601f19601f82011682018060405250810190612b579190615355565b612b96576040517f08c379a0000000000000000000000000000000000000000000000000000000008152600401612b8d906161e4565b60405180910390fd5b8160a360006101000a81548173ffffffffffffffffffffffffffffffffffffffff021916908373ffffffffffffffffffffffffffffffffffffffff1602179055507feb5cc99f497dc2d7106563bb080e06c9b09e3d81a38623ac4d0839575658d1fa8183604051612c08929190615ef9565b60405180910390a15050565b60a360009054906101000a900473ffffffffffffffffffffffffffffffffffffffff1681565b60a460009054906101000a900473ffffffffffffffffffffffffffffffffffffffff1681565b600060a360009054906101000a900473ffffffffffffffffffffffffffffffffffffffff1673ffffffffffffffffffffffffffffffffffffffff166315f24053612ca861389e565b60a75460a8546040518463ffffffff1660e01b8152600401612ccc93929190616348565b60206040518083038186803b158015612ce457600080fd5b505afa158015612cf8573d6000803e3d6000fd5b505050506040513d601f19601f82011682018060405250810190612d1c91906154a8565b905090565b603460009054906101000a900473ffffffffffffffffffffffffffffffffffffffff1673ffffffffffffffffffffffffffffffffffffffff163373ffffffffffffffffffffffffffffffffffffffff1614612db1576040517f08c379a0000000000000000000000000000000000000000000000000000000008152600401612da890616264565b60405180910390fd5b6000603360009054906101000a900473ffffffffffffffffffffffffffffffffffffffff1690506000603460009054906101000a900473ffffffffffffffffffffffffffffffffffffffff169050603460009054906101000a900473ffffffffffffffffffffffffffffffffffffffff16603360006101000a81548173ffffffffffffffffffffffffffffffffffffffff021916908373ffffffffffffffffffffffffffffffffffffffff1602179055506000603460006101000a81548173ffffffffffffffffffffffffffffffffffffffff021916908373ffffffffffffffffffffffffffffffffffffffff160217905550603360009054906101000a900473ffffffffffffffffffffffffffffffffffffffff1673ffffffffffffffffffffffffffffffffffffffff168273ffffffffffffffffffffffffffffffffffffffff167f70aea8d848e8a90fb7661b227dc522eb6395c3dac71b63cb59edd5c9899b236460405160405180910390a3603460009054906101000a900473ffffffffffffffffffffffffffffffffffffffff1673ffffffffffffffffffffffffffffffffffffffff168173ffffffffffffffffffffffffffffffffffffffff167fb3d55174552271a4f1aaf36b72f50381e892171636b3fb5447fe00e995e7a37b60405160405180910390a35050565b600073ffffffffffffffffffffffffffffffffffffffff168373ffffffffffffffffffffffffffffffffffffffff161415613010576040517f08c379a000000000000000000000000000000000000000000000000000000000815260040161300790616204565b60405180910390fd5b600073ffffffffffffffffffffffffffffffffffffffff168273ffffffffffffffffffffffffffffffffffffffff161415613080576040517f08c379a000000000000000000000000000000000000000000000000000000000815260040161307790615fc4565b60405180910390fd5b80606860008573ffffffffffffffffffffffffffffffffffffffff1673ffffffffffffffffffffffffffffffffffffffff16815260200190815260200160002060008473ffffffffffffffffffffffffffffffffffffffff1673ffffffffffffffffffffffffffffffffffffffff168152602001908152602001600020819055508173ffffffffffffffffffffffffffffffffffffffff168373ffffffffffffffffffffffffffffffffffffffff167f8c5be1e5ebec7d5bd14f71427d1e84f3dd0314c0f7b2291e5b200ac8c7c3b9258360405161315e9190616304565b60405180910390a3505050565b60a65443146134295761317c614f34565b61318461389e565b81604001818152505060a75481606001818152505060a85481608001818152505060a360009054906101000a900473ffffffffffffffffffffffffffffffffffffffff1673ffffffffffffffffffffffffffffffffffffffff166315f240538260400151836060015184608001516040518463ffffffff1660e01b815260040161321093929190616348565b60206040518083038186803b15801561322857600080fd5b505afa15801561323c573d6000803e3d6000fd5b505050506040513d601f19601f8201168201806040525081019061326091906154a8565b81600001818152505066038d7ea4c68000816000015111156132b7576040517f08c379a00000000000000000000000000000000000000000000000000000000081526004016132ae90616244565b60405180910390fd5b4381602001818152505060a65481602001516132d39190616559565b8160c00181815250508060c0015181600001516132f091906164ff565b8160e001818152505080606001518160e0015161330d91906164ff565b81610100018181525050806060015181610100015161332c9190616478565b816101200181815250508060800151816101000151609f5461334e91906164ff565b6133589190616478565b8161014001818152505060a5548160a00181815250508060a001518160a001518260e0015161338791906164ff565b6133919190616478565b81610160018181525050806020015160a68190555080610160015160a58190555080610120015160a78190555080610140015160a8819055507f59693255bedc2974b761b077cd2fdb47b3bde759f64b247f599c6941525655e18160200151826101000151836101600151846040015185610120015186610140015160405161341f9695949392919061637f565b60405180910390a1505b565b60008060a960008473ffffffffffffffffffffffffffffffffffffffff1673ffffffffffffffffffffffffffffffffffffffff1681526020019081526020016000209050600081600001541480613486575060008160010154145b156134955760009150506134c1565b6134ae816001015460a55461471890919063ffffffff16565b81600001546134bd91906164ff565b9150505b919050565b60008060695414156134e257670de0b6b3a7640000905061351b565b61351860695460a85460a7546134f661389e565b6135009190616478565b61350a9190616559565b61475a90919063ffffffff16565b90505b90565b60008211613561576040517f08c379a000000000000000000000000000000000000000000000000000000000815260040161355890616224565b60405180910390fd5b60a460009054906101000a900473ffffffffffffffffffffffffffffffffffffffff1673ffffffffffffffffffffffffffffffffffffffff1663af505ad93085856040518463ffffffff1660e01b81526004016135c093929190615c12565b600060405180830381600087803b1580156135da57600080fd5b505af11580156135ee573d6000803e3d6000fd5b505050506135fc8383614791565b61360633826144c7565b60a460009054906101000a900473ffffffffffffffffffffffffffffffffffffffff1673ffffffffffffffffffffffffffffffffffffffff1663a2ddeb85308585856040518563ffffffff1660e01b81526004016136679493929190615c9c565b600060405180830381600087803b15801561368157600080fd5b505af1158015613695573d6000803e3d6000fd5b505050507f3f693fff038bb8a046aa76d9516190ac7444f7d69cf952c4cbdc086fdef2d6fc833384846040516136ce9493929190615c9c565b60405180910390a1505050565b60008273ffffffffffffffffffffffffffffffffffffffff168473ffffffffffffffffffffffffffffffffffffffff16141561374c576040517f08c379a000000000000000000000000000000000000000000000000000000000815260040161374390616104565b60405180910390fd5b60a460009054906101000a900473ffffffffffffffffffffffffffffffffffffffff1673ffffffffffffffffffffffffffffffffffffffff166372b4304a308686866040518563ffffffff1660e01b81526004016137ad9493929190615bcd565b600060405180830381600087803b1580156137c757600080fd5b505af11580156137db573d6000803e3d6000fd5b505050506137ea84848461486c565b60a460009054906101000a900473ffffffffffffffffffffffffffffffffffffffff1673ffffffffffffffffffffffffffffffffffffffff1663e33af48a308686866040518563ffffffff1660e01b815260040161384b9493929190615bcd565b600060405180830381600087803b15801561386557600080fd5b505af1158015613879573d6000803e3d6000fd5b50505050600190509392505050565b600081836138969190616478565b905092915050565b600060ac54476138ae9190616559565b905090565b600060a460009054906101000a900473ffffffffffffffffffffffffffffffffffffffff1673ffffffffffffffffffffffffffffffffffffffff16631637eefd308686866040518563ffffffff1660e01b81526004016139169493929190615bcd565b600060405180830381600087803b15801561393057600080fd5b505af1158015613944573d6000803e3d6000fd5b5050505060006139538461342b565b9050600061396f86838611613968578561396a565b835b614ae0565b9050600060a960008773ffffffffffffffffffffffffffffffffffffffff1673ffffffffffffffffffffffffffffffffffffffff168152602001908152602001600020905081836139c09190616559565b816000018190555060a55481600101819055508160a754106139ef578160a7546139ea9190616559565b6139f2565b60005b60a78190555060a460009054906101000a900473ffffffffffffffffffffffffffffffffffffffff1673ffffffffffffffffffffffffffffffffffffffff1663f079420a308989866040518563ffffffff1660e01b8152600401613a599493929190615bcd565b600060405180830381600087803b158015613a7357600080fd5b505af1158015613a87573d6000803e3d6000fd5b505050507f6fadbf7329d21f278e724fa0d4511001a158f2a97ee35c5bc4cf8b64417399ef8787848460000154856001015460a754604051613ace96959493929190615ce1565b60405180910390a18193505050509392505050565b60a460009054906101000a900473ffffffffffffffffffffffffffffffffffffffff1673ffffffffffffffffffffffffffffffffffffffff166386b841873084846040518463ffffffff1660e01b8152600401613b4293929190615c12565b600060405180830381600087803b158015613b5c57600080fd5b505af1158015613b70573d6000803e3d6000fd5b50505050613b7c614f95565b613b846134c6565b816000018181525050613b973383614ae0565b816040018181525050613bbb8160000151826040015161475a90919063ffffffff16565b816020018181525050613bd2838260200151614aff565b60a460009054906101000a900473ffffffffffffffffffffffffffffffffffffffff1673ffffffffffffffffffffffffffffffffffffffff1663de65f41b30858585602001516040518563ffffffff1660e01b8152600401613c379493929190615c9c565b600060405180830381600087803b158015613c5157600080fd5b505af1158015613c65573d6000803e3d6000fd5b505050507f2f00e3cdd69a77be7ed215ec7b2a36784dd158f921fca79ac29deffa353fe6ee3384848460200151604051613ca29493929190615c9c565b60405180910390a1505050565b8160a460006101000a81548173ffffffffffffffffffffffffffffffffffffffff021916908373ffffffffffffffffffffffffffffffffffffffff1602179055508060a360006101000a81548173ffffffffffffffffffffffffffffffffffffffff021916908373ffffffffffffffffffffffffffffffffffffffff1602179055504360a681905550670de0b6b3a764000060a5819055506602d79883d2000060a0819055506703782dace9d9000060a181905550613d6c614c89565b613d77858585614d27565b613d7f614d75565b7f8b73c3c69bb8fe3d512ecc4cf759cc79239f7b179b0ffacaa9a75d522b39400f85805190602001206040518060400160405280600181526020017f310000000000000000000000000000000000000000000000000000000000000081525080519060200120613ded61470a565b30604051602001613e02959493929190615de7565b6040516020818303038152906040528051906020012060aa819055505050505050565b60008183613e339190616559565b905092915050565b8273ffffffffffffffffffffffffffffffffffffffff163373ffffffffffffffffffffffffffffffffffffffff161415613eaa576040517f08c379a0000000000000000000000000000000000000000000000000000000008152600401613ea190616024565b60405180910390fd5b6000821415613eee576040517f08c379a0000000000000000000000000000000000000000000000000000000008152600401613ee590615fe4565b60405180910390fd5b60008190508073ffffffffffffffffffffffffffffffffffffffff1663d14827916040518163ffffffff1660e01b8152600401602060405180830381600087803b158015613f3b57600080fd5b505af1158015613f4f573d6000803e3d6000fd5b505050506040513d601f19601f82011682018060405250810190613f739190615355565b5060a460009054906101000a900473ffffffffffffffffffffffffffffffffffffffff1673ffffffffffffffffffffffffffffffffffffffff1663061682de30843388886040518663ffffffff1660e01b8152600401613fd7959493929190615b19565b600060405180830381600087803b158015613ff157600080fd5b505af1158015614005573d6000803e3d6000fd5b50505050438173ffffffffffffffffffffffffffffffffffffffff16636c540baf6040518163ffffffff1660e01b815260040160206040518083038186803b15801561405057600080fd5b505afa158015614064573d6000803e3d6000fd5b505050506040513d601f19601f8201168201806040525081019061408891906154a8565b146140c8576040517f08c379a00000000000000000000000000000000000000000000000000000000081526004016140bf90616004565b60405180910390fd5b60006140d53386866138b3565b9050600060a460009054906101000a900473ffffffffffffffffffffffffffffffffffffffff1673ffffffffffffffffffffffffffffffffffffffff1663c488847b3086856040518463ffffffff1660e01b815260040161413893929190615c12565b60206040518083038186803b15801561415057600080fd5b505afa158015614164573d6000803e3d6000fd5b505050506040513d601f19601f8201168201806040525081019061418891906154a8565b90503073ffffffffffffffffffffffffffffffffffffffff168473ffffffffffffffffffffffffffffffffffffffff1614156141cf576141ca3033888461431d565b61423f565b8273ffffffffffffffffffffffffffffffffffffffff1663b2a02ff13388846040518463ffffffff1660e01b815260040161420c93929190615c12565b600060405180830381600087803b15801561422657600080fd5b505af115801561423a573d6000803e3d6000fd5b505050505b60a460009054906101000a900473ffffffffffffffffffffffffffffffffffffffff1673ffffffffffffffffffffffffffffffffffffffff16635f7bc0063086338a87876040518763ffffffff1660e01b81526004016142a496959493929190615b6c565b600060405180830381600087803b1580156142be57600080fd5b505af11580156142d2573d6000803e3d6000fd5b505050507f298637f684da70674f26509b10f07ec2fbc77a335ab1e7d6215a4b2484d8bb52338784878560405161430d959493929190615c49565b60405180910390a1505050505050565b8273ffffffffffffffffffffffffffffffffffffffff168273ffffffffffffffffffffffffffffffffffffffff16141561438c576040517f08c379a000000000000000000000000000000000000000000000000000000000815260040161438390616044565b60405180910390fd5b60a460009054906101000a900473ffffffffffffffffffffffffffffffffffffffff1673ffffffffffffffffffffffffffffffffffffffff1663cb6db19c30868686866040518663ffffffff1660e01b81526004016143ef959493929190615b19565b600060405180830381600087803b15801561440957600080fd5b505af115801561441d573d6000803e3d6000fd5b5050505061442c82848361486c565b60a460009054906101000a900473ffffffffffffffffffffffffffffffffffffffff1673ffffffffffffffffffffffffffffffffffffffff16630d7f67a230868686866040518663ffffffff1660e01b815260040161448f959493929190615b19565b600060405180830381600087803b1580156144a957600080fd5b505af11580156144bd573d6000803e3d6000fd5b5050505050505050565b8173ffffffffffffffffffffffffffffffffffffffff166108fc829081150290604051600060405180830381858888f1935050505015801561450d573d6000803e3d6000fd5b505050565b60a460009054906101000a900473ffffffffffffffffffffffffffffffffffffffff1673ffffffffffffffffffffffffffffffffffffffff16632b9553ce3084846040518463ffffffff1660e01b815260040161457193929190615ae2565b600060405180830381600087803b15801561458b57600080fd5b505af115801561459f573d6000803e3d6000fd5b50505050600060a960008473ffffffffffffffffffffffffffffffffffffffff1673ffffffffffffffffffffffffffffffffffffffff1681526020019081526020016000209050816145f08461342b565b6145fa9190616478565b816000018190555060a55481600101819055508160a75461461b9190616478565b60a78190555061462b83836144c7565b60a460009054906101000a900473ffffffffffffffffffffffffffffffffffffffff1673ffffffffffffffffffffffffffffffffffffffff1663ca498ad63085856040518463ffffffff1660e01b815260040161468a93929190615ae2565b600060405180830381600087803b1580156146a457600080fd5b505af11580156146b8573d6000803e3d6000fd5b505050507f2dd79f4fccfd18c360ce7f9132f3621bf05eee18f995224badb32d17f172df7383838360000154846001015460a7546040516146fd959493929190615a8f565b60405180910390a1505050565b600080600090508091505090565b600061475282614744614735600186613e2590919063ffffffff16565b8661388890919063ffffffff16565b614d7e90919063ffffffff16565b905092915050565b60006147898261477b670de0b6b3a764000086614d9490919063ffffffff16565b614d7e90919063ffffffff16565b905092915050565b8173ffffffffffffffffffffffffffffffffffffffff163373ffffffffffffffffffffffffffffffffffffffff161461485e5761485d823361485884606860008873ffffffffffffffffffffffffffffffffffffffff1673ffffffffffffffffffffffffffffffffffffffff16815260200190815260200160002060003373ffffffffffffffffffffffffffffffffffffffff1673ffffffffffffffffffffffffffffffffffffffff16815260200190815260200160002054613e2590919063ffffffff16565b612fa0565b5b6148688282614daa565b5050565b600073ffffffffffffffffffffffffffffffffffffffff168373ffffffffffffffffffffffffffffffffffffffff1614156148dc576040517f08c379a00000000000000000000000000000000000000000000000000000000081526004016148d3906161c4565b60405180910390fd5b600073ffffffffffffffffffffffffffffffffffffffff168273ffffffffffffffffffffffffffffffffffffffff16141561494c576040517f08c379a000000000000000000000000000000000000000000000000000000000815260040161494390615f44565b60405180910390fd5b61499e81606760008673ffffffffffffffffffffffffffffffffffffffff1673ffffffffffffffffffffffffffffffffffffffff16815260200190815260200160002054613e2590919063ffffffff16565b606760008573ffffffffffffffffffffffffffffffffffffffff1673ffffffffffffffffffffffffffffffffffffffff16815260200190815260200160002081905550614a3381606760008573ffffffffffffffffffffffffffffffffffffffff1673ffffffffffffffffffffffffffffffffffffffff1681526020019081526020016000205461388890919063ffffffff16565b606760008473ffffffffffffffffffffffffffffffffffffffff1673ffffffffffffffffffffffffffffffffffffffff168152602001908152602001600020819055508173ffffffffffffffffffffffffffffffffffffffff168373ffffffffffffffffffffffffffffffffffffffff167fddf252ad1be2c89b69c2b068fc378daa952ba7f163c4a11628f55a4df523b3ef83604051614ad39190616304565b60405180910390a3505050565b60008160ac54614af09190616559565b60ac8190555081905092915050565b600073ffffffffffffffffffffffffffffffffffffffff168273ffffffffffffffffffffffffffffffffffffffff161415614b6f576040517f08c379a0000000000000000000000000000000000000000000000000000000008152600401614b66906162e4565b60405180910390fd5b614b848160695461388890919063ffffffff16565b606981905550614bdc81606760008573ffffffffffffffffffffffffffffffffffffffff1673ffffffffffffffffffffffffffffffffffffffff1681526020019081526020016000205461388890919063ffffffff16565b606760008473ffffffffffffffffffffffffffffffffffffffff1673ffffffffffffffffffffffffffffffffffffffff168152602001908152602001600020819055508173ffffffffffffffffffffffffffffffffffffffff16600073ffffffffffffffffffffffffffffffffffffffff167fddf252ad1be2c89b69c2b068fc378daa952ba7f163c4a11628f55a4df523b3ef83604051614c7d9190616304565b60405180910390a35050565b33603360006101000a81548173ffffffffffffffffffffffffffffffffffffffff021916908373ffffffffffffffffffffffffffffffffffffffff1602179055503373ffffffffffffffffffffffffffffffffffffffff16600073ffffffffffffffffffffffffffffffffffffffff167f70aea8d848e8a90fb7661b227dc522eb6395c3dac71b63cb59edd5c9899b236460405160405180910390a3565b82606a9080519060200190614d3d929190614fb6565b5081606b9080519060200190614d54929190614fb6565b5080606c60006101000a81548160ff021916908360ff160217905550505050565b60018081905550565b60008183614d8c91906164ce565b905092915050565b60008183614da291906164ff565b905092915050565b600073ffffffffffffffffffffffffffffffffffffffff168273ffffffffffffffffffffffffffffffffffffffff161415614e1a576040517f08c379a0000000000000000000000000000000000000000000000000000000008152600401614e11906161a4565b60405180910390fd5b614e6c81606760008573ffffffffffffffffffffffffffffffffffffffff1673ffffffffffffffffffffffffffffffffffffffff16815260200190815260200160002054613e2590919063ffffffff16565b606760008473ffffffffffffffffffffffffffffffffffffffff1673ffffffffffffffffffffffffffffffffffffffff16815260200190815260200160002081905550614ec481606954613e2590919063ffffffff16565b606981905550600073ffffffffffffffffffffffffffffffffffffffff168273ffffffffffffffffffffffffffffffffffffffff167fddf252ad1be2c89b69c2b068fc378daa952ba7f163c4a11628f55a4df523b3ef83604051614f289190616304565b60405180910390a35050565b6040518061018001604052806000815260200160008152602001600081526020016000815260200160008152602001600081526020016000815260200160008152602001600081526020016000815260200160008152602001600081525090565b60405180606001604052806000815260200160008152602001600081525090565b828054614fc2906166d0565b90600052602060002090601f016020900481019282614fe4576000855561502b565b82601f10614ffd57805160ff191683800117855561502b565b8280016001018555821561502b579182015b8281111561502a57825182559160200191906001019061500f565b5b509050615038919061503c565b5090565b5b8082111561505557600081600090555060010161503d565b5090565b600061506c61506784616420565b6163fb565b905082815260208101848484011115615088576150876167fe565b5b61509384828561668e565b509392505050565b6000813590506150aa816171af565b92915050565b6000813590506150bf816171c6565b92915050565b6000815190506150d4816171dd565b92915050565b6000813590506150e9816171f4565b92915050565b6000813590506150fe8161720b565b92915050565b60008135905061511381617222565b92915050565b600082601f83011261512e5761512d6167f9565b5b813561513e848260208601615059565b91505092915050565b60008135905061515681617239565b92915050565b60008151905061516b81617239565b92915050565b60008135905061518081617250565b92915050565b60006020828403121561519c5761519b616808565b5b60006151aa8482850161509b565b91505092915050565b6000602082840312156151c9576151c8616808565b5b60006151d7848285016150b0565b91505092915050565b600080604083850312156151f7576151f6616808565b5b60006152058582860161509b565b92505060206152168582860161509b565b9150509250929050565b60008060006060848603121561523957615238616808565b5b60006152478682870161509b565b93505060206152588682870161509b565b925050604061526986828701615147565b9150509250925092565b600080600080600080600060e0888a03121561529257615291616808565b5b60006152a08a828b0161509b565b97505060206152b18a828b0161509b565b96505060406152c28a828b01615147565b95505060606152d38a828b01615147565b94505060806152e48a828b01615171565b93505060a06152f58a828b016150da565b92505060c06153068a828b016150da565b91505092959891949750929550565b6000806040838503121561532c5761532b616808565b5b600061533a8582860161509b565b925050602061534b85828601615147565b9150509250929050565b60006020828403121561536b5761536a616808565b5b6000615379848285016150c5565b91505092915050565b60006020828403121561539857615397616808565b5b60006153a6848285016150ef565b91505092915050565b6000602082840312156153c5576153c4616808565b5b60006153d384828501615104565b91505092915050565b600080600080608085870312156153f6576153f5616808565b5b600085013567ffffffffffffffff81111561541457615413616803565b5b61542087828801615119565b945050602085013567ffffffffffffffff81111561544157615440616803565b5b61544d87828801615119565b935050604061545e878288016150ef565b925050606061546f87828801615104565b91505092959194509250565b60006020828403121561549157615490616808565b5b600061549f84828501615147565b91505092915050565b6000602082840312156154be576154bd616808565b5b60006154cc8482850161515c565b91505092915050565b6154de81616622565b82525050565b6154ed8161659f565b82525050565b6154fc8161658d565b82525050565b61550b816165b1565b82525050565b61551a816165bd565b82525050565b61553161552c826165bd565b616733565b82525050565b61554081616634565b82525050565b61554f81616646565b82525050565b61555e81616658565b82525050565b600061556f82616451565b615579818561645c565b935061558981856020860161669d565b6155928161680d565b840191505092915050565b60006155aa60238361645c565b91506155b58261681e565b604082019050919050565b60006155cd60348361645c565b91506155d88261686d565b604082019050919050565b60006155f0603e8361645c565b91506155fb826168bc565b604082019050919050565b6000615613604b8361645c565b915061561e8261690b565b606082019050919050565b600061563660228361645c565b915061564182616980565b604082019050919050565b600061565960448361645c565b9150615664826169cf565b606082019050919050565b600061567c604c8361645c565b915061568782616a44565b606082019050919050565b600061569f60028361646d565b91506156aa82616ab9565b600282019050919050565b60006156c260398361645c565b91506156cd82616ae2565b604082019050919050565b60006156e560268361645c565b91506156f082616b31565b604082019050919050565b600061570860318361645c565b915061571382616b80565b604082019050919050565b600061572b60368361645c565b915061573682616bcf565b604082019050919050565b600061574e60288361645c565b915061575982616c1e565b604082019050919050565b6000615771602e8361645c565b915061577c82616c6d565b604082019050919050565b6000615794601a8361645c565b915061579f82616cbc565b602082019050919050565b60006157b760268361645c565b91506157c282616ce5565b604082019050919050565b60006157da60228361645c565b91506157e582616d34565b604082019050919050565b60006157fd60378361645c565b915061580882616d83565b604082019050919050565b600061582060478361645c565b915061582b82616dd2565b606082019050919050565b6000615843603a8361645c565b915061584e82616e47565b604082019050919050565b600061586660218361645c565b915061587182616e96565b604082019050919050565b600061588960258361645c565b915061589482616ee5565b604082019050919050565b60006158ac603b8361645c565b91506158b782616f34565b604082019050919050565b60006158cf60248361645c565b91506158da82616f83565b604082019050919050565b60006158f260428361645c565b91506158fd82616fd2565b606082019050919050565b600061591560298361645c565b915061592082617047565b604082019050919050565b600061593860258361645c565b915061594382617096565b604082019050919050565b600061595b60108361645c565b9150615966826170e5565b602082019050919050565b600061597e601f8361645c565b91506159898261710e565b602082019050919050565b60006159a160278361645c565b91506159ac82617137565b604082019050919050565b60006159c4601f8361645c565b91506159cf82617186565b602082019050919050565b6159e38161660b565b82525050565b6159f281616615565b82525050565b6000615a0382615692565b9150615a0f8285615520565b602082019150615a1f8284615520565b6020820191508190509392505050565b6000602082019050615a4460008301846154e4565b92915050565b6000608082019050615a5f60008301876154d5565b615a6c60208301866159da565b615a7960408301856159da565b615a8660608301846159da565b95945050505050565b600060a082019050615aa460008301886154d5565b615ab160208301876159da565b615abe60408301866159da565b615acb60608301856159da565b615ad860808301846159da565b9695505050505050565b6000606082019050615af760008301866154f3565b615b0460208301856154d5565b615b1160408301846159da565b949350505050565b600060a082019050615b2e60008301886154f3565b615b3b60208301876154f3565b615b4860408301866154f3565b615b5560608301856154f3565b615b6260808301846159da565b9695505050505050565b600060c082019050615b8160008301896154f3565b615b8e60208301886154f3565b615b9b60408301876154f3565b615ba860608301866154f3565b615bb560808301856159da565b615bc260a08301846159da565b979650505050505050565b6000608082019050615be260008301876154f3565b615bef60208301866154f3565b615bfc60408301856154f3565b615c0960608301846159da565b95945050505050565b6000606082019050615c2760008301866154f3565b615c3460208301856154f3565b615c4160408301846159da565b949350505050565b600060a082019050615c5e60008301886154f3565b615c6b60208301876154f3565b615c7860408301866159da565b615c8560608301856154f3565b615c9260808301846159da565b9695505050505050565b6000608082019050615cb160008301876154f3565b615cbe60208301866154f3565b615ccb60408301856159da565b615cd860608301846159da565b95945050505050565b600060c082019050615cf660008301896154f3565b615d0360208301886154f3565b615d1060408301876159da565b615d1d60608301866159da565b615d2a60808301856159da565b615d3760a08301846159da565b979650505050505050565b6000602082019050615d576000830184615502565b92915050565b6000602082019050615d726000830184615511565b92915050565b600060e082019050615d8d600083018a615511565b615d9a60208301896154f3565b615da760408301886154f3565b615db460608301876159da565b615dc160808301866159da565b615dce60a08301856159da565b615ddb60c08301846159da565b98975050505050505050565b600060a082019050615dfc6000830188615511565b615e096020830187615511565b615e166040830186615511565b615e2360608301856159da565b615e3060808301846154f3565b9695505050505050565b6000608082019050615e4f6000830187615511565b615e5c60208301866159e9565b615e696040830185615511565b615e766060830184615511565b95945050505050565b6000602082019050615e946000830184615537565b92915050565b6000604082019050615eaf6000830185615537565b615ebc6020830184615537565b9392505050565b6000602082019050615ed86000830184615546565b92915050565b6000602082019050615ef36000830184615555565b92915050565b6000604082019050615f0e6000830185615555565b615f1b6020830184615555565b9392505050565b60006020820190508181036000830152615f3c8184615564565b905092915050565b60006020820190508181036000830152615f5d8161559d565b9050919050565b60006020820190508181036000830152615f7d816155c0565b9050919050565b60006020820190508181036000830152615f9d816155e3565b9050919050565b60006020820190508181036000830152615fbd81615606565b9050919050565b60006020820190508181036000830152615fdd81615629565b9050919050565b60006020820190508181036000830152615ffd8161564c565b9050919050565b6000602082019050818103600083015261601d8161566f565b9050919050565b6000602082019050818103600083015261603d816156b5565b9050919050565b6000602082019050818103600083015261605d816156d8565b9050919050565b6000602082019050818103600083015261607d816156fb565b9050919050565b6000602082019050818103600083015261609d8161571e565b9050919050565b600060208201905081810360008301526160bd81615741565b9050919050565b600060208201905081810360008301526160dd81615764565b9050919050565b600060208201905081810360008301526160fd81615787565b9050919050565b6000602082019050818103600083015261611d816157aa565b9050919050565b6000602082019050818103600083015261613d816157cd565b9050919050565b6000602082019050818103600083015261615d816157f0565b9050919050565b6000602082019050818103600083015261617d81615813565b9050919050565b6000602082019050818103600083015261619d81615836565b9050919050565b600060208201905081810360008301526161bd81615859565b9050919050565b600060208201905081810360008301526161dd8161587c565b9050919050565b600060208201905081810360008301526161fd8161589f565b9050919050565b6000602082019050818103600083015261621d816158c2565b9050919050565b6000602082019050818103600083015261623d816158e5565b9050919050565b6000602082019050818103600083015261625d81615908565b9050919050565b6000602082019050818103600083015261627d8161592b565b9050919050565b6000602082019050818103600083015261629d8161594e565b9050919050565b600060208201905081810360008301526162bd81615971565b9050919050565b600060208201905081810360008301526162dd81615994565b9050919050565b600060208201905081810360008301526162fd816159b7565b9050919050565b600060208201905061631960008301846159da565b92915050565b600060408201905061633460008301856159da565b61634160208301846159da565b9392505050565b600060608201905061635d60008301866159da565b61636a60208301856159da565b61637760408301846159da565b949350505050565b600060c08201905061639460008301896159da565b6163a160208301886159da565b6163ae60408301876159da565b6163bb60608301866159da565b6163c860808301856159da565b6163d560a08301846159da565b979650505050505050565b60006020820190506163f560008301846159e9565b92915050565b6000616405616416565b90506164118282616702565b919050565b6000604051905090565b600067ffffffffffffffff82111561643b5761643a6167ca565b5b6164448261680d565b9050602081019050919050565b600081519050919050565b600082825260208201905092915050565b600081905092915050565b60006164838261660b565b915061648e8361660b565b9250827fffffffffffffffffffffffffffffffffffffffffffffffffffffffffffffffff038211156164c3576164c261673d565b5b828201905092915050565b60006164d98261660b565b91506164e48361660b565b9250826164f4576164f361676c565b5b828204905092915050565b600061650a8261660b565b91506165158361660b565b9250817fffffffffffffffffffffffffffffffffffffffffffffffffffffffffffffffff048311821515161561654e5761654d61673d565b5b828202905092915050565b60006165648261660b565b915061656f8361660b565b9250828210156165825761658161673d565b5b828203905092915050565b6000616598826165eb565b9050919050565b60006165aa826165eb565b9050919050565b60008115159050919050565b6000819050919050565b60006165d28261658d565b9050919050565b60006165e48261658d565b9050919050565b600073ffffffffffffffffffffffffffffffffffffffff82169050919050565b6000819050919050565b600060ff82169050919050565b600061662d8261666a565b9050919050565b600061663f8261666a565b9050919050565b60006166518261666a565b9050919050565b60006166638261666a565b9050919050565b60006166758261667c565b9050919050565b6000616687826165eb565b9050919050565b82818337600083830152505050565b60005b838110156166bb5780820151818401526020810190506166a0565b838111156166ca576000848401525b50505050565b600060028204905060018216806166e857607f821691505b602082108114156166fc576166fb61679b565b5b50919050565b61670b8261680d565b810181811067ffffffffffffffff8211171561672a576167296167ca565b5b80604052505050565b6000819050919050565b7f4e487b7100000000000000000000000000000000000000000000000000000000600052601160045260246000fd5b7f4e487b7100000000000000000000000000000000000000000000000000000000600052601260045260246000fd5b7f4e487b7100000000000000000000000000000000000000000000000000000000600052602260045260246000fd5b7f4e487b7100000000000000000000000000000000000000000000000000000000600052604160045260246000fd5b600080fd5b600080fd5b600080fd5b600080fd5b6000601f19601f8301169050919050565b7f45524332303a207472616e7366657220746f20746865207a65726f206164647260008201527f6573730000000000000000000000000000000000000000000000000000000000602082015250565b7f5f736574436f6e74726f6c6c65723a2054686973206973206e6f74207468652060008201527f636f6e74726f6c6c657220636f6e747261637421000000000000000000000000602082015250565b7f696e697469616c697a653a20696e746572657374206d6f64656c20616464726560008201527f73732073686f756c64206e6f74206265207a65726f2061646472657373210000602082015250565b7f5f73657450656e64696e674f776e65723a204e6577206f77656e722063616e2060008201527f6e6f74206265207a65726f206164647265737320616e64206f776e657220686160208201527f73206265656e2073657421000000000000000000000000000000000000000000604082015250565b7f45524332303a20617070726f766520746f20746865207a65726f20616464726560008201527f7373000000000000000000000000000000000000000000000000000000000000602082015250565b7f5f6c6971756964617465426f72726f77496e7465726e616c3a204c697175696460008201527f61746520616d6f756e742073686f756c6420626520677265617465722074686160208201527f6e20302100000000000000000000000000000000000000000000000000000000604082015250565b7f5f6c6971756964617465426f72726f77496e7465726e616c3a204661696c656460008201527f20746f2075706461746520626c6f636b206e756d62657220696e20636f6c6c6160208201527f746572616c206173736574210000000000000000000000000000000000000000604082015250565b7f1901000000000000000000000000000000000000000000000000000000000000600082015250565b7f5f6c6971756964617465426f72726f77496e7465726e616c3a204c697175696460008201527f61746f722063616e206e6f7420626520626f72726f7765722100000000000000602082015250565b7f7365697a653a204c697175696461746f722063616e206e6f7420626520626f7260008201527f726f776572210000000000000000000000000000000000000000000000000000602082015250565b7f5f7365744e657752657365727665526174696f3a204e6577207265736572766560008201527f20726174696f20746f6f206c6172676521000000000000000000000000000000602082015250565b7f5f7365744e657750726f746f636f6c466565526174696f3a204e65772070726f60008201527f746f636f6c20726174696f20746f6f206c617267652100000000000000000000602082015250565b7f736574746c65496e7465726573743a204661696c20746f20616363727565206960008201527f6e74657265737421000000000000000000000000000000000000000000000000602082015250565b7f496e697469616c697a61626c653a20636f6e747261637420697320616c72656160008201527f647920696e697469616c697a6564000000000000000000000000000000000000602082015250565b7f7065726d69743a20494e56414c49445f5349474e415455524521000000000000600082015250565b7f5f7472616e73666572546f6b656e733a20446f206e6f742073656c662d74726160008201527f6e73666572210000000000000000000000000000000000000000000000000000602082015250565b7f6f6e6c794f776e65723a2063616c6c6572206973206e6f7420746865206f776e60008201527f6572000000000000000000000000000000000000000000000000000000000000602082015250565b7f7365744e6577466c6173686c6f616e466565526174696f3a204e657720666c6160008201527f73686c6f616e20726174696f20746f6f206c6172676521000000000000000000602082015250565b7f5f776974686472617752657365727665733a20496e76616c696420776974686460008201527f72617720616d6f756e7420616e6420646f206e6f74206861766520656e6f756760208201527f6820636173682100000000000000000000000000000000000000000000000000604082015250565b7f696e697469616c697a653a20636f6e74726f6c6c65722061646472657373207360008201527f686f756c64206e6f74206265207a65726f206164647265737321000000000000602082015250565b7f45524332303a206275726e2066726f6d20746865207a65726f2061646472657360008201527f7300000000000000000000000000000000000000000000000000000000000000602082015250565b7f45524332303a207472616e736665722066726f6d20746865207a65726f20616460008201527f6472657373000000000000000000000000000000000000000000000000000000602082015250565b7f5f736574496e746572657374526174654d6f64656c3a2054686973206973206e60008201527f6f74207468652072617465206d6f64656c20636f6e7472616374210000000000602082015250565b7f45524332303a20617070726f76652066726f6d20746865207a65726f2061646460008201527f7265737300000000000000000000000000000000000000000000000000000000602082015250565b7f5f72656465656d496e7465726e616c3a2052656465656d2069546f6b656e206160008201527f6d6f756e742073686f756c642062652067726561746572207468616e207a657260208201527f6f21000000000000000000000000000000000000000000000000000000000000604082015250565b7f5f757064617465496e7465726573743a20426f72726f7720726174652069732060008201527f746f6f2068696768210000000000000000000000000000000000000000000000602082015250565b7f5f6163636570744f776e65723a204f6e6c7920666f722070656e64696e67206f60008201527f776e657221000000000000000000000000000000000000000000000000000000602082015250565b7f7065726d69743a20455850495245442100000000000000000000000000000000600082015250565b7f5265656e7472616e637947756172643a207265656e7472616e742063616c6c00600082015250565b7f726563656976653a204f6e6c792063616e2063616c6c2066726f6d206120636f60008201527f6e74726163742100000000000000000000000000000000000000000000000000602082015250565b7f45524332303a206d696e7420746f20746865207a65726f206164647265737300600082015250565b6171b88161658d565b81146171c357600080fd5b50565b6171cf8161659f565b81146171da57600080fd5b50565b6171e6816165b1565b81146171f157600080fd5b50565b6171fd816165bd565b811461720857600080fd5b50565b617214816165c7565b811461721f57600080fd5b50565b61722b816165d9565b811461723657600080fd5b50565b6172428161660b565b811461724d57600080fd5b50565b61725981616615565b811461726457600080fd5b5056fea26469706673582212208d829ec6e26647b64a3a66de8bd5fcf162c9ec6dda923c52c47ec1e72cf21cef64736f6c63430008070033",
			"opcodes": "PUSH1 0x80 PUSH1 0x40 MSTORE CALLVALUE DUP1 ISZERO PUSH2 0x10 JUMPI PUSH1 0x0 DUP1 REVERT JUMPDEST POP PUSH2 0x729D DUP1 PUSH3 0x21 PUSH1 0x0 CODECOPY PUSH1 0x0 RETURN INVALID PUSH1 0x80 PUSH1 0x40 MSTORE PUSH1 0x4 CALLDATASIZE LT PUSH2 0x37A JUMPI PUSH1 0x0 CALLDATALOAD PUSH1 0xE0 SHR DUP1 PUSH4 0x7A27D9F6 GT PUSH2 0x1D1 JUMPI DUP1 PUSH4 0xB2A02FF1 GT PUSH2 0x102 JUMPI DUP1 PUSH4 0xDD62ED3E GT PUSH2 0xA0 JUMPI DUP1 PUSH4 0xF3FDB15A GT PUSH2 0x6F JUMPI DUP1 PUSH4 0xF3FDB15A EQ PUSH2 0xD3C JUMPI DUP1 PUSH4 0xF77C4791 EQ PUSH2 0xD67 JUMPI DUP1 PUSH4 0xF8F9DA28 EQ PUSH2 0xD92 JUMPI DUP1 PUSH4 0xFC4D33F9 EQ PUSH2 0xDBD JUMPI PUSH2 0x3DF JUMP JUMPDEST DUP1 PUSH4 0xDD62ED3E EQ PUSH2 0xC8F JUMPI DUP1 PUSH4 0xE30C3978 EQ PUSH2 0xCCC JUMPI DUP1 PUSH4 0xE5974619 EQ PUSH2 0xCF7 JUMPI DUP1 PUSH4 0xF2B3ABBD EQ PUSH2 0xD13 JUMPI PUSH2 0x3DF JUMP JUMPDEST DUP1 PUSH4 0xC5EBEAEC GT PUSH2 0xDC JUMPI DUP1 PUSH4 0xC5EBEAEC EQ PUSH2 0xBE9 JUMPI DUP1 PUSH4 0xC9F30E53 EQ PUSH2 0xC12 JUMPI DUP1 PUSH4 0xD1482791 EQ PUSH2 0xC3B JUMPI DUP1 PUSH4 0xD505ACCF EQ PUSH2 0xC66 JUMPI PUSH2 0x3DF JUMP JUMPDEST DUP1 PUSH4 0xB2A02FF1 EQ PUSH2 0xB6C JUMPI DUP1 PUSH4 0xB3EFD5B4 EQ PUSH2 0xB95 JUMPI DUP1 PUSH4 0xBD6D894D EQ PUSH2 0xBBE JUMPI PUSH2 0x3DF JUMP JUMPDEST DUP1 PUSH4 0x95DD9193 GT PUSH2 0x16F JUMPI DUP1 PUSH4 0xA9059CBB GT PUSH2 0x149 JUMPI DUP1 PUSH4 0xA9059CBB EQ PUSH2 0xABD JUMPI DUP1 PUSH4 0xAA5AF0FD EQ PUSH2 0xAFA JUMPI DUP1 PUSH4 0xAAE40A2A EQ PUSH2 0xB25 JUMPI DUP1 PUSH4 0xAE9D70B0 EQ PUSH2 0xB41 JUMPI PUSH2 0x3DF JUMP JUMPDEST DUP1 PUSH4 0x95DD9193 EQ PUSH2 0xA1A JUMPI DUP1 PUSH4 0x96294178 EQ PUSH2 0xA57 JUMPI DUP1 PUSH4 0xA457C2D7 EQ PUSH2 0xA80 JUMPI PUSH2 0x3DF JUMP JUMPDEST DUP1 PUSH4 0x8DA5CB5B GT PUSH2 0x1AB JUMPI DUP1 PUSH4 0x8DA5CB5B EQ PUSH2 0x970 JUMPI DUP1 PUSH4 0x8F15B414 EQ PUSH2 0x99B JUMPI DUP1 PUSH4 0x8F840DDD EQ PUSH2 0x9C4 JUMPI DUP1 PUSH4 0x95D89B41 EQ PUSH2 0x9EF JUMPI PUSH2 0x3DF JUMP JUMPDEST DUP1 PUSH4 0x7A27D9F6 EQ PUSH2 0x8DF JUMPI DUP1 PUSH4 0x7ECEBE00 EQ PUSH2 0x90A JUMPI DUP1 PUSH4 0x83DE424E EQ PUSH2 0x947 JUMPI PUSH2 0x3DF JUMP JUMPDEST DUP1 PUSH4 0x39509351 GT PUSH2 0x2AB JUMPI DUP1 PUSH4 0x6A627842 GT PUSH2 0x249 JUMPI DUP1 PUSH4 0x6F307DC3 GT PUSH2 0x223 JUMPI DUP1 PUSH4 0x6F307DC3 EQ PUSH2 0x821 JUMPI DUP1 PUSH4 0x70A08231 EQ PUSH2 0x84C JUMPI DUP1 PUSH4 0x73ACEE98 EQ PUSH2 0x889 JUMPI DUP1 PUSH4 0x74427937 EQ PUSH2 0x8B4 JUMPI PUSH2 0x3DF JUMP JUMPDEST DUP1 PUSH4 0x6A627842 EQ PUSH2 0x7B1 JUMPI DUP1 PUSH4 0x6C540BAF EQ PUSH2 0x7CD JUMPI DUP1 PUSH4 0x6E96DFD7 EQ PUSH2 0x7F8 JUMPI PUSH2 0x3DF JUMP JUMPDEST DUP1 PUSH4 0x47BD3718 GT PUSH2 0x285 JUMPI DUP1 PUSH4 0x47BD3718 EQ PUSH2 0x728 JUMPI DUP1 PUSH4 0x4E4D9FEA EQ PUSH2 0x753 JUMPI DUP1 PUSH4 0x508FE21F EQ PUSH2 0x75D JUMPI DUP1 PUSH4 0x621FD507 EQ PUSH2 0x786 JUMPI PUSH2 0x3DF JUMP JUMPDEST DUP1 PUSH4 0x39509351 EQ PUSH2 0x683 JUMPI DUP1 PUSH4 0x3AF9E669 EQ PUSH2 0x6C0 JUMPI DUP1 PUSH4 0x3B1D21A2 EQ PUSH2 0x6FD JUMPI PUSH2 0x3DF JUMP JUMPDEST DUP1 PUSH4 0x1E9A6950 GT PUSH2 0x318 JUMPI DUP1 PUSH4 0x30ADF81F GT PUSH2 0x2F2 JUMPI DUP1 PUSH4 0x30ADF81F EQ PUSH2 0x5C4 JUMPI DUP1 PUSH4 0x313CE567 EQ PUSH2 0x5EF JUMPI DUP1 PUSH4 0x3644E515 EQ PUSH2 0x61A JUMPI DUP1 PUSH4 0x37D33618 EQ PUSH2 0x645 JUMPI PUSH2 0x3DF JUMP JUMPDEST DUP1 PUSH4 0x1E9A6950 EQ PUSH2 0x535 JUMPI DUP1 PUSH4 0x23B872DD EQ PUSH2 0x55E JUMPI DUP1 PUSH4 0x269AAFEE EQ PUSH2 0x59B JUMPI PUSH2 0x3DF JUMP JUMPDEST DUP1 PUSH4 0x17BFDFBC GT PUSH2 0x354 JUMPI DUP1 PUSH4 0x17BFDFBC EQ PUSH2 0x477 JUMPI DUP1 PUSH4 0x18160DDD EQ PUSH2 0x4B4 JUMPI DUP1 PUSH4 0x182DF0F5 EQ PUSH2 0x4DF JUMPI DUP1 PUSH4 0x197523F8 EQ PUSH2 0x50A JUMPI PUSH2 0x3DF JUMP JUMPDEST DUP1 PUSH4 0x6FDDE03 EQ PUSH2 0x3E4 JUMPI DUP1 PUSH4 0x95EA7B3 EQ PUSH2 0x40F JUMPI DUP1 PUSH4 0xC7D5CD8 EQ PUSH2 0x44C JUMPI PUSH2 0x3DF JUMP JUMPDEST CALLDATASIZE PUSH2 0x3DF JUMPI PUSH2 0x39E CALLER PUSH20 0xFFFFFFFFFFFFFFFFFFFFFFFFFFFFFFFFFFFFFFFF AND PUSH2 0xDD4 JUMP JUMPDEST PUSH2 0x3DD JUMPI PUSH1 0x40 MLOAD PUSH32 0x8C379A000000000000000000000000000000000000000000000000000000000 DUP2 MSTORE PUSH1 0x4 ADD PUSH2 0x3D4 SWAP1 PUSH2 0x62C4 JUMP JUMPDEST PUSH1 0x40 MLOAD DUP1 SWAP2 SUB SWAP1 REVERT JUMPDEST STOP JUMPDEST PUSH1 0x0 DUP1 REVERT JUMPDEST CALLVALUE DUP1 ISZERO PUSH2 0x3F0 JUMPI PUSH1 0x0 DUP1 REVERT JUMPDEST POP PUSH2 0x3F9 PUSH2 0xDF7 JUMP JUMPDEST PUSH1 0x40 MLOAD PUSH2 0x406 SWAP2 SWAP1 PUSH2 0x5F22 JUMP JUMPDEST PUSH1 0x40 MLOAD DUP1 SWAP2 SUB SWAP1 RETURN JUMPDEST CALLVALUE DUP1 ISZERO PUSH2 0x41B JUMPI PUSH1 0x0 DUP1 REVERT JUMPDEST POP PUSH2 0x436 PUSH1 0x4 DUP1 CALLDATASIZE SUB DUP2 ADD SWAP1 PUSH2 0x431 SWAP2 SWAP1 PUSH2 0x5315 JUMP JUMPDEST PUSH2 0xE85 JUMP JUMPDEST PUSH1 0x40 MLOAD PUSH2 0x443 SWAP2 SWAP1 PUSH2 0x5D42 JUMP JUMPDEST PUSH1 0x40 MLOAD DUP1 SWAP2 SUB SWAP1 RETURN JUMPDEST CALLVALUE DUP1 ISZERO PUSH2 0x458 JUMPI PUSH1 0x0 DUP1 REVERT JUMPDEST POP PUSH2 0x461 PUSH2 0xE9C JUMP JUMPDEST PUSH1 0x40 MLOAD PUSH2 0x46E SWAP2 SWAP1 PUSH2 0x6304 JUMP JUMPDEST PUSH1 0x40 MLOAD DUP1 SWAP2 SUB SWAP1 RETURN JUMPDEST CALLVALUE DUP1 ISZERO PUSH2 0x483 JUMPI PUSH1 0x0 DUP1 REVERT JUMPDEST POP PUSH2 0x49E PUSH1 0x4 DUP1 CALLDATASIZE SUB DUP2 ADD SWAP1 PUSH2 0x499 SWAP2 SWAP1 PUSH2 0x5186 JUMP JUMPDEST PUSH2 0xEA2 JUMP JUMPDEST PUSH1 0x40 MLOAD PUSH2 0x4AB SWAP2 SWAP1 PUSH2 0x6304 JUMP JUMPDEST PUSH1 0x40 MLOAD DUP1 SWAP2 SUB SWAP1 RETURN JUMPDEST CALLVALUE DUP1 ISZERO PUSH2 0x4C0 JUMPI PUSH1 0x0 DUP1 REVERT JUMPDEST POP PUSH2 0x4C9 PUSH2 0xF11 JUMP JUMPDEST PUSH1 0x40 MLOAD PUSH2 0x4D6 SWAP2 SWAP1 PUSH2 0x6304 JUMP JUMPDEST PUSH1 0x40 MLOAD DUP1 SWAP2 SUB SWAP1 RETURN JUMPDEST CALLVALUE DUP1 ISZERO PUSH2 0x4EB JUMPI PUSH1 0x0 DUP1 REVERT JUMPDEST POP PUSH2 0x4F4 PUSH2 0xF17 JUMP JUMPDEST PUSH1 0x40 MLOAD PUSH2 0x501 SWAP2 SWAP1 PUSH2 0x6304 JUMP JUMPDEST PUSH1 0x40 MLOAD DUP1 SWAP2 SUB SWAP1 RETURN JUMPDEST CALLVALUE DUP1 ISZERO PUSH2 0x516 JUMPI PUSH1 0x0 DUP1 REVERT JUMPDEST POP PUSH2 0x51F PUSH2 0xF26 JUMP JUMPDEST PUSH1 0x40 MLOAD PUSH2 0x52C SWAP2 SWAP1 PUSH2 0x6304 JUMP JUMPDEST PUSH1 0x40 MLOAD DUP1 SWAP2 SUB SWAP1 RETURN JUMPDEST CALLVALUE DUP1 ISZERO PUSH2 0x541 JUMPI PUSH1 0x0 DUP1 REVERT JUMPDEST POP PUSH2 0x55C PUSH1 0x4 DUP1 CALLDATASIZE SUB DUP2 ADD SWAP1 PUSH2 0x557 SWAP2 SWAP1 PUSH2 0x5315 JUMP JUMPDEST PUSH2 0xF2C JUMP JUMPDEST STOP JUMPDEST CALLVALUE DUP1 ISZERO PUSH2 0x56A JUMPI PUSH1 0x0 DUP1 REVERT JUMPDEST POP PUSH2 0x585 PUSH1 0x4 DUP1 CALLDATASIZE SUB DUP2 ADD SWAP1 PUSH2 0x580 SWAP2 SWAP1 PUSH2 0x5220 JUMP JUMPDEST PUSH2 0xFEE JUMP JUMPDEST PUSH1 0x40 MLOAD PUSH2 0x592 SWAP2 SWAP1 PUSH2 0x5D42 JUMP JUMPDEST PUSH1 0x40 MLOAD DUP1 SWAP2 SUB SWAP1 RETURN JUMPDEST CALLVALUE DUP1 ISZERO PUSH2 0x5A7 JUMPI PUSH1 0x0 DUP1 REVERT JUMPDEST POP PUSH2 0x5C2 PUSH1 0x4 DUP1 CALLDATASIZE SUB DUP2 ADD SWAP1 PUSH2 0x5BD SWAP2 SWAP1 PUSH2 0x547B JUMP JUMPDEST PUSH2 0x10EB JUMP JUMPDEST STOP JUMPDEST CALLVALUE DUP1 ISZERO PUSH2 0x5D0 JUMPI PUSH1 0x0 DUP1 REVERT JUMPDEST POP PUSH2 0x5D9 PUSH2 0x125D JUMP JUMPDEST PUSH1 0x40 MLOAD PUSH2 0x5E6 SWAP2 SWAP1 PUSH2 0x5D5D JUMP JUMPDEST PUSH1 0x40 MLOAD DUP1 SWAP2 SUB SWAP1 RETURN JUMPDEST CALLVALUE DUP1 ISZERO PUSH2 0x5FB JUMPI PUSH1 0x0 DUP1 REVERT JUMPDEST POP PUSH2 0x604 PUSH2 0x1284 JUMP JUMPDEST PUSH1 0x40 MLOAD PUSH2 0x611 SWAP2 SWAP1 PUSH2 0x63E0 JUMP JUMPDEST PUSH1 0x40 MLOAD DUP1 SWAP2 SUB SWAP1 RETURN JUMPDEST CALLVALUE DUP1 ISZERO PUSH2 0x626 JUMPI PUSH1 0x0 DUP1 REVERT JUMPDEST POP PUSH2 0x62F PUSH2 0x1297 JUMP JUMPDEST PUSH1 0x40 MLOAD PUSH2 0x63C SWAP2 SWAP1 PUSH2 0x5D5D JUMP JUMPDEST PUSH1 0x40 MLOAD DUP1 SWAP2 SUB SWAP1 RETURN JUMPDEST CALLVALUE DUP1 ISZERO PUSH2 0x651 JUMPI PUSH1 0x0 DUP1 REVERT JUMPDEST POP PUSH2 0x66C PUSH1 0x4 DUP1 CALLDATASIZE SUB DUP2 ADD SWAP1 PUSH2 0x667 SWAP2 SWAP1 PUSH2 0x5186 JUMP JUMPDEST PUSH2 0x129D JUMP JUMPDEST PUSH1 0x40 MLOAD PUSH2 0x67A SWAP3 SWAP2 SWAP1 PUSH2 0x631F JUMP JUMPDEST PUSH1 0x40 MLOAD DUP1 SWAP2 SUB SWAP1 RETURN JUMPDEST CALLVALUE DUP1 ISZERO PUSH2 0x68F JUMPI PUSH1 0x0 DUP1 REVERT JUMPDEST POP PUSH2 0x6AA PUSH1 0x4 DUP1 CALLDATASIZE SUB DUP2 ADD SWAP1 PUSH2 0x6A5 SWAP2 SWAP1 PUSH2 0x5315 JUMP JUMPDEST PUSH2 0x132F JUMP JUMPDEST PUSH1 0x40 MLOAD PUSH2 0x6B7 SWAP2 SWAP1 PUSH2 0x5D42 JUMP JUMPDEST PUSH1 0x40 MLOAD DUP1 SWAP2 SUB SWAP1 RETURN JUMPDEST CALLVALUE DUP1 ISZERO PUSH2 0x6CC JUMPI PUSH1 0x0 DUP1 REVERT JUMPDEST POP PUSH2 0x6E7 PUSH1 0x4 DUP1 CALLDATASIZE SUB DUP2 ADD SWAP1 PUSH2 0x6E2 SWAP2 SWAP1 PUSH2 0x5186 JUMP JUMPDEST PUSH2 0x13D4 JUMP JUMPDEST PUSH1 0x40 MLOAD PUSH2 0x6F4 SWAP2 SWAP1 PUSH2 0x6304 JUMP JUMPDEST PUSH1 0x40 MLOAD DUP1 SWAP2 SUB SWAP1 RETURN JUMPDEST CALLVALUE DUP1 ISZERO PUSH2 0x709 JUMPI PUSH1 0x0 DUP1 REVERT JUMPDEST POP PUSH2 0x712 PUSH2 0x1437 JUMP JUMPDEST PUSH1 0x40 MLOAD PUSH2 0x71F SWAP2 SWAP1 PUSH2 0x6304 JUMP JUMPDEST PUSH1 0x40 MLOAD DUP1 SWAP2 SUB SWAP1 RETURN JUMPDEST CALLVALUE DUP1 ISZERO PUSH2 0x734 JUMPI PUSH1 0x0 DUP1 REVERT JUMPDEST POP PUSH2 0x73D PUSH2 0x1446 JUMP JUMPDEST PUSH1 0x40 MLOAD PUSH2 0x74A SWAP2 SWAP1 PUSH2 0x6304 JUMP JUMPDEST PUSH1 0x40 MLOAD DUP1 SWAP2 SUB SWAP1 RETURN JUMPDEST PUSH2 0x75B PUSH2 0x144C JUMP JUMPDEST STOP JUMPDEST CALLVALUE DUP1 ISZERO PUSH2 0x769 JUMPI PUSH1 0x0 DUP1 REVERT JUMPDEST POP PUSH2 0x784 PUSH1 0x4 DUP1 CALLDATASIZE SUB DUP2 ADD SWAP1 PUSH2 0x77F SWAP2 SWAP1 PUSH2 0x547B JUMP JUMPDEST PUSH2 0x155F JUMP JUMPDEST STOP JUMPDEST CALLVALUE DUP1 ISZERO PUSH2 0x792 JUMPI PUSH1 0x0 DUP1 REVERT JUMPDEST POP PUSH2 0x79B PUSH2 0x16D1 JUMP JUMPDEST PUSH1 0x40 MLOAD PUSH2 0x7A8 SWAP2 SWAP1 PUSH2 0x5D42 JUMP JUMPDEST PUSH1 0x40 MLOAD DUP1 SWAP2 SUB SWAP1 RETURN JUMPDEST PUSH2 0x7CB PUSH1 0x4 DUP1 CALLDATASIZE SUB DUP2 ADD SWAP1 PUSH2 0x7C6 SWAP2 SWAP1 PUSH2 0x5186 JUMP JUMPDEST PUSH2 0x16DA JUMP JUMPDEST STOP JUMPDEST CALLVALUE DUP1 ISZERO PUSH2 0x7D9 JUMPI PUSH1 0x0 DUP1 REVERT JUMPDEST POP PUSH2 0x7E2 PUSH2 0x1797 JUMP JUMPDEST PUSH1 0x40 MLOAD PUSH2 0x7EF SWAP2 SWAP1 PUSH2 0x6304 JUMP JUMPDEST PUSH1 0x40 MLOAD DUP1 SWAP2 SUB SWAP1 RETURN JUMPDEST CALLVALUE DUP1 ISZERO PUSH2 0x804 JUMPI PUSH1 0x0 DUP1 REVERT JUMPDEST POP PUSH2 0x81F PUSH1 0x4 DUP1 CALLDATASIZE SUB DUP2 ADD SWAP1 PUSH2 0x81A SWAP2 SWAP1 PUSH2 0x51B3 JUMP JUMPDEST PUSH2 0x179D JUMP JUMPDEST STOP JUMPDEST CALLVALUE DUP1 ISZERO PUSH2 0x82D JUMPI PUSH1 0x0 DUP1 REVERT JUMPDEST POP PUSH2 0x836 PUSH2 0x19BD JUMP JUMPDEST PUSH1 0x40 MLOAD PUSH2 0x843 SWAP2 SWAP1 PUSH2 0x5EC3 JUMP JUMPDEST PUSH1 0x40 MLOAD DUP1 SWAP2 SUB SWAP1 RETURN JUMPDEST CALLVALUE DUP1 ISZERO PUSH2 0x858 JUMPI PUSH1 0x0 DUP1 REVERT JUMPDEST POP PUSH2 0x873 PUSH1 0x4 DUP1 CALLDATASIZE SUB DUP2 ADD SWAP1 PUSH2 0x86E SWAP2 SWAP1 PUSH2 0x5186 JUMP JUMPDEST PUSH2 0x19E3 JUMP JUMPDEST PUSH1 0x40 MLOAD PUSH2 0x880 SWAP2 SWAP1 PUSH2 0x6304 JUMP JUMPDEST PUSH1 0x40 MLOAD DUP1 SWAP2 SUB SWAP1 RETURN JUMPDEST CALLVALUE DUP1 ISZERO PUSH2 0x895 JUMPI PUSH1 0x0 DUP1 REVERT JUMPDEST POP PUSH2 0x89E PUSH2 0x19FB JUMP JUMPDEST PUSH1 0x40 MLOAD PUSH2 0x8AB SWAP2 SWAP1 PUSH2 0x6304 JUMP JUMPDEST PUSH1 0x40 MLOAD DUP1 SWAP2 SUB SWAP1 RETURN JUMPDEST CALLVALUE DUP1 ISZERO PUSH2 0x8C0 JUMPI PUSH1 0x0 DUP1 REVERT JUMPDEST POP PUSH2 0x8C9 PUSH2 0x1A0D JUMP JUMPDEST PUSH1 0x40 MLOAD PUSH2 0x8D6 SWAP2 SWAP1 PUSH2 0x5D42 JUMP JUMPDEST PUSH1 0x40 MLOAD DUP1 SWAP2 SUB SWAP1 RETURN JUMPDEST CALLVALUE DUP1 ISZERO PUSH2 0x8EB JUMPI PUSH1 0x0 DUP1 REVERT JUMPDEST POP PUSH2 0x8F4 PUSH2 0x1A12 JUMP JUMPDEST PUSH1 0x40 MLOAD PUSH2 0x901 SWAP2 SWAP1 PUSH2 0x6304 JUMP JUMPDEST PUSH1 0x40 MLOAD DUP1 SWAP2 SUB SWAP1 RETURN JUMPDEST CALLVALUE DUP1 ISZERO PUSH2 0x916 JUMPI PUSH1 0x0 DUP1 REVERT JUMPDEST POP PUSH2 0x931 PUSH1 0x4 DUP1 CALLDATASIZE SUB DUP2 ADD SWAP1 PUSH2 0x92C SWAP2 SWAP1 PUSH2 0x5186 JUMP JUMPDEST PUSH2 0x1A18 JUMP JUMPDEST PUSH1 0x40 MLOAD PUSH2 0x93E SWAP2 SWAP1 PUSH2 0x6304 JUMP JUMPDEST PUSH1 0x40 MLOAD DUP1 SWAP2 SUB SWAP1 RETURN JUMPDEST CALLVALUE DUP1 ISZERO PUSH2 0x953 JUMPI PUSH1 0x0 DUP1 REVERT JUMPDEST POP PUSH2 0x96E PUSH1 0x4 DUP1 CALLDATASIZE SUB DUP2 ADD SWAP1 PUSH2 0x969 SWAP2 SWAP1 PUSH2 0x5382 JUMP JUMPDEST PUSH2 0x1A30 JUMP JUMPDEST STOP JUMPDEST CALLVALUE DUP1 ISZERO PUSH2 0x97C JUMPI PUSH1 0x0 DUP1 REVERT JUMPDEST POP PUSH2 0x985 PUSH2 0x1C22 JUMP JUMPDEST PUSH1 0x40 MLOAD PUSH2 0x992 SWAP2 SWAP1 PUSH2 0x5A2F JUMP JUMPDEST PUSH1 0x40 MLOAD DUP1 SWAP2 SUB SWAP1 RETURN JUMPDEST CALLVALUE DUP1 ISZERO PUSH2 0x9A7 JUMPI PUSH1 0x0 DUP1 REVERT JUMPDEST POP PUSH2 0x9C2 PUSH1 0x4 DUP1 CALLDATASIZE SUB DUP2 ADD SWAP1 PUSH2 0x9BD SWAP2 SWAP1 PUSH2 0x53DC JUMP JUMPDEST PUSH2 0x1C48 JUMP JUMPDEST STOP JUMPDEST CALLVALUE DUP1 ISZERO PUSH2 0x9D0 JUMPI PUSH1 0x0 DUP1 REVERT JUMPDEST POP PUSH2 0x9D9 PUSH2 0x1DA4 JUMP JUMPDEST PUSH1 0x40 MLOAD PUSH2 0x9E6 SWAP2 SWAP1 PUSH2 0x6304 JUMP JUMPDEST PUSH1 0x40 MLOAD DUP1 SWAP2 SUB SWAP1 RETURN JUMPDEST CALLVALUE DUP1 ISZERO PUSH2 0x9FB JUMPI PUSH1 0x0 DUP1 REVERT JUMPDEST POP PUSH2 0xA04 PUSH2 0x1DAA JUMP JUMPDEST PUSH1 0x40 MLOAD PUSH2 0xA11 SWAP2 SWAP1 PUSH2 0x5F22 JUMP JUMPDEST PUSH1 0x40 MLOAD DUP1 SWAP2 SUB SWAP1 RETURN JUMPDEST CALLVALUE DUP1 ISZERO PUSH2 0xA26 JUMPI PUSH1 0x0 DUP1 REVERT JUMPDEST POP PUSH2 0xA41 PUSH1 0x4 DUP1 CALLDATASIZE SUB DUP2 ADD SWAP1 PUSH2 0xA3C SWAP2 SWAP1 PUSH2 0x5186 JUMP JUMPDEST PUSH2 0x1E38 JUMP JUMPDEST PUSH1 0x40 MLOAD PUSH2 0xA4E SWAP2 SWAP1 PUSH2 0x6304 JUMP JUMPDEST PUSH1 0x40 MLOAD DUP1 SWAP2 SUB SWAP1 RETURN JUMPDEST CALLVALUE DUP1 ISZERO PUSH2 0xA63 JUMPI PUSH1 0x0 DUP1 REVERT JUMPDEST POP PUSH2 0xA7E PUSH1 0x4 DUP1 CALLDATASIZE SUB DUP2 ADD SWAP1 PUSH2 0xA79 SWAP2 SWAP1 PUSH2 0x5315 JUMP JUMPDEST PUSH2 0x1E4A JUMP JUMPDEST STOP JUMPDEST CALLVALUE DUP1 ISZERO PUSH2 0xA8C JUMPI PUSH1 0x0 DUP1 REVERT JUMPDEST POP PUSH2 0xAA7 PUSH1 0x4 DUP1 CALLDATASIZE SUB DUP2 ADD SWAP1 PUSH2 0xAA2 SWAP2 SWAP1 PUSH2 0x5315 JUMP JUMPDEST PUSH2 0x1F0C JUMP JUMPDEST PUSH1 0x40 MLOAD PUSH2 0xAB4 SWAP2 SWAP1 PUSH2 0x5D42 JUMP JUMPDEST PUSH1 0x40 MLOAD DUP1 SWAP2 SUB SWAP1 RETURN JUMPDEST CALLVALUE DUP1 ISZERO PUSH2 0xAC9 JUMPI PUSH1 0x0 DUP1 REVERT JUMPDEST POP PUSH2 0xAE4 PUSH1 0x4 DUP1 CALLDATASIZE SUB DUP2 ADD SWAP1 PUSH2 0xADF SWAP2 SWAP1 PUSH2 0x5315 JUMP JUMPDEST PUSH2 0x1FB1 JUMP JUMPDEST PUSH1 0x40 MLOAD PUSH2 0xAF1 SWAP2 SWAP1 PUSH2 0x5D42 JUMP JUMPDEST PUSH1 0x40 MLOAD DUP1 SWAP2 SUB SWAP1 RETURN JUMPDEST CALLVALUE DUP1 ISZERO PUSH2 0xB06 JUMPI PUSH1 0x0 DUP1 REVERT JUMPDEST POP PUSH2 0xB0F PUSH2 0x201B JUMP JUMPDEST PUSH1 0x40 MLOAD PUSH2 0xB1C SWAP2 SWAP1 PUSH2 0x6304 JUMP JUMPDEST PUSH1 0x40 MLOAD DUP1 SWAP2 SUB SWAP1 RETURN JUMPDEST PUSH2 0xB3F PUSH1 0x4 DUP1 CALLDATASIZE SUB DUP2 ADD SWAP1 PUSH2 0xB3A SWAP2 SWAP1 PUSH2 0x51E0 JUMP JUMPDEST PUSH2 0x2021 JUMP JUMPDEST STOP JUMPDEST CALLVALUE DUP1 ISZERO PUSH2 0xB4D JUMPI PUSH1 0x0 DUP1 REVERT JUMPDEST POP PUSH2 0xB56 PUSH2 0x20E0 JUMP JUMPDEST PUSH1 0x40 MLOAD PUSH2 0xB63 SWAP2 SWAP1 PUSH2 0x6304 JUMP JUMPDEST PUSH1 0x40 MLOAD DUP1 SWAP2 SUB SWAP1 RETURN JUMPDEST CALLVALUE DUP1 ISZERO PUSH2 0xB78 JUMPI PUSH1 0x0 DUP1 REVERT JUMPDEST POP PUSH2 0xB93 PUSH1 0x4 DUP1 CALLDATASIZE SUB DUP2 ADD SWAP1 PUSH2 0xB8E SWAP2 SWAP1 PUSH2 0x5220 JUMP JUMPDEST PUSH2 0x216D JUMP JUMPDEST STOP JUMPDEST CALLVALUE DUP1 ISZERO PUSH2 0xBA1 JUMPI PUSH1 0x0 DUP1 REVERT JUMPDEST POP PUSH2 0xBBC PUSH1 0x4 DUP1 CALLDATASIZE SUB DUP2 ADD SWAP1 PUSH2 0xBB7 SWAP2 SWAP1 PUSH2 0x547B JUMP JUMPDEST PUSH2 0x21D3 JUMP JUMPDEST STOP JUMPDEST CALLVALUE DUP1 ISZERO PUSH2 0xBCA JUMPI PUSH1 0x0 DUP1 REVERT JUMPDEST POP PUSH2 0xBD3 PUSH2 0x23B3 JUMP JUMPDEST PUSH1 0x40 MLOAD PUSH2 0xBE0 SWAP2 SWAP1 PUSH2 0x6304 JUMP JUMPDEST PUSH1 0x40 MLOAD DUP1 SWAP2 SUB SWAP1 RETURN JUMPDEST CALLVALUE DUP1 ISZERO PUSH2 0xBF5 JUMPI PUSH1 0x0 DUP1 REVERT JUMPDEST POP PUSH2 0xC10 PUSH1 0x4 DUP1 CALLDATASIZE SUB DUP2 ADD SWAP1 PUSH2 0xC0B SWAP2 SWAP1 PUSH2 0x547B JUMP JUMPDEST PUSH2 0x241F JUMP JUMPDEST STOP JUMPDEST CALLVALUE DUP1 ISZERO PUSH2 0xC1E JUMPI PUSH1 0x0 DUP1 REVERT JUMPDEST POP PUSH2 0xC39 PUSH1 0x4 DUP1 CALLDATASIZE SUB DUP2 ADD SWAP1 PUSH2 0xC34 SWAP2 SWAP1 PUSH2 0x547B JUMP JUMPDEST PUSH2 0x24CD JUMP JUMPDEST STOP JUMPDEST CALLVALUE DUP1 ISZERO PUSH2 0xC47 JUMPI PUSH1 0x0 DUP1 REVERT JUMPDEST POP PUSH2 0xC50 PUSH2 0x263F JUMP JUMPDEST PUSH1 0x40 MLOAD PUSH2 0xC5D SWAP2 SWAP1 PUSH2 0x5D42 JUMP JUMPDEST PUSH1 0x40 MLOAD DUP1 SWAP2 SUB SWAP1 RETURN JUMPDEST CALLVALUE DUP1 ISZERO PUSH2 0xC72 JUMPI PUSH1 0x0 DUP1 REVERT JUMPDEST POP PUSH2 0xC8D PUSH1 0x4 DUP1 CALLDATASIZE SUB DUP2 ADD SWAP1 PUSH2 0xC88 SWAP2 SWAP1 PUSH2 0x5273 JUMP JUMPDEST PUSH2 0x2650 JUMP JUMPDEST STOP JUMPDEST CALLVALUE DUP1 ISZERO PUSH2 0xC9B JUMPI PUSH1 0x0 DUP1 REVERT JUMPDEST POP PUSH2 0xCB6 PUSH1 0x4 DUP1 CALLDATASIZE SUB DUP2 ADD SWAP1 PUSH2 0xCB1 SWAP2 SWAP1 PUSH2 0x51E0 JUMP JUMPDEST PUSH2 0x28C3 JUMP JUMPDEST PUSH1 0x40 MLOAD PUSH2 0xCC3 SWAP2 SWAP1 PUSH2 0x6304 JUMP JUMPDEST PUSH1 0x40 MLOAD DUP1 SWAP2 SUB SWAP1 RETURN JUMPDEST CALLVALUE DUP1 ISZERO PUSH2 0xCD8 JUMPI PUSH1 0x0 DUP1 REVERT JUMPDEST POP PUSH2 0xCE1 PUSH2 0x28E8 JUMP JUMPDEST PUSH1 0x40 MLOAD PUSH2 0xCEE SWAP2 SWAP1 PUSH2 0x5A2F JUMP JUMPDEST PUSH1 0x40 MLOAD DUP1 SWAP2 SUB SWAP1 RETURN JUMPDEST PUSH2 0xD11 PUSH1 0x4 DUP1 CALLDATASIZE SUB DUP2 ADD SWAP1 PUSH2 0xD0C SWAP2 SWAP1 PUSH2 0x5186 JUMP JUMPDEST PUSH2 0x290E JUMP JUMPDEST STOP JUMPDEST CALLVALUE DUP1 ISZERO PUSH2 0xD1F JUMPI PUSH1 0x0 DUP1 REVERT JUMPDEST POP PUSH2 0xD3A PUSH1 0x4 DUP1 CALLDATASIZE SUB DUP2 ADD SWAP1 PUSH2 0xD35 SWAP2 SWAP1 PUSH2 0x53AF JUMP JUMPDEST PUSH2 0x2A22 JUMP JUMPDEST STOP JUMPDEST CALLVALUE DUP1 ISZERO PUSH2 0xD48 JUMPI PUSH1 0x0 DUP1 REVERT JUMPDEST POP PUSH2 0xD51 PUSH2 0x2C14 JUMP JUMPDEST PUSH1 0x40 MLOAD PUSH2 0xD5E SWAP2 SWAP1 PUSH2 0x5EDE JUMP JUMPDEST PUSH1 0x40 MLOAD DUP1 SWAP2 SUB SWAP1 RETURN JUMPDEST CALLVALUE DUP1 ISZERO PUSH2 0xD73 JUMPI PUSH1 0x0 DUP1 REVERT JUMPDEST POP PUSH2 0xD7C PUSH2 0x2C3A JUMP JUMPDEST PUSH1 0x40 MLOAD PUSH2 0xD89 SWAP2 SWAP1 PUSH2 0x5E7F JUMP JUMPDEST PUSH1 0x40 MLOAD DUP1 SWAP2 SUB SWAP1 RETURN JUMPDEST CALLVALUE DUP1 ISZERO PUSH2 0xD9E JUMPI PUSH1 0x0 DUP1 REVERT JUMPDEST POP PUSH2 0xDA7 PUSH2 0x2C60 JUMP JUMPDEST PUSH1 0x40 MLOAD PUSH2 0xDB4 SWAP2 SWAP1 PUSH2 0x6304 JUMP JUMPDEST PUSH1 0x40 MLOAD DUP1 SWAP2 SUB SWAP1 RETURN JUMPDEST CALLVALUE DUP1 ISZERO PUSH2 0xDC9 JUMPI PUSH1 0x0 DUP1 REVERT JUMPDEST POP PUSH2 0xDD2 PUSH2 0x2D21 JUMP JUMPDEST STOP JUMPDEST PUSH1 0x0 DUP1 DUP3 PUSH20 0xFFFFFFFFFFFFFFFFFFFFFFFFFFFFFFFFFFFFFFFF AND EXTCODESIZE GT SWAP1 POP SWAP2 SWAP1 POP JUMP JUMPDEST PUSH1 0x6A DUP1 SLOAD PUSH2 0xE04 SWAP1 PUSH2 0x66D0 JUMP JUMPDEST DUP1 PUSH1 0x1F ADD PUSH1 0x20 DUP1 SWAP2 DIV MUL PUSH1 0x20 ADD PUSH1 0x40 MLOAD SWAP1 DUP2 ADD PUSH1 0x40 MSTORE DUP1 SWAP3 SWAP2 SWAP1 DUP2 DUP2 MSTORE PUSH1 0x20 ADD DUP3 DUP1 SLOAD PUSH2 0xE30 SWAP1 PUSH2 0x66D0 JUMP JUMPDEST DUP1 ISZERO PUSH2 0xE7D JUMPI DUP1 PUSH1 0x1F LT PUSH2 0xE52 JUMPI PUSH2 0x100 DUP1 DUP4 SLOAD DIV MUL DUP4 MSTORE SWAP2 PUSH1 0x20 ADD SWAP2 PUSH2 0xE7D JUMP JUMPDEST DUP3 ADD SWAP2 SWAP1 PUSH1 0x0 MSTORE PUSH1 0x20 PUSH1 0x0 KECCAK256 SWAP1 JUMPDEST DUP2 SLOAD DUP2 MSTORE SWAP1 PUSH1 0x1 ADD SWAP1 PUSH1 0x20 ADD DUP1 DUP4 GT PUSH2 0xE60 JUMPI DUP3 SWAP1 SUB PUSH1 0x1F AND DUP3 ADD SWAP2 JUMPDEST POP POP POP POP POP DUP2 JUMP JUMPDEST PUSH1 0x0 PUSH2 0xE92 CALLER DUP5 DUP5 PUSH2 0x2FA0 JUMP JUMPDEST PUSH1 0x1 SWAP1 POP SWAP3 SWAP2 POP POP JUMP JUMPDEST PUSH1 0x9F SLOAD DUP2 JUMP JUMPDEST PUSH1 0x0 PUSH1 0x2 PUSH1 0x1 SLOAD EQ ISZERO PUSH2 0xEEA JUMPI PUSH1 0x40 MLOAD PUSH32 0x8C379A000000000000000000000000000000000000000000000000000000000 DUP2 MSTORE PUSH1 0x4 ADD PUSH2 0xEE1 SWAP1 PUSH2 0x62A4 JUMP JUMPDEST PUSH1 0x40 MLOAD DUP1 SWAP2 SUB SWAP1 REVERT JUMPDEST PUSH1 0x2 PUSH1 0x1 DUP2 SWAP1 SSTORE POP PUSH2 0xEFA PUSH2 0x316B JUMP JUMPDEST PUSH2 0xF03 DUP3 PUSH2 0x342B JUMP JUMPDEST SWAP1 POP PUSH1 0x1 DUP1 DUP2 SWAP1 SSTORE POP SWAP2 SWAP1 POP JUMP JUMPDEST PUSH1 0x69 SLOAD DUP2 JUMP JUMPDEST PUSH1 0x0 PUSH2 0xF21 PUSH2 0x34C6 JUMP JUMPDEST SWAP1 POP SWAP1 JUMP JUMPDEST PUSH1 0xA0 SLOAD DUP2 JUMP JUMPDEST PUSH1 0x2 PUSH1 0x1 SLOAD EQ ISZERO PUSH2 0xF72 JUMPI PUSH1 0x40 MLOAD PUSH32 0x8C379A000000000000000000000000000000000000000000000000000000000 DUP2 MSTORE PUSH1 0x4 ADD PUSH2 0xF69 SWAP1 PUSH2 0x62A4 JUMP JUMPDEST PUSH1 0x40 MLOAD DUP1 SWAP2 SUB SWAP1 REVERT JUMPDEST PUSH1 0x2 PUSH1 0x1 DUP2 SWAP1 SSTORE POP PUSH2 0xF82 PUSH2 0x316B JUMP JUMPDEST NUMBER PUSH1 0xA6 SLOAD EQ PUSH2 0xFC6 JUMPI PUSH1 0x40 MLOAD PUSH32 0x8C379A000000000000000000000000000000000000000000000000000000000 DUP2 MSTORE PUSH1 0x4 ADD PUSH2 0xFBD SWAP1 PUSH2 0x60A4 JUMP JUMPDEST PUSH1 0x40 MLOAD DUP1 SWAP2 SUB SWAP1 REVERT JUMPDEST PUSH2 0xFE3 DUP3 DUP3 PUSH2 0xFD3 PUSH2 0x34C6 JUMP JUMPDEST DUP5 PUSH2 0xFDE SWAP2 SWAP1 PUSH2 0x64FF JUMP JUMPDEST PUSH2 0x351E JUMP JUMPDEST PUSH1 0x1 DUP1 DUP2 SWAP1 SSTORE POP POP POP JUMP JUMPDEST PUSH1 0x0 PUSH1 0x2 PUSH1 0x1 SLOAD EQ ISZERO PUSH2 0x1036 JUMPI PUSH1 0x40 MLOAD PUSH32 0x8C379A000000000000000000000000000000000000000000000000000000000 DUP2 MSTORE PUSH1 0x4 ADD PUSH2 0x102D SWAP1 PUSH2 0x62A4 JUMP JUMPDEST PUSH1 0x40 MLOAD DUP1 SWAP2 SUB SWAP1 REVERT JUMPDEST PUSH1 0x2 PUSH1 0x1 DUP2 SWAP1 SSTORE POP PUSH2 0x10D0 DUP5 CALLER DUP5 PUSH1 0x68 PUSH1 0x0 DUP10 PUSH20 0xFFFFFFFFFFFFFFFFFFFFFFFFFFFFFFFFFFFFFFFF AND PUSH20 0xFFFFFFFFFFFFFFFFFFFFFFFFFFFFFFFFFFFFFFFF AND DUP2 MSTORE PUSH1 0x20 ADD SWAP1 DUP2 MSTORE PUSH1 0x20 ADD PUSH1 0x0 KECCAK256 PUSH1 0x0 CALLER PUSH20 0xFFFFFFFFFFFFFFFFFFFFFFFFFFFFFFFFFFFFFFFF AND PUSH20 0xFFFFFFFFFFFFFFFFFFFFFFFFFFFFFFFFFFFFFFFF AND DUP2 MSTORE PUSH1 0x20 ADD SWAP1 DUP2 MSTORE PUSH1 0x20 ADD PUSH1 0x0 KECCAK256 SLOAD PUSH2 0x10CB SWAP2 SWAP1 PUSH2 0x6559 JUMP JUMPDEST PUSH2 0x2FA0 JUMP JUMPDEST PUSH2 0x10DB DUP5 DUP5 DUP5 PUSH2 0x36DB JUMP JUMPDEST SWAP1 POP PUSH1 0x1 DUP1 DUP2 SWAP1 SSTORE POP SWAP4 SWAP3 POP POP POP JUMP JUMPDEST CALLER PUSH20 0xFFFFFFFFFFFFFFFFFFFFFFFFFFFFFFFFFFFFFFFF AND PUSH1 0x33 PUSH1 0x0 SWAP1 SLOAD SWAP1 PUSH2 0x100 EXP SWAP1 DIV PUSH20 0xFFFFFFFFFFFFFFFFFFFFFFFFFFFFFFFFFFFFFFFF AND PUSH20 0xFFFFFFFFFFFFFFFFFFFFFFFFFFFFFFFFFFFFFFFF AND EQ PUSH2 0x117B JUMPI PUSH1 0x40 MLOAD PUSH32 0x8C379A000000000000000000000000000000000000000000000000000000000 DUP2 MSTORE PUSH1 0x4 ADD PUSH2 0x1172 SWAP1 PUSH2 0x6124 JUMP JUMPDEST PUSH1 0x40 MLOAD DUP1 SWAP2 SUB SWAP1 REVERT JUMPDEST PUSH2 0x1183 PUSH2 0x316B JUMP JUMPDEST NUMBER PUSH1 0xA6 SLOAD EQ PUSH2 0x11C7 JUMPI PUSH1 0x40 MLOAD PUSH32 0x8C379A000000000000000000000000000000000000000000000000000000000 DUP2 MSTORE PUSH1 0x4 ADD PUSH2 0x11BE SWAP1 PUSH2 0x60A4 JUMP JUMPDEST PUSH1 0x40 MLOAD DUP1 SWAP2 SUB SWAP1 REVERT JUMPDEST PUSH8 0xDE0B6B3A7640000 DUP2 GT ISZERO PUSH2 0x1212 JUMPI PUSH1 0x40 MLOAD PUSH32 0x8C379A000000000000000000000000000000000000000000000000000000000 DUP2 MSTORE PUSH1 0x4 ADD PUSH2 0x1209 SWAP1 PUSH2 0x6084 JUMP JUMPDEST PUSH1 0x40 MLOAD DUP1 SWAP2 SUB SWAP1 REVERT JUMPDEST PUSH1 0x0 PUSH1 0xA1 SLOAD SWAP1 POP DUP2 PUSH1 0xA1 DUP2 SWAP1 SSTORE POP PUSH32 0x1F6917C8223F142D2549D7531B9897B963F67C4CD1D266E9771080A608EBE188 DUP2 DUP4 PUSH1 0x40 MLOAD PUSH2 0x1251 SWAP3 SWAP2 SWAP1 PUSH2 0x631F JUMP JUMPDEST PUSH1 0x40 MLOAD DUP1 SWAP2 SUB SWAP1 LOG1 POP POP JUMP JUMPDEST PUSH32 0x576144ED657C8304561E56CA632E17751956250114636E8C01F64A7F2C6D98CF PUSH1 0x0 SHL DUP2 JUMP JUMPDEST PUSH1 0x6C PUSH1 0x0 SWAP1 SLOAD SWAP1 PUSH2 0x100 EXP SWAP1 DIV PUSH1 0xFF AND DUP2 JUMP JUMPDEST PUSH1 0xAA SLOAD DUP2 JUMP JUMPDEST PUSH1 0x0 DUP1 PUSH1 0xA9 PUSH1 0x0 DUP5 PUSH20 0xFFFFFFFFFFFFFFFFFFFFFFFFFFFFFFFFFFFFFFFF AND PUSH20 0xFFFFFFFFFFFFFFFFFFFFFFFFFFFFFFFFFFFFFFFF AND DUP2 MSTORE PUSH1 0x20 ADD SWAP1 DUP2 MSTORE PUSH1 0x20 ADD PUSH1 0x0 KECCAK256 PUSH1 0x0 ADD SLOAD PUSH1 0xA9 PUSH1 0x0 DUP6 PUSH20 0xFFFFFFFFFFFFFFFFFFFFFFFFFFFFFFFFFFFFFFFF AND PUSH20 0xFFFFFFFFFFFFFFFFFFFFFFFFFFFFFFFFFFFFFFFF AND DUP2 MSTORE PUSH1 0x20 ADD SWAP1 DUP2 MSTORE PUSH1 0x20 ADD PUSH1 0x0 KECCAK256 PUSH1 0x1 ADD SLOAD SWAP2 POP SWAP2 POP SWAP2 POP SWAP2 JUMP JUMPDEST PUSH1 0x0 PUSH2 0x13CA CALLER DUP5 PUSH2 0x13C5 DUP6 PUSH1 0x68 PUSH1 0x0 CALLER PUSH20 0xFFFFFFFFFFFFFFFFFFFFFFFFFFFFFFFFFFFFFFFF AND PUSH20 0xFFFFFFFFFFFFFFFFFFFFFFFFFFFFFFFFFFFFFFFF AND DUP2 MSTORE PUSH1 0x20 ADD SWAP1 DUP2 MSTORE PUSH1 0x20 ADD PUSH1 0x0 KECCAK256 PUSH1 0x0 DUP10 PUSH20 0xFFFFFFFFFFFFFFFFFFFFFFFFFFFFFFFFFFFFFFFF AND PUSH20 0xFFFFFFFFFFFFFFFFFFFFFFFFFFFFFFFFFFFFFFFF AND DUP2 MSTORE PUSH1 0x20 ADD SWAP1 DUP2 MSTORE PUSH1 0x20 ADD PUSH1 0x0 KECCAK256 SLOAD PUSH2 0x3888 SWAP1 SWAP2 SWAP1 PUSH4 0xFFFFFFFF AND JUMP JUMPDEST PUSH2 0x2FA0 JUMP JUMPDEST PUSH1 0x1 SWAP1 POP SWAP3 SWAP2 POP POP JUMP JUMPDEST PUSH1 0x0 PUSH2 0x13DE PUSH2 0x316B JUMP JUMPDEST PUSH1 0x67 PUSH1 0x0 DUP4 PUSH20 0xFFFFFFFFFFFFFFFFFFFFFFFFFFFFFFFFFFFFFFFF AND PUSH20 0xFFFFFFFFFFFFFFFFFFFFFFFFFFFFFFFFFFFFFFFF AND DUP2 MSTORE PUSH1 0x20 ADD SWAP1 DUP2 MSTORE PUSH1 0x20 ADD PUSH1 0x0 KECCAK256 SLOAD PUSH2 0x1426 PUSH2 0x34C6 JUMP JUMPDEST PUSH2 0x1430 SWAP2 SWAP1 PUSH2 0x64FF JUMP JUMPDEST SWAP1 POP SWAP2 SWAP1 POP JUMP JUMPDEST PUSH1 0x0 PUSH2 0x1441 PUSH2 0x389E JUMP JUMPDEST SWAP1 POP SWAP1 JUMP JUMPDEST PUSH1 0xA7 SLOAD DUP2 JUMP JUMPDEST PUSH1 0x2 PUSH1 0x1 SLOAD EQ ISZERO PUSH2 0x1492 JUMPI PUSH1 0x40 MLOAD PUSH32 0x8C379A000000000000000000000000000000000000000000000000000000000 DUP2 MSTORE PUSH1 0x4 ADD PUSH2 0x1489 SWAP1 PUSH2 0x62A4 JUMP JUMPDEST PUSH1 0x40 MLOAD DUP1 SWAP2 SUB SWAP1 REVERT JUMPDEST PUSH1 0x2 PUSH1 0x1 DUP2 SWAP1 SSTORE POP CALLVALUE PUSH1 0xAC DUP2 SWAP1 SSTORE POP PUSH2 0x14A9 PUSH2 0x316B JUMP JUMPDEST NUMBER PUSH1 0xA6 SLOAD EQ PUSH2 0x14ED JUMPI PUSH1 0x40 MLOAD PUSH32 0x8C379A000000000000000000000000000000000000000000000000000000000 DUP2 MSTORE PUSH1 0x4 ADD PUSH2 0x14E4 SWAP1 PUSH2 0x60A4 JUMP JUMPDEST PUSH1 0x40 MLOAD DUP1 SWAP2 SUB SWAP1 REVERT JUMPDEST PUSH2 0x14F8 CALLER CALLER CALLVALUE PUSH2 0x38B3 JUMP JUMPDEST POP PUSH1 0x0 PUSH1 0xAC SLOAD GT ISZERO PUSH2 0x154E JUMPI CALLER PUSH20 0xFFFFFFFFFFFFFFFFFFFFFFFFFFFFFFFFFFFFFFFF AND PUSH2 0x8FC PUSH1 0xAC SLOAD SWAP1 DUP2 ISZERO MUL SWAP1 PUSH1 0x40 MLOAD PUSH1 0x0 PUSH1 0x40 MLOAD DUP1 DUP4 SUB DUP2 DUP6 DUP9 DUP9 CALL SWAP4 POP POP POP POP ISZERO DUP1 ISZERO PUSH2 0x154C JUMPI RETURNDATASIZE PUSH1 0x0 DUP1 RETURNDATACOPY RETURNDATASIZE PUSH1 0x0 REVERT JUMPDEST POP JUMPDEST PUSH1 0x0 PUSH1 0xAC DUP2 SWAP1 SSTORE POP PUSH1 0x1 DUP1 DUP2 SWAP1 SSTORE POP JUMP JUMPDEST CALLER PUSH20 0xFFFFFFFFFFFFFFFFFFFFFFFFFFFFFFFFFFFFFFFF AND PUSH1 0x33 PUSH1 0x0 SWAP1 SLOAD SWAP1 PUSH2 0x100 EXP SWAP1 DIV PUSH20 0xFFFFFFFFFFFFFFFFFFFFFFFFFFFFFFFFFFFFFFFF AND PUSH20 0xFFFFFFFFFFFFFFFFFFFFFFFFFFFFFFFFFFFFFFFF AND EQ PUSH2 0x15EF JUMPI PUSH1 0x40 MLOAD PUSH32 0x8C379A000000000000000000000000000000000000000000000000000000000 DUP2 MSTORE PUSH1 0x4 ADD PUSH2 0x15E6 SWAP1 PUSH2 0x6124 JUMP JUMPDEST PUSH1 0x40 MLOAD DUP1 SWAP2 SUB SWAP1 REVERT JUMPDEST PUSH2 0x15F7 PUSH2 0x316B JUMP JUMPDEST NUMBER PUSH1 0xA6 SLOAD EQ PUSH2 0x163B JUMPI PUSH1 0x40 MLOAD PUSH32 0x8C379A000000000000000000000000000000000000000000000000000000000 DUP2 MSTORE PUSH1 0x4 ADD PUSH2 0x1632 SWAP1 PUSH2 0x60A4 JUMP JUMPDEST PUSH1 0x40 MLOAD DUP1 SWAP2 SUB SWAP1 REVERT JUMPDEST PUSH8 0xDE0B6B3A7640000 DUP2 GT ISZERO PUSH2 0x1686 JUMPI PUSH1 0x40 MLOAD PUSH32 0x8C379A000000000000000000000000000000000000000000000000000000000 DUP2 MSTORE PUSH1 0x4 ADD PUSH2 0x167D SWAP1 PUSH2 0x6144 JUMP JUMPDEST PUSH1 0x40 MLOAD DUP1 SWAP2 SUB SWAP1 REVERT JUMPDEST PUSH1 0x0 PUSH1 0xA0 SLOAD SWAP1 POP DUP2 PUSH1 0xA0 DUP2 SWAP1 SSTORE POP PUSH32 0xCC8D29BD7A6CCB34210E5349873398367AFA955E6B745621430E8152677D7C75 DUP2 DUP4 PUSH1 0x40 MLOAD PUSH2 0x16C5 SWAP3 SWAP2 SWAP1 PUSH2 0x631F JUMP JUMPDEST PUSH1 0x40 MLOAD DUP1 SWAP2 SUB SWAP1 LOG1 POP POP JUMP JUMPDEST PUSH1 0x0 PUSH1 0x1 SWAP1 POP SWAP1 JUMP JUMPDEST PUSH1 0x2 PUSH1 0x1 SLOAD EQ ISZERO PUSH2 0x1720 JUMPI PUSH1 0x40 MLOAD PUSH32 0x8C379A000000000000000000000000000000000000000000000000000000000 DUP2 MSTORE PUSH1 0x4 ADD PUSH2 0x1717 SWAP1 PUSH2 0x62A4 JUMP JUMPDEST PUSH1 0x40 MLOAD DUP1 SWAP2 SUB SWAP1 REVERT JUMPDEST PUSH1 0x2 PUSH1 0x1 DUP2 SWAP1 SSTORE POP CALLVALUE PUSH1 0xAC DUP2 SWAP1 SSTORE POP PUSH2 0x1737 PUSH2 0x316B JUMP JUMPDEST NUMBER PUSH1 0xA6 SLOAD EQ PUSH2 0x177B JUMPI PUSH1 0x40 MLOAD PUSH32 0x8C379A000000000000000000000000000000000000000000000000000000000 DUP2 MSTORE PUSH1 0x4 ADD PUSH2 0x1772 SWAP1 PUSH2 0x60A4 JUMP JUMPDEST PUSH1 0x40 MLOAD DUP1 SWAP2 SUB SWAP1 REVERT JUMPDEST PUSH2 0x1785 DUP2 CALLVALUE PUSH2 0x3AE3 JUMP JUMPDEST PUSH1 0x0 PUSH1 0xAC DUP2 SWAP1 SSTORE POP PUSH1 0x1 DUP1 DUP2 SWAP1 SSTORE POP POP JUMP JUMPDEST PUSH1 0xA6 SLOAD DUP2 JUMP JUMPDEST CALLER PUSH20 0xFFFFFFFFFFFFFFFFFFFFFFFFFFFFFFFFFFFFFFFF AND PUSH1 0x33 PUSH1 0x0 SWAP1 SLOAD SWAP1 PUSH2 0x100 EXP SWAP1 DIV PUSH20 0xFFFFFFFFFFFFFFFFFFFFFFFFFFFFFFFFFFFFFFFF AND PUSH20 0xFFFFFFFFFFFFFFFFFFFFFFFFFFFFFFFFFFFFFFFF AND EQ PUSH2 0x182D JUMPI PUSH1 0x40 MLOAD PUSH32 0x8C379A000000000000000000000000000000000000000000000000000000000 DUP2 MSTORE PUSH1 0x4 ADD PUSH2 0x1824 SWAP1 PUSH2 0x6124 JUMP JUMPDEST PUSH1 0x40 MLOAD DUP1 SWAP2 SUB SWAP1 REVERT JUMPDEST PUSH1 0x0 PUSH20 0xFFFFFFFFFFFFFFFFFFFFFFFFFFFFFFFFFFFFFFFF AND DUP2 PUSH20 0xFFFFFFFFFFFFFFFFFFFFFFFFFFFFFFFFFFFFFFFF AND EQ ISZERO DUP1 ISZERO PUSH2 0x18B8 JUMPI POP PUSH1 0x34 PUSH1 0x0 SWAP1 SLOAD SWAP1 PUSH2 0x100 EXP SWAP1 DIV PUSH20 0xFFFFFFFFFFFFFFFFFFFFFFFFFFFFFFFFFFFFFFFF AND PUSH20 0xFFFFFFFFFFFFFFFFFFFFFFFFFFFFFFFFFFFFFFFF AND DUP2 PUSH20 0xFFFFFFFFFFFFFFFFFFFFFFFFFFFFFFFFFFFFFFFF AND EQ ISZERO JUMPDEST PUSH2 0x18F7 JUMPI PUSH1 0x40 MLOAD PUSH32 0x8C379A000000000000000000000000000000000000000000000000000000000 DUP2 MSTORE PUSH1 0x4 ADD PUSH2 0x18EE SWAP1 PUSH2 0x5FA4 JUMP JUMPDEST PUSH1 0x40 MLOAD DUP1 SWAP2 SUB SWAP1 REVERT JUMPDEST PUSH1 0x0 PUSH1 0x34 PUSH1 0x0 SWAP1 SLOAD SWAP1 PUSH2 0x100 EXP SWAP1 DIV PUSH20 0xFFFFFFFFFFFFFFFFFFFFFFFFFFFFFFFFFFFFFFFF AND SWAP1 POP DUP2 PUSH1 0x34 PUSH1 0x0 PUSH2 0x100 EXP DUP2 SLOAD DUP2 PUSH20 0xFFFFFFFFFFFFFFFFFFFFFFFFFFFFFFFFFFFFFFFF MUL NOT AND SWAP1 DUP4 PUSH20 0xFFFFFFFFFFFFFFFFFFFFFFFFFFFFFFFFFFFFFFFF AND MUL OR SWAP1 SSTORE POP DUP2 PUSH20 0xFFFFFFFFFFFFFFFFFFFFFFFFFFFFFFFFFFFFFFFF AND DUP2 PUSH20 0xFFFFFFFFFFFFFFFFFFFFFFFFFFFFFFFFFFFFFFFF AND PUSH32 0xB3D55174552271A4F1AAF36B72F50381E892171636B3FB5447FE00E995E7A37B PUSH1 0x40 MLOAD PUSH1 0x40 MLOAD DUP1 SWAP2 SUB SWAP1 LOG3 POP POP JUMP JUMPDEST PUSH1 0xA2 PUSH1 0x0 SWAP1 SLOAD SWAP1 PUSH2 0x100 EXP SWAP1 DIV PUSH20 0xFFFFFFFFFFFFFFFFFFFFFFFFFFFFFFFFFFFFFFFF AND DUP2 JUMP JUMPDEST PUSH1 0x67 PUSH1 0x20 MSTORE DUP1 PUSH1 0x0 MSTORE PUSH1 0x40 PUSH1 0x0 KECCAK256 PUSH1 0x0 SWAP2 POP SWAP1 POP SLOAD DUP2 JUMP JUMPDEST PUSH1 0x0 PUSH2 0x1A05 PUSH2 0x316B JUMP JUMPDEST PUSH1 0xA7 SLOAD SWAP1 POP SWAP1 JUMP JUMPDEST PUSH1 0x1 DUP2 JUMP JUMPDEST PUSH1 0xA1 SLOAD DUP2 JUMP JUMPDEST PUSH1 0xAB PUSH1 0x20 MSTORE DUP1 PUSH1 0x0 MSTORE PUSH1 0x40 PUSH1 0x0 KECCAK256 PUSH1 0x0 SWAP2 POP SWAP1 POP SLOAD DUP2 JUMP JUMPDEST CALLER PUSH20 0xFFFFFFFFFFFFFFFFFFFFFFFFFFFFFFFFFFFFFFFF AND PUSH1 0x33 PUSH1 0x0 SWAP1 SLOAD SWAP1 PUSH2 0x100 EXP SWAP1 DIV PUSH20 0xFFFFFFFFFFFFFFFFFFFFFFFFFFFFFFFFFFFFFFFF AND PUSH20 0xFFFFFFFFFFFFFFFFFFFFFFFFFFFFFFFFFFFFFFFF AND EQ PUSH2 0x1AC0 JUMPI PUSH1 0x40 MLOAD PUSH32 0x8C379A000000000000000000000000000000000000000000000000000000000 DUP2 MSTORE PUSH1 0x4 ADD PUSH2 0x1AB7 SWAP1 PUSH2 0x6124 JUMP JUMPDEST PUSH1 0x40 MLOAD DUP1 SWAP2 SUB SWAP1 REVERT JUMPDEST PUSH1 0x0 PUSH1 0xA4 PUSH1 0x0 SWAP1 SLOAD SWAP1 PUSH2 0x100 EXP SWAP1 DIV PUSH20 0xFFFFFFFFFFFFFFFFFFFFFFFFFFFFFFFFFFFFFFFF AND SWAP1 POP DUP2 PUSH20 0xFFFFFFFFFFFFFFFFFFFFFFFFFFFFFFFFFFFFFFFF AND PUSH4 0x4E1647FB PUSH1 0x40 MLOAD DUP2 PUSH4 0xFFFFFFFF AND PUSH1 0xE0 SHL DUP2 MSTORE PUSH1 0x4 ADD PUSH1 0x20 PUSH1 0x40 MLOAD DUP1 DUP4 SUB DUP2 DUP7 DUP1 EXTCODESIZE ISZERO DUP1 ISZERO PUSH2 0x1B2D JUMPI PUSH1 0x0 DUP1 REVERT JUMPDEST POP GAS STATICCALL ISZERO DUP1 ISZERO PUSH2 0x1B41 JUMPI RETURNDATASIZE PUSH1 0x0 DUP1 RETURNDATACOPY RETURNDATASIZE PUSH1 0x0 REVERT JUMPDEST POP POP POP POP PUSH1 0x40 MLOAD RETURNDATASIZE PUSH1 0x1F NOT PUSH1 0x1F DUP3 ADD AND DUP3 ADD DUP1 PUSH1 0x40 MSTORE POP DUP2 ADD SWAP1 PUSH2 0x1B65 SWAP2 SWAP1 PUSH2 0x5355 JUMP JUMPDEST PUSH2 0x1BA4 JUMPI PUSH1 0x40 MLOAD PUSH32 0x8C379A000000000000000000000000000000000000000000000000000000000 DUP2 MSTORE PUSH1 0x4 ADD PUSH2 0x1B9B SWAP1 PUSH2 0x5F64 JUMP JUMPDEST PUSH1 0x40 MLOAD DUP1 SWAP2 SUB SWAP1 REVERT JUMPDEST DUP2 PUSH1 0xA4 PUSH1 0x0 PUSH2 0x100 EXP DUP2 SLOAD DUP2 PUSH20 0xFFFFFFFFFFFFFFFFFFFFFFFFFFFFFFFFFFFFFFFF MUL NOT AND SWAP1 DUP4 PUSH20 0xFFFFFFFFFFFFFFFFFFFFFFFFFFFFFFFFFFFFFFFF AND MUL OR SWAP1 SSTORE POP PUSH32 0xF9B6A28700579D5C8FAB50F0AC2DCAA52109B85C369C4F511FCC873330AB6CBB DUP2 DUP4 PUSH1 0x40 MLOAD PUSH2 0x1C16 SWAP3 SWAP2 SWAP1 PUSH2 0x5E9A JUMP JUMPDEST PUSH1 0x40 MLOAD DUP1 SWAP2 SUB SWAP1 LOG1 POP POP JUMP JUMPDEST PUSH1 0x33 PUSH1 0x0 SWAP1 SLOAD SWAP1 PUSH2 0x100 EXP SWAP1 DIV PUSH20 0xFFFFFFFFFFFFFFFFFFFFFFFFFFFFFFFFFFFFFFFF AND DUP2 JUMP JUMPDEST PUSH1 0x0 DUP1 SLOAD SWAP1 PUSH2 0x100 EXP SWAP1 DIV PUSH1 0xFF AND ISZERO PUSH2 0x1C96 JUMPI PUSH1 0x40 MLOAD PUSH32 0x8C379A000000000000000000000000000000000000000000000000000000000 DUP2 MSTORE PUSH1 0x4 ADD PUSH2 0x1C8D SWAP1 PUSH2 0x60C4 JUMP JUMPDEST PUSH1 0x40 MLOAD DUP1 SWAP2 SUB SWAP1 REVERT JUMPDEST PUSH1 0x0 PUSH20 0xFFFFFFFFFFFFFFFFFFFFFFFFFFFFFFFFFFFFFFFF AND DUP3 PUSH20 0xFFFFFFFFFFFFFFFFFFFFFFFFFFFFFFFFFFFFFFFF AND EQ ISZERO PUSH2 0x1D06 JUMPI PUSH1 0x40 MLOAD PUSH32 0x8C379A000000000000000000000000000000000000000000000000000000000 DUP2 MSTORE PUSH1 0x4 ADD PUSH2 0x1CFD SWAP1 PUSH2 0x6184 JUMP JUMPDEST PUSH1 0x40 MLOAD DUP1 SWAP2 SUB SWAP1 REVERT JUMPDEST PUSH1 0x0 PUSH20 0xFFFFFFFFFFFFFFFFFFFFFFFFFFFFFFFFFFFFFFFF AND DUP2 PUSH20 0xFFFFFFFFFFFFFFFFFFFFFFFFFFFFFFFFFFFFFFFF AND EQ ISZERO PUSH2 0x1D76 JUMPI PUSH1 0x40 MLOAD PUSH32 0x8C379A000000000000000000000000000000000000000000000000000000000 DUP2 MSTORE PUSH1 0x4 ADD PUSH2 0x1D6D SWAP1 PUSH2 0x5F84 JUMP JUMPDEST PUSH1 0x40 MLOAD DUP1 SWAP2 SUB SWAP1 REVERT JUMPDEST PUSH2 0x1D84 DUP5 DUP5 PUSH1 0x12 DUP6 DUP6 PUSH2 0x3CAF JUMP JUMPDEST PUSH1 0x1 PUSH1 0x0 DUP1 PUSH2 0x100 EXP DUP2 SLOAD DUP2 PUSH1 0xFF MUL NOT AND SWAP1 DUP4 ISZERO ISZERO MUL OR SWAP1 SSTORE POP POP POP POP POP JUMP JUMPDEST PUSH1 0xA8 SLOAD DUP2 JUMP JUMPDEST PUSH1 0x6B DUP1 SLOAD PUSH2 0x1DB7 SWAP1 PUSH2 0x66D0 JUMP JUMPDEST DUP1 PUSH1 0x1F ADD PUSH1 0x20 DUP1 SWAP2 DIV MUL PUSH1 0x20 ADD PUSH1 0x40 MLOAD SWAP1 DUP2 ADD PUSH1 0x40 MSTORE DUP1 SWAP3 SWAP2 SWAP1 DUP2 DUP2 MSTORE PUSH1 0x20 ADD DUP3 DUP1 SLOAD PUSH2 0x1DE3 SWAP1 PUSH2 0x66D0 JUMP JUMPDEST DUP1 ISZERO PUSH2 0x1E30 JUMPI DUP1 PUSH1 0x1F LT PUSH2 0x1E05 JUMPI PUSH2 0x100 DUP1 DUP4 SLOAD DIV MUL DUP4 MSTORE SWAP2 PUSH1 0x20 ADD SWAP2 PUSH2 0x1E30 JUMP JUMPDEST DUP3 ADD SWAP2 SWAP1 PUSH1 0x0 MSTORE PUSH1 0x20 PUSH1 0x0 KECCAK256 SWAP1 JUMPDEST DUP2 SLOAD DUP2 MSTORE SWAP1 PUSH1 0x1 ADD SWAP1 PUSH1 0x20 ADD DUP1 DUP4 GT PUSH2 0x1E13 JUMPI DUP3 SWAP1 SUB PUSH1 0x1F AND DUP3 ADD SWAP2 JUMPDEST POP POP POP POP POP DUP2 JUMP JUMPDEST PUSH1 0x0 PUSH2 0x1E43 DUP3 PUSH2 0x342B JUMP JUMPDEST SWAP1 POP SWAP2 SWAP1 POP JUMP JUMPDEST PUSH1 0x2 PUSH1 0x1 SLOAD EQ ISZERO PUSH2 0x1E90 JUMPI PUSH1 0x40 MLOAD PUSH32 0x8C379A000000000000000000000000000000000000000000000000000000000 DUP2 MSTORE PUSH1 0x4 ADD PUSH2 0x1E87 SWAP1 PUSH2 0x62A4 JUMP JUMPDEST PUSH1 0x40 MLOAD DUP1 SWAP2 SUB SWAP1 REVERT JUMPDEST PUSH1 0x2 PUSH1 0x1 DUP2 SWAP1 SSTORE POP PUSH2 0x1EA0 PUSH2 0x316B JUMP JUMPDEST NUMBER PUSH1 0xA6 SLOAD EQ PUSH2 0x1EE4 JUMPI PUSH1 0x40 MLOAD PUSH32 0x8C379A000000000000000000000000000000000000000000000000000000000 DUP2 MSTORE PUSH1 0x4 ADD PUSH2 0x1EDB SWAP1 PUSH2 0x60A4 JUMP JUMPDEST PUSH1 0x40 MLOAD DUP1 SWAP2 SUB SWAP1 REVERT JUMPDEST PUSH2 0x1F01 DUP3 PUSH2 0x1EF0 PUSH2 0x34C6 JUMP JUMPDEST DUP4 PUSH2 0x1EFB SWAP2 SWAP1 PUSH2 0x64CE JUMP JUMPDEST DUP4 PUSH2 0x351E JUMP JUMPDEST PUSH1 0x1 DUP1 DUP2 SWAP1 SSTORE POP POP POP JUMP JUMPDEST PUSH1 0x0 PUSH2 0x1FA7 CALLER DUP5 PUSH2 0x1FA2 DUP6 PUSH1 0x68 PUSH1 0x0 CALLER PUSH20 0xFFFFFFFFFFFFFFFFFFFFFFFFFFFFFFFFFFFFFFFF AND PUSH20 0xFFFFFFFFFFFFFFFFFFFFFFFFFFFFFFFFFFFFFFFF AND DUP2 MSTORE PUSH1 0x20 ADD SWAP1 DUP2 MSTORE PUSH1 0x20 ADD PUSH1 0x0 KECCAK256 PUSH1 0x0 DUP10 PUSH20 0xFFFFFFFFFFFFFFFFFFFFFFFFFFFFFFFFFFFFFFFF AND PUSH20 0xFFFFFFFFFFFFFFFFFFFFFFFFFFFFFFFFFFFFFFFF AND DUP2 MSTORE PUSH1 0x20 ADD SWAP1 DUP2 MSTORE PUSH1 0x20 ADD PUSH1 0x0 KECCAK256 SLOAD PUSH2 0x3E25 SWAP1 SWAP2 SWAP1 PUSH4 0xFFFFFFFF AND JUMP JUMPDEST PUSH2 0x2FA0 JUMP JUMPDEST PUSH1 0x1 SWAP1 POP SWAP3 SWAP2 POP POP JUMP JUMPDEST PUSH1 0x0 PUSH1 0x2 PUSH1 0x1 SLOAD EQ ISZERO PUSH2 0x1FF9 JUMPI PUSH1 0x40 MLOAD PUSH32 0x8C379A000000000000000000000000000000000000000000000000000000000 DUP2 MSTORE PUSH1 0x4 ADD PUSH2 0x1FF0 SWAP1 PUSH2 0x62A4 JUMP JUMPDEST PUSH1 0x40 MLOAD DUP1 SWAP2 SUB SWAP1 REVERT JUMPDEST PUSH1 0x2 PUSH1 0x1 DUP2 SWAP1 SSTORE POP PUSH2 0x200C CALLER DUP5 DUP5 PUSH2 0x36DB JUMP JUMPDEST SWAP1 POP PUSH1 0x1 DUP1 DUP2 SWAP1 SSTORE POP SWAP3 SWAP2 POP POP JUMP JUMPDEST PUSH1 0xA5 SLOAD DUP2 JUMP JUMPDEST PUSH1 0x2 PUSH1 0x1 SLOAD EQ ISZERO PUSH2 0x2067 JUMPI PUSH1 0x40 MLOAD PUSH32 0x8C379A000000000000000000000000000000000000000000000000000000000 DUP2 MSTORE PUSH1 0x4 ADD PUSH2 0x205E SWAP1 PUSH2 0x62A4 JUMP JUMPDEST PUSH1 0x40 MLOAD DUP1 SWAP2 SUB SWAP1 REVERT JUMPDEST PUSH1 0x2 PUSH1 0x1 DUP2 SWAP1 SSTORE POP CALLVALUE PUSH1 0xAC DUP2 SWAP1 SSTORE POP PUSH2 0x207E PUSH2 0x316B JUMP JUMPDEST NUMBER PUSH1 0xA6 SLOAD EQ PUSH2 0x20C2 JUMPI PUSH1 0x40 MLOAD PUSH32 0x8C379A000000000000000000000000000000000000000000000000000000000 DUP2 MSTORE PUSH1 0x4 ADD PUSH2 0x20B9 SWAP1 PUSH2 0x60A4 JUMP JUMPDEST PUSH1 0x40 MLOAD DUP1 SWAP2 SUB SWAP1 REVERT JUMPDEST PUSH2 0x20CD DUP3 CALLVALUE DUP4 PUSH2 0x3E3B JUMP JUMPDEST PUSH1 0x0 PUSH1 0xAC DUP2 SWAP1 SSTORE POP PUSH1 0x1 DUP1 DUP2 SWAP1 SSTORE POP POP POP JUMP JUMPDEST PUSH1 0x0 DUP1 PUSH2 0x20EB PUSH2 0x34C6 JUMP JUMPDEST PUSH1 0x69 SLOAD PUSH2 0x20F8 SWAP2 SWAP1 PUSH2 0x64FF JUMP JUMPDEST SWAP1 POP PUSH1 0x0 DUP2 EQ ISZERO PUSH2 0x210D JUMPI PUSH1 0x0 SWAP2 POP POP PUSH2 0x216A JUMP JUMPDEST PUSH1 0x0 PUSH8 0xDE0B6B3A7640000 PUSH1 0xA7 SLOAD PUSH2 0x2125 SWAP2 SWAP1 PUSH2 0x64FF JUMP JUMPDEST SWAP1 POP DUP2 DUP2 PUSH2 0x2133 SWAP2 SWAP1 PUSH2 0x64CE JUMP JUMPDEST PUSH1 0x9F SLOAD PUSH8 0xDE0B6B3A7640000 PUSH2 0x2149 SWAP2 SWAP1 PUSH2 0x6559 JUMP JUMPDEST PUSH2 0x2151 PUSH2 0x2C60 JUMP JUMPDEST PUSH2 0x215B SWAP2 SWAP1 PUSH2 0x64FF JUMP JUMPDEST PUSH2 0x2165 SWAP2 SWAP1 PUSH2 0x64FF JUMP JUMPDEST SWAP3 POP POP POP JUMPDEST SWAP1 JUMP JUMPDEST PUSH1 0x2 PUSH1 0x1 SLOAD EQ ISZERO PUSH2 0x21B3 JUMPI PUSH1 0x40 MLOAD PUSH32 0x8C379A000000000000000000000000000000000000000000000000000000000 DUP2 MSTORE PUSH1 0x4 ADD PUSH2 0x21AA SWAP1 PUSH2 0x62A4 JUMP JUMPDEST PUSH1 0x40 MLOAD DUP1 SWAP2 SUB SWAP1 REVERT JUMPDEST PUSH1 0x2 PUSH1 0x1 DUP2 SWAP1 SSTORE POP PUSH2 0x21C7 CALLER DUP5 DUP5 DUP5 PUSH2 0x431D JUMP JUMPDEST PUSH1 0x1 DUP1 DUP2 SWAP1 SSTORE POP POP POP POP JUMP JUMPDEST CALLER PUSH20 0xFFFFFFFFFFFFFFFFFFFFFFFFFFFFFFFFFFFFFFFF AND PUSH1 0x33 PUSH1 0x0 SWAP1 SLOAD SWAP1 PUSH2 0x100 EXP SWAP1 DIV PUSH20 0xFFFFFFFFFFFFFFFFFFFFFFFFFFFFFFFFFFFFFFFF AND PUSH20 0xFFFFFFFFFFFFFFFFFFFFFFFFFFFFFFFFFFFFFFFF AND EQ PUSH2 0x2263 JUMPI PUSH1 0x40 MLOAD PUSH32 0x8C379A000000000000000000000000000000000000000000000000000000000 DUP2 MSTORE PUSH1 0x4 ADD PUSH2 0x225A SWAP1 PUSH2 0x6124 JUMP JUMPDEST PUSH1 0x40 MLOAD DUP1 SWAP2 SUB SWAP1 REVERT JUMPDEST PUSH2 0x226B PUSH2 0x316B JUMP JUMPDEST NUMBER PUSH1 0xA6 SLOAD EQ PUSH2 0x22AF JUMPI PUSH1 0x40 MLOAD PUSH32 0x8C379A000000000000000000000000000000000000000000000000000000000 DUP2 MSTORE PUSH1 0x4 ADD PUSH2 0x22A6 SWAP1 PUSH2 0x60A4 JUMP JUMPDEST PUSH1 0x40 MLOAD DUP1 SWAP2 SUB SWAP1 REVERT JUMPDEST PUSH1 0xA8 SLOAD DUP2 GT ISZERO DUP1 ISZERO PUSH2 0x22C8 JUMPI POP PUSH2 0x22C4 PUSH2 0x389E JUMP JUMPDEST DUP2 GT ISZERO JUMPDEST PUSH2 0x2307 JUMPI PUSH1 0x40 MLOAD PUSH32 0x8C379A000000000000000000000000000000000000000000000000000000000 DUP2 MSTORE PUSH1 0x4 ADD PUSH2 0x22FE SWAP1 PUSH2 0x6164 JUMP JUMPDEST PUSH1 0x40 MLOAD DUP1 SWAP2 SUB SWAP1 REVERT JUMPDEST PUSH1 0x0 PUSH1 0xA8 SLOAD SWAP1 POP DUP2 PUSH1 0xA8 SLOAD PUSH2 0x231C SWAP2 SWAP1 PUSH2 0x6559 JUMP JUMPDEST PUSH1 0xA8 DUP2 SWAP1 SSTORE POP PUSH2 0x234E PUSH1 0x33 PUSH1 0x0 SWAP1 SLOAD SWAP1 PUSH2 0x100 EXP SWAP1 DIV PUSH20 0xFFFFFFFFFFFFFFFFFFFFFFFFFFFFFFFFFFFFFFFF AND DUP4 PUSH2 0x44C7 JUMP JUMPDEST PUSH32 0x2E8843DDC3123732D720F1CB17A6E81D71D5BB90A346F13498B87C5639D47440 PUSH1 0x33 PUSH1 0x0 SWAP1 SLOAD SWAP1 PUSH2 0x100 EXP SWAP1 DIV PUSH20 0xFFFFFFFFFFFFFFFFFFFFFFFFFFFFFFFFFFFFFFFF AND DUP4 PUSH1 0xA8 SLOAD DUP5 PUSH1 0x40 MLOAD PUSH2 0x23A7 SWAP5 SWAP4 SWAP3 SWAP2 SWAP1 PUSH2 0x5A4A JUMP JUMPDEST PUSH1 0x40 MLOAD DUP1 SWAP2 SUB SWAP1 LOG1 POP POP JUMP JUMPDEST PUSH1 0x0 PUSH1 0x2 PUSH1 0x1 SLOAD EQ ISZERO PUSH2 0x23FB JUMPI PUSH1 0x40 MLOAD PUSH32 0x8C379A000000000000000000000000000000000000000000000000000000000 DUP2 MSTORE PUSH1 0x4 ADD PUSH2 0x23F2 SWAP1 PUSH2 0x62A4 JUMP JUMPDEST PUSH1 0x40 MLOAD DUP1 SWAP2 SUB SWAP1 REVERT JUMPDEST PUSH1 0x2 PUSH1 0x1 DUP2 SWAP1 SSTORE POP PUSH2 0x240B PUSH2 0x316B JUMP JUMPDEST PUSH2 0x2413 PUSH2 0x34C6 JUMP JUMPDEST SWAP1 POP PUSH1 0x1 DUP1 DUP2 SWAP1 SSTORE POP SWAP1 JUMP JUMPDEST PUSH1 0x2 PUSH1 0x1 SLOAD EQ ISZERO PUSH2 0x2465 JUMPI PUSH1 0x40 MLOAD PUSH32 0x8C379A000000000000000000000000000000000000000000000000000000000 DUP2 MSTORE PUSH1 0x4 ADD PUSH2 0x245C SWAP1 PUSH2 0x62A4 JUMP JUMPDEST PUSH1 0x40 MLOAD DUP1 SWAP2 SUB SWAP1 REVERT JUMPDEST PUSH1 0x2 PUSH1 0x1 DUP2 SWAP1 SSTORE POP PUSH2 0x2475 PUSH2 0x316B JUMP JUMPDEST NUMBER PUSH1 0xA6 SLOAD EQ PUSH2 0x24B9 JUMPI PUSH1 0x40 MLOAD PUSH32 0x8C379A000000000000000000000000000000000000000000000000000000000 DUP2 MSTORE PUSH1 0x4 ADD PUSH2 0x24B0 SWAP1 PUSH2 0x60A4 JUMP JUMPDEST PUSH1 0x40 MLOAD DUP1 SWAP2 SUB SWAP1 REVERT JUMPDEST PUSH2 0x24C3 CALLER DUP3 PUSH2 0x4512 JUMP JUMPDEST PUSH1 0x1 DUP1 DUP2 SWAP1 SSTORE POP POP JUMP JUMPDEST CALLER PUSH20 0xFFFFFFFFFFFFFFFFFFFFFFFFFFFFFFFFFFFFFFFF AND PUSH1 0x33 PUSH1 0x0 SWAP1 SLOAD SWAP1 PUSH2 0x100 EXP SWAP1 DIV PUSH20 0xFFFFFFFFFFFFFFFFFFFFFFFFFFFFFFFFFFFFFFFF AND PUSH20 0xFFFFFFFFFFFFFFFFFFFFFFFFFFFFFFFFFFFFFFFF AND EQ PUSH2 0x255D JUMPI PUSH1 0x40 MLOAD PUSH32 0x8C379A000000000000000000000000000000000000000000000000000000000 DUP2 MSTORE PUSH1 0x4 ADD PUSH2 0x2554 SWAP1 PUSH2 0x6124 JUMP JUMPDEST PUSH1 0x40 MLOAD DUP1 SWAP2 SUB SWAP1 REVERT JUMPDEST PUSH2 0x2565 PUSH2 0x316B JUMP JUMPDEST NUMBER PUSH1 0xA6 SLOAD EQ PUSH2 0x25A9 JUMPI PUSH1 0x40 MLOAD PUSH32 0x8C379A000000000000000000000000000000000000000000000000000000000 DUP2 MSTORE PUSH1 0x4 ADD PUSH2 0x25A0 SWAP1 PUSH2 0x60A4 JUMP JUMPDEST PUSH1 0x40 MLOAD DUP1 SWAP2 SUB SWAP1 REVERT JUMPDEST PUSH8 0xDE0B6B3A7640000 DUP2 GT ISZERO PUSH2 0x25F4 JUMPI PUSH1 0x40 MLOAD PUSH32 0x8C379A000000000000000000000000000000000000000000000000000000000 DUP2 MSTORE PUSH1 0x4 ADD PUSH2 0x25EB SWAP1 PUSH2 0x6064 JUMP JUMPDEST PUSH1 0x40 MLOAD DUP1 SWAP2 SUB SWAP1 REVERT JUMPDEST PUSH1 0x0 PUSH1 0x9F SLOAD SWAP1 POP DUP2 PUSH1 0x9F DUP2 SWAP1 SSTORE POP PUSH32 0x619970C7B73E9BC2B93E0FC379D50DBF7ECED564F397FBA395B2E7EFC0B4894D DUP2 DUP4 PUSH1 0x40 MLOAD PUSH2 0x2633 SWAP3 SWAP2 SWAP1 PUSH2 0x631F JUMP JUMPDEST PUSH1 0x40 MLOAD DUP1 SWAP2 SUB SWAP1 LOG1 POP POP JUMP JUMPDEST PUSH1 0x0 PUSH2 0x2649 PUSH2 0x316B JUMP JUMPDEST PUSH1 0x1 SWAP1 POP SWAP1 JUMP JUMPDEST TIMESTAMP DUP5 LT ISZERO PUSH2 0x2693 JUMPI PUSH1 0x40 MLOAD PUSH32 0x8C379A000000000000000000000000000000000000000000000000000000000 DUP2 MSTORE PUSH1 0x4 ADD PUSH2 0x268A SWAP1 PUSH2 0x6284 JUMP JUMPDEST PUSH1 0x40 MLOAD DUP1 SWAP2 SUB SWAP1 REVERT JUMPDEST PUSH1 0x0 PUSH1 0xAB PUSH1 0x0 DUP10 PUSH20 0xFFFFFFFFFFFFFFFFFFFFFFFFFFFFFFFFFFFFFFFF AND PUSH20 0xFFFFFFFFFFFFFFFFFFFFFFFFFFFFFFFFFFFFFFFF AND DUP2 MSTORE PUSH1 0x20 ADD SWAP1 DUP2 MSTORE PUSH1 0x20 ADD PUSH1 0x0 KECCAK256 SLOAD SWAP1 POP PUSH1 0x0 PUSH1 0xAA SLOAD PUSH32 0x576144ED657C8304561E56CA632E17751956250114636E8C01F64A7F2C6D98CF PUSH1 0x0 SHL DUP11 DUP11 PUSH2 0x270A PUSH2 0x470A JUMP JUMPDEST DUP12 DUP8 DUP13 PUSH1 0x40 MLOAD PUSH1 0x20 ADD PUSH2 0x2723 SWAP8 SWAP7 SWAP6 SWAP5 SWAP4 SWAP3 SWAP2 SWAP1 PUSH2 0x5D78 JUMP JUMPDEST PUSH1 0x40 MLOAD PUSH1 0x20 DUP2 DUP4 SUB SUB DUP2 MSTORE SWAP1 PUSH1 0x40 MSTORE DUP1 MLOAD SWAP1 PUSH1 0x20 ADD KECCAK256 PUSH1 0x40 MLOAD PUSH1 0x20 ADD PUSH2 0x274A SWAP3 SWAP2 SWAP1 PUSH2 0x59F8 JUMP JUMPDEST PUSH1 0x40 MLOAD PUSH1 0x20 DUP2 DUP4 SUB SUB DUP2 MSTORE SWAP1 PUSH1 0x40 MSTORE DUP1 MLOAD SWAP1 PUSH1 0x20 ADD KECCAK256 SWAP1 POP PUSH1 0x0 PUSH1 0x1 DUP3 DUP8 DUP8 DUP8 PUSH1 0x40 MLOAD PUSH1 0x0 DUP2 MSTORE PUSH1 0x20 ADD PUSH1 0x40 MSTORE PUSH1 0x40 MLOAD PUSH2 0x2787 SWAP5 SWAP4 SWAP3 SWAP2 SWAP1 PUSH2 0x5E3A JUMP JUMPDEST PUSH1 0x20 PUSH1 0x40 MLOAD PUSH1 0x20 DUP2 SUB SWAP1 DUP1 DUP5 SUB SWAP1 DUP6 GAS STATICCALL ISZERO DUP1 ISZERO PUSH2 0x27A9 JUMPI RETURNDATASIZE PUSH1 0x0 DUP1 RETURNDATACOPY RETURNDATASIZE PUSH1 0x0 REVERT JUMPDEST POP POP POP PUSH1 0x20 PUSH1 0x40 MLOAD SUB MLOAD SWAP1 POP PUSH1 0x0 PUSH20 0xFFFFFFFFFFFFFFFFFFFFFFFFFFFFFFFFFFFFFFFF AND DUP2 PUSH20 0xFFFFFFFFFFFFFFFFFFFFFFFFFFFFFFFFFFFFFFFF AND EQ ISZERO DUP1 ISZERO PUSH2 0x281D JUMPI POP DUP10 PUSH20 0xFFFFFFFFFFFFFFFFFFFFFFFFFFFFFFFFFFFFFFFF AND DUP2 PUSH20 0xFFFFFFFFFFFFFFFFFFFFFFFFFFFFFFFFFFFFFFFF AND EQ JUMPDEST PUSH2 0x285C JUMPI PUSH1 0x40 MLOAD PUSH32 0x8C379A000000000000000000000000000000000000000000000000000000000 DUP2 MSTORE PUSH1 0x4 ADD PUSH2 0x2853 SWAP1 PUSH2 0x60E4 JUMP JUMPDEST PUSH1 0x40 MLOAD DUP1 SWAP2 SUB SWAP1 REVERT JUMPDEST PUSH1 0x1 DUP4 PUSH2 0x2869 SWAP2 SWAP1 PUSH2 0x6478 JUMP JUMPDEST PUSH1 0xAB PUSH1 0x0 DUP13 PUSH20 0xFFFFFFFFFFFFFFFFFFFFFFFFFFFFFFFFFFFFFFFF AND PUSH20 0xFFFFFFFFFFFFFFFFFFFFFFFFFFFFFFFFFFFFFFFF AND DUP2 MSTORE PUSH1 0x20 ADD SWAP1 DUP2 MSTORE PUSH1 0x20 ADD PUSH1 0x0 KECCAK256 DUP2 SWAP1 SSTORE POP PUSH2 0x28B7 DUP11 DUP11 DUP11 PUSH2 0x2FA0 JUMP JUMPDEST POP POP POP POP POP POP POP POP POP POP JUMP JUMPDEST PUSH1 0x68 PUSH1 0x20 MSTORE DUP2 PUSH1 0x0 MSTORE PUSH1 0x40 PUSH1 0x0 KECCAK256 PUSH1 0x20 MSTORE DUP1 PUSH1 0x0 MSTORE PUSH1 0x40 PUSH1 0x0 KECCAK256 PUSH1 0x0 SWAP2 POP SWAP2 POP POP SLOAD DUP2 JUMP JUMPDEST PUSH1 0x34 PUSH1 0x0 SWAP1 SLOAD SWAP1 PUSH2 0x100 EXP SWAP1 DIV PUSH20 0xFFFFFFFFFFFFFFFFFFFFFFFFFFFFFFFFFFFFFFFF AND DUP2 JUMP JUMPDEST PUSH1 0x2 PUSH1 0x1 SLOAD EQ ISZERO PUSH2 0x2954 JUMPI PUSH1 0x40 MLOAD PUSH32 0x8C379A000000000000000000000000000000000000000000000000000000000 DUP2 MSTORE PUSH1 0x4 ADD PUSH2 0x294B SWAP1 PUSH2 0x62A4 JUMP JUMPDEST PUSH1 0x40 MLOAD DUP1 SWAP2 SUB SWAP1 REVERT JUMPDEST PUSH1 0x2 PUSH1 0x1 DUP2 SWAP1 SSTORE POP CALLVALUE PUSH1 0xAC DUP2 SWAP1 SSTORE POP PUSH2 0x296B PUSH2 0x316B JUMP JUMPDEST NUMBER PUSH1 0xA6 SLOAD EQ PUSH2 0x29AF JUMPI PUSH1 0x40 MLOAD PUSH32 0x8C379A000000000000000000000000000000000000000000000000000000000 DUP2 MSTORE PUSH1 0x4 ADD PUSH2 0x29A6 SWAP1 PUSH2 0x60A4 JUMP JUMPDEST PUSH1 0x40 MLOAD DUP1 SWAP2 SUB SWAP1 REVERT JUMPDEST PUSH2 0x29BA CALLER DUP3 CALLVALUE PUSH2 0x38B3 JUMP JUMPDEST POP PUSH1 0x0 PUSH1 0xAC SLOAD GT ISZERO PUSH2 0x2A10 JUMPI CALLER PUSH20 0xFFFFFFFFFFFFFFFFFFFFFFFFFFFFFFFFFFFFFFFF AND PUSH2 0x8FC PUSH1 0xAC SLOAD SWAP1 DUP2 ISZERO MUL SWAP1 PUSH1 0x40 MLOAD PUSH1 0x0 PUSH1 0x40 MLOAD DUP1 DUP4 SUB DUP2 DUP6 DUP9 DUP9 CALL SWAP4 POP POP POP POP ISZERO DUP1 ISZERO PUSH2 0x2A0E JUMPI RETURNDATASIZE PUSH1 0x0 DUP1 RETURNDATACOPY RETURNDATASIZE PUSH1 0x0 REVERT JUMPDEST POP JUMPDEST PUSH1 0x0 PUSH1 0xAC DUP2 SWAP1 SSTORE POP PUSH1 0x1 DUP1 DUP2 SWAP1 SSTORE POP POP JUMP JUMPDEST CALLER PUSH20 0xFFFFFFFFFFFFFFFFFFFFFFFFFFFFFFFFFFFFFFFF AND PUSH1 0x33 PUSH1 0x0 SWAP1 SLOAD SWAP1 PUSH2 0x100 EXP SWAP1 DIV PUSH20 0xFFFFFFFFFFFFFFFFFFFFFFFFFFFFFFFFFFFFFFFF AND PUSH20 0xFFFFFFFFFFFFFFFFFFFFFFFFFFFFFFFFFFFFFFFF AND EQ PUSH2 0x2AB2 JUMPI PUSH1 0x40 MLOAD PUSH32 0x8C379A000000000000000000000000000000000000000000000000000000000 DUP2 MSTORE PUSH1 0x4 ADD PUSH2 0x2AA9 SWAP1 PUSH2 0x6124 JUMP JUMPDEST PUSH1 0x40 MLOAD DUP1 SWAP2 SUB SWAP1 REVERT JUMPDEST PUSH1 0x0 PUSH1 0xA3 PUSH1 0x0 SWAP1 SLOAD SWAP1 PUSH2 0x100 EXP SWAP1 DIV PUSH20 0xFFFFFFFFFFFFFFFFFFFFFFFFFFFFFFFFFFFFFFFF AND SWAP1 POP DUP2 PUSH20 0xFFFFFFFFFFFFFFFFFFFFFFFFFFFFFFFFFFFFFFFF AND PUSH4 0x2191F92A PUSH1 0x40 MLOAD DUP2 PUSH4 0xFFFFFFFF AND PUSH1 0xE0 SHL DUP2 MSTORE PUSH1 0x4 ADD PUSH1 0x20 PUSH1 0x40 MLOAD DUP1 DUP4 SUB DUP2 DUP7 DUP1 EXTCODESIZE ISZERO DUP1 ISZERO PUSH2 0x2B1F JUMPI PUSH1 0x0 DUP1 REVERT JUMPDEST POP GAS STATICCALL ISZERO DUP1 ISZERO PUSH2 0x2B33 JUMPI RETURNDATASIZE PUSH1 0x0 DUP1 RETURNDATACOPY RETURNDATASIZE PUSH1 0x0 REVERT JUMPDEST POP POP POP POP PUSH1 0x40 MLOAD RETURNDATASIZE PUSH1 0x1F NOT PUSH1 0x1F DUP3 ADD AND DUP3 ADD DUP1 PUSH1 0x40 MSTORE POP DUP2 ADD SWAP1 PUSH2 0x2B57 SWAP2 SWAP1 PUSH2 0x5355 JUMP JUMPDEST PUSH2 0x2B96 JUMPI PUSH1 0x40 MLOAD PUSH32 0x8C379A000000000000000000000000000000000000000000000000000000000 DUP2 MSTORE PUSH1 0x4 ADD PUSH2 0x2B8D SWAP1 PUSH2 0x61E4 JUMP JUMPDEST PUSH1 0x40 MLOAD DUP1 SWAP2 SUB SWAP1 REVERT JUMPDEST DUP2 PUSH1 0xA3 PUSH1 0x0 PUSH2 0x100 EXP DUP2 SLOAD DUP2 PUSH20 0xFFFFFFFFFFFFFFFFFFFFFFFFFFFFFFFFFFFFFFFF MUL NOT AND SWAP1 DUP4 PUSH20 0xFFFFFFFFFFFFFFFFFFFFFFFFFFFFFFFFFFFFFFFF AND MUL OR SWAP1 SSTORE POP PUSH32 0xEB5CC99F497DC2D7106563BB080E06C9B09E3D81A38623AC4D0839575658D1FA DUP2 DUP4 PUSH1 0x40 MLOAD PUSH2 0x2C08 SWAP3 SWAP2 SWAP1 PUSH2 0x5EF9 JUMP JUMPDEST PUSH1 0x40 MLOAD DUP1 SWAP2 SUB SWAP1 LOG1 POP POP JUMP JUMPDEST PUSH1 0xA3 PUSH1 0x0 SWAP1 SLOAD SWAP1 PUSH2 0x100 EXP SWAP1 DIV PUSH20 0xFFFFFFFFFFFFFFFFFFFFFFFFFFFFFFFFFFFFFFFF AND DUP2 JUMP JUMPDEST PUSH1 0xA4 PUSH1 0x0 SWAP1 SLOAD SWAP1 PUSH2 0x100 EXP SWAP1 DIV PUSH20 0xFFFFFFFFFFFFFFFFFFFFFFFFFFFFFFFFFFFFFFFF AND DUP2 JUMP JUMPDEST PUSH1 0x0 PUSH1 0xA3 PUSH1 0x0 SWAP1 SLOAD SWAP1 PUSH2 0x100 EXP SWAP1 DIV PUSH20 0xFFFFFFFFFFFFFFFFFFFFFFFFFFFFFFFFFFFFFFFF AND PUSH20 0xFFFFFFFFFFFFFFFFFFFFFFFFFFFFFFFFFFFFFFFF AND PUSH4 0x15F24053 PUSH2 0x2CA8 PUSH2 0x389E JUMP JUMPDEST PUSH1 0xA7 SLOAD PUSH1 0xA8 SLOAD PUSH1 0x40 MLOAD DUP5 PUSH4 0xFFFFFFFF AND PUSH1 0xE0 SHL DUP2 MSTORE PUSH1 0x4 ADD PUSH2 0x2CCC SWAP4 SWAP3 SWAP2 SWAP1 PUSH2 0x6348 JUMP JUMPDEST PUSH1 0x20 PUSH1 0x40 MLOAD DUP1 DUP4 SUB DUP2 DUP7 DUP1 EXTCODESIZE ISZERO DUP1 ISZERO PUSH2 0x2CE4 JUMPI PUSH1 0x0 DUP1 REVERT JUMPDEST POP GAS STATICCALL ISZERO DUP1 ISZERO PUSH2 0x2CF8 JUMPI RETURNDATASIZE PUSH1 0x0 DUP1 RETURNDATACOPY RETURNDATASIZE PUSH1 0x0 REVERT JUMPDEST POP POP POP POP PUSH1 0x40 MLOAD RETURNDATASIZE PUSH1 0x1F NOT PUSH1 0x1F DUP3 ADD AND DUP3 ADD DUP1 PUSH1 0x40 MSTORE POP DUP2 ADD SWAP1 PUSH2 0x2D1C SWAP2 SWAP1 PUSH2 0x54A8 JUMP JUMPDEST SWAP1 POP SWAP1 JUMP JUMPDEST PUSH1 0x34 PUSH1 0x0 SWAP1 SLOAD SWAP1 PUSH2 0x100 EXP SWAP1 DIV PUSH20 0xFFFFFFFFFFFFFFFFFFFFFFFFFFFFFFFFFFFFFFFF AND PUSH20 0xFFFFFFFFFFFFFFFFFFFFFFFFFFFFFFFFFFFFFFFF AND CALLER PUSH20 0xFFFFFFFFFFFFFFFFFFFFFFFFFFFFFFFFFFFFFFFF AND EQ PUSH2 0x2DB1 JUMPI PUSH1 0x40 MLOAD PUSH32 0x8C379A000000000000000000000000000000000000000000000000000000000 DUP2 MSTORE PUSH1 0x4 ADD PUSH2 0x2DA8 SWAP1 PUSH2 0x6264 JUMP JUMPDEST PUSH1 0x40 MLOAD DUP1 SWAP2 SUB SWAP1 REVERT JUMPDEST PUSH1 0x0 PUSH1 0x33 PUSH1 0x0 SWAP1 SLOAD SWAP1 PUSH2 0x100 EXP SWAP1 DIV PUSH20 0xFFFFFFFFFFFFFFFFFFFFFFFFFFFFFFFFFFFFFFFF AND SWAP1 POP PUSH1 0x0 PUSH1 0x34 PUSH1 0x0 SWAP1 SLOAD SWAP1 PUSH2 0x100 EXP SWAP1 DIV PUSH20 0xFFFFFFFFFFFFFFFFFFFFFFFFFFFFFFFFFFFFFFFF AND SWAP1 POP PUSH1 0x34 PUSH1 0x0 SWAP1 SLOAD SWAP1 PUSH2 0x100 EXP SWAP1 DIV PUSH20 0xFFFFFFFFFFFFFFFFFFFFFFFFFFFFFFFFFFFFFFFF AND PUSH1 0x33 PUSH1 0x0 PUSH2 0x100 EXP DUP2 SLOAD DUP2 PUSH20 0xFFFFFFFFFFFFFFFFFFFFFFFFFFFFFFFFFFFFFFFF MUL NOT AND SWAP1 DUP4 PUSH20 0xFFFFFFFFFFFFFFFFFFFFFFFFFFFFFFFFFFFFFFFF AND MUL OR SWAP1 SSTORE POP PUSH1 0x0 PUSH1 0x34 PUSH1 0x0 PUSH2 0x100 EXP DUP2 SLOAD DUP2 PUSH20 0xFFFFFFFFFFFFFFFFFFFFFFFFFFFFFFFFFFFFFFFF MUL NOT AND SWAP1 DUP4 PUSH20 0xFFFFFFFFFFFFFFFFFFFFFFFFFFFFFFFFFFFFFFFF AND MUL OR SWAP1 SSTORE POP PUSH1 0x33 PUSH1 0x0 SWAP1 SLOAD SWAP1 PUSH2 0x100 EXP SWAP1 DIV PUSH20 0xFFFFFFFFFFFFFFFFFFFFFFFFFFFFFFFFFFFFFFFF AND PUSH20 0xFFFFFFFFFFFFFFFFFFFFFFFFFFFFFFFFFFFFFFFF AND DUP3 PUSH20 0xFFFFFFFFFFFFFFFFFFFFFFFFFFFFFFFFFFFFFFFF AND PUSH32 0x70AEA8D848E8A90FB7661B227DC522EB6395C3DAC71B63CB59EDD5C9899B2364 PUSH1 0x40 MLOAD PUSH1 0x40 MLOAD DUP1 SWAP2 SUB SWAP1 LOG3 PUSH1 0x34 PUSH1 0x0 SWAP1 SLOAD SWAP1 PUSH2 0x100 EXP SWAP1 DIV PUSH20 0xFFFFFFFFFFFFFFFFFFFFFFFFFFFFFFFFFFFFFFFF AND PUSH20 0xFFFFFFFFFFFFFFFFFFFFFFFFFFFFFFFFFFFFFFFF AND DUP2 PUSH20 0xFFFFFFFFFFFFFFFFFFFFFFFFFFFFFFFFFFFFFFFF AND PUSH32 0xB3D55174552271A4F1AAF36B72F50381E892171636B3FB5447FE00E995E7A37B PUSH1 0x40 MLOAD PUSH1 0x40 MLOAD DUP1 SWAP2 SUB SWAP1 LOG3 POP POP JUMP JUMPDEST PUSH1 0x0 PUSH20 0xFFFFFFFFFFFFFFFFFFFFFFFFFFFFFFFFFFFFFFFF AND DUP4 PUSH20 0xFFFFFFFFFFFFFFFFFFFFFFFFFFFFFFFFFFFFFFFF AND EQ ISZERO PUSH2 0x3010 JUMPI PUSH1 0x40 MLOAD PUSH32 0x8C379A000000000000000000000000000000000000000000000000000000000 DUP2 MSTORE PUSH1 0x4 ADD PUSH2 0x3007 SWAP1 PUSH2 0x6204 JUMP JUMPDEST PUSH1 0x40 MLOAD DUP1 SWAP2 SUB SWAP1 REVERT JUMPDEST PUSH1 0x0 PUSH20 0xFFFFFFFFFFFFFFFFFFFFFFFFFFFFFFFFFFFFFFFF AND DUP3 PUSH20 0xFFFFFFFFFFFFFFFFFFFFFFFFFFFFFFFFFFFFFFFF AND EQ ISZERO PUSH2 0x3080 JUMPI PUSH1 0x40 MLOAD PUSH32 0x8C379A000000000000000000000000000000000000000000000000000000000 DUP2 MSTORE PUSH1 0x4 ADD PUSH2 0x3077 SWAP1 PUSH2 0x5FC4 JUMP JUMPDEST PUSH1 0x40 MLOAD DUP1 SWAP2 SUB SWAP1 REVERT JUMPDEST DUP1 PUSH1 0x68 PUSH1 0x0 DUP6 PUSH20 0xFFFFFFFFFFFFFFFFFFFFFFFFFFFFFFFFFFFFFFFF AND PUSH20 0xFFFFFFFFFFFFFFFFFFFFFFFFFFFFFFFFFFFFFFFF AND DUP2 MSTORE PUSH1 0x20 ADD SWAP1 DUP2 MSTORE PUSH1 0x20 ADD PUSH1 0x0 KECCAK256 PUSH1 0x0 DUP5 PUSH20 0xFFFFFFFFFFFFFFFFFFFFFFFFFFFFFFFFFFFFFFFF AND PUSH20 0xFFFFFFFFFFFFFFFFFFFFFFFFFFFFFFFFFFFFFFFF AND DUP2 MSTORE PUSH1 0x20 ADD SWAP1 DUP2 MSTORE PUSH1 0x20 ADD PUSH1 0x0 KECCAK256 DUP2 SWAP1 SSTORE POP DUP2 PUSH20 0xFFFFFFFFFFFFFFFFFFFFFFFFFFFFFFFFFFFFFFFF AND DUP4 PUSH20 0xFFFFFFFFFFFFFFFFFFFFFFFFFFFFFFFFFFFFFFFF AND PUSH32 0x8C5BE1E5EBEC7D5BD14F71427D1E84F3DD0314C0F7B2291E5B200AC8C7C3B925 DUP4 PUSH1 0x40 MLOAD PUSH2 0x315E SWAP2 SWAP1 PUSH2 0x6304 JUMP JUMPDEST PUSH1 0x40 MLOAD DUP1 SWAP2 SUB SWAP1 LOG3 POP POP POP JUMP JUMPDEST PUSH1 0xA6 SLOAD NUMBER EQ PUSH2 0x3429 JUMPI PUSH2 0x317C PUSH2 0x4F34 JUMP JUMPDEST PUSH2 0x3184 PUSH2 0x389E JUMP JUMPDEST DUP2 PUSH1 0x40 ADD DUP2 DUP2 MSTORE POP POP PUSH1 0xA7 SLOAD DUP2 PUSH1 0x60 ADD DUP2 DUP2 MSTORE POP POP PUSH1 0xA8 SLOAD DUP2 PUSH1 0x80 ADD DUP2 DUP2 MSTORE POP POP PUSH1 0xA3 PUSH1 0x0 SWAP1 SLOAD SWAP1 PUSH2 0x100 EXP SWAP1 DIV PUSH20 0xFFFFFFFFFFFFFFFFFFFFFFFFFFFFFFFFFFFFFFFF AND PUSH20 0xFFFFFFFFFFFFFFFFFFFFFFFFFFFFFFFFFFFFFFFF AND PUSH4 0x15F24053 DUP3 PUSH1 0x40 ADD MLOAD DUP4 PUSH1 0x60 ADD MLOAD DUP5 PUSH1 0x80 ADD MLOAD PUSH1 0x40 MLOAD DUP5 PUSH4 0xFFFFFFFF AND PUSH1 0xE0 SHL DUP2 MSTORE PUSH1 0x4 ADD PUSH2 0x3210 SWAP4 SWAP3 SWAP2 SWAP1 PUSH2 0x6348 JUMP JUMPDEST PUSH1 0x20 PUSH1 0x40 MLOAD DUP1 DUP4 SUB DUP2 DUP7 DUP1 EXTCODESIZE ISZERO DUP1 ISZERO PUSH2 0x3228 JUMPI PUSH1 0x0 DUP1 REVERT JUMPDEST POP GAS STATICCALL ISZERO DUP1 ISZERO PUSH2 0x323C JUMPI RETURNDATASIZE PUSH1 0x0 DUP1 RETURNDATACOPY RETURNDATASIZE PUSH1 0x0 REVERT JUMPDEST POP POP POP POP PUSH1 0x40 MLOAD RETURNDATASIZE PUSH1 0x1F NOT PUSH1 0x1F DUP3 ADD AND DUP3 ADD DUP1 PUSH1 0x40 MSTORE POP DUP2 ADD SWAP1 PUSH2 0x3260 SWAP2 SWAP1 PUSH2 0x54A8 JUMP JUMPDEST DUP2 PUSH1 0x0 ADD DUP2 DUP2 MSTORE POP POP PUSH7 0x38D7EA4C68000 DUP2 PUSH1 0x0 ADD MLOAD GT ISZERO PUSH2 0x32B7 JUMPI PUSH1 0x40 MLOAD PUSH32 0x8C379A000000000000000000000000000000000000000000000000000000000 DUP2 MSTORE PUSH1 0x4 ADD PUSH2 0x32AE SWAP1 PUSH2 0x6244 JUMP JUMPDEST PUSH1 0x40 MLOAD DUP1 SWAP2 SUB SWAP1 REVERT JUMPDEST NUMBER DUP2 PUSH1 0x20 ADD DUP2 DUP2 MSTORE POP POP PUSH1 0xA6 SLOAD DUP2 PUSH1 0x20 ADD MLOAD PUSH2 0x32D3 SWAP2 SWAP1 PUSH2 0x6559 JUMP JUMPDEST DUP2 PUSH1 0xC0 ADD DUP2 DUP2 MSTORE POP POP DUP1 PUSH1 0xC0 ADD MLOAD DUP2 PUSH1 0x0 ADD MLOAD PUSH2 0x32F0 SWAP2 SWAP1 PUSH2 0x64FF JUMP JUMPDEST DUP2 PUSH1 0xE0 ADD DUP2 DUP2 MSTORE POP POP DUP1 PUSH1 0x60 ADD MLOAD DUP2 PUSH1 0xE0 ADD MLOAD PUSH2 0x330D SWAP2 SWAP1 PUSH2 0x64FF JUMP JUMPDEST DUP2 PUSH2 0x100 ADD DUP2 DUP2 MSTORE POP POP DUP1 PUSH1 0x60 ADD MLOAD DUP2 PUSH2 0x100 ADD MLOAD PUSH2 0x332C SWAP2 SWAP1 PUSH2 0x6478 JUMP JUMPDEST DUP2 PUSH2 0x120 ADD DUP2 DUP2 MSTORE POP POP DUP1 PUSH1 0x80 ADD MLOAD DUP2 PUSH2 0x100 ADD MLOAD PUSH1 0x9F SLOAD PUSH2 0x334E SWAP2 SWAP1 PUSH2 0x64FF JUMP JUMPDEST PUSH2 0x3358 SWAP2 SWAP1 PUSH2 0x6478 JUMP JUMPDEST DUP2 PUSH2 0x140 ADD DUP2 DUP2 MSTORE POP POP PUSH1 0xA5 SLOAD DUP2 PUSH1 0xA0 ADD DUP2 DUP2 MSTORE POP POP DUP1 PUSH1 0xA0 ADD MLOAD DUP2 PUSH1 0xA0 ADD MLOAD DUP3 PUSH1 0xE0 ADD MLOAD PUSH2 0x3387 SWAP2 SWAP1 PUSH2 0x64FF JUMP JUMPDEST PUSH2 0x3391 SWAP2 SWAP1 PUSH2 0x6478 JUMP JUMPDEST DUP2 PUSH2 0x160 ADD DUP2 DUP2 MSTORE POP POP DUP1 PUSH1 0x20 ADD MLOAD PUSH1 0xA6 DUP2 SWAP1 SSTORE POP DUP1 PUSH2 0x160 ADD MLOAD PUSH1 0xA5 DUP2 SWAP1 SSTORE POP DUP1 PUSH2 0x120 ADD MLOAD PUSH1 0xA7 DUP2 SWAP1 SSTORE POP DUP1 PUSH2 0x140 ADD MLOAD PUSH1 0xA8 DUP2 SWAP1 SSTORE POP PUSH32 0x59693255BEDC2974B761B077CD2FDB47B3BDE759F64B247F599C6941525655E1 DUP2 PUSH1 0x20 ADD MLOAD DUP3 PUSH2 0x100 ADD MLOAD DUP4 PUSH2 0x160 ADD MLOAD DUP5 PUSH1 0x40 ADD MLOAD DUP6 PUSH2 0x120 ADD MLOAD DUP7 PUSH2 0x140 ADD MLOAD PUSH1 0x40 MLOAD PUSH2 0x341F SWAP7 SWAP6 SWAP5 SWAP4 SWAP3 SWAP2 SWAP1 PUSH2 0x637F JUMP JUMPDEST PUSH1 0x40 MLOAD DUP1 SWAP2 SUB SWAP1 LOG1 POP JUMPDEST JUMP JUMPDEST PUSH1 0x0 DUP1 PUSH1 0xA9 PUSH1 0x0 DUP5 PUSH20 0xFFFFFFFFFFFFFFFFFFFFFFFFFFFFFFFFFFFFFFFF AND PUSH20 0xFFFFFFFFFFFFFFFFFFFFFFFFFFFFFFFFFFFFFFFF AND DUP2 MSTORE PUSH1 0x20 ADD SWAP1 DUP2 MSTORE PUSH1 0x20 ADD PUSH1 0x0 KECCAK256 SWAP1 POP PUSH1 0x0 DUP2 PUSH1 0x0 ADD SLOAD EQ DUP1 PUSH2 0x3486 JUMPI POP PUSH1 0x0 DUP2 PUSH1 0x1 ADD SLOAD EQ JUMPDEST ISZERO PUSH2 0x3495 JUMPI PUSH1 0x0 SWAP2 POP POP PUSH2 0x34C1 JUMP JUMPDEST PUSH2 0x34AE DUP2 PUSH1 0x1 ADD SLOAD PUSH1 0xA5 SLOAD PUSH2 0x4718 SWAP1 SWAP2 SWAP1 PUSH4 0xFFFFFFFF AND JUMP JUMPDEST DUP2 PUSH1 0x0 ADD SLOAD PUSH2 0x34BD SWAP2 SWAP1 PUSH2 0x64FF JUMP JUMPDEST SWAP2 POP POP JUMPDEST SWAP2 SWAP1 POP JUMP JUMPDEST PUSH1 0x0 DUP1 PUSH1 0x69 SLOAD EQ ISZERO PUSH2 0x34E2 JUMPI PUSH8 0xDE0B6B3A7640000 SWAP1 POP PUSH2 0x351B JUMP JUMPDEST PUSH2 0x3518 PUSH1 0x69 SLOAD PUSH1 0xA8 SLOAD PUSH1 0xA7 SLOAD PUSH2 0x34F6 PUSH2 0x389E JUMP JUMPDEST PUSH2 0x3500 SWAP2 SWAP1 PUSH2 0x6478 JUMP JUMPDEST PUSH2 0x350A SWAP2 SWAP1 PUSH2 0x6559 JUMP JUMPDEST PUSH2 0x475A SWAP1 SWAP2 SWAP1 PUSH4 0xFFFFFFFF AND JUMP JUMPDEST SWAP1 POP JUMPDEST SWAP1 JUMP JUMPDEST PUSH1 0x0 DUP3 GT PUSH2 0x3561 JUMPI PUSH1 0x40 MLOAD PUSH32 0x8C379A000000000000000000000000000000000000000000000000000000000 DUP2 MSTORE PUSH1 0x4 ADD PUSH2 0x3558 SWAP1 PUSH2 0x6224 JUMP JUMPDEST PUSH1 0x40 MLOAD DUP1 SWAP2 SUB SWAP1 REVERT JUMPDEST PUSH1 0xA4 PUSH1 0x0 SWAP1 SLOAD SWAP1 PUSH2 0x100 EXP SWAP1 DIV PUSH20 0xFFFFFFFFFFFFFFFFFFFFFFFFFFFFFFFFFFFFFFFF AND PUSH20 0xFFFFFFFFFFFFFFFFFFFFFFFFFFFFFFFFFFFFFFFF AND PUSH4 0xAF505AD9 ADDRESS DUP6 DUP6 PUSH1 0x40 MLOAD DUP5 PUSH4 0xFFFFFFFF AND PUSH1 0xE0 SHL DUP2 MSTORE PUSH1 0x4 ADD PUSH2 0x35C0 SWAP4 SWAP3 SWAP2 SWAP1 PUSH2 0x5C12 JUMP JUMPDEST PUSH1 0x0 PUSH1 0x40 MLOAD DUP1 DUP4 SUB DUP2 PUSH1 0x0 DUP8 DUP1 EXTCODESIZE ISZERO DUP1 ISZERO PUSH2 0x35DA JUMPI PUSH1 0x0 DUP1 REVERT JUMPDEST POP GAS CALL ISZERO DUP1 ISZERO PUSH2 0x35EE JUMPI RETURNDATASIZE PUSH1 0x0 DUP1 RETURNDATACOPY RETURNDATASIZE PUSH1 0x0 REVERT JUMPDEST POP POP POP POP PUSH2 0x35FC DUP4 DUP4 PUSH2 0x4791 JUMP JUMPDEST PUSH2 0x3606 CALLER DUP3 PUSH2 0x44C7 JUMP JUMPDEST PUSH1 0xA4 PUSH1 0x0 SWAP1 SLOAD SWAP1 PUSH2 0x100 EXP SWAP1 DIV PUSH20 0xFFFFFFFFFFFFFFFFFFFFFFFFFFFFFFFFFFFFFFFF AND PUSH20 0xFFFFFFFFFFFFFFFFFFFFFFFFFFFFFFFFFFFFFFFF AND PUSH4 0xA2DDEB85 ADDRESS DUP6 DUP6 DUP6 PUSH1 0x40 MLOAD DUP6 PUSH4 0xFFFFFFFF AND PUSH1 0xE0 SHL DUP2 MSTORE PUSH1 0x4 ADD PUSH2 0x3667 SWAP5 SWAP4 SWAP3 SWAP2 SWAP1 PUSH2 0x5C9C JUMP JUMPDEST PUSH1 0x0 PUSH1 0x40 MLOAD DUP1 DUP4 SUB DUP2 PUSH1 0x0 DUP8 DUP1 EXTCODESIZE ISZERO DUP1 ISZERO PUSH2 0x3681 JUMPI PUSH1 0x0 DUP1 REVERT JUMPDEST POP GAS CALL ISZERO DUP1 ISZERO PUSH2 0x3695 JUMPI RETURNDATASIZE PUSH1 0x0 DUP1 RETURNDATACOPY RETURNDATASIZE PUSH1 0x0 REVERT JUMPDEST POP POP POP POP PUSH32 0x3F693FFF038BB8A046AA76D9516190AC7444F7D69CF952C4CBDC086FDEF2D6FC DUP4 CALLER DUP5 DUP5 PUSH1 0x40 MLOAD PUSH2 0x36CE SWAP5 SWAP4 SWAP3 SWAP2 SWAP1 PUSH2 0x5C9C JUMP JUMPDEST PUSH1 0x40 MLOAD DUP1 SWAP2 SUB SWAP1 LOG1 POP POP POP JUMP JUMPDEST PUSH1 0x0 DUP3 PUSH20 0xFFFFFFFFFFFFFFFFFFFFFFFFFFFFFFFFFFFFFFFF AND DUP5 PUSH20 0xFFFFFFFFFFFFFFFFFFFFFFFFFFFFFFFFFFFFFFFF AND EQ ISZERO PUSH2 0x374C JUMPI PUSH1 0x40 MLOAD PUSH32 0x8C379A000000000000000000000000000000000000000000000000000000000 DUP2 MSTORE PUSH1 0x4 ADD PUSH2 0x3743 SWAP1 PUSH2 0x6104 JUMP JUMPDEST PUSH1 0x40 MLOAD DUP1 SWAP2 SUB SWAP1 REVERT JUMPDEST PUSH1 0xA4 PUSH1 0x0 SWAP1 SLOAD SWAP1 PUSH2 0x100 EXP SWAP1 DIV PUSH20 0xFFFFFFFFFFFFFFFFFFFFFFFFFFFFFFFFFFFFFFFF AND PUSH20 0xFFFFFFFFFFFFFFFFFFFFFFFFFFFFFFFFFFFFFFFF AND PUSH4 0x72B4304A ADDRESS DUP7 DUP7 DUP7 PUSH1 0x40 MLOAD DUP6 PUSH4 0xFFFFFFFF AND PUSH1 0xE0 SHL DUP2 MSTORE PUSH1 0x4 ADD PUSH2 0x37AD SWAP5 SWAP4 SWAP3 SWAP2 SWAP1 PUSH2 0x5BCD JUMP JUMPDEST PUSH1 0x0 PUSH1 0x40 MLOAD DUP1 DUP4 SUB DUP2 PUSH1 0x0 DUP8 DUP1 EXTCODESIZE ISZERO DUP1 ISZERO PUSH2 0x37C7 JUMPI PUSH1 0x0 DUP1 REVERT JUMPDEST POP GAS CALL ISZERO DUP1 ISZERO PUSH2 0x37DB JUMPI RETURNDATASIZE PUSH1 0x0 DUP1 RETURNDATACOPY RETURNDATASIZE PUSH1 0x0 REVERT JUMPDEST POP POP POP POP PUSH2 0x37EA DUP5 DUP5 DUP5 PUSH2 0x486C JUMP JUMPDEST PUSH1 0xA4 PUSH1 0x0 SWAP1 SLOAD SWAP1 PUSH2 0x100 EXP SWAP1 DIV PUSH20 0xFFFFFFFFFFFFFFFFFFFFFFFFFFFFFFFFFFFFFFFF AND PUSH20 0xFFFFFFFFFFFFFFFFFFFFFFFFFFFFFFFFFFFFFFFF AND PUSH4 0xE33AF48A ADDRESS DUP7 DUP7 DUP7 PUSH1 0x40 MLOAD DUP6 PUSH4 0xFFFFFFFF AND PUSH1 0xE0 SHL DUP2 MSTORE PUSH1 0x4 ADD PUSH2 0x384B SWAP5 SWAP4 SWAP3 SWAP2 SWAP1 PUSH2 0x5BCD JUMP JUMPDEST PUSH1 0x0 PUSH1 0x40 MLOAD DUP1 DUP4 SUB DUP2 PUSH1 0x0 DUP8 DUP1 EXTCODESIZE ISZERO DUP1 ISZERO PUSH2 0x3865 JUMPI PUSH1 0x0 DUP1 REVERT JUMPDEST POP GAS CALL ISZERO DUP1 ISZERO PUSH2 0x3879 JUMPI RETURNDATASIZE PUSH1 0x0 DUP1 RETURNDATACOPY RETURNDATASIZE PUSH1 0x0 REVERT JUMPDEST POP POP POP POP PUSH1 0x1 SWAP1 POP SWAP4 SWAP3 POP POP POP JUMP JUMPDEST PUSH1 0x0 DUP2 DUP4 PUSH2 0x3896 SWAP2 SWAP1 PUSH2 0x6478 JUMP JUMPDEST SWAP1 POP SWAP3 SWAP2 POP POP JUMP JUMPDEST PUSH1 0x0 PUSH1 0xAC SLOAD SELFBALANCE PUSH2 0x38AE SWAP2 SWAP1 PUSH2 0x6559 JUMP JUMPDEST SWAP1 POP SWAP1 JUMP JUMPDEST PUSH1 0x0 PUSH1 0xA4 PUSH1 0x0 SWAP1 SLOAD SWAP1 PUSH2 0x100 EXP SWAP1 DIV PUSH20 0xFFFFFFFFFFFFFFFFFFFFFFFFFFFFFFFFFFFFFFFF AND PUSH20 0xFFFFFFFFFFFFFFFFFFFFFFFFFFFFFFFFFFFFFFFF AND PUSH4 0x1637EEFD ADDRESS DUP7 DUP7 DUP7 PUSH1 0x40 MLOAD DUP6 PUSH4 0xFFFFFFFF AND PUSH1 0xE0 SHL DUP2 MSTORE PUSH1 0x4 ADD PUSH2 0x3916 SWAP5 SWAP4 SWAP3 SWAP2 SWAP1 PUSH2 0x5BCD JUMP JUMPDEST PUSH1 0x0 PUSH1 0x40 MLOAD DUP1 DUP4 SUB DUP2 PUSH1 0x0 DUP8 DUP1 EXTCODESIZE ISZERO DUP1 ISZERO PUSH2 0x3930 JUMPI PUSH1 0x0 DUP1 REVERT JUMPDEST POP GAS CALL ISZERO DUP1 ISZERO PUSH2 0x3944 JUMPI RETURNDATASIZE PUSH1 0x0 DUP1 RETURNDATACOPY RETURNDATASIZE PUSH1 0x0 REVERT JUMPDEST POP POP POP POP PUSH1 0x0 PUSH2 0x3953 DUP5 PUSH2 0x342B JUMP JUMPDEST SWAP1 POP PUSH1 0x0 PUSH2 0x396F DUP7 DUP4 DUP7 GT PUSH2 0x3968 JUMPI DUP6 PUSH2 0x396A JUMP JUMPDEST DUP4 JUMPDEST PUSH2 0x4AE0 JUMP JUMPDEST SWAP1 POP PUSH1 0x0 PUSH1 0xA9 PUSH1 0x0 DUP8 PUSH20 0xFFFFFFFFFFFFFFFFFFFFFFFFFFFFFFFFFFFFFFFF AND PUSH20 0xFFFFFFFFFFFFFFFFFFFFFFFFFFFFFFFFFFFFFFFF AND DUP2 MSTORE PUSH1 0x20 ADD SWAP1 DUP2 MSTORE PUSH1 0x20 ADD PUSH1 0x0 KECCAK256 SWAP1 POP DUP2 DUP4 PUSH2 0x39C0 SWAP2 SWAP1 PUSH2 0x6559 JUMP JUMPDEST DUP2 PUSH1 0x0 ADD DUP2 SWAP1 SSTORE POP PUSH1 0xA5 SLOAD DUP2 PUSH1 0x1 ADD DUP2 SWAP1 SSTORE POP DUP2 PUSH1 0xA7 SLOAD LT PUSH2 0x39EF JUMPI DUP2 PUSH1 0xA7 SLOAD PUSH2 0x39EA SWAP2 SWAP1 PUSH2 0x6559 JUMP JUMPDEST PUSH2 0x39F2 JUMP JUMPDEST PUSH1 0x0 JUMPDEST PUSH1 0xA7 DUP2 SWAP1 SSTORE POP PUSH1 0xA4 PUSH1 0x0 SWAP1 SLOAD SWAP1 PUSH2 0x100 EXP SWAP1 DIV PUSH20 0xFFFFFFFFFFFFFFFFFFFFFFFFFFFFFFFFFFFFFFFF AND PUSH20 0xFFFFFFFFFFFFFFFFFFFFFFFFFFFFFFFFFFFFFFFF AND PUSH4 0xF079420A ADDRESS DUP10 DUP10 DUP7 PUSH1 0x40 MLOAD DUP6 PUSH4 0xFFFFFFFF AND PUSH1 0xE0 SHL DUP2 MSTORE PUSH1 0x4 ADD PUSH2 0x3A59 SWAP5 SWAP4 SWAP3 SWAP2 SWAP1 PUSH2 0x5BCD JUMP JUMPDEST PUSH1 0x0 PUSH1 0x40 MLOAD DUP1 DUP4 SUB DUP2 PUSH1 0x0 DUP8 DUP1 EXTCODESIZE ISZERO DUP1 ISZERO PUSH2 0x3A73 JUMPI PUSH1 0x0 DUP1 REVERT JUMPDEST POP GAS CALL ISZERO DUP1 ISZERO PUSH2 0x3A87 JUMPI RETURNDATASIZE PUSH1 0x0 DUP1 RETURNDATACOPY RETURNDATASIZE PUSH1 0x0 REVERT JUMPDEST POP POP POP POP PUSH32 0x6FADBF7329D21F278E724FA0D4511001A158F2A97EE35C5BC4CF8B64417399EF DUP8 DUP8 DUP5 DUP5 PUSH1 0x0 ADD SLOAD DUP6 PUSH1 0x1 ADD SLOAD PUSH1 0xA7 SLOAD PUSH1 0x40 MLOAD PUSH2 0x3ACE SWAP7 SWAP6 SWAP5 SWAP4 SWAP3 SWAP2 SWAP1 PUSH2 0x5CE1 JUMP JUMPDEST PUSH1 0x40 MLOAD DUP1 SWAP2 SUB SWAP1 LOG1 DUP2 SWAP4 POP POP POP POP SWAP4 SWAP3 POP POP POP JUMP JUMPDEST PUSH1 0xA4 PUSH1 0x0 SWAP1 SLOAD SWAP1 PUSH2 0x100 EXP SWAP1 DIV PUSH20 0xFFFFFFFFFFFFFFFFFFFFFFFFFFFFFFFFFFFFFFFF AND PUSH20 0xFFFFFFFFFFFFFFFFFFFFFFFFFFFFFFFFFFFFFFFF AND PUSH4 0x86B84187 ADDRESS DUP5 DUP5 PUSH1 0x40 MLOAD DUP5 PUSH4 0xFFFFFFFF AND PUSH1 0xE0 SHL DUP2 MSTORE PUSH1 0x4 ADD PUSH2 0x3B42 SWAP4 SWAP3 SWAP2 SWAP1 PUSH2 0x5C12 JUMP JUMPDEST PUSH1 0x0 PUSH1 0x40 MLOAD DUP1 DUP4 SUB DUP2 PUSH1 0x0 DUP8 DUP1 EXTCODESIZE ISZERO DUP1 ISZERO PUSH2 0x3B5C JUMPI PUSH1 0x0 DUP1 REVERT JUMPDEST POP GAS CALL ISZERO DUP1 ISZERO PUSH2 0x3B70 JUMPI RETURNDATASIZE PUSH1 0x0 DUP1 RETURNDATACOPY RETURNDATASIZE PUSH1 0x0 REVERT JUMPDEST POP POP POP POP PUSH2 0x3B7C PUSH2 0x4F95 JUMP JUMPDEST PUSH2 0x3B84 PUSH2 0x34C6 JUMP JUMPDEST DUP2 PUSH1 0x0 ADD DUP2 DUP2 MSTORE POP POP PUSH2 0x3B97 CALLER DUP4 PUSH2 0x4AE0 JUMP JUMPDEST DUP2 PUSH1 0x40 ADD DUP2 DUP2 MSTORE POP POP PUSH2 0x3BBB DUP2 PUSH1 0x0 ADD MLOAD DUP3 PUSH1 0x40 ADD MLOAD PUSH2 0x475A SWAP1 SWAP2 SWAP1 PUSH4 0xFFFFFFFF AND JUMP JUMPDEST DUP2 PUSH1 0x20 ADD DUP2 DUP2 MSTORE POP POP PUSH2 0x3BD2 DUP4 DUP3 PUSH1 0x20 ADD MLOAD PUSH2 0x4AFF JUMP JUMPDEST PUSH1 0xA4 PUSH1 0x0 SWAP1 SLOAD SWAP1 PUSH2 0x100 EXP SWAP1 DIV PUSH20 0xFFFFFFFFFFFFFFFFFFFFFFFFFFFFFFFFFFFFFFFF AND PUSH20 0xFFFFFFFFFFFFFFFFFFFFFFFFFFFFFFFFFFFFFFFF AND PUSH4 0xDE65F41B ADDRESS DUP6 DUP6 DUP6 PUSH1 0x20 ADD MLOAD PUSH1 0x40 MLOAD DUP6 PUSH4 0xFFFFFFFF AND PUSH1 0xE0 SHL DUP2 MSTORE PUSH1 0x4 ADD PUSH2 0x3C37 SWAP5 SWAP4 SWAP3 SWAP2 SWAP1 PUSH2 0x5C9C JUMP JUMPDEST PUSH1 0x0 PUSH1 0x40 MLOAD DUP1 DUP4 SUB DUP2 PUSH1 0x0 DUP8 DUP1 EXTCODESIZE ISZERO DUP1 ISZERO PUSH2 0x3C51 JUMPI PUSH1 0x0 DUP1 REVERT JUMPDEST POP GAS CALL ISZERO DUP1 ISZERO PUSH2 0x3C65 JUMPI RETURNDATASIZE PUSH1 0x0 DUP1 RETURNDATACOPY RETURNDATASIZE PUSH1 0x0 REVERT JUMPDEST POP POP POP POP PUSH32 0x2F00E3CDD69A77BE7ED215EC7B2A36784DD158F921FCA79AC29DEFFA353FE6EE CALLER DUP5 DUP5 DUP5 PUSH1 0x20 ADD MLOAD PUSH1 0x40 MLOAD PUSH2 0x3CA2 SWAP5 SWAP4 SWAP3 SWAP2 SWAP1 PUSH2 0x5C9C JUMP JUMPDEST PUSH1 0x40 MLOAD DUP1 SWAP2 SUB SWAP1 LOG1 POP POP POP JUMP JUMPDEST DUP2 PUSH1 0xA4 PUSH1 0x0 PUSH2 0x100 EXP DUP2 SLOAD DUP2 PUSH20 0xFFFFFFFFFFFFFFFFFFFFFFFFFFFFFFFFFFFFFFFF MUL NOT AND SWAP1 DUP4 PUSH20 0xFFFFFFFFFFFFFFFFFFFFFFFFFFFFFFFFFFFFFFFF AND MUL OR SWAP1 SSTORE POP DUP1 PUSH1 0xA3 PUSH1 0x0 PUSH2 0x100 EXP DUP2 SLOAD DUP2 PUSH20 0xFFFFFFFFFFFFFFFFFFFFFFFFFFFFFFFFFFFFFFFF MUL NOT AND SWAP1 DUP4 PUSH20 0xFFFFFFFFFFFFFFFFFFFFFFFFFFFFFFFFFFFFFFFF AND MUL OR SWAP1 SSTORE POP NUMBER PUSH1 0xA6 DUP2 SWAP1 SSTORE POP PUSH8 0xDE0B6B3A7640000 PUSH1 0xA5 DUP2 SWAP1 SSTORE POP PUSH7 0x2D79883D20000 PUSH1 0xA0 DUP2 SWAP1 SSTORE POP PUSH8 0x3782DACE9D90000 PUSH1 0xA1 DUP2 SWAP1 SSTORE POP PUSH2 0x3D6C PUSH2 0x4C89 JUMP JUMPDEST PUSH2 0x3D77 DUP6 DUP6 DUP6 PUSH2 0x4D27 JUMP JUMPDEST PUSH2 0x3D7F PUSH2 0x4D75 JUMP JUMPDEST PUSH32 0x8B73C3C69BB8FE3D512ECC4CF759CC79239F7B179B0FFACAA9A75D522B39400F DUP6 DUP1 MLOAD SWAP1 PUSH1 0x20 ADD KECCAK256 PUSH1 0x40 MLOAD DUP1 PUSH1 0x40 ADD PUSH1 0x40 MSTORE DUP1 PUSH1 0x1 DUP2 MSTORE PUSH1 0x20 ADD PUSH32 0x3100000000000000000000000000000000000000000000000000000000000000 DUP2 MSTORE POP DUP1 MLOAD SWAP1 PUSH1 0x20 ADD KECCAK256 PUSH2 0x3DED PUSH2 0x470A JUMP JUMPDEST ADDRESS PUSH1 0x40 MLOAD PUSH1 0x20 ADD PUSH2 0x3E02 SWAP6 SWAP5 SWAP4 SWAP3 SWAP2 SWAP1 PUSH2 0x5DE7 JUMP JUMPDEST PUSH1 0x40 MLOAD PUSH1 0x20 DUP2 DUP4 SUB SUB DUP2 MSTORE SWAP1 PUSH1 0x40 MSTORE DUP1 MLOAD SWAP1 PUSH1 0x20 ADD KECCAK256 PUSH1 0xAA DUP2 SWAP1 SSTORE POP POP POP POP POP POP JUMP JUMPDEST PUSH1 0x0 DUP2 DUP4 PUSH2 0x3E33 SWAP2 SWAP1 PUSH2 0x6559 JUMP JUMPDEST SWAP1 POP SWAP3 SWAP2 POP POP JUMP JUMPDEST DUP3 PUSH20 0xFFFFFFFFFFFFFFFFFFFFFFFFFFFFFFFFFFFFFFFF AND CALLER PUSH20 0xFFFFFFFFFFFFFFFFFFFFFFFFFFFFFFFFFFFFFFFF AND EQ ISZERO PUSH2 0x3EAA JUMPI PUSH1 0x40 MLOAD PUSH32 0x8C379A000000000000000000000000000000000000000000000000000000000 DUP2 MSTORE PUSH1 0x4 ADD PUSH2 0x3EA1 SWAP1 PUSH2 0x6024 JUMP JUMPDEST PUSH1 0x40 MLOAD DUP1 SWAP2 SUB SWAP1 REVERT JUMPDEST PUSH1 0x0 DUP3 EQ ISZERO PUSH2 0x3EEE JUMPI PUSH1 0x40 MLOAD PUSH32 0x8C379A000000000000000000000000000000000000000000000000000000000 DUP2 MSTORE PUSH1 0x4 ADD PUSH2 0x3EE5 SWAP1 PUSH2 0x5FE4 JUMP JUMPDEST PUSH1 0x40 MLOAD DUP1 SWAP2 SUB SWAP1 REVERT JUMPDEST PUSH1 0x0 DUP2 SWAP1 POP DUP1 PUSH20 0xFFFFFFFFFFFFFFFFFFFFFFFFFFFFFFFFFFFFFFFF AND PUSH4 0xD1482791 PUSH1 0x40 MLOAD DUP2 PUSH4 0xFFFFFFFF AND PUSH1 0xE0 SHL DUP2 MSTORE PUSH1 0x4 ADD PUSH1 0x20 PUSH1 0x40 MLOAD DUP1 DUP4 SUB DUP2 PUSH1 0x0 DUP8 DUP1 EXTCODESIZE ISZERO DUP1 ISZERO PUSH2 0x3F3B JUMPI PUSH1 0x0 DUP1 REVERT JUMPDEST POP GAS CALL ISZERO DUP1 ISZERO PUSH2 0x3F4F JUMPI RETURNDATASIZE PUSH1 0x0 DUP1 RETURNDATACOPY RETURNDATASIZE PUSH1 0x0 REVERT JUMPDEST POP POP POP POP PUSH1 0x40 MLOAD RETURNDATASIZE PUSH1 0x1F NOT PUSH1 0x1F DUP3 ADD AND DUP3 ADD DUP1 PUSH1 0x40 MSTORE POP DUP2 ADD SWAP1 PUSH2 0x3F73 SWAP2 SWAP1 PUSH2 0x5355 JUMP JUMPDEST POP PUSH1 0xA4 PUSH1 0x0 SWAP1 SLOAD SWAP1 PUSH2 0x100 EXP SWAP1 DIV PUSH20 0xFFFFFFFFFFFFFFFFFFFFFFFFFFFFFFFFFFFFFFFF AND PUSH20 0xFFFFFFFFFFFFFFFFFFFFFFFFFFFFFFFFFFFFFFFF AND PUSH4 0x61682DE ADDRESS DUP5 CALLER DUP9 DUP9 PUSH1 0x40 MLOAD DUP7 PUSH4 0xFFFFFFFF AND PUSH1 0xE0 SHL DUP2 MSTORE PUSH1 0x4 ADD PUSH2 0x3FD7 SWAP6 SWAP5 SWAP4 SWAP3 SWAP2 SWAP1 PUSH2 0x5B19 JUMP JUMPDEST PUSH1 0x0 PUSH1 0x40 MLOAD DUP1 DUP4 SUB DUP2 PUSH1 0x0 DUP8 DUP1 EXTCODESIZE ISZERO DUP1 ISZERO PUSH2 0x3FF1 JUMPI PUSH1 0x0 DUP1 REVERT JUMPDEST POP GAS CALL ISZERO DUP1 ISZERO PUSH2 0x4005 JUMPI RETURNDATASIZE PUSH1 0x0 DUP1 RETURNDATACOPY RETURNDATASIZE PUSH1 0x0 REVERT JUMPDEST POP POP POP POP NUMBER DUP2 PUSH20 0xFFFFFFFFFFFFFFFFFFFFFFFFFFFFFFFFFFFFFFFF AND PUSH4 0x6C540BAF PUSH1 0x40 MLOAD DUP2 PUSH4 0xFFFFFFFF AND PUSH1 0xE0 SHL DUP2 MSTORE PUSH1 0x4 ADD PUSH1 0x20 PUSH1 0x40 MLOAD DUP1 DUP4 SUB DUP2 DUP7 DUP1 EXTCODESIZE ISZERO DUP1 ISZERO PUSH2 0x4050 JUMPI PUSH1 0x0 DUP1 REVERT JUMPDEST POP GAS STATICCALL ISZERO DUP1 ISZERO PUSH2 0x4064 JUMPI RETURNDATASIZE PUSH1 0x0 DUP1 RETURNDATACOPY RETURNDATASIZE PUSH1 0x0 REVERT JUMPDEST POP POP POP POP PUSH1 0x40 MLOAD RETURNDATASIZE PUSH1 0x1F NOT PUSH1 0x1F DUP3 ADD AND DUP3 ADD DUP1 PUSH1 0x40 MSTORE POP DUP2 ADD SWAP1 PUSH2 0x4088 SWAP2 SWAP1 PUSH2 0x54A8 JUMP JUMPDEST EQ PUSH2 0x40C8 JUMPI PUSH1 0x40 MLOAD PUSH32 0x8C379A000000000000000000000000000000000000000000000000000000000 DUP2 MSTORE PUSH1 0x4 ADD PUSH2 0x40BF SWAP1 PUSH2 0x6004 JUMP JUMPDEST PUSH1 0x40 MLOAD DUP1 SWAP2 SUB SWAP1 REVERT JUMPDEST PUSH1 0x0 PUSH2 0x40D5 CALLER DUP7 DUP7 PUSH2 0x38B3 JUMP JUMPDEST SWAP1 POP PUSH1 0x0 PUSH1 0xA4 PUSH1 0x0 SWAP1 SLOAD SWAP1 PUSH2 0x100 EXP SWAP1 DIV PUSH20 0xFFFFFFFFFFFFFFFFFFFFFFFFFFFFFFFFFFFFFFFF AND PUSH20 0xFFFFFFFFFFFFFFFFFFFFFFFFFFFFFFFFFFFFFFFF AND PUSH4 0xC488847B ADDRESS DUP7 DUP6 PUSH1 0x40 MLOAD DUP5 PUSH4 0xFFFFFFFF AND PUSH1 0xE0 SHL DUP2 MSTORE PUSH1 0x4 ADD PUSH2 0x4138 SWAP4 SWAP3 SWAP2 SWAP1 PUSH2 0x5C12 JUMP JUMPDEST PUSH1 0x20 PUSH1 0x40 MLOAD DUP1 DUP4 SUB DUP2 DUP7 DUP1 EXTCODESIZE ISZERO DUP1 ISZERO PUSH2 0x4150 JUMPI PUSH1 0x0 DUP1 REVERT JUMPDEST POP GAS STATICCALL ISZERO DUP1 ISZERO PUSH2 0x4164 JUMPI RETURNDATASIZE PUSH1 0x0 DUP1 RETURNDATACOPY RETURNDATASIZE PUSH1 0x0 REVERT JUMPDEST POP POP POP POP PUSH1 0x40 MLOAD RETURNDATASIZE PUSH1 0x1F NOT PUSH1 0x1F DUP3 ADD AND DUP3 ADD DUP1 PUSH1 0x40 MSTORE POP DUP2 ADD SWAP1 PUSH2 0x4188 SWAP2 SWAP1 PUSH2 0x54A8 JUMP JUMPDEST SWAP1 POP ADDRESS PUSH20 0xFFFFFFFFFFFFFFFFFFFFFFFFFFFFFFFFFFFFFFFF AND DUP5 PUSH20 0xFFFFFFFFFFFFFFFFFFFFFFFFFFFFFFFFFFFFFFFF AND EQ ISZERO PUSH2 0x41CF JUMPI PUSH2 0x41CA ADDRESS CALLER DUP9 DUP5 PUSH2 0x431D JUMP JUMPDEST PUSH2 0x423F JUMP JUMPDEST DUP3 PUSH20 0xFFFFFFFFFFFFFFFFFFFFFFFFFFFFFFFFFFFFFFFF AND PUSH4 0xB2A02FF1 CALLER DUP9 DUP5 PUSH1 0x40 MLOAD DUP5 PUSH4 0xFFFFFFFF AND PUSH1 0xE0 SHL DUP2 MSTORE PUSH1 0x4 ADD PUSH2 0x420C SWAP4 SWAP3 SWAP2 SWAP1 PUSH2 0x5C12 JUMP JUMPDEST PUSH1 0x0 PUSH1 0x40 MLOAD DUP1 DUP4 SUB DUP2 PUSH1 0x0 DUP8 DUP1 EXTCODESIZE ISZERO DUP1 ISZERO PUSH2 0x4226 JUMPI PUSH1 0x0 DUP1 REVERT JUMPDEST POP GAS CALL ISZERO DUP1 ISZERO PUSH2 0x423A JUMPI RETURNDATASIZE PUSH1 0x0 DUP1 RETURNDATACOPY RETURNDATASIZE PUSH1 0x0 REVERT JUMPDEST POP POP POP POP JUMPDEST PUSH1 0xA4 PUSH1 0x0 SWAP1 SLOAD SWAP1 PUSH2 0x100 EXP SWAP1 DIV PUSH20 0xFFFFFFFFFFFFFFFFFFFFFFFFFFFFFFFFFFFFFFFF AND PUSH20 0xFFFFFFFFFFFFFFFFFFFFFFFFFFFFFFFFFFFFFFFF AND PUSH4 0x5F7BC006 ADDRESS DUP7 CALLER DUP11 DUP8 DUP8 PUSH1 0x40 MLOAD DUP8 PUSH4 0xFFFFFFFF AND PUSH1 0xE0 SHL DUP2 MSTORE PUSH1 0x4 ADD PUSH2 0x42A4 SWAP7 SWAP6 SWAP5 SWAP4 SWAP3 SWAP2 SWAP1 PUSH2 0x5B6C JUMP JUMPDEST PUSH1 0x0 PUSH1 0x40 MLOAD DUP1 DUP4 SUB DUP2 PUSH1 0x0 DUP8 DUP1 EXTCODESIZE ISZERO DUP1 ISZERO PUSH2 0x42BE JUMPI PUSH1 0x0 DUP1 REVERT JUMPDEST POP GAS CALL ISZERO DUP1 ISZERO PUSH2 0x42D2 JUMPI RETURNDATASIZE PUSH1 0x0 DUP1 RETURNDATACOPY RETURNDATASIZE PUSH1 0x0 REVERT JUMPDEST POP POP POP POP PUSH32 0x298637F684DA70674F26509B10F07EC2FBC77A335AB1E7D6215A4B2484D8BB52 CALLER DUP8 DUP5 DUP8 DUP6 PUSH1 0x40 MLOAD PUSH2 0x430D SWAP6 SWAP5 SWAP4 SWAP3 SWAP2 SWAP1 PUSH2 0x5C49 JUMP JUMPDEST PUSH1 0x40 MLOAD DUP1 SWAP2 SUB SWAP1 LOG1 POP POP POP POP POP POP JUMP JUMPDEST DUP3 PUSH20 0xFFFFFFFFFFFFFFFFFFFFFFFFFFFFFFFFFFFFFFFF AND DUP3 PUSH20 0xFFFFFFFFFFFFFFFFFFFFFFFFFFFFFFFFFFFFFFFF AND EQ ISZERO PUSH2 0x438C JUMPI PUSH1 0x40 MLOAD PUSH32 0x8C379A000000000000000000000000000000000000000000000000000000000 DUP2 MSTORE PUSH1 0x4 ADD PUSH2 0x4383 SWAP1 PUSH2 0x6044 JUMP JUMPDEST PUSH1 0x40 MLOAD DUP1 SWAP2 SUB SWAP1 REVERT JUMPDEST PUSH1 0xA4 PUSH1 0x0 SWAP1 SLOAD SWAP1 PUSH2 0x100 EXP SWAP1 DIV PUSH20 0xFFFFFFFFFFFFFFFFFFFFFFFFFFFFFFFFFFFFFFFF AND PUSH20 0xFFFFFFFFFFFFFFFFFFFFFFFFFFFFFFFFFFFFFFFF AND PUSH4 0xCB6DB19C ADDRESS DUP7 DUP7 DUP7 DUP7 PUSH1 0x40 MLOAD DUP7 PUSH4 0xFFFFFFFF AND PUSH1 0xE0 SHL DUP2 MSTORE PUSH1 0x4 ADD PUSH2 0x43EF SWAP6 SWAP5 SWAP4 SWAP3 SWAP2 SWAP1 PUSH2 0x5B19 JUMP JUMPDEST PUSH1 0x0 PUSH1 0x40 MLOAD DUP1 DUP4 SUB DUP2 PUSH1 0x0 DUP8 DUP1 EXTCODESIZE ISZERO DUP1 ISZERO PUSH2 0x4409 JUMPI PUSH1 0x0 DUP1 REVERT JUMPDEST POP GAS CALL ISZERO DUP1 ISZERO PUSH2 0x441D JUMPI RETURNDATASIZE PUSH1 0x0 DUP1 RETURNDATACOPY RETURNDATASIZE PUSH1 0x0 REVERT JUMPDEST POP POP POP POP PUSH2 0x442C DUP3 DUP5 DUP4 PUSH2 0x486C JUMP JUMPDEST PUSH1 0xA4 PUSH1 0x0 SWAP1 SLOAD SWAP1 PUSH2 0x100 EXP SWAP1 DIV PUSH20 0xFFFFFFFFFFFFFFFFFFFFFFFFFFFFFFFFFFFFFFFF AND PUSH20 0xFFFFFFFFFFFFFFFFFFFFFFFFFFFFFFFFFFFFFFFF AND PUSH4 0xD7F67A2 ADDRESS DUP7 DUP7 DUP7 DUP7 PUSH1 0x40 MLOAD DUP7 PUSH4 0xFFFFFFFF AND PUSH1 0xE0 SHL DUP2 MSTORE PUSH1 0x4 ADD PUSH2 0x448F SWAP6 SWAP5 SWAP4 SWAP3 SWAP2 SWAP1 PUSH2 0x5B19 JUMP JUMPDEST PUSH1 0x0 PUSH1 0x40 MLOAD DUP1 DUP4 SUB DUP2 PUSH1 0x0 DUP8 DUP1 EXTCODESIZE ISZERO DUP1 ISZERO PUSH2 0x44A9 JUMPI PUSH1 0x0 DUP1 REVERT JUMPDEST POP GAS CALL ISZERO DUP1 ISZERO PUSH2 0x44BD JUMPI RETURNDATASIZE PUSH1 0x0 DUP1 RETURNDATACOPY RETURNDATASIZE PUSH1 0x0 REVERT JUMPDEST POP POP POP POP POP POP POP POP JUMP JUMPDEST DUP2 PUSH20 0xFFFFFFFFFFFFFFFFFFFFFFFFFFFFFFFFFFFFFFFF AND PUSH2 0x8FC DUP3 SWAP1 DUP2 ISZERO MUL SWAP1 PUSH1 0x40 MLOAD PUSH1 0x0 PUSH1 0x40 MLOAD DUP1 DUP4 SUB DUP2 DUP6 DUP9 DUP9 CALL SWAP4 POP POP POP POP ISZERO DUP1 ISZERO PUSH2 0x450D JUMPI RETURNDATASIZE PUSH1 0x0 DUP1 RETURNDATACOPY RETURNDATASIZE PUSH1 0x0 REVERT JUMPDEST POP POP POP JUMP JUMPDEST PUSH1 0xA4 PUSH1 0x0 SWAP1 SLOAD SWAP1 PUSH2 0x100 EXP SWAP1 DIV PUSH20 0xFFFFFFFFFFFFFFFFFFFFFFFFFFFFFFFFFFFFFFFF AND PUSH20 0xFFFFFFFFFFFFFFFFFFFFFFFFFFFFFFFFFFFFFFFF AND PUSH4 0x2B9553CE ADDRESS DUP5 DUP5 PUSH1 0x40 MLOAD DUP5 PUSH4 0xFFFFFFFF AND PUSH1 0xE0 SHL DUP2 MSTORE PUSH1 0x4 ADD PUSH2 0x4571 SWAP4 SWAP3 SWAP2 SWAP1 PUSH2 0x5AE2 JUMP JUMPDEST PUSH1 0x0 PUSH1 0x40 MLOAD DUP1 DUP4 SUB DUP2 PUSH1 0x0 DUP8 DUP1 EXTCODESIZE ISZERO DUP1 ISZERO PUSH2 0x458B JUMPI PUSH1 0x0 DUP1 REVERT JUMPDEST POP GAS CALL ISZERO DUP1 ISZERO PUSH2 0x459F JUMPI RETURNDATASIZE PUSH1 0x0 DUP1 RETURNDATACOPY RETURNDATASIZE PUSH1 0x0 REVERT JUMPDEST POP POP POP POP PUSH1 0x0 PUSH1 0xA9 PUSH1 0x0 DUP5 PUSH20 0xFFFFFFFFFFFFFFFFFFFFFFFFFFFFFFFFFFFFFFFF AND PUSH20 0xFFFFFFFFFFFFFFFFFFFFFFFFFFFFFFFFFFFFFFFF AND DUP2 MSTORE PUSH1 0x20 ADD SWAP1 DUP2 MSTORE PUSH1 0x20 ADD PUSH1 0x0 KECCAK256 SWAP1 POP DUP2 PUSH2 0x45F0 DUP5 PUSH2 0x342B JUMP JUMPDEST PUSH2 0x45FA SWAP2 SWAP1 PUSH2 0x6478 JUMP JUMPDEST DUP2 PUSH1 0x0 ADD DUP2 SWAP1 SSTORE POP PUSH1 0xA5 SLOAD DUP2 PUSH1 0x1 ADD DUP2 SWAP1 SSTORE POP DUP2 PUSH1 0xA7 SLOAD PUSH2 0x461B SWAP2 SWAP1 PUSH2 0x6478 JUMP JUMPDEST PUSH1 0xA7 DUP2 SWAP1 SSTORE POP PUSH2 0x462B DUP4 DUP4 PUSH2 0x44C7 JUMP JUMPDEST PUSH1 0xA4 PUSH1 0x0 SWAP1 SLOAD SWAP1 PUSH2 0x100 EXP SWAP1 DIV PUSH20 0xFFFFFFFFFFFFFFFFFFFFFFFFFFFFFFFFFFFFFFFF AND PUSH20 0xFFFFFFFFFFFFFFFFFFFFFFFFFFFFFFFFFFFFFFFF AND PUSH4 0xCA498AD6 ADDRESS DUP6 DUP6 PUSH1 0x40 MLOAD DUP5 PUSH4 0xFFFFFFFF AND PUSH1 0xE0 SHL DUP2 MSTORE PUSH1 0x4 ADD PUSH2 0x468A SWAP4 SWAP3 SWAP2 SWAP1 PUSH2 0x5AE2 JUMP JUMPDEST PUSH1 0x0 PUSH1 0x40 MLOAD DUP1 DUP4 SUB DUP2 PUSH1 0x0 DUP8 DUP1 EXTCODESIZE ISZERO DUP1 ISZERO PUSH2 0x46A4 JUMPI PUSH1 0x0 DUP1 REVERT JUMPDEST POP GAS CALL ISZERO DUP1 ISZERO PUSH2 0x46B8 JUMPI RETURNDATASIZE PUSH1 0x0 DUP1 RETURNDATACOPY RETURNDATASIZE PUSH1 0x0 REVERT JUMPDEST POP POP POP POP PUSH32 0x2DD79F4FCCFD18C360CE7F9132F3621BF05EEE18F995224BADB32D17F172DF73 DUP4 DUP4 DUP4 PUSH1 0x0 ADD SLOAD DUP5 PUSH1 0x1 ADD SLOAD PUSH1 0xA7 SLOAD PUSH1 0x40 MLOAD PUSH2 0x46FD SWAP6 SWAP5 SWAP4 SWAP3 SWAP2 SWAP1 PUSH2 0x5A8F JUMP JUMPDEST PUSH1 0x40 MLOAD DUP1 SWAP2 SUB SWAP1 LOG1 POP POP POP JUMP JUMPDEST PUSH1 0x0 DUP1 PUSH1 0x0 SWAP1 POP DUP1 SWAP2 POP POP SWAP1 JUMP JUMPDEST PUSH1 0x0 PUSH2 0x4752 DUP3 PUSH2 0x4744 PUSH2 0x4735 PUSH1 0x1 DUP7 PUSH2 0x3E25 SWAP1 SWAP2 SWAP1 PUSH4 0xFFFFFFFF AND JUMP JUMPDEST DUP7 PUSH2 0x3888 SWAP1 SWAP2 SWAP1 PUSH4 0xFFFFFFFF AND JUMP JUMPDEST PUSH2 0x4D7E SWAP1 SWAP2 SWAP1 PUSH4 0xFFFFFFFF AND JUMP JUMPDEST SWAP1 POP SWAP3 SWAP2 POP POP JUMP JUMPDEST PUSH1 0x0 PUSH2 0x4789 DUP3 PUSH2 0x477B PUSH8 0xDE0B6B3A7640000 DUP7 PUSH2 0x4D94 SWAP1 SWAP2 SWAP1 PUSH4 0xFFFFFFFF AND JUMP JUMPDEST PUSH2 0x4D7E SWAP1 SWAP2 SWAP1 PUSH4 0xFFFFFFFF AND JUMP JUMPDEST SWAP1 POP SWAP3 SWAP2 POP POP JUMP JUMPDEST DUP2 PUSH20 0xFFFFFFFFFFFFFFFFFFFFFFFFFFFFFFFFFFFFFFFF AND CALLER PUSH20 0xFFFFFFFFFFFFFFFFFFFFFFFFFFFFFFFFFFFFFFFF AND EQ PUSH2 0x485E JUMPI PUSH2 0x485D DUP3 CALLER PUSH2 0x4858 DUP5 PUSH1 0x68 PUSH1 0x0 DUP9 PUSH20 0xFFFFFFFFFFFFFFFFFFFFFFFFFFFFFFFFFFFFFFFF AND PUSH20 0xFFFFFFFFFFFFFFFFFFFFFFFFFFFFFFFFFFFFFFFF AND DUP2 MSTORE PUSH1 0x20 ADD SWAP1 DUP2 MSTORE PUSH1 0x20 ADD PUSH1 0x0 KECCAK256 PUSH1 0x0 CALLER PUSH20 0xFFFFFFFFFFFFFFFFFFFFFFFFFFFFFFFFFFFFFFFF AND PUSH20 0xFFFFFFFFFFFFFFFFFFFFFFFFFFFFFFFFFFFFFFFF AND DUP2 MSTORE PUSH1 0x20 ADD SWAP1 DUP2 MSTORE PUSH1 0x20 ADD PUSH1 0x0 KECCAK256 SLOAD PUSH2 0x3E25 SWAP1 SWAP2 SWAP1 PUSH4 0xFFFFFFFF AND JUMP JUMPDEST PUSH2 0x2FA0 JUMP JUMPDEST JUMPDEST PUSH2 0x4868 DUP3 DUP3 PUSH2 0x4DAA JUMP JUMPDEST POP POP JUMP JUMPDEST PUSH1 0x0 PUSH20 0xFFFFFFFFFFFFFFFFFFFFFFFFFFFFFFFFFFFFFFFF AND DUP4 PUSH20 0xFFFFFFFFFFFFFFFFFFFFFFFFFFFFFFFFFFFFFFFF AND EQ ISZERO PUSH2 0x48DC JUMPI PUSH1 0x40 MLOAD PUSH32 0x8C379A000000000000000000000000000000000000000000000000000000000 DUP2 MSTORE PUSH1 0x4 ADD PUSH2 0x48D3 SWAP1 PUSH2 0x61C4 JUMP JUMPDEST PUSH1 0x40 MLOAD DUP1 SWAP2 SUB SWAP1 REVERT JUMPDEST PUSH1 0x0 PUSH20 0xFFFFFFFFFFFFFFFFFFFFFFFFFFFFFFFFFFFFFFFF AND DUP3 PUSH20 0xFFFFFFFFFFFFFFFFFFFFFFFFFFFFFFFFFFFFFFFF AND EQ ISZERO PUSH2 0x494C JUMPI PUSH1 0x40 MLOAD PUSH32 0x8C379A000000000000000000000000000000000000000000000000000000000 DUP2 MSTORE PUSH1 0x4 ADD PUSH2 0x4943 SWAP1 PUSH2 0x5F44 JUMP JUMPDEST PUSH1 0x40 MLOAD DUP1 SWAP2 SUB SWAP1 REVERT JUMPDEST PUSH2 0x499E DUP2 PUSH1 0x67 PUSH1 0x0 DUP7 PUSH20 0xFFFFFFFFFFFFFFFFFFFFFFFFFFFFFFFFFFFFFFFF AND PUSH20 0xFFFFFFFFFFFFFFFFFFFFFFFFFFFFFFFFFFFFFFFF AND DUP2 MSTORE PUSH1 0x20 ADD SWAP1 DUP2 MSTORE PUSH1 0x20 ADD PUSH1 0x0 KECCAK256 SLOAD PUSH2 0x3E25 SWAP1 SWAP2 SWAP1 PUSH4 0xFFFFFFFF AND JUMP JUMPDEST PUSH1 0x67 PUSH1 0x0 DUP6 PUSH20 0xFFFFFFFFFFFFFFFFFFFFFFFFFFFFFFFFFFFFFFFF AND PUSH20 0xFFFFFFFFFFFFFFFFFFFFFFFFFFFFFFFFFFFFFFFF AND DUP2 MSTORE PUSH1 0x20 ADD SWAP1 DUP2 MSTORE PUSH1 0x20 ADD PUSH1 0x0 KECCAK256 DUP2 SWAP1 SSTORE POP PUSH2 0x4A33 DUP2 PUSH1 0x67 PUSH1 0x0 DUP6 PUSH20 0xFFFFFFFFFFFFFFFFFFFFFFFFFFFFFFFFFFFFFFFF AND PUSH20 0xFFFFFFFFFFFFFFFFFFFFFFFFFFFFFFFFFFFFFFFF AND DUP2 MSTORE PUSH1 0x20 ADD SWAP1 DUP2 MSTORE PUSH1 0x20 ADD PUSH1 0x0 KECCAK256 SLOAD PUSH2 0x3888 SWAP1 SWAP2 SWAP1 PUSH4 0xFFFFFFFF AND JUMP JUMPDEST PUSH1 0x67 PUSH1 0x0 DUP5 PUSH20 0xFFFFFFFFFFFFFFFFFFFFFFFFFFFFFFFFFFFFFFFF AND PUSH20 0xFFFFFFFFFFFFFFFFFFFFFFFFFFFFFFFFFFFFFFFF AND DUP2 MSTORE PUSH1 0x20 ADD SWAP1 DUP2 MSTORE PUSH1 0x20 ADD PUSH1 0x0 KECCAK256 DUP2 SWAP1 SSTORE POP DUP2 PUSH20 0xFFFFFFFFFFFFFFFFFFFFFFFFFFFFFFFFFFFFFFFF AND DUP4 PUSH20 0xFFFFFFFFFFFFFFFFFFFFFFFFFFFFFFFFFFFFFFFF AND PUSH32 0xDDF252AD1BE2C89B69C2B068FC378DAA952BA7F163C4A11628F55A4DF523B3EF DUP4 PUSH1 0x40 MLOAD PUSH2 0x4AD3 SWAP2 SWAP1 PUSH2 0x6304 JUMP JUMPDEST PUSH1 0x40 MLOAD DUP1 SWAP2 SUB SWAP1 LOG3 POP POP POP JUMP JUMPDEST PUSH1 0x0 DUP2 PUSH1 0xAC SLOAD PUSH2 0x4AF0 SWAP2 SWAP1 PUSH2 0x6559 JUMP JUMPDEST PUSH1 0xAC DUP2 SWAP1 SSTORE POP DUP2 SWAP1 POP SWAP3 SWAP2 POP POP JUMP JUMPDEST PUSH1 0x0 PUSH20 0xFFFFFFFFFFFFFFFFFFFFFFFFFFFFFFFFFFFFFFFF AND DUP3 PUSH20 0xFFFFFFFFFFFFFFFFFFFFFFFFFFFFFFFFFFFFFFFF AND EQ ISZERO PUSH2 0x4B6F JUMPI PUSH1 0x40 MLOAD PUSH32 0x8C379A000000000000000000000000000000000000000000000000000000000 DUP2 MSTORE PUSH1 0x4 ADD PUSH2 0x4B66 SWAP1 PUSH2 0x62E4 JUMP JUMPDEST PUSH1 0x40 MLOAD DUP1 SWAP2 SUB SWAP1 REVERT JUMPDEST PUSH2 0x4B84 DUP2 PUSH1 0x69 SLOAD PUSH2 0x3888 SWAP1 SWAP2 SWAP1 PUSH4 0xFFFFFFFF AND JUMP JUMPDEST PUSH1 0x69 DUP2 SWAP1 SSTORE POP PUSH2 0x4BDC DUP2 PUSH1 0x67 PUSH1 0x0 DUP6 PUSH20 0xFFFFFFFFFFFFFFFFFFFFFFFFFFFFFFFFFFFFFFFF AND PUSH20 0xFFFFFFFFFFFFFFFFFFFFFFFFFFFFFFFFFFFFFFFF AND DUP2 MSTORE PUSH1 0x20 ADD SWAP1 DUP2 MSTORE PUSH1 0x20 ADD PUSH1 0x0 KECCAK256 SLOAD PUSH2 0x3888 SWAP1 SWAP2 SWAP1 PUSH4 0xFFFFFFFF AND JUMP JUMPDEST PUSH1 0x67 PUSH1 0x0 DUP5 PUSH20 0xFFFFFFFFFFFFFFFFFFFFFFFFFFFFFFFFFFFFFFFF AND PUSH20 0xFFFFFFFFFFFFFFFFFFFFFFFFFFFFFFFFFFFFFFFF AND DUP2 MSTORE PUSH1 0x20 ADD SWAP1 DUP2 MSTORE PUSH1 0x20 ADD PUSH1 0x0 KECCAK256 DUP2 SWAP1 SSTORE POP DUP2 PUSH20 0xFFFFFFFFFFFFFFFFFFFFFFFFFFFFFFFFFFFFFFFF AND PUSH1 0x0 PUSH20 0xFFFFFFFFFFFFFFFFFFFFFFFFFFFFFFFFFFFFFFFF AND PUSH32 0xDDF252AD1BE2C89B69C2B068FC378DAA952BA7F163C4A11628F55A4DF523B3EF DUP4 PUSH1 0x40 MLOAD PUSH2 0x4C7D SWAP2 SWAP1 PUSH2 0x6304 JUMP JUMPDEST PUSH1 0x40 MLOAD DUP1 SWAP2 SUB SWAP1 LOG3 POP POP JUMP JUMPDEST CALLER PUSH1 0x33 PUSH1 0x0 PUSH2 0x100 EXP DUP2 SLOAD DUP2 PUSH20 0xFFFFFFFFFFFFFFFFFFFFFFFFFFFFFFFFFFFFFFFF MUL NOT AND SWAP1 DUP4 PUSH20 0xFFFFFFFFFFFFFFFFFFFFFFFFFFFFFFFFFFFFFFFF AND MUL OR SWAP1 SSTORE POP CALLER PUSH20 0xFFFFFFFFFFFFFFFFFFFFFFFFFFFFFFFFFFFFFFFF AND PUSH1 0x0 PUSH20 0xFFFFFFFFFFFFFFFFFFFFFFFFFFFFFFFFFFFFFFFF AND PUSH32 0x70AEA8D848E8A90FB7661B227DC522EB6395C3DAC71B63CB59EDD5C9899B2364 PUSH1 0x40 MLOAD PUSH1 0x40 MLOAD DUP1 SWAP2 SUB SWAP1 LOG3 JUMP JUMPDEST DUP3 PUSH1 0x6A SWAP1 DUP1 MLOAD SWAP1 PUSH1 0x20 ADD SWAP1 PUSH2 0x4D3D SWAP3 SWAP2 SWAP1 PUSH2 0x4FB6 JUMP JUMPDEST POP DUP2 PUSH1 0x6B SWAP1 DUP1 MLOAD SWAP1 PUSH1 0x20 ADD SWAP1 PUSH2 0x4D54 SWAP3 SWAP2 SWAP1 PUSH2 0x4FB6 JUMP JUMPDEST POP DUP1 PUSH1 0x6C PUSH1 0x0 PUSH2 0x100 EXP DUP2 SLOAD DUP2 PUSH1 0xFF MUL NOT AND SWAP1 DUP4 PUSH1 0xFF AND MUL OR SWAP1 SSTORE POP POP POP POP JUMP JUMPDEST PUSH1 0x1 DUP1 DUP2 SWAP1 SSTORE POP JUMP JUMPDEST PUSH1 0x0 DUP2 DUP4 PUSH2 0x4D8C SWAP2 SWAP1 PUSH2 0x64CE JUMP JUMPDEST SWAP1 POP SWAP3 SWAP2 POP POP JUMP JUMPDEST PUSH1 0x0 DUP2 DUP4 PUSH2 0x4DA2 SWAP2 SWAP1 PUSH2 0x64FF JUMP JUMPDEST SWAP1 POP SWAP3 SWAP2 POP POP JUMP JUMPDEST PUSH1 0x0 PUSH20 0xFFFFFFFFFFFFFFFFFFFFFFFFFFFFFFFFFFFFFFFF AND DUP3 PUSH20 0xFFFFFFFFFFFFFFFFFFFFFFFFFFFFFFFFFFFFFFFF AND EQ ISZERO PUSH2 0x4E1A JUMPI PUSH1 0x40 MLOAD PUSH32 0x8C379A000000000000000000000000000000000000000000000000000000000 DUP2 MSTORE PUSH1 0x4 ADD PUSH2 0x4E11 SWAP1 PUSH2 0x61A4 JUMP JUMPDEST PUSH1 0x40 MLOAD DUP1 SWAP2 SUB SWAP1 REVERT JUMPDEST PUSH2 0x4E6C DUP2 PUSH1 0x67 PUSH1 0x0 DUP6 PUSH20 0xFFFFFFFFFFFFFFFFFFFFFFFFFFFFFFFFFFFFFFFF AND PUSH20 0xFFFFFFFFFFFFFFFFFFFFFFFFFFFFFFFFFFFFFFFF AND DUP2 MSTORE PUSH1 0x20 ADD SWAP1 DUP2 MSTORE PUSH1 0x20 ADD PUSH1 0x0 KECCAK256 SLOAD PUSH2 0x3E25 SWAP1 SWAP2 SWAP1 PUSH4 0xFFFFFFFF AND JUMP JUMPDEST PUSH1 0x67 PUSH1 0x0 DUP5 PUSH20 0xFFFFFFFFFFFFFFFFFFFFFFFFFFFFFFFFFFFFFFFF AND PUSH20 0xFFFFFFFFFFFFFFFFFFFFFFFFFFFFFFFFFFFFFFFF AND DUP2 MSTORE PUSH1 0x20 ADD SWAP1 DUP2 MSTORE PUSH1 0x20 ADD PUSH1 0x0 KECCAK256 DUP2 SWAP1 SSTORE POP PUSH2 0x4EC4 DUP2 PUSH1 0x69 SLOAD PUSH2 0x3E25 SWAP1 SWAP2 SWAP1 PUSH4 0xFFFFFFFF AND JUMP JUMPDEST PUSH1 0x69 DUP2 SWAP1 SSTORE POP PUSH1 0x0 PUSH20 0xFFFFFFFFFFFFFFFFFFFFFFFFFFFFFFFFFFFFFFFF AND DUP3 PUSH20 0xFFFFFFFFFFFFFFFFFFFFFFFFFFFFFFFFFFFFFFFF AND PUSH32 0xDDF252AD1BE2C89B69C2B068FC378DAA952BA7F163C4A11628F55A4DF523B3EF DUP4 PUSH1 0x40 MLOAD PUSH2 0x4F28 SWAP2 SWAP1 PUSH2 0x6304 JUMP JUMPDEST PUSH1 0x40 MLOAD DUP1 SWAP2 SUB SWAP1 LOG3 POP POP JUMP JUMPDEST PUSH1 0x40 MLOAD DUP1 PUSH2 0x180 ADD PUSH1 0x40 MSTORE DUP1 PUSH1 0x0 DUP2 MSTORE PUSH1 0x20 ADD PUSH1 0x0 DUP2 MSTORE PUSH1 0x20 ADD PUSH1 0x0 DUP2 MSTORE PUSH1 0x20 ADD PUSH1 0x0 DUP2 MSTORE PUSH1 0x20 ADD PUSH1 0x0 DUP2 MSTORE PUSH1 0x20 ADD PUSH1 0x0 DUP2 MSTORE PUSH1 0x20 ADD PUSH1 0x0 DUP2 MSTORE PUSH1 0x20 ADD PUSH1 0x0 DUP2 MSTORE PUSH1 0x20 ADD PUSH1 0x0 DUP2 MSTORE PUSH1 0x20 ADD PUSH1 0x0 DUP2 MSTORE PUSH1 0x20 ADD PUSH1 0x0 DUP2 MSTORE PUSH1 0x20 ADD PUSH1 0x0 DUP2 MSTORE POP SWAP1 JUMP JUMPDEST PUSH1 0x40 MLOAD DUP1 PUSH1 0x60 ADD PUSH1 0x40 MSTORE DUP1 PUSH1 0x0 DUP2 MSTORE PUSH1 0x20 ADD PUSH1 0x0 DUP2 MSTORE PUSH1 0x20 ADD PUSH1 0x0 DUP2 MSTORE POP SWAP1 JUMP JUMPDEST DUP3 DUP1 SLOAD PUSH2 0x4FC2 SWAP1 PUSH2 0x66D0 JUMP JUMPDEST SWAP1 PUSH1 0x0 MSTORE PUSH1 0x20 PUSH1 0x0 KECCAK256 SWAP1 PUSH1 0x1F ADD PUSH1 0x20 SWAP1 DIV DUP2 ADD SWAP3 DUP3 PUSH2 0x4FE4 JUMPI PUSH1 0x0 DUP6 SSTORE PUSH2 0x502B JUMP JUMPDEST DUP3 PUSH1 0x1F LT PUSH2 0x4FFD JUMPI DUP1 MLOAD PUSH1 0xFF NOT AND DUP4 DUP1 ADD OR DUP6 SSTORE PUSH2 0x502B JUMP JUMPDEST DUP3 DUP1 ADD PUSH1 0x1 ADD DUP6 SSTORE DUP3 ISZERO PUSH2 0x502B JUMPI SWAP2 DUP3 ADD JUMPDEST DUP3 DUP2 GT ISZERO PUSH2 0x502A JUMPI DUP3 MLOAD DUP3 SSTORE SWAP2 PUSH1 0x20 ADD SWAP2 SWAP1 PUSH1 0x1 ADD SWAP1 PUSH2 0x500F JUMP JUMPDEST JUMPDEST POP SWAP1 POP PUSH2 0x5038 SWAP2 SWAP1 PUSH2 0x503C JUMP JUMPDEST POP SWAP1 JUMP JUMPDEST JUMPDEST DUP1 DUP3 GT ISZERO PUSH2 0x5055 JUMPI PUSH1 0x0 DUP2 PUSH1 0x0 SWAP1 SSTORE POP PUSH1 0x1 ADD PUSH2 0x503D JUMP JUMPDEST POP SWAP1 JUMP JUMPDEST PUSH1 0x0 PUSH2 0x506C PUSH2 0x5067 DUP5 PUSH2 0x6420 JUMP JUMPDEST PUSH2 0x63FB JUMP JUMPDEST SWAP1 POP DUP3 DUP2 MSTORE PUSH1 0x20 DUP2 ADD DUP5 DUP5 DUP5 ADD GT ISZERO PUSH2 0x5088 JUMPI PUSH2 0x5087 PUSH2 0x67FE JUMP JUMPDEST JUMPDEST PUSH2 0x5093 DUP5 DUP3 DUP6 PUSH2 0x668E JUMP JUMPDEST POP SWAP4 SWAP3 POP POP POP JUMP JUMPDEST PUSH1 0x0 DUP2 CALLDATALOAD SWAP1 POP PUSH2 0x50AA DUP2 PUSH2 0x71AF JUMP JUMPDEST SWAP3 SWAP2 POP POP JUMP JUMPDEST PUSH1 0x0 DUP2 CALLDATALOAD SWAP1 POP PUSH2 0x50BF DUP2 PUSH2 0x71C6 JUMP JUMPDEST SWAP3 SWAP2 POP POP JUMP JUMPDEST PUSH1 0x0 DUP2 MLOAD SWAP1 POP PUSH2 0x50D4 DUP2 PUSH2 0x71DD JUMP JUMPDEST SWAP3 SWAP2 POP POP JUMP JUMPDEST PUSH1 0x0 DUP2 CALLDATALOAD SWAP1 POP PUSH2 0x50E9 DUP2 PUSH2 0x71F4 JUMP JUMPDEST SWAP3 SWAP2 POP POP JUMP JUMPDEST PUSH1 0x0 DUP2 CALLDATALOAD SWAP1 POP PUSH2 0x50FE DUP2 PUSH2 0x720B JUMP JUMPDEST SWAP3 SWAP2 POP POP JUMP JUMPDEST PUSH1 0x0 DUP2 CALLDATALOAD SWAP1 POP PUSH2 0x5113 DUP2 PUSH2 0x7222 JUMP JUMPDEST SWAP3 SWAP2 POP POP JUMP JUMPDEST PUSH1 0x0 DUP3 PUSH1 0x1F DUP4 ADD SLT PUSH2 0x512E JUMPI PUSH2 0x512D PUSH2 0x67F9 JUMP JUMPDEST JUMPDEST DUP2 CALLDATALOAD PUSH2 0x513E DUP5 DUP3 PUSH1 0x20 DUP7 ADD PUSH2 0x5059 JUMP JUMPDEST SWAP2 POP POP SWAP3 SWAP2 POP POP JUMP JUMPDEST PUSH1 0x0 DUP2 CALLDATALOAD SWAP1 POP PUSH2 0x5156 DUP2 PUSH2 0x7239 JUMP JUMPDEST SWAP3 SWAP2 POP POP JUMP JUMPDEST PUSH1 0x0 DUP2 MLOAD SWAP1 POP PUSH2 0x516B DUP2 PUSH2 0x7239 JUMP JUMPDEST SWAP3 SWAP2 POP POP JUMP JUMPDEST PUSH1 0x0 DUP2 CALLDATALOAD SWAP1 POP PUSH2 0x5180 DUP2 PUSH2 0x7250 JUMP JUMPDEST SWAP3 SWAP2 POP POP JUMP JUMPDEST PUSH1 0x0 PUSH1 0x20 DUP3 DUP5 SUB SLT ISZERO PUSH2 0x519C JUMPI PUSH2 0x519B PUSH2 0x6808 JUMP JUMPDEST JUMPDEST PUSH1 0x0 PUSH2 0x51AA DUP5 DUP3 DUP6 ADD PUSH2 0x509B JUMP JUMPDEST SWAP2 POP POP SWAP3 SWAP2 POP POP JUMP JUMPDEST PUSH1 0x0 PUSH1 0x20 DUP3 DUP5 SUB SLT ISZERO PUSH2 0x51C9 JUMPI PUSH2 0x51C8 PUSH2 0x6808 JUMP JUMPDEST JUMPDEST PUSH1 0x0 PUSH2 0x51D7 DUP5 DUP3 DUP6 ADD PUSH2 0x50B0 JUMP JUMPDEST SWAP2 POP POP SWAP3 SWAP2 POP POP JUMP JUMPDEST PUSH1 0x0 DUP1 PUSH1 0x40 DUP4 DUP6 SUB SLT ISZERO PUSH2 0x51F7 JUMPI PUSH2 0x51F6 PUSH2 0x6808 JUMP JUMPDEST JUMPDEST PUSH1 0x0 PUSH2 0x5205 DUP6 DUP3 DUP7 ADD PUSH2 0x509B JUMP JUMPDEST SWAP3 POP POP PUSH1 0x20 PUSH2 0x5216 DUP6 DUP3 DUP7 ADD PUSH2 0x509B JUMP JUMPDEST SWAP2 POP POP SWAP3 POP SWAP3 SWAP1 POP JUMP JUMPDEST PUSH1 0x0 DUP1 PUSH1 0x0 PUSH1 0x60 DUP5 DUP7 SUB SLT ISZERO PUSH2 0x5239 JUMPI PUSH2 0x5238 PUSH2 0x6808 JUMP JUMPDEST JUMPDEST PUSH1 0x0 PUSH2 0x5247 DUP7 DUP3 DUP8 ADD PUSH2 0x509B JUMP JUMPDEST SWAP4 POP POP PUSH1 0x20 PUSH2 0x5258 DUP7 DUP3 DUP8 ADD PUSH2 0x509B JUMP JUMPDEST SWAP3 POP POP PUSH1 0x40 PUSH2 0x5269 DUP7 DUP3 DUP8 ADD PUSH2 0x5147 JUMP JUMPDEST SWAP2 POP POP SWAP3 POP SWAP3 POP SWAP3 JUMP JUMPDEST PUSH1 0x0 DUP1 PUSH1 0x0 DUP1 PUSH1 0x0 DUP1 PUSH1 0x0 PUSH1 0xE0 DUP9 DUP11 SUB SLT ISZERO PUSH2 0x5292 JUMPI PUSH2 0x5291 PUSH2 0x6808 JUMP JUMPDEST JUMPDEST PUSH1 0x0 PUSH2 0x52A0 DUP11 DUP3 DUP12 ADD PUSH2 0x509B JUMP JUMPDEST SWAP8 POP POP PUSH1 0x20 PUSH2 0x52B1 DUP11 DUP3 DUP12 ADD PUSH2 0x509B JUMP JUMPDEST SWAP7 POP POP PUSH1 0x40 PUSH2 0x52C2 DUP11 DUP3 DUP12 ADD PUSH2 0x5147 JUMP JUMPDEST SWAP6 POP POP PUSH1 0x60 PUSH2 0x52D3 DUP11 DUP3 DUP12 ADD PUSH2 0x5147 JUMP JUMPDEST SWAP5 POP POP PUSH1 0x80 PUSH2 0x52E4 DUP11 DUP3 DUP12 ADD PUSH2 0x5171 JUMP JUMPDEST SWAP4 POP POP PUSH1 0xA0 PUSH2 0x52F5 DUP11 DUP3 DUP12 ADD PUSH2 0x50DA JUMP JUMPDEST SWAP3 POP POP PUSH1 0xC0 PUSH2 0x5306 DUP11 DUP3 DUP12 ADD PUSH2 0x50DA JUMP JUMPDEST SWAP2 POP POP SWAP3 SWAP6 SWAP9 SWAP2 SWAP5 SWAP8 POP SWAP3 SWAP6 POP JUMP JUMPDEST PUSH1 0x0 DUP1 PUSH1 0x40 DUP4 DUP6 SUB SLT ISZERO PUSH2 0x532C JUMPI PUSH2 0x532B PUSH2 0x6808 JUMP JUMPDEST JUMPDEST PUSH1 0x0 PUSH2 0x533A DUP6 DUP3 DUP7 ADD PUSH2 0x509B JUMP JUMPDEST SWAP3 POP POP PUSH1 0x20 PUSH2 0x534B DUP6 DUP3 DUP7 ADD PUSH2 0x5147 JUMP JUMPDEST SWAP2 POP POP SWAP3 POP SWAP3 SWAP1 POP JUMP JUMPDEST PUSH1 0x0 PUSH1 0x20 DUP3 DUP5 SUB SLT ISZERO PUSH2 0x536B JUMPI PUSH2 0x536A PUSH2 0x6808 JUMP JUMPDEST JUMPDEST PUSH1 0x0 PUSH2 0x5379 DUP5 DUP3 DUP6 ADD PUSH2 0x50C5 JUMP JUMPDEST SWAP2 POP POP SWAP3 SWAP2 POP POP JUMP JUMPDEST PUSH1 0x0 PUSH1 0x20 DUP3 DUP5 SUB SLT ISZERO PUSH2 0x5398 JUMPI PUSH2 0x5397 PUSH2 0x6808 JUMP JUMPDEST JUMPDEST PUSH1 0x0 PUSH2 0x53A6 DUP5 DUP3 DUP6 ADD PUSH2 0x50EF JUMP JUMPDEST SWAP2 POP POP SWAP3 SWAP2 POP POP JUMP JUMPDEST PUSH1 0x0 PUSH1 0x20 DUP3 DUP5 SUB SLT ISZERO PUSH2 0x53C5 JUMPI PUSH2 0x53C4 PUSH2 0x6808 JUMP JUMPDEST JUMPDEST PUSH1 0x0 PUSH2 0x53D3 DUP5 DUP3 DUP6 ADD PUSH2 0x5104 JUMP JUMPDEST SWAP2 POP POP SWAP3 SWAP2 POP POP JUMP JUMPDEST PUSH1 0x0 DUP1 PUSH1 0x0 DUP1 PUSH1 0x80 DUP6 DUP8 SUB SLT ISZERO PUSH2 0x53F6 JUMPI PUSH2 0x53F5 PUSH2 0x6808 JUMP JUMPDEST JUMPDEST PUSH1 0x0 DUP6 ADD CALLDATALOAD PUSH8 0xFFFFFFFFFFFFFFFF DUP2 GT ISZERO PUSH2 0x5414 JUMPI PUSH2 0x5413 PUSH2 0x6803 JUMP JUMPDEST JUMPDEST PUSH2 0x5420 DUP8 DUP3 DUP9 ADD PUSH2 0x5119 JUMP JUMPDEST SWAP5 POP POP PUSH1 0x20 DUP6 ADD CALLDATALOAD PUSH8 0xFFFFFFFFFFFFFFFF DUP2 GT ISZERO PUSH2 0x5441 JUMPI PUSH2 0x5440 PUSH2 0x6803 JUMP JUMPDEST JUMPDEST PUSH2 0x544D DUP8 DUP3 DUP9 ADD PUSH2 0x5119 JUMP JUMPDEST SWAP4 POP POP PUSH1 0x40 PUSH2 0x545E DUP8 DUP3 DUP9 ADD PUSH2 0x50EF JUMP JUMPDEST SWAP3 POP POP PUSH1 0x60 PUSH2 0x546F DUP8 DUP3 DUP9 ADD PUSH2 0x5104 JUMP JUMPDEST SWAP2 POP POP SWAP3 SWAP6 SWAP2 SWAP5 POP SWAP3 POP JUMP JUMPDEST PUSH1 0x0 PUSH1 0x20 DUP3 DUP5 SUB SLT ISZERO PUSH2 0x5491 JUMPI PUSH2 0x5490 PUSH2 0x6808 JUMP JUMPDEST JUMPDEST PUSH1 0x0 PUSH2 0x549F DUP5 DUP3 DUP6 ADD PUSH2 0x5147 JUMP JUMPDEST SWAP2 POP POP SWAP3 SWAP2 POP POP JUMP JUMPDEST PUSH1 0x0 PUSH1 0x20 DUP3 DUP5 SUB SLT ISZERO PUSH2 0x54BE JUMPI PUSH2 0x54BD PUSH2 0x6808 JUMP JUMPDEST JUMPDEST PUSH1 0x0 PUSH2 0x54CC DUP5 DUP3 DUP6 ADD PUSH2 0x515C JUMP JUMPDEST SWAP2 POP POP SWAP3 SWAP2 POP POP JUMP JUMPDEST PUSH2 0x54DE DUP2 PUSH2 0x6622 JUMP JUMPDEST DUP3 MSTORE POP POP JUMP JUMPDEST PUSH2 0x54ED DUP2 PUSH2 0x659F JUMP JUMPDEST DUP3 MSTORE POP POP JUMP JUMPDEST PUSH2 0x54FC DUP2 PUSH2 0x658D JUMP JUMPDEST DUP3 MSTORE POP POP JUMP JUMPDEST PUSH2 0x550B DUP2 PUSH2 0x65B1 JUMP JUMPDEST DUP3 MSTORE POP POP JUMP JUMPDEST PUSH2 0x551A DUP2 PUSH2 0x65BD JUMP JUMPDEST DUP3 MSTORE POP POP JUMP JUMPDEST PUSH2 0x5531 PUSH2 0x552C DUP3 PUSH2 0x65BD JUMP JUMPDEST PUSH2 0x6733 JUMP JUMPDEST DUP3 MSTORE POP POP JUMP JUMPDEST PUSH2 0x5540 DUP2 PUSH2 0x6634 JUMP JUMPDEST DUP3 MSTORE POP POP JUMP JUMPDEST PUSH2 0x554F DUP2 PUSH2 0x6646 JUMP JUMPDEST DUP3 MSTORE POP POP JUMP JUMPDEST PUSH2 0x555E DUP2 PUSH2 0x6658 JUMP JUMPDEST DUP3 MSTORE POP POP JUMP JUMPDEST PUSH1 0x0 PUSH2 0x556F DUP3 PUSH2 0x6451 JUMP JUMPDEST PUSH2 0x5579 DUP2 DUP6 PUSH2 0x645C JUMP JUMPDEST SWAP4 POP PUSH2 0x5589 DUP2 DUP6 PUSH1 0x20 DUP7 ADD PUSH2 0x669D JUMP JUMPDEST PUSH2 0x5592 DUP2 PUSH2 0x680D JUMP JUMPDEST DUP5 ADD SWAP2 POP POP SWAP3 SWAP2 POP POP JUMP JUMPDEST PUSH1 0x0 PUSH2 0x55AA PUSH1 0x23 DUP4 PUSH2 0x645C JUMP JUMPDEST SWAP2 POP PUSH2 0x55B5 DUP3 PUSH2 0x681E JUMP JUMPDEST PUSH1 0x40 DUP3 ADD SWAP1 POP SWAP2 SWAP1 POP JUMP JUMPDEST PUSH1 0x0 PUSH2 0x55CD PUSH1 0x34 DUP4 PUSH2 0x645C JUMP JUMPDEST SWAP2 POP PUSH2 0x55D8 DUP3 PUSH2 0x686D JUMP JUMPDEST PUSH1 0x40 DUP3 ADD SWAP1 POP SWAP2 SWAP1 POP JUMP JUMPDEST PUSH1 0x0 PUSH2 0x55F0 PUSH1 0x3E DUP4 PUSH2 0x645C JUMP JUMPDEST SWAP2 POP PUSH2 0x55FB DUP3 PUSH2 0x68BC JUMP JUMPDEST PUSH1 0x40 DUP3 ADD SWAP1 POP SWAP2 SWAP1 POP JUMP JUMPDEST PUSH1 0x0 PUSH2 0x5613 PUSH1 0x4B DUP4 PUSH2 0x645C JUMP JUMPDEST SWAP2 POP PUSH2 0x561E DUP3 PUSH2 0x690B JUMP JUMPDEST PUSH1 0x60 DUP3 ADD SWAP1 POP SWAP2 SWAP1 POP JUMP JUMPDEST PUSH1 0x0 PUSH2 0x5636 PUSH1 0x22 DUP4 PUSH2 0x645C JUMP JUMPDEST SWAP2 POP PUSH2 0x5641 DUP3 PUSH2 0x6980 JUMP JUMPDEST PUSH1 0x40 DUP3 ADD SWAP1 POP SWAP2 SWAP1 POP JUMP JUMPDEST PUSH1 0x0 PUSH2 0x5659 PUSH1 0x44 DUP4 PUSH2 0x645C JUMP JUMPDEST SWAP2 POP PUSH2 0x5664 DUP3 PUSH2 0x69CF JUMP JUMPDEST PUSH1 0x60 DUP3 ADD SWAP1 POP SWAP2 SWAP1 POP JUMP JUMPDEST PUSH1 0x0 PUSH2 0x567C PUSH1 0x4C DUP4 PUSH2 0x645C JUMP JUMPDEST SWAP2 POP PUSH2 0x5687 DUP3 PUSH2 0x6A44 JUMP JUMPDEST PUSH1 0x60 DUP3 ADD SWAP1 POP SWAP2 SWAP1 POP JUMP JUMPDEST PUSH1 0x0 PUSH2 0x569F PUSH1 0x2 DUP4 PUSH2 0x646D JUMP JUMPDEST SWAP2 POP PUSH2 0x56AA DUP3 PUSH2 0x6AB9 JUMP JUMPDEST PUSH1 0x2 DUP3 ADD SWAP1 POP SWAP2 SWAP1 POP JUMP JUMPDEST PUSH1 0x0 PUSH2 0x56C2 PUSH1 0x39 DUP4 PUSH2 0x645C JUMP JUMPDEST SWAP2 POP PUSH2 0x56CD DUP3 PUSH2 0x6AE2 JUMP JUMPDEST PUSH1 0x40 DUP3 ADD SWAP1 POP SWAP2 SWAP1 POP JUMP JUMPDEST PUSH1 0x0 PUSH2 0x56E5 PUSH1 0x26 DUP4 PUSH2 0x645C JUMP JUMPDEST SWAP2 POP PUSH2 0x56F0 DUP3 PUSH2 0x6B31 JUMP JUMPDEST PUSH1 0x40 DUP3 ADD SWAP1 POP SWAP2 SWAP1 POP JUMP JUMPDEST PUSH1 0x0 PUSH2 0x5708 PUSH1 0x31 DUP4 PUSH2 0x645C JUMP JUMPDEST SWAP2 POP PUSH2 0x5713 DUP3 PUSH2 0x6B80 JUMP JUMPDEST PUSH1 0x40 DUP3 ADD SWAP1 POP SWAP2 SWAP1 POP JUMP JUMPDEST PUSH1 0x0 PUSH2 0x572B PUSH1 0x36 DUP4 PUSH2 0x645C JUMP JUMPDEST SWAP2 POP PUSH2 0x5736 DUP3 PUSH2 0x6BCF JUMP JUMPDEST PUSH1 0x40 DUP3 ADD SWAP1 POP SWAP2 SWAP1 POP JUMP JUMPDEST PUSH1 0x0 PUSH2 0x574E PUSH1 0x28 DUP4 PUSH2 0x645C JUMP JUMPDEST SWAP2 POP PUSH2 0x5759 DUP3 PUSH2 0x6C1E JUMP JUMPDEST PUSH1 0x40 DUP3 ADD SWAP1 POP SWAP2 SWAP1 POP JUMP JUMPDEST PUSH1 0x0 PUSH2 0x5771 PUSH1 0x2E DUP4 PUSH2 0x645C JUMP JUMPDEST SWAP2 POP PUSH2 0x577C DUP3 PUSH2 0x6C6D JUMP JUMPDEST PUSH1 0x40 DUP3 ADD SWAP1 POP SWAP2 SWAP1 POP JUMP JUMPDEST PUSH1 0x0 PUSH2 0x5794 PUSH1 0x1A DUP4 PUSH2 0x645C JUMP JUMPDEST SWAP2 POP PUSH2 0x579F DUP3 PUSH2 0x6CBC JUMP JUMPDEST PUSH1 0x20 DUP3 ADD SWAP1 POP SWAP2 SWAP1 POP JUMP JUMPDEST PUSH1 0x0 PUSH2 0x57B7 PUSH1 0x26 DUP4 PUSH2 0x645C JUMP JUMPDEST SWAP2 POP PUSH2 0x57C2 DUP3 PUSH2 0x6CE5 JUMP JUMPDEST PUSH1 0x40 DUP3 ADD SWAP1 POP SWAP2 SWAP1 POP JUMP JUMPDEST PUSH1 0x0 PUSH2 0x57DA PUSH1 0x22 DUP4 PUSH2 0x645C JUMP JUMPDEST SWAP2 POP PUSH2 0x57E5 DUP3 PUSH2 0x6D34 JUMP JUMPDEST PUSH1 0x40 DUP3 ADD SWAP1 POP SWAP2 SWAP1 POP JUMP JUMPDEST PUSH1 0x0 PUSH2 0x57FD PUSH1 0x37 DUP4 PUSH2 0x645C JUMP JUMPDEST SWAP2 POP PUSH2 0x5808 DUP3 PUSH2 0x6D83 JUMP JUMPDEST PUSH1 0x40 DUP3 ADD SWAP1 POP SWAP2 SWAP1 POP JUMP JUMPDEST PUSH1 0x0 PUSH2 0x5820 PUSH1 0x47 DUP4 PUSH2 0x645C JUMP JUMPDEST SWAP2 POP PUSH2 0x582B DUP3 PUSH2 0x6DD2 JUMP JUMPDEST PUSH1 0x60 DUP3 ADD SWAP1 POP SWAP2 SWAP1 POP JUMP JUMPDEST PUSH1 0x0 PUSH2 0x5843 PUSH1 0x3A DUP4 PUSH2 0x645C JUMP JUMPDEST SWAP2 POP PUSH2 0x584E DUP3 PUSH2 0x6E47 JUMP JUMPDEST PUSH1 0x40 DUP3 ADD SWAP1 POP SWAP2 SWAP1 POP JUMP JUMPDEST PUSH1 0x0 PUSH2 0x5866 PUSH1 0x21 DUP4 PUSH2 0x645C JUMP JUMPDEST SWAP2 POP PUSH2 0x5871 DUP3 PUSH2 0x6E96 JUMP JUMPDEST PUSH1 0x40 DUP3 ADD SWAP1 POP SWAP2 SWAP1 POP JUMP JUMPDEST PUSH1 0x0 PUSH2 0x5889 PUSH1 0x25 DUP4 PUSH2 0x645C JUMP JUMPDEST SWAP2 POP PUSH2 0x5894 DUP3 PUSH2 0x6EE5 JUMP JUMPDEST PUSH1 0x40 DUP3 ADD SWAP1 POP SWAP2 SWAP1 POP JUMP JUMPDEST PUSH1 0x0 PUSH2 0x58AC PUSH1 0x3B DUP4 PUSH2 0x645C JUMP JUMPDEST SWAP2 POP PUSH2 0x58B7 DUP3 PUSH2 0x6F34 JUMP JUMPDEST PUSH1 0x40 DUP3 ADD SWAP1 POP SWAP2 SWAP1 POP JUMP JUMPDEST PUSH1 0x0 PUSH2 0x58CF PUSH1 0x24 DUP4 PUSH2 0x645C JUMP JUMPDEST SWAP2 POP PUSH2 0x58DA DUP3 PUSH2 0x6F83 JUMP JUMPDEST PUSH1 0x40 DUP3 ADD SWAP1 POP SWAP2 SWAP1 POP JUMP JUMPDEST PUSH1 0x0 PUSH2 0x58F2 PUSH1 0x42 DUP4 PUSH2 0x645C JUMP JUMPDEST SWAP2 POP PUSH2 0x58FD DUP3 PUSH2 0x6FD2 JUMP JUMPDEST PUSH1 0x60 DUP3 ADD SWAP1 POP SWAP2 SWAP1 POP JUMP JUMPDEST PUSH1 0x0 PUSH2 0x5915 PUSH1 0x29 DUP4 PUSH2 0x645C JUMP JUMPDEST SWAP2 POP PUSH2 0x5920 DUP3 PUSH2 0x7047 JUMP JUMPDEST PUSH1 0x40 DUP3 ADD SWAP1 POP SWAP2 SWAP1 POP JUMP JUMPDEST PUSH1 0x0 PUSH2 0x5938 PUSH1 0x25 DUP4 PUSH2 0x645C JUMP JUMPDEST SWAP2 POP PUSH2 0x5943 DUP3 PUSH2 0x7096 JUMP JUMPDEST PUSH1 0x40 DUP3 ADD SWAP1 POP SWAP2 SWAP1 POP JUMP JUMPDEST PUSH1 0x0 PUSH2 0x595B PUSH1 0x10 DUP4 PUSH2 0x645C JUMP JUMPDEST SWAP2 POP PUSH2 0x5966 DUP3 PUSH2 0x70E5 JUMP JUMPDEST PUSH1 0x20 DUP3 ADD SWAP1 POP SWAP2 SWAP1 POP JUMP JUMPDEST PUSH1 0x0 PUSH2 0x597E PUSH1 0x1F DUP4 PUSH2 0x645C JUMP JUMPDEST SWAP2 POP PUSH2 0x5989 DUP3 PUSH2 0x710E JUMP JUMPDEST PUSH1 0x20 DUP3 ADD SWAP1 POP SWAP2 SWAP1 POP JUMP JUMPDEST PUSH1 0x0 PUSH2 0x59A1 PUSH1 0x27 DUP4 PUSH2 0x645C JUMP JUMPDEST SWAP2 POP PUSH2 0x59AC DUP3 PUSH2 0x7137 JUMP JUMPDEST PUSH1 0x40 DUP3 ADD SWAP1 POP SWAP2 SWAP1 POP JUMP JUMPDEST PUSH1 0x0 PUSH2 0x59C4 PUSH1 0x1F DUP4 PUSH2 0x645C JUMP JUMPDEST SWAP2 POP PUSH2 0x59CF DUP3 PUSH2 0x7186 JUMP JUMPDEST PUSH1 0x20 DUP3 ADD SWAP1 POP SWAP2 SWAP1 POP JUMP JUMPDEST PUSH2 0x59E3 DUP2 PUSH2 0x660B JUMP JUMPDEST DUP3 MSTORE POP POP JUMP JUMPDEST PUSH2 0x59F2 DUP2 PUSH2 0x6615 JUMP JUMPDEST DUP3 MSTORE POP POP JUMP JUMPDEST PUSH1 0x0 PUSH2 0x5A03 DUP3 PUSH2 0x5692 JUMP JUMPDEST SWAP2 POP PUSH2 0x5A0F DUP3 DUP6 PUSH2 0x5520 JUMP JUMPDEST PUSH1 0x20 DUP3 ADD SWAP2 POP PUSH2 0x5A1F DUP3 DUP5 PUSH2 0x5520 JUMP JUMPDEST PUSH1 0x20 DUP3 ADD SWAP2 POP DUP2 SWAP1 POP SWAP4 SWAP3 POP POP POP JUMP JUMPDEST PUSH1 0x0 PUSH1 0x20 DUP3 ADD SWAP1 POP PUSH2 0x5A44 PUSH1 0x0 DUP4 ADD DUP5 PUSH2 0x54E4 JUMP JUMPDEST SWAP3 SWAP2 POP POP JUMP JUMPDEST PUSH1 0x0 PUSH1 0x80 DUP3 ADD SWAP1 POP PUSH2 0x5A5F PUSH1 0x0 DUP4 ADD DUP8 PUSH2 0x54D5 JUMP JUMPDEST PUSH2 0x5A6C PUSH1 0x20 DUP4 ADD DUP7 PUSH2 0x59DA JUMP JUMPDEST PUSH2 0x5A79 PUSH1 0x40 DUP4 ADD DUP6 PUSH2 0x59DA JUMP JUMPDEST PUSH2 0x5A86 PUSH1 0x60 DUP4 ADD DUP5 PUSH2 0x59DA JUMP JUMPDEST SWAP6 SWAP5 POP POP POP POP POP JUMP JUMPDEST PUSH1 0x0 PUSH1 0xA0 DUP3 ADD SWAP1 POP PUSH2 0x5AA4 PUSH1 0x0 DUP4 ADD DUP9 PUSH2 0x54D5 JUMP JUMPDEST PUSH2 0x5AB1 PUSH1 0x20 DUP4 ADD DUP8 PUSH2 0x59DA JUMP JUMPDEST PUSH2 0x5ABE PUSH1 0x40 DUP4 ADD DUP7 PUSH2 0x59DA JUMP JUMPDEST PUSH2 0x5ACB PUSH1 0x60 DUP4 ADD DUP6 PUSH2 0x59DA JUMP JUMPDEST PUSH2 0x5AD8 PUSH1 0x80 DUP4 ADD DUP5 PUSH2 0x59DA JUMP JUMPDEST SWAP7 SWAP6 POP POP POP POP POP POP JUMP JUMPDEST PUSH1 0x0 PUSH1 0x60 DUP3 ADD SWAP1 POP PUSH2 0x5AF7 PUSH1 0x0 DUP4 ADD DUP7 PUSH2 0x54F3 JUMP JUMPDEST PUSH2 0x5B04 PUSH1 0x20 DUP4 ADD DUP6 PUSH2 0x54D5 JUMP JUMPDEST PUSH2 0x5B11 PUSH1 0x40 DUP4 ADD DUP5 PUSH2 0x59DA JUMP JUMPDEST SWAP5 SWAP4 POP POP POP POP JUMP JUMPDEST PUSH1 0x0 PUSH1 0xA0 DUP3 ADD SWAP1 POP PUSH2 0x5B2E PUSH1 0x0 DUP4 ADD DUP9 PUSH2 0x54F3 JUMP JUMPDEST PUSH2 0x5B3B PUSH1 0x20 DUP4 ADD DUP8 PUSH2 0x54F3 JUMP JUMPDEST PUSH2 0x5B48 PUSH1 0x40 DUP4 ADD DUP7 PUSH2 0x54F3 JUMP JUMPDEST PUSH2 0x5B55 PUSH1 0x60 DUP4 ADD DUP6 PUSH2 0x54F3 JUMP JUMPDEST PUSH2 0x5B62 PUSH1 0x80 DUP4 ADD DUP5 PUSH2 0x59DA JUMP JUMPDEST SWAP7 SWAP6 POP POP POP POP POP POP JUMP JUMPDEST PUSH1 0x0 PUSH1 0xC0 DUP3 ADD SWAP1 POP PUSH2 0x5B81 PUSH1 0x0 DUP4 ADD DUP10 PUSH2 0x54F3 JUMP JUMPDEST PUSH2 0x5B8E PUSH1 0x20 DUP4 ADD DUP9 PUSH2 0x54F3 JUMP JUMPDEST PUSH2 0x5B9B PUSH1 0x40 DUP4 ADD DUP8 PUSH2 0x54F3 JUMP JUMPDEST PUSH2 0x5BA8 PUSH1 0x60 DUP4 ADD DUP7 PUSH2 0x54F3 JUMP JUMPDEST PUSH2 0x5BB5 PUSH1 0x80 DUP4 ADD DUP6 PUSH2 0x59DA JUMP JUMPDEST PUSH2 0x5BC2 PUSH1 0xA0 DUP4 ADD DUP5 PUSH2 0x59DA JUMP JUMPDEST SWAP8 SWAP7 POP POP POP POP POP POP POP JUMP JUMPDEST PUSH1 0x0 PUSH1 0x80 DUP3 ADD SWAP1 POP PUSH2 0x5BE2 PUSH1 0x0 DUP4 ADD DUP8 PUSH2 0x54F3 JUMP JUMPDEST PUSH2 0x5BEF PUSH1 0x20 DUP4 ADD DUP7 PUSH2 0x54F3 JUMP JUMPDEST PUSH2 0x5BFC PUSH1 0x40 DUP4 ADD DUP6 PUSH2 0x54F3 JUMP JUMPDEST PUSH2 0x5C09 PUSH1 0x60 DUP4 ADD DUP5 PUSH2 0x59DA JUMP JUMPDEST SWAP6 SWAP5 POP POP POP POP POP JUMP JUMPDEST PUSH1 0x0 PUSH1 0x60 DUP3 ADD SWAP1 POP PUSH2 0x5C27 PUSH1 0x0 DUP4 ADD DUP7 PUSH2 0x54F3 JUMP JUMPDEST PUSH2 0x5C34 PUSH1 0x20 DUP4 ADD DUP6 PUSH2 0x54F3 JUMP JUMPDEST PUSH2 0x5C41 PUSH1 0x40 DUP4 ADD DUP5 PUSH2 0x59DA JUMP JUMPDEST SWAP5 SWAP4 POP POP POP POP JUMP JUMPDEST PUSH1 0x0 PUSH1 0xA0 DUP3 ADD SWAP1 POP PUSH2 0x5C5E PUSH1 0x0 DUP4 ADD DUP9 PUSH2 0x54F3 JUMP JUMPDEST PUSH2 0x5C6B PUSH1 0x20 DUP4 ADD DUP8 PUSH2 0x54F3 JUMP JUMPDEST PUSH2 0x5C78 PUSH1 0x40 DUP4 ADD DUP7 PUSH2 0x59DA JUMP JUMPDEST PUSH2 0x5C85 PUSH1 0x60 DUP4 ADD DUP6 PUSH2 0x54F3 JUMP JUMPDEST PUSH2 0x5C92 PUSH1 0x80 DUP4 ADD DUP5 PUSH2 0x59DA JUMP JUMPDEST SWAP7 SWAP6 POP POP POP POP POP POP JUMP JUMPDEST PUSH1 0x0 PUSH1 0x80 DUP3 ADD SWAP1 POP PUSH2 0x5CB1 PUSH1 0x0 DUP4 ADD DUP8 PUSH2 0x54F3 JUMP JUMPDEST PUSH2 0x5CBE PUSH1 0x20 DUP4 ADD DUP7 PUSH2 0x54F3 JUMP JUMPDEST PUSH2 0x5CCB PUSH1 0x40 DUP4 ADD DUP6 PUSH2 0x59DA JUMP JUMPDEST PUSH2 0x5CD8 PUSH1 0x60 DUP4 ADD DUP5 PUSH2 0x59DA JUMP JUMPDEST SWAP6 SWAP5 POP POP POP POP POP JUMP JUMPDEST PUSH1 0x0 PUSH1 0xC0 DUP3 ADD SWAP1 POP PUSH2 0x5CF6 PUSH1 0x0 DUP4 ADD DUP10 PUSH2 0x54F3 JUMP JUMPDEST PUSH2 0x5D03 PUSH1 0x20 DUP4 ADD DUP9 PUSH2 0x54F3 JUMP JUMPDEST PUSH2 0x5D10 PUSH1 0x40 DUP4 ADD DUP8 PUSH2 0x59DA JUMP JUMPDEST PUSH2 0x5D1D PUSH1 0x60 DUP4 ADD DUP7 PUSH2 0x59DA JUMP JUMPDEST PUSH2 0x5D2A PUSH1 0x80 DUP4 ADD DUP6 PUSH2 0x59DA JUMP JUMPDEST PUSH2 0x5D37 PUSH1 0xA0 DUP4 ADD DUP5 PUSH2 0x59DA JUMP JUMPDEST SWAP8 SWAP7 POP POP POP POP POP POP POP JUMP JUMPDEST PUSH1 0x0 PUSH1 0x20 DUP3 ADD SWAP1 POP PUSH2 0x5D57 PUSH1 0x0 DUP4 ADD DUP5 PUSH2 0x5502 JUMP JUMPDEST SWAP3 SWAP2 POP POP JUMP JUMPDEST PUSH1 0x0 PUSH1 0x20 DUP3 ADD SWAP1 POP PUSH2 0x5D72 PUSH1 0x0 DUP4 ADD DUP5 PUSH2 0x5511 JUMP JUMPDEST SWAP3 SWAP2 POP POP JUMP JUMPDEST PUSH1 0x0 PUSH1 0xE0 DUP3 ADD SWAP1 POP PUSH2 0x5D8D PUSH1 0x0 DUP4 ADD DUP11 PUSH2 0x5511 JUMP JUMPDEST PUSH2 0x5D9A PUSH1 0x20 DUP4 ADD DUP10 PUSH2 0x54F3 JUMP JUMPDEST PUSH2 0x5DA7 PUSH1 0x40 DUP4 ADD DUP9 PUSH2 0x54F3 JUMP JUMPDEST PUSH2 0x5DB4 PUSH1 0x60 DUP4 ADD DUP8 PUSH2 0x59DA JUMP JUMPDEST PUSH2 0x5DC1 PUSH1 0x80 DUP4 ADD DUP7 PUSH2 0x59DA JUMP JUMPDEST PUSH2 0x5DCE PUSH1 0xA0 DUP4 ADD DUP6 PUSH2 0x59DA JUMP JUMPDEST PUSH2 0x5DDB PUSH1 0xC0 DUP4 ADD DUP5 PUSH2 0x59DA JUMP JUMPDEST SWAP9 SWAP8 POP POP POP POP POP POP POP POP JUMP JUMPDEST PUSH1 0x0 PUSH1 0xA0 DUP3 ADD SWAP1 POP PUSH2 0x5DFC PUSH1 0x0 DUP4 ADD DUP9 PUSH2 0x5511 JUMP JUMPDEST PUSH2 0x5E09 PUSH1 0x20 DUP4 ADD DUP8 PUSH2 0x5511 JUMP JUMPDEST PUSH2 0x5E16 PUSH1 0x40 DUP4 ADD DUP7 PUSH2 0x5511 JUMP JUMPDEST PUSH2 0x5E23 PUSH1 0x60 DUP4 ADD DUP6 PUSH2 0x59DA JUMP JUMPDEST PUSH2 0x5E30 PUSH1 0x80 DUP4 ADD DUP5 PUSH2 0x54F3 JUMP JUMPDEST SWAP7 SWAP6 POP POP POP POP POP POP JUMP JUMPDEST PUSH1 0x0 PUSH1 0x80 DUP3 ADD SWAP1 POP PUSH2 0x5E4F PUSH1 0x0 DUP4 ADD DUP8 PUSH2 0x5511 JUMP JUMPDEST PUSH2 0x5E5C PUSH1 0x20 DUP4 ADD DUP7 PUSH2 0x59E9 JUMP JUMPDEST PUSH2 0x5E69 PUSH1 0x40 DUP4 ADD DUP6 PUSH2 0x5511 JUMP JUMPDEST PUSH2 0x5E76 PUSH1 0x60 DUP4 ADD DUP5 PUSH2 0x5511 JUMP JUMPDEST SWAP6 SWAP5 POP POP POP POP POP JUMP JUMPDEST PUSH1 0x0 PUSH1 0x20 DUP3 ADD SWAP1 POP PUSH2 0x5E94 PUSH1 0x0 DUP4 ADD DUP5 PUSH2 0x5537 JUMP JUMPDEST SWAP3 SWAP2 POP POP JUMP JUMPDEST PUSH1 0x0 PUSH1 0x40 DUP3 ADD SWAP1 POP PUSH2 0x5EAF PUSH1 0x0 DUP4 ADD DUP6 PUSH2 0x5537 JUMP JUMPDEST PUSH2 0x5EBC PUSH1 0x20 DUP4 ADD DUP5 PUSH2 0x5537 JUMP JUMPDEST SWAP4 SWAP3 POP POP POP JUMP JUMPDEST PUSH1 0x0 PUSH1 0x20 DUP3 ADD SWAP1 POP PUSH2 0x5ED8 PUSH1 0x0 DUP4 ADD DUP5 PUSH2 0x5546 JUMP JUMPDEST SWAP3 SWAP2 POP POP JUMP JUMPDEST PUSH1 0x0 PUSH1 0x20 DUP3 ADD SWAP1 POP PUSH2 0x5EF3 PUSH1 0x0 DUP4 ADD DUP5 PUSH2 0x5555 JUMP JUMPDEST SWAP3 SWAP2 POP POP JUMP JUMPDEST PUSH1 0x0 PUSH1 0x40 DUP3 ADD SWAP1 POP PUSH2 0x5F0E PUSH1 0x0 DUP4 ADD DUP6 PUSH2 0x5555 JUMP JUMPDEST PUSH2 0x5F1B PUSH1 0x20 DUP4 ADD DUP5 PUSH2 0x5555 JUMP JUMPDEST SWAP4 SWAP3 POP POP POP JUMP JUMPDEST PUSH1 0x0 PUSH1 0x20 DUP3 ADD SWAP1 POP DUP2 DUP2 SUB PUSH1 0x0 DUP4 ADD MSTORE PUSH2 0x5F3C DUP2 DUP5 PUSH2 0x5564 JUMP JUMPDEST SWAP1 POP SWAP3 SWAP2 POP POP JUMP JUMPDEST PUSH1 0x0 PUSH1 0x20 DUP3 ADD SWAP1 POP DUP2 DUP2 SUB PUSH1 0x0 DUP4 ADD MSTORE PUSH2 0x5F5D DUP2 PUSH2 0x559D JUMP JUMPDEST SWAP1 POP SWAP2 SWAP1 POP JUMP JUMPDEST PUSH1 0x0 PUSH1 0x20 DUP3 ADD SWAP1 POP DUP2 DUP2 SUB PUSH1 0x0 DUP4 ADD MSTORE PUSH2 0x5F7D DUP2 PUSH2 0x55C0 JUMP JUMPDEST SWAP1 POP SWAP2 SWAP1 POP JUMP JUMPDEST PUSH1 0x0 PUSH1 0x20 DUP3 ADD SWAP1 POP DUP2 DUP2 SUB PUSH1 0x0 DUP4 ADD MSTORE PUSH2 0x5F9D DUP2 PUSH2 0x55E3 JUMP JUMPDEST SWAP1 POP SWAP2 SWAP1 POP JUMP JUMPDEST PUSH1 0x0 PUSH1 0x20 DUP3 ADD SWAP1 POP DUP2 DUP2 SUB PUSH1 0x0 DUP4 ADD MSTORE PUSH2 0x5FBD DUP2 PUSH2 0x5606 JUMP JUMPDEST SWAP1 POP SWAP2 SWAP1 POP JUMP JUMPDEST PUSH1 0x0 PUSH1 0x20 DUP3 ADD SWAP1 POP DUP2 DUP2 SUB PUSH1 0x0 DUP4 ADD MSTORE PUSH2 0x5FDD DUP2 PUSH2 0x5629 JUMP JUMPDEST SWAP1 POP SWAP2 SWAP1 POP JUMP JUMPDEST PUSH1 0x0 PUSH1 0x20 DUP3 ADD SWAP1 POP DUP2 DUP2 SUB PUSH1 0x0 DUP4 ADD MSTORE PUSH2 0x5FFD DUP2 PUSH2 0x564C JUMP JUMPDEST SWAP1 POP SWAP2 SWAP1 POP JUMP JUMPDEST PUSH1 0x0 PUSH1 0x20 DUP3 ADD SWAP1 POP DUP2 DUP2 SUB PUSH1 0x0 DUP4 ADD MSTORE PUSH2 0x601D DUP2 PUSH2 0x566F JUMP JUMPDEST SWAP1 POP SWAP2 SWAP1 POP JUMP JUMPDEST PUSH1 0x0 PUSH1 0x20 DUP3 ADD SWAP1 POP DUP2 DUP2 SUB PUSH1 0x0 DUP4 ADD MSTORE PUSH2 0x603D DUP2 PUSH2 0x56B5 JUMP JUMPDEST SWAP1 POP SWAP2 SWAP1 POP JUMP JUMPDEST PUSH1 0x0 PUSH1 0x20 DUP3 ADD SWAP1 POP DUP2 DUP2 SUB PUSH1 0x0 DUP4 ADD MSTORE PUSH2 0x605D DUP2 PUSH2 0x56D8 JUMP JUMPDEST SWAP1 POP SWAP2 SWAP1 POP JUMP JUMPDEST PUSH1 0x0 PUSH1 0x20 DUP3 ADD SWAP1 POP DUP2 DUP2 SUB PUSH1 0x0 DUP4 ADD MSTORE PUSH2 0x607D DUP2 PUSH2 0x56FB JUMP JUMPDEST SWAP1 POP SWAP2 SWAP1 POP JUMP JUMPDEST PUSH1 0x0 PUSH1 0x20 DUP3 ADD SWAP1 POP DUP2 DUP2 SUB PUSH1 0x0 DUP4 ADD MSTORE PUSH2 0x609D DUP2 PUSH2 0x571E JUMP JUMPDEST SWAP1 POP SWAP2 SWAP1 POP JUMP JUMPDEST PUSH1 0x0 PUSH1 0x20 DUP3 ADD SWAP1 POP DUP2 DUP2 SUB PUSH1 0x0 DUP4 ADD MSTORE PUSH2 0x60BD DUP2 PUSH2 0x5741 JUMP JUMPDEST SWAP1 POP SWAP2 SWAP1 POP JUMP JUMPDEST PUSH1 0x0 PUSH1 0x20 DUP3 ADD SWAP1 POP DUP2 DUP2 SUB PUSH1 0x0 DUP4 ADD MSTORE PUSH2 0x60DD DUP2 PUSH2 0x5764 JUMP JUMPDEST SWAP1 POP SWAP2 SWAP1 POP JUMP JUMPDEST PUSH1 0x0 PUSH1 0x20 DUP3 ADD SWAP1 POP DUP2 DUP2 SUB PUSH1 0x0 DUP4 ADD MSTORE PUSH2 0x60FD DUP2 PUSH2 0x5787 JUMP JUMPDEST SWAP1 POP SWAP2 SWAP1 POP JUMP JUMPDEST PUSH1 0x0 PUSH1 0x20 DUP3 ADD SWAP1 POP DUP2 DUP2 SUB PUSH1 0x0 DUP4 ADD MSTORE PUSH2 0x611D DUP2 PUSH2 0x57AA JUMP JUMPDEST SWAP1 POP SWAP2 SWAP1 POP JUMP JUMPDEST PUSH1 0x0 PUSH1 0x20 DUP3 ADD SWAP1 POP DUP2 DUP2 SUB PUSH1 0x0 DUP4 ADD MSTORE PUSH2 0x613D DUP2 PUSH2 0x57CD JUMP JUMPDEST SWAP1 POP SWAP2 SWAP1 POP JUMP JUMPDEST PUSH1 0x0 PUSH1 0x20 DUP3 ADD SWAP1 POP DUP2 DUP2 SUB PUSH1 0x0 DUP4 ADD MSTORE PUSH2 0x615D DUP2 PUSH2 0x57F0 JUMP JUMPDEST SWAP1 POP SWAP2 SWAP1 POP JUMP JUMPDEST PUSH1 0x0 PUSH1 0x20 DUP3 ADD SWAP1 POP DUP2 DUP2 SUB PUSH1 0x0 DUP4 ADD MSTORE PUSH2 0x617D DUP2 PUSH2 0x5813 JUMP JUMPDEST SWAP1 POP SWAP2 SWAP1 POP JUMP JUMPDEST PUSH1 0x0 PUSH1 0x20 DUP3 ADD SWAP1 POP DUP2 DUP2 SUB PUSH1 0x0 DUP4 ADD MSTORE PUSH2 0x619D DUP2 PUSH2 0x5836 JUMP JUMPDEST SWAP1 POP SWAP2 SWAP1 POP JUMP JUMPDEST PUSH1 0x0 PUSH1 0x20 DUP3 ADD SWAP1 POP DUP2 DUP2 SUB PUSH1 0x0 DUP4 ADD MSTORE PUSH2 0x61BD DUP2 PUSH2 0x5859 JUMP JUMPDEST SWAP1 POP SWAP2 SWAP1 POP JUMP JUMPDEST PUSH1 0x0 PUSH1 0x20 DUP3 ADD SWAP1 POP DUP2 DUP2 SUB PUSH1 0x0 DUP4 ADD MSTORE PUSH2 0x61DD DUP2 PUSH2 0x587C JUMP JUMPDEST SWAP1 POP SWAP2 SWAP1 POP JUMP JUMPDEST PUSH1 0x0 PUSH1 0x20 DUP3 ADD SWAP1 POP DUP2 DUP2 SUB PUSH1 0x0 DUP4 ADD MSTORE PUSH2 0x61FD DUP2 PUSH2 0x589F JUMP JUMPDEST SWAP1 POP SWAP2 SWAP1 POP JUMP JUMPDEST PUSH1 0x0 PUSH1 0x20 DUP3 ADD SWAP1 POP DUP2 DUP2 SUB PUSH1 0x0 DUP4 ADD MSTORE PUSH2 0x621D DUP2 PUSH2 0x58C2 JUMP JUMPDEST SWAP1 POP SWAP2 SWAP1 POP JUMP JUMPDEST PUSH1 0x0 PUSH1 0x20 DUP3 ADD SWAP1 POP DUP2 DUP2 SUB PUSH1 0x0 DUP4 ADD MSTORE PUSH2 0x623D DUP2 PUSH2 0x58E5 JUMP JUMPDEST SWAP1 POP SWAP2 SWAP1 POP JUMP JUMPDEST PUSH1 0x0 PUSH1 0x20 DUP3 ADD SWAP1 POP DUP2 DUP2 SUB PUSH1 0x0 DUP4 ADD MSTORE PUSH2 0x625D DUP2 PUSH2 0x5908 JUMP JUMPDEST SWAP1 POP SWAP2 SWAP1 POP JUMP JUMPDEST PUSH1 0x0 PUSH1 0x20 DUP3 ADD SWAP1 POP DUP2 DUP2 SUB PUSH1 0x0 DUP4 ADD MSTORE PUSH2 0x627D DUP2 PUSH2 0x592B JUMP JUMPDEST SWAP1 POP SWAP2 SWAP1 POP JUMP JUMPDEST PUSH1 0x0 PUSH1 0x20 DUP3 ADD SWAP1 POP DUP2 DUP2 SUB PUSH1 0x0 DUP4 ADD MSTORE PUSH2 0x629D DUP2 PUSH2 0x594E JUMP JUMPDEST SWAP1 POP SWAP2 SWAP1 POP JUMP JUMPDEST PUSH1 0x0 PUSH1 0x20 DUP3 ADD SWAP1 POP DUP2 DUP2 SUB PUSH1 0x0 DUP4 ADD MSTORE PUSH2 0x62BD DUP2 PUSH2 0x5971 JUMP JUMPDEST SWAP1 POP SWAP2 SWAP1 POP JUMP JUMPDEST PUSH1 0x0 PUSH1 0x20 DUP3 ADD SWAP1 POP DUP2 DUP2 SUB PUSH1 0x0 DUP4 ADD MSTORE PUSH2 0x62DD DUP2 PUSH2 0x5994 JUMP JUMPDEST SWAP1 POP SWAP2 SWAP1 POP JUMP JUMPDEST PUSH1 0x0 PUSH1 0x20 DUP3 ADD SWAP1 POP DUP2 DUP2 SUB PUSH1 0x0 DUP4 ADD MSTORE PUSH2 0x62FD DUP2 PUSH2 0x59B7 JUMP JUMPDEST SWAP1 POP SWAP2 SWAP1 POP JUMP JUMPDEST PUSH1 0x0 PUSH1 0x20 DUP3 ADD SWAP1 POP PUSH2 0x6319 PUSH1 0x0 DUP4 ADD DUP5 PUSH2 0x59DA JUMP JUMPDEST SWAP3 SWAP2 POP POP JUMP JUMPDEST PUSH1 0x0 PUSH1 0x40 DUP3 ADD SWAP1 POP PUSH2 0x6334 PUSH1 0x0 DUP4 ADD DUP6 PUSH2 0x59DA JUMP JUMPDEST PUSH2 0x6341 PUSH1 0x20 DUP4 ADD DUP5 PUSH2 0x59DA JUMP JUMPDEST SWAP4 SWAP3 POP POP POP JUMP JUMPDEST PUSH1 0x0 PUSH1 0x60 DUP3 ADD SWAP1 POP PUSH2 0x635D PUSH1 0x0 DUP4 ADD DUP7 PUSH2 0x59DA JUMP JUMPDEST PUSH2 0x636A PUSH1 0x20 DUP4 ADD DUP6 PUSH2 0x59DA JUMP JUMPDEST PUSH2 0x6377 PUSH1 0x40 DUP4 ADD DUP5 PUSH2 0x59DA JUMP JUMPDEST SWAP5 SWAP4 POP POP POP POP JUMP JUMPDEST PUSH1 0x0 PUSH1 0xC0 DUP3 ADD SWAP1 POP PUSH2 0x6394 PUSH1 0x0 DUP4 ADD DUP10 PUSH2 0x59DA JUMP JUMPDEST PUSH2 0x63A1 PUSH1 0x20 DUP4 ADD DUP9 PUSH2 0x59DA JUMP JUMPDEST PUSH2 0x63AE PUSH1 0x40 DUP4 ADD DUP8 PUSH2 0x59DA JUMP JUMPDEST PUSH2 0x63BB PUSH1 0x60 DUP4 ADD DUP7 PUSH2 0x59DA JUMP JUMPDEST PUSH2 0x63C8 PUSH1 0x80 DUP4 ADD DUP6 PUSH2 0x59DA JUMP JUMPDEST PUSH2 0x63D5 PUSH1 0xA0 DUP4 ADD DUP5 PUSH2 0x59DA JUMP JUMPDEST SWAP8 SWAP7 POP POP POP POP POP POP POP JUMP JUMPDEST PUSH1 0x0 PUSH1 0x20 DUP3 ADD SWAP1 POP PUSH2 0x63F5 PUSH1 0x0 DUP4 ADD DUP5 PUSH2 0x59E9 JUMP JUMPDEST SWAP3 SWAP2 POP POP JUMP JUMPDEST PUSH1 0x0 PUSH2 0x6405 PUSH2 0x6416 JUMP JUMPDEST SWAP1 POP PUSH2 0x6411 DUP3 DUP3 PUSH2 0x6702 JUMP JUMPDEST SWAP2 SWAP1 POP JUMP JUMPDEST PUSH1 0x0 PUSH1 0x40 MLOAD SWAP1 POP SWAP1 JUMP JUMPDEST PUSH1 0x0 PUSH8 0xFFFFFFFFFFFFFFFF DUP3 GT ISZERO PUSH2 0x643B JUMPI PUSH2 0x643A PUSH2 0x67CA JUMP JUMPDEST JUMPDEST PUSH2 0x6444 DUP3 PUSH2 0x680D JUMP JUMPDEST SWAP1 POP PUSH1 0x20 DUP2 ADD SWAP1 POP SWAP2 SWAP1 POP JUMP JUMPDEST PUSH1 0x0 DUP2 MLOAD SWAP1 POP SWAP2 SWAP1 POP JUMP JUMPDEST PUSH1 0x0 DUP3 DUP3 MSTORE PUSH1 0x20 DUP3 ADD SWAP1 POP SWAP3 SWAP2 POP POP JUMP JUMPDEST PUSH1 0x0 DUP2 SWAP1 POP SWAP3 SWAP2 POP POP JUMP JUMPDEST PUSH1 0x0 PUSH2 0x6483 DUP3 PUSH2 0x660B JUMP JUMPDEST SWAP2 POP PUSH2 0x648E DUP4 PUSH2 0x660B JUMP JUMPDEST SWAP3 POP DUP3 PUSH32 0xFFFFFFFFFFFFFFFFFFFFFFFFFFFFFFFFFFFFFFFFFFFFFFFFFFFFFFFFFFFFFFFF SUB DUP3 GT ISZERO PUSH2 0x64C3 JUMPI PUSH2 0x64C2 PUSH2 0x673D JUMP JUMPDEST JUMPDEST DUP3 DUP3 ADD SWAP1 POP SWAP3 SWAP2 POP POP JUMP JUMPDEST PUSH1 0x0 PUSH2 0x64D9 DUP3 PUSH2 0x660B JUMP JUMPDEST SWAP2 POP PUSH2 0x64E4 DUP4 PUSH2 0x660B JUMP JUMPDEST SWAP3 POP DUP3 PUSH2 0x64F4 JUMPI PUSH2 0x64F3 PUSH2 0x676C JUMP JUMPDEST JUMPDEST DUP3 DUP3 DIV SWAP1 POP SWAP3 SWAP2 POP POP JUMP JUMPDEST PUSH1 0x0 PUSH2 0x650A DUP3 PUSH2 0x660B JUMP JUMPDEST SWAP2 POP PUSH2 0x6515 DUP4 PUSH2 0x660B JUMP JUMPDEST SWAP3 POP DUP2 PUSH32 0xFFFFFFFFFFFFFFFFFFFFFFFFFFFFFFFFFFFFFFFFFFFFFFFFFFFFFFFFFFFFFFFF DIV DUP4 GT DUP3 ISZERO ISZERO AND ISZERO PUSH2 0x654E JUMPI PUSH2 0x654D PUSH2 0x673D JUMP JUMPDEST JUMPDEST DUP3 DUP3 MUL SWAP1 POP SWAP3 SWAP2 POP POP JUMP JUMPDEST PUSH1 0x0 PUSH2 0x6564 DUP3 PUSH2 0x660B JUMP JUMPDEST SWAP2 POP PUSH2 0x656F DUP4 PUSH2 0x660B JUMP JUMPDEST SWAP3 POP DUP3 DUP3 LT ISZERO PUSH2 0x6582 JUMPI PUSH2 0x6581 PUSH2 0x673D JUMP JUMPDEST JUMPDEST DUP3 DUP3 SUB SWAP1 POP SWAP3 SWAP2 POP POP JUMP JUMPDEST PUSH1 0x0 PUSH2 0x6598 DUP3 PUSH2 0x65EB JUMP JUMPDEST SWAP1 POP SWAP2 SWAP1 POP JUMP JUMPDEST PUSH1 0x0 PUSH2 0x65AA DUP3 PUSH2 0x65EB JUMP JUMPDEST SWAP1 POP SWAP2 SWAP1 POP JUMP JUMPDEST PUSH1 0x0 DUP2 ISZERO ISZERO SWAP1 POP SWAP2 SWAP1 POP JUMP JUMPDEST PUSH1 0x0 DUP2 SWAP1 POP SWAP2 SWAP1 POP JUMP JUMPDEST PUSH1 0x0 PUSH2 0x65D2 DUP3 PUSH2 0x658D JUMP JUMPDEST SWAP1 POP SWAP2 SWAP1 POP JUMP JUMPDEST PUSH1 0x0 PUSH2 0x65E4 DUP3 PUSH2 0x658D JUMP JUMPDEST SWAP1 POP SWAP2 SWAP1 POP JUMP JUMPDEST PUSH1 0x0 PUSH20 0xFFFFFFFFFFFFFFFFFFFFFFFFFFFFFFFFFFFFFFFF DUP3 AND SWAP1 POP SWAP2 SWAP1 POP JUMP JUMPDEST PUSH1 0x0 DUP2 SWAP1 POP SWAP2 SWAP1 POP JUMP JUMPDEST PUSH1 0x0 PUSH1 0xFF DUP3 AND SWAP1 POP SWAP2 SWAP1 POP JUMP JUMPDEST PUSH1 0x0 PUSH2 0x662D DUP3 PUSH2 0x666A JUMP JUMPDEST SWAP1 POP SWAP2 SWAP1 POP JUMP JUMPDEST PUSH1 0x0 PUSH2 0x663F DUP3 PUSH2 0x666A JUMP JUMPDEST SWAP1 POP SWAP2 SWAP1 POP JUMP JUMPDEST PUSH1 0x0 PUSH2 0x6651 DUP3 PUSH2 0x666A JUMP JUMPDEST SWAP1 POP SWAP2 SWAP1 POP JUMP JUMPDEST PUSH1 0x0 PUSH2 0x6663 DUP3 PUSH2 0x666A JUMP JUMPDEST SWAP1 POP SWAP2 SWAP1 POP JUMP JUMPDEST PUSH1 0x0 PUSH2 0x6675 DUP3 PUSH2 0x667C JUMP JUMPDEST SWAP1 POP SWAP2 SWAP1 POP JUMP JUMPDEST PUSH1 0x0 PUSH2 0x6687 DUP3 PUSH2 0x65EB JUMP JUMPDEST SWAP1 POP SWAP2 SWAP1 POP JUMP JUMPDEST DUP3 DUP2 DUP4 CALLDATACOPY PUSH1 0x0 DUP4 DUP4 ADD MSTORE POP POP POP JUMP JUMPDEST PUSH1 0x0 JUMPDEST DUP4 DUP2 LT ISZERO PUSH2 0x66BB JUMPI DUP1 DUP3 ADD MLOAD DUP2 DUP5 ADD MSTORE PUSH1 0x20 DUP2 ADD SWAP1 POP PUSH2 0x66A0 JUMP JUMPDEST DUP4 DUP2 GT ISZERO PUSH2 0x66CA JUMPI PUSH1 0x0 DUP5 DUP5 ADD MSTORE JUMPDEST POP POP POP POP JUMP JUMPDEST PUSH1 0x0 PUSH1 0x2 DUP3 DIV SWAP1 POP PUSH1 0x1 DUP3 AND DUP1 PUSH2 0x66E8 JUMPI PUSH1 0x7F DUP3 AND SWAP2 POP JUMPDEST PUSH1 0x20 DUP3 LT DUP2 EQ ISZERO PUSH2 0x66FC JUMPI PUSH2 0x66FB PUSH2 0x679B JUMP JUMPDEST JUMPDEST POP SWAP2 SWAP1 POP JUMP JUMPDEST PUSH2 0x670B DUP3 PUSH2 0x680D JUMP JUMPDEST DUP2 ADD DUP2 DUP2 LT PUSH8 0xFFFFFFFFFFFFFFFF DUP3 GT OR ISZERO PUSH2 0x672A JUMPI PUSH2 0x6729 PUSH2 0x67CA JUMP JUMPDEST JUMPDEST DUP1 PUSH1 0x40 MSTORE POP POP POP JUMP JUMPDEST PUSH1 0x0 DUP2 SWAP1 POP SWAP2 SWAP1 POP JUMP JUMPDEST PUSH32 0x4E487B7100000000000000000000000000000000000000000000000000000000 PUSH1 0x0 MSTORE PUSH1 0x11 PUSH1 0x4 MSTORE PUSH1 0x24 PUSH1 0x0 REVERT JUMPDEST PUSH32 0x4E487B7100000000000000000000000000000000000000000000000000000000 PUSH1 0x0 MSTORE PUSH1 0x12 PUSH1 0x4 MSTORE PUSH1 0x24 PUSH1 0x0 REVERT JUMPDEST PUSH32 0x4E487B7100000000000000000000000000000000000000000000000000000000 PUSH1 0x0 MSTORE PUSH1 0x22 PUSH1 0x4 MSTORE PUSH1 0x24 PUSH1 0x0 REVERT JUMPDEST PUSH32 0x4E487B7100000000000000000000000000000000000000000000000000000000 PUSH1 0x0 MSTORE PUSH1 0x41 PUSH1 0x4 MSTORE PUSH1 0x24 PUSH1 0x0 REVERT JUMPDEST PUSH1 0x0 DUP1 REVERT JUMPDEST PUSH1 0x0 DUP1 REVERT JUMPDEST PUSH1 0x0 DUP1 REVERT JUMPDEST PUSH1 0x0 DUP1 REVERT JUMPDEST PUSH1 0x0 PUSH1 0x1F NOT PUSH1 0x1F DUP4 ADD AND SWAP1 POP SWAP2 SWAP1 POP JUMP JUMPDEST PUSH32 0x45524332303A207472616E7366657220746F20746865207A65726F2061646472 PUSH1 0x0 DUP3 ADD MSTORE PUSH32 0x6573730000000000000000000000000000000000000000000000000000000000 PUSH1 0x20 DUP3 ADD MSTORE POP JUMP JUMPDEST PUSH32 0x5F736574436F6E74726F6C6C65723A2054686973206973206E6F742074686520 PUSH1 0x0 DUP3 ADD MSTORE PUSH32 0x636F6E74726F6C6C657220636F6E747261637421000000000000000000000000 PUSH1 0x20 DUP3 ADD MSTORE POP JUMP JUMPDEST PUSH32 0x696E697469616C697A653A20696E746572657374206D6F64656C206164647265 PUSH1 0x0 DUP3 ADD MSTORE PUSH32 0x73732073686F756C64206E6F74206265207A65726F2061646472657373210000 PUSH1 0x20 DUP3 ADD MSTORE POP JUMP JUMPDEST PUSH32 0x5F73657450656E64696E674F776E65723A204E6577206F77656E722063616E20 PUSH1 0x0 DUP3 ADD MSTORE PUSH32 0x6E6F74206265207A65726F206164647265737320616E64206F776E6572206861 PUSH1 0x20 DUP3 ADD MSTORE PUSH32 0x73206265656E2073657421000000000000000000000000000000000000000000 PUSH1 0x40 DUP3 ADD MSTORE POP JUMP JUMPDEST PUSH32 0x45524332303A20617070726F766520746F20746865207A65726F206164647265 PUSH1 0x0 DUP3 ADD MSTORE PUSH32 0x7373000000000000000000000000000000000000000000000000000000000000 PUSH1 0x20 DUP3 ADD MSTORE POP JUMP JUMPDEST PUSH32 0x5F6C6971756964617465426F72726F77496E7465726E616C3A204C6971756964 PUSH1 0x0 DUP3 ADD MSTORE PUSH32 0x61746520616D6F756E742073686F756C64206265206772656174657220746861 PUSH1 0x20 DUP3 ADD MSTORE PUSH32 0x6E20302100000000000000000000000000000000000000000000000000000000 PUSH1 0x40 DUP3 ADD MSTORE POP JUMP JUMPDEST PUSH32 0x5F6C6971756964617465426F72726F77496E7465726E616C3A204661696C6564 PUSH1 0x0 DUP3 ADD MSTORE PUSH32 0x20746F2075706461746520626C6F636B206E756D62657220696E20636F6C6C61 PUSH1 0x20 DUP3 ADD MSTORE PUSH32 0x746572616C206173736574210000000000000000000000000000000000000000 PUSH1 0x40 DUP3 ADD MSTORE POP JUMP JUMPDEST PUSH32 0x1901000000000000000000000000000000000000000000000000000000000000 PUSH1 0x0 DUP3 ADD MSTORE POP JUMP JUMPDEST PUSH32 0x5F6C6971756964617465426F72726F77496E7465726E616C3A204C6971756964 PUSH1 0x0 DUP3 ADD MSTORE PUSH32 0x61746F722063616E206E6F7420626520626F72726F7765722100000000000000 PUSH1 0x20 DUP3 ADD MSTORE POP JUMP JUMPDEST PUSH32 0x7365697A653A204C697175696461746F722063616E206E6F7420626520626F72 PUSH1 0x0 DUP3 ADD MSTORE PUSH32 0x726F776572210000000000000000000000000000000000000000000000000000 PUSH1 0x20 DUP3 ADD MSTORE POP JUMP JUMPDEST PUSH32 0x5F7365744E657752657365727665526174696F3A204E65772072657365727665 PUSH1 0x0 DUP3 ADD MSTORE PUSH32 0x20726174696F20746F6F206C6172676521000000000000000000000000000000 PUSH1 0x20 DUP3 ADD MSTORE POP JUMP JUMPDEST PUSH32 0x5F7365744E657750726F746F636F6C466565526174696F3A204E65772070726F PUSH1 0x0 DUP3 ADD MSTORE PUSH32 0x746F636F6C20726174696F20746F6F206C617267652100000000000000000000 PUSH1 0x20 DUP3 ADD MSTORE POP JUMP JUMPDEST PUSH32 0x736574746C65496E7465726573743A204661696C20746F206163637275652069 PUSH1 0x0 DUP3 ADD MSTORE PUSH32 0x6E74657265737421000000000000000000000000000000000000000000000000 PUSH1 0x20 DUP3 ADD MSTORE POP JUMP JUMPDEST PUSH32 0x496E697469616C697A61626C653A20636F6E747261637420697320616C726561 PUSH1 0x0 DUP3 ADD MSTORE PUSH32 0x647920696E697469616C697A6564000000000000000000000000000000000000 PUSH1 0x20 DUP3 ADD MSTORE POP JUMP JUMPDEST PUSH32 0x7065726D69743A20494E56414C49445F5349474E415455524521000000000000 PUSH1 0x0 DUP3 ADD MSTORE POP JUMP JUMPDEST PUSH32 0x5F7472616E73666572546F6B656E733A20446F206E6F742073656C662D747261 PUSH1 0x0 DUP3 ADD MSTORE PUSH32 0x6E73666572210000000000000000000000000000000000000000000000000000 PUSH1 0x20 DUP3 ADD MSTORE POP JUMP JUMPDEST PUSH32 0x6F6E6C794F776E65723A2063616C6C6572206973206E6F7420746865206F776E PUSH1 0x0 DUP3 ADD MSTORE PUSH32 0x6572000000000000000000000000000000000000000000000000000000000000 PUSH1 0x20 DUP3 ADD MSTORE POP JUMP JUMPDEST PUSH32 0x7365744E6577466C6173686C6F616E466565526174696F3A204E657720666C61 PUSH1 0x0 DUP3 ADD MSTORE PUSH32 0x73686C6F616E20726174696F20746F6F206C6172676521000000000000000000 PUSH1 0x20 DUP3 ADD MSTORE POP JUMP JUMPDEST PUSH32 0x5F776974686472617752657365727665733A20496E76616C6964207769746864 PUSH1 0x0 DUP3 ADD MSTORE PUSH32 0x72617720616D6F756E7420616E6420646F206E6F74206861766520656E6F7567 PUSH1 0x20 DUP3 ADD MSTORE PUSH32 0x6820636173682100000000000000000000000000000000000000000000000000 PUSH1 0x40 DUP3 ADD MSTORE POP JUMP JUMPDEST PUSH32 0x696E697469616C697A653A20636F6E74726F6C6C657220616464726573732073 PUSH1 0x0 DUP3 ADD MSTORE PUSH32 0x686F756C64206E6F74206265207A65726F206164647265737321000000000000 PUSH1 0x20 DUP3 ADD MSTORE POP JUMP JUMPDEST PUSH32 0x45524332303A206275726E2066726F6D20746865207A65726F20616464726573 PUSH1 0x0 DUP3 ADD MSTORE PUSH32 0x7300000000000000000000000000000000000000000000000000000000000000 PUSH1 0x20 DUP3 ADD MSTORE POP JUMP JUMPDEST PUSH32 0x45524332303A207472616E736665722066726F6D20746865207A65726F206164 PUSH1 0x0 DUP3 ADD MSTORE PUSH32 0x6472657373000000000000000000000000000000000000000000000000000000 PUSH1 0x20 DUP3 ADD MSTORE POP JUMP JUMPDEST PUSH32 0x5F736574496E746572657374526174654D6F64656C3A2054686973206973206E PUSH1 0x0 DUP3 ADD MSTORE PUSH32 0x6F74207468652072617465206D6F64656C20636F6E7472616374210000000000 PUSH1 0x20 DUP3 ADD MSTORE POP JUMP JUMPDEST PUSH32 0x45524332303A20617070726F76652066726F6D20746865207A65726F20616464 PUSH1 0x0 DUP3 ADD MSTORE PUSH32 0x7265737300000000000000000000000000000000000000000000000000000000 PUSH1 0x20 DUP3 ADD MSTORE POP JUMP JUMPDEST PUSH32 0x5F72656465656D496E7465726E616C3A2052656465656D2069546F6B656E2061 PUSH1 0x0 DUP3 ADD MSTORE PUSH32 0x6D6F756E742073686F756C642062652067726561746572207468616E207A6572 PUSH1 0x20 DUP3 ADD MSTORE PUSH32 0x6F21000000000000000000000000000000000000000000000000000000000000 PUSH1 0x40 DUP3 ADD MSTORE POP JUMP JUMPDEST PUSH32 0x5F757064617465496E7465726573743A20426F72726F77207261746520697320 PUSH1 0x0 DUP3 ADD MSTORE PUSH32 0x746F6F2068696768210000000000000000000000000000000000000000000000 PUSH1 0x20 DUP3 ADD MSTORE POP JUMP JUMPDEST PUSH32 0x5F6163636570744F776E65723A204F6E6C7920666F722070656E64696E67206F PUSH1 0x0 DUP3 ADD MSTORE PUSH32 0x776E657221000000000000000000000000000000000000000000000000000000 PUSH1 0x20 DUP3 ADD MSTORE POP JUMP JUMPDEST PUSH32 0x7065726D69743A20455850495245442100000000000000000000000000000000 PUSH1 0x0 DUP3 ADD MSTORE POP JUMP JUMPDEST PUSH32 0x5265656E7472616E637947756172643A207265656E7472616E742063616C6C00 PUSH1 0x0 DUP3 ADD MSTORE POP JUMP JUMPDEST PUSH32 0x726563656976653A204F6E6C792063616E2063616C6C2066726F6D206120636F PUSH1 0x0 DUP3 ADD MSTORE PUSH32 0x6E74726163742100000000000000000000000000000000000000000000000000 PUSH1 0x20 DUP3 ADD MSTORE POP JUMP JUMPDEST PUSH32 0x45524332303A206D696E7420746F20746865207A65726F206164647265737300 PUSH1 0x0 DUP3 ADD MSTORE POP JUMP JUMPDEST PUSH2 0x71B8 DUP2 PUSH2 0x658D JUMP JUMPDEST DUP2 EQ PUSH2 0x71C3 JUMPI PUSH1 0x0 DUP1 REVERT JUMPDEST POP JUMP JUMPDEST PUSH2 0x71CF DUP2 PUSH2 0x659F JUMP JUMPDEST DUP2 EQ PUSH2 0x71DA JUMPI PUSH1 0x0 DUP1 REVERT JUMPDEST POP JUMP JUMPDEST PUSH2 0x71E6 DUP2 PUSH2 0x65B1 JUMP JUMPDEST DUP2 EQ PUSH2 0x71F1 JUMPI PUSH1 0x0 DUP1 REVERT JUMPDEST POP JUMP JUMPDEST PUSH2 0x71FD DUP2 PUSH2 0x65BD JUMP JUMPDEST DUP2 EQ PUSH2 0x7208 JUMPI PUSH1 0x0 DUP1 REVERT JUMPDEST POP JUMP JUMPDEST PUSH2 0x7214 DUP2 PUSH2 0x65C7 JUMP JUMPDEST DUP2 EQ PUSH2 0x721F JUMPI PUSH1 0x0 DUP1 REVERT JUMPDEST POP JUMP JUMPDEST PUSH2 0x722B DUP2 PUSH2 0x65D9 JUMP JUMPDEST DUP2 EQ PUSH2 0x7236 JUMPI PUSH1 0x0 DUP1 REVERT JUMPDEST POP JUMP JUMPDEST PUSH2 0x7242 DUP2 PUSH2 0x660B JUMP JUMPDEST DUP2 EQ PUSH2 0x724D JUMPI PUSH1 0x0 DUP1 REVERT JUMPDEST POP JUMP JUMPDEST PUSH2 0x7259 DUP2 PUSH2 0x6615 JUMP JUMPDEST DUP2 EQ PUSH2 0x7264 JUMPI PUSH1 0x0 DUP1 REVERT JUMPDEST POP JUMP INVALID LOG2 PUSH5 0x6970667358 0x22 SLT KECCAK256 DUP14 DUP3 SWAP15 0xC6 0xE2 PUSH7 0x47B64A3A66DE8B 0xD5 0xFC CALL PUSH3 0xC9EC6D 0xDA SWAP3 EXTCODECOPY MSTORE 0xC4 PUSH31 0xC1E72CF21CEF64736F6C634300080700330000000000000000000000000000 "
		},
		"gasEstimates": {
			"creation": {
				"codeDepositCost": "5868200",
				"executionCost": "7195",
				"totalCost": "5875395"
			},
			"external": {
				"DOMAIN_SEPARATOR()": "2541",
				"PERMIT_TYPEHASH()": "403",
				"_acceptOwner()": "64776",
				"_setController(address)": "infinite",
				"_setInterestRateModel(address)": "infinite",
				"_setNewFlashloanFeeRatio(uint256)": "infinite",
				"_setNewProtocolFeeRatio(uint256)": "infinite",
				"_setNewReserveRatio(uint256)": "infinite",
				"_setPendingOwner(address)": "32918",
				"_withdrawReserves(uint256)": "infinite",
				"accrualBlockNumber()": "2519",
				"allowance(address,address)": "infinite",
				"approve(address,uint256)": "infinite",
				"balanceOf(address)": "2903",
				"balanceOfUnderlying(address)": "infinite",
				"borrow(uint256)": "infinite",
				"borrowBalanceCurrent(address)": "infinite",
				"borrowBalanceStored(address)": "infinite",
				"borrowIndex()": "2518",
				"borrowRatePerBlock()": "infinite",
				"borrowSnapshot(address)": "infinite",
				"controller()": "2688",
				"decimals()": "2561",
				"decreaseAllowance(address,uint256)": "infinite",
				"exchangeRateCurrent()": "infinite",
				"exchangeRateStored()": "infinite",
				"flashloanFeeRatio()": "2564",
				"getCash()": "infinite",
				"increaseAllowance(address,uint256)": "infinite",
				"initialize(string,string,address,address)": "infinite",
				"interestRateModel()": "2666",
				"isSupported()": "468",
				"isiToken()": "477",
				"liquidateBorrow(address,address)": "infinite",
				"mint(address)": "infinite",
				"name()": "infinite",
				"nonces(address)": "2905",
				"owner()": "2582",
				"pendingOwner()": "2603",
				"permit(address,address,uint256,uint256,uint8,bytes32,bytes32)": "infinite",
				"protocolFeeRatio()": "2498",
				"redeem(address,uint256)": "infinite",
				"redeemUnderlying(address,uint256)": "infinite",
				"repayBorrow()": "infinite",
				"repayBorrowBehalf(address)": "infinite",
				"reserveRatio()": "2543",
				"seize(address,address,uint256)": "infinite",
				"supplyRatePerBlock()": "infinite",
				"symbol()": "infinite",
				"totalBorrows()": "2497",
				"totalBorrowsCurrent()": "infinite",
				"totalReserves()": "2541",
				"totalSupply()": "2520",
				"transfer(address,uint256)": "infinite",
				"transferFrom(address,address,uint256)": "infinite",
				"underlying()": "2667",
				"updateInterest()": "infinite"
			},
			"internal": {
				"_doTransferIn(address,uint256)": "infinite",
				"_doTransferOut(address payable,uint256)": "infinite",
				"_getCurrentCash()": "infinite"
			}
		},
		"methodIdentifiers": {
			"DOMAIN_SEPARATOR()": "3644e515",
			"PERMIT_TYPEHASH()": "30adf81f",
			"_acceptOwner()": "fc4d33f9",
			"_setController(address)": "83de424e",
			"_setInterestRateModel(address)": "f2b3abbd",
			"_setNewFlashloanFeeRatio(uint256)": "508fe21f",
			"_setNewProtocolFeeRatio(uint256)": "269aafee",
			"_setNewReserveRatio(uint256)": "c9f30e53",
			"_setPendingOwner(address)": "6e96dfd7",
			"_withdrawReserves(uint256)": "b3efd5b4",
			"accrualBlockNumber()": "6c540baf",
			"allowance(address,address)": "dd62ed3e",
			"approve(address,uint256)": "095ea7b3",
			"balanceOf(address)": "70a08231",
			"balanceOfUnderlying(address)": "3af9e669",
			"borrow(uint256)": "c5ebeaec",
			"borrowBalanceCurrent(address)": "17bfdfbc",
			"borrowBalanceStored(address)": "95dd9193",
			"borrowIndex()": "aa5af0fd",
			"borrowRatePerBlock()": "f8f9da28",
			"borrowSnapshot(address)": "37d33618",
			"controller()": "f77c4791",
			"decimals()": "313ce567",
			"decreaseAllowance(address,uint256)": "a457c2d7",
			"exchangeRateCurrent()": "bd6d894d",
			"exchangeRateStored()": "182df0f5",
			"flashloanFeeRatio()": "197523f8",
			"getCash()": "3b1d21a2",
			"increaseAllowance(address,uint256)": "39509351",
			"initialize(string,string,address,address)": "8f15b414",
			"interestRateModel()": "f3fdb15a",
			"isSupported()": "74427937",
			"isiToken()": "621fd507",
			"liquidateBorrow(address,address)": "aae40a2a",
			"mint(address)": "6a627842",
			"name()": "06fdde03",
			"nonces(address)": "7ecebe00",
			"owner()": "8da5cb5b",
			"pendingOwner()": "e30c3978",
			"permit(address,address,uint256,uint256,uint8,bytes32,bytes32)": "d505accf",
			"protocolFeeRatio()": "7a27d9f6",
			"redeem(address,uint256)": "1e9a6950",
			"redeemUnderlying(address,uint256)": "96294178",
			"repayBorrow()": "4e4d9fea",
			"repayBorrowBehalf(address)": "e5974619",
			"reserveRatio()": "0c7d5cd8",
			"seize(address,address,uint256)": "b2a02ff1",
			"supplyRatePerBlock()": "ae9d70b0",
			"symbol()": "95d89b41",
			"totalBorrows()": "47bd3718",
			"totalBorrowsCurrent()": "73acee98",
			"totalReserves()": "8f840ddd",
			"totalSupply()": "18160ddd",
			"transfer(address,uint256)": "a9059cbb",
			"transferFrom(address,address,uint256)": "23b872dd",
			"underlying()": "6f307dc3",
			"updateInterest()": "d1482791"
		}
	},
	"abi": [
		{
			"anonymous": false,
			"inputs": [
				{
					"indexed": true,
					"internalType": "address",
					"name": "owner",
					"type": "address"
				},
				{
					"indexed": true,
					"internalType": "address",
					"name": "spender",
					"type": "address"
				},
				{
					"indexed": false,
					"internalType": "uint256",
					"name": "value",
					"type": "uint256"
				}
			],
			"name": "Approval",
			"type": "event"
		},
		{
			"anonymous": false,
			"inputs": [
				{
					"indexed": false,
					"internalType": "address",
					"name": "borrower",
					"type": "address"
				},
				{
					"indexed": false,
					"internalType": "uint256",
					"name": "borrowAmount",
					"type": "uint256"
				},
				{
					"indexed": false,
					"internalType": "uint256",
					"name": "accountBorrows",
					"type": "uint256"
				},
				{
					"indexed": false,
					"internalType": "uint256",
					"name": "accountInterestIndex",
					"type": "uint256"
				},
				{
					"indexed": false,
					"internalType": "uint256",
					"name": "totalBorrows",
					"type": "uint256"
				}
			],
			"name": "Borrow",
			"type": "event"
		},
		{
			"anonymous": false,
			"inputs": [
				{
					"indexed": false,
					"internalType": "address",
					"name": "loaner",
					"type": "address"
				},
				{
					"indexed": false,
					"internalType": "uint256",
					"name": "loanAmount",
					"type": "uint256"
				},
				{
					"indexed": false,
					"internalType": "uint256",
					"name": "flashloanFee",
					"type": "uint256"
				},
				{
					"indexed": false,
					"internalType": "uint256",
					"name": "protocolFee",
					"type": "uint256"
				},
				{
					"indexed": false,
					"internalType": "uint256",
					"name": "timestamp",
					"type": "uint256"
				}
			],
			"name": "Flashloan",
			"type": "event"
		},
		{
			"anonymous": false,
			"inputs": [
				{
					"indexed": false,
					"internalType": "address",
					"name": "liquidator",
					"type": "address"
				},
				{
					"indexed": false,
					"internalType": "address",
					"name": "borrower",
					"type": "address"
				},
				{
					"indexed": false,
					"internalType": "uint256",
					"name": "repayAmount",
					"type": "uint256"
				},
				{
					"indexed": false,
					"internalType": "address",
					"name": "iTokenCollateral",
					"type": "address"
				},
				{
					"indexed": false,
					"internalType": "uint256",
					"name": "seizeTokens",
					"type": "uint256"
				}
			],
			"name": "LiquidateBorrow",
			"type": "event"
		},
		{
			"anonymous": false,
			"inputs": [
				{
					"indexed": false,
					"internalType": "address",
					"name": "sender",
					"type": "address"
				},
				{
					"indexed": false,
					"internalType": "address",
					"name": "recipient",
					"type": "address"
				},
				{
					"indexed": false,
					"internalType": "uint256",
					"name": "mintAmount",
					"type": "uint256"
				},
				{
					"indexed": false,
					"internalType": "uint256",
					"name": "mintTokens",
					"type": "uint256"
				}
			],
			"name": "Mint",
			"type": "event"
		},
		{
			"anonymous": false,
			"inputs": [
				{
					"indexed": false,
					"internalType": "contract IControllerInterface",
					"name": "oldController",
					"type": "address"
				},
				{
					"indexed": false,
					"internalType": "contract IControllerInterface",
					"name": "newController",
					"type": "address"
				}
			],
			"name": "NewController",
			"type": "event"
		},
		{
			"anonymous": false,
			"inputs": [
				{
					"indexed": false,
					"internalType": "uint256",
					"name": "oldFlashloanFeeRatio",
					"type": "uint256"
				},
				{
					"indexed": false,
					"internalType": "uint256",
					"name": "newFlashloanFeeRatio",
					"type": "uint256"
				},
				{
					"indexed": false,
					"internalType": "uint256",
					"name": "oldProtocolFeeRatio",
					"type": "uint256"
				},
				{
					"indexed": false,
					"internalType": "uint256",
					"name": "newProtocolFeeRatio",
					"type": "uint256"
				}
			],
			"name": "NewFlashloanFee",
			"type": "event"
		},
		{
			"anonymous": false,
			"inputs": [
				{
					"indexed": false,
					"internalType": "uint256",
					"name": "oldFlashloanFeeRatio",
					"type": "uint256"
				},
				{
					"indexed": false,
					"internalType": "uint256",
					"name": "newFlashloanFeeRatio",
					"type": "uint256"
				}
			],
			"name": "NewFlashloanFeeRatio",
			"type": "event"
		},
		{
			"anonymous": false,
			"inputs": [
				{
					"indexed": false,
					"internalType": "contract IInterestRateModelInterface",
					"name": "oldInterestRateModel",
					"type": "address"
				},
				{
					"indexed": false,
					"internalType": "contract IInterestRateModelInterface",
					"name": "newInterestRateModel",
					"type": "address"
				}
			],
			"name": "NewInterestRateModel",
			"type": "event"
		},
		{
			"anonymous": false,
			"inputs": [
				{
					"indexed": true,
					"internalType": "address",
					"name": "previousOwner",
					"type": "address"
				},
				{
					"indexed": true,
					"internalType": "address",
					"name": "newOwner",
					"type": "address"
				}
			],
			"name": "NewOwner",
			"type": "event"
		},
		{
			"anonymous": false,
			"inputs": [
				{
					"indexed": true,
					"internalType": "address",
					"name": "oldPendingOwner",
					"type": "address"
				},
				{
					"indexed": true,
					"internalType": "address",
					"name": "newPendingOwner",
					"type": "address"
				}
			],
			"name": "NewPendingOwner",
			"type": "event"
		},
		{
			"anonymous": false,
			"inputs": [
				{
					"indexed": false,
					"internalType": "uint256",
					"name": "oldProtocolFeeRatio",
					"type": "uint256"
				},
				{
					"indexed": false,
					"internalType": "uint256",
					"name": "newProtocolFeeRatio",
					"type": "uint256"
				}
			],
			"name": "NewProtocolFeeRatio",
			"type": "event"
		},
		{
			"anonymous": false,
			"inputs": [
				{
					"indexed": false,
					"internalType": "uint256",
					"name": "oldReserveRatio",
					"type": "uint256"
				},
				{
					"indexed": false,
					"internalType": "uint256",
					"name": "newReserveRatio",
					"type": "uint256"
				}
			],
			"name": "NewReserveRatio",
			"type": "event"
		},
		{
			"anonymous": false,
			"inputs": [
				{
					"indexed": false,
					"internalType": "address",
					"name": "from",
					"type": "address"
				},
				{
					"indexed": false,
					"internalType": "address",
					"name": "recipient",
					"type": "address"
				},
				{
					"indexed": false,
					"internalType": "uint256",
					"name": "redeemiTokenAmount",
					"type": "uint256"
				},
				{
					"indexed": false,
					"internalType": "uint256",
					"name": "redeemUnderlyingAmount",
					"type": "uint256"
				}
			],
			"name": "Redeem",
			"type": "event"
		},
		{
			"anonymous": false,
			"inputs": [
				{
					"indexed": false,
					"internalType": "address",
					"name": "payer",
					"type": "address"
				},
				{
					"indexed": false,
					"internalType": "address",
					"name": "borrower",
					"type": "address"
				},
				{
					"indexed": false,
					"internalType": "uint256",
					"name": "repayAmount",
					"type": "uint256"
				},
				{
					"indexed": false,
					"internalType": "uint256",
					"name": "accountBorrows",
					"type": "uint256"
				},
				{
					"indexed": false,
					"internalType": "uint256",
					"name": "accountInterestIndex",
					"type": "uint256"
				},
				{
					"indexed": false,
					"internalType": "uint256",
					"name": "totalBorrows",
					"type": "uint256"
				}
			],
			"name": "RepayBorrow",
			"type": "event"
		},
		{
			"anonymous": false,
			"inputs": [
				{
					"indexed": false,
					"internalType": "address",
					"name": "admin",
					"type": "address"
				},
				{
					"indexed": false,
					"internalType": "uint256",
					"name": "amount",
					"type": "uint256"
				},
				{
					"indexed": false,
					"internalType": "uint256",
					"name": "newTotalReserves",
					"type": "uint256"
				},
				{
					"indexed": false,
					"internalType": "uint256",
					"name": "oldTotalReserves",
					"type": "uint256"
				}
			],
			"name": "ReservesWithdrawn",
			"type": "event"
		},
		{
			"anonymous": false,
			"inputs": [
				{
					"indexed": true,
					"internalType": "address",
					"name": "from",
					"type": "address"
				},
				{
					"indexed": true,
					"internalType": "address",
					"name": "to",
					"type": "address"
				},
				{
					"indexed": false,
					"internalType": "uint256",
					"name": "value",
					"type": "uint256"
				}
			],
			"name": "Transfer",
			"type": "event"
		},
		{
			"anonymous": false,
			"inputs": [
				{
					"indexed": false,
					"internalType": "uint256",
					"name": "currentBlockNumber",
					"type": "uint256"
				},
				{
					"indexed": false,
					"internalType": "uint256",
					"name": "interestAccumulated",
					"type": "uint256"
				},
				{
					"indexed": false,
					"internalType": "uint256",
					"name": "borrowIndex",
					"type": "uint256"
				},
				{
					"indexed": false,
					"internalType": "uint256",
					"name": "cash",
					"type": "uint256"
				},
				{
					"indexed": false,
					"internalType": "uint256",
					"name": "totalBorrows",
					"type": "uint256"
				},
				{
					"indexed": false,
					"internalType": "uint256",
					"name": "totalReserves",
					"type": "uint256"
				}
			],
			"name": "UpdateInterest",
			"type": "event"
		},
		{
			"inputs": [],
			"name": "DOMAIN_SEPARATOR",
			"outputs": [
				{
					"internalType": "bytes32",
					"name": "",
					"type": "bytes32"
				}
			],
			"stateMutability": "view",
			"type": "function"
		},
		{
			"inputs": [],
			"name": "PERMIT_TYPEHASH",
			"outputs": [
				{
					"internalType": "bytes32",
					"name": "",
					"type": "bytes32"
				}
			],
			"stateMutability": "view",
			"type": "function"
		},
		{
			"inputs": [],
			"name": "_acceptOwner",
			"outputs": [],
			"stateMutability": "nonpayable",
			"type": "function"
		},
		{
			"inputs": [
				{
					"internalType": "contract IControllerInterface",
					"name": "_newController",
					"type": "address"
				}
			],
			"name": "_setController",
			"outputs": [],
			"stateMutability": "nonpayable",
			"type": "function"
		},
		{
			"inputs": [
				{
					"internalType": "contract IInterestRateModelInterface",
					"name": "_newInterestRateModel",
					"type": "address"
				}
			],
			"name": "_setInterestRateModel",
			"outputs": [],
			"stateMutability": "nonpayable",
			"type": "function"
		},
		{
			"inputs": [
				{
					"internalType": "uint256",
					"name": "_newFlashloanFeeRatio",
					"type": "uint256"
				}
			],
			"name": "_setNewFlashloanFeeRatio",
			"outputs": [],
			"stateMutability": "nonpayable",
			"type": "function"
		},
		{
			"inputs": [
				{
					"internalType": "uint256",
					"name": "_newProtocolFeeRatio",
					"type": "uint256"
				}
			],
			"name": "_setNewProtocolFeeRatio",
			"outputs": [],
			"stateMutability": "nonpayable",
			"type": "function"
		},
		{
			"inputs": [
				{
					"internalType": "uint256",
					"name": "_newReserveRatio",
					"type": "uint256"
				}
			],
			"name": "_setNewReserveRatio",
			"outputs": [],
			"stateMutability": "nonpayable",
			"type": "function"
		},
		{
			"inputs": [
				{
					"internalType": "address payable",
					"name": "newPendingOwner",
					"type": "address"
				}
			],
			"name": "_setPendingOwner",
			"outputs": [],
			"stateMutability": "nonpayable",
			"type": "function"
		},
		{
			"inputs": [
				{
					"internalType": "uint256",
					"name": "_withdrawAmount",
					"type": "uint256"
				}
			],
			"name": "_withdrawReserves",
			"outputs": [],
			"stateMutability": "nonpayable",
			"type": "function"
		},
		{
			"inputs": [],
			"name": "accrualBlockNumber",
			"outputs": [
				{
					"internalType": "uint256",
					"name": "",
					"type": "uint256"
				}
			],
			"stateMutability": "view",
			"type": "function"
		},
		{
			"inputs": [
				{
					"internalType": "address",
					"name": "",
					"type": "address"
				},
				{
					"internalType": "address",
					"name": "",
					"type": "address"
				}
			],
			"name": "allowance",
			"outputs": [
				{
					"internalType": "uint256",
					"name": "",
					"type": "uint256"
				}
			],
			"stateMutability": "view",
			"type": "function"
		},
		{
			"inputs": [
				{
					"internalType": "address",
					"name": "spender",
					"type": "address"
				},
				{
					"internalType": "uint256",
					"name": "amount",
					"type": "uint256"
				}
			],
			"name": "approve",
			"outputs": [
				{
					"internalType": "bool",
					"name": "",
					"type": "bool"
				}
			],
			"stateMutability": "nonpayable",
			"type": "function"
		},
		{
			"inputs": [
				{
					"internalType": "address",
					"name": "",
					"type": "address"
				}
			],
			"name": "balanceOf",
			"outputs": [
				{
					"internalType": "uint256",
					"name": "",
					"type": "uint256"
				}
			],
			"stateMutability": "view",
			"type": "function"
		},
		{
			"inputs": [
				{
					"internalType": "address",
					"name": "_account",
					"type": "address"
				}
			],
			"name": "balanceOfUnderlying",
			"outputs": [
				{
					"internalType": "uint256",
					"name": "",
					"type": "uint256"
				}
			],
			"stateMutability": "nonpayable",
			"type": "function"
		},
		{
			"inputs": [
				{
					"internalType": "uint256",
					"name": "_borrowAmount",
					"type": "uint256"
				}
			],
			"name": "borrow",
			"outputs": [],
			"stateMutability": "nonpayable",
			"type": "function"
		},
		{
			"inputs": [
				{
					"internalType": "address",
					"name": "_account",
					"type": "address"
				}
			],
			"name": "borrowBalanceCurrent",
			"outputs": [
				{
					"internalType": "uint256",
					"name": "",
					"type": "uint256"
				}
			],
			"stateMutability": "nonpayable",
			"type": "function"
		},
		{
			"inputs": [
				{
					"internalType": "address",
					"name": "_account",
					"type": "address"
				}
			],
			"name": "borrowBalanceStored",
			"outputs": [
				{
					"internalType": "uint256",
					"name": "",
					"type": "uint256"
				}
			],
			"stateMutability": "view",
			"type": "function"
		},
		{
			"inputs": [],
			"name": "borrowIndex",
			"outputs": [
				{
					"internalType": "uint256",
					"name": "",
					"type": "uint256"
				}
			],
			"stateMutability": "view",
			"type": "function"
		},
		{
			"inputs": [],
			"name": "borrowRatePerBlock",
			"outputs": [
				{
					"internalType": "uint256",
					"name": "",
					"type": "uint256"
				}
			],
			"stateMutability": "view",
			"type": "function"
		},
		{
			"inputs": [
				{
					"internalType": "address",
					"name": "_account",
					"type": "address"
				}
			],
			"name": "borrowSnapshot",
			"outputs": [
				{
					"internalType": "uint256",
					"name": "",
					"type": "uint256"
				},
				{
					"internalType": "uint256",
					"name": "",
					"type": "uint256"
				}
			],
			"stateMutability": "view",
			"type": "function"
		},
		{
			"inputs": [],
			"name": "controller",
			"outputs": [
				{
					"internalType": "contract IControllerInterface",
					"name": "",
					"type": "address"
				}
			],
			"stateMutability": "view",
			"type": "function"
		},
		{
			"inputs": [],
			"name": "decimals",
			"outputs": [
				{
					"internalType": "uint8",
					"name": "",
					"type": "uint8"
				}
			],
			"stateMutability": "view",
			"type": "function"
		},
		{
			"inputs": [
				{
					"internalType": "address",
					"name": "spender",
					"type": "address"
				},
				{
					"internalType": "uint256",
					"name": "subtractedValue",
					"type": "uint256"
				}
			],
			"name": "decreaseAllowance",
			"outputs": [
				{
					"internalType": "bool",
					"name": "",
					"type": "bool"
				}
			],
			"stateMutability": "nonpayable",
			"type": "function"
		},
		{
			"inputs": [],
			"name": "exchangeRateCurrent",
			"outputs": [
				{
					"internalType": "uint256",
					"name": "",
					"type": "uint256"
				}
			],
			"stateMutability": "nonpayable",
			"type": "function"
		},
		{
			"inputs": [],
			"name": "exchangeRateStored",
			"outputs": [
				{
					"internalType": "uint256",
					"name": "",
					"type": "uint256"
				}
			],
			"stateMutability": "view",
			"type": "function"
		},
		{
			"inputs": [],
			"name": "flashloanFeeRatio",
			"outputs": [
				{
					"internalType": "uint256",
					"name": "",
					"type": "uint256"
				}
			],
			"stateMutability": "view",
			"type": "function"
		},
		{
			"inputs": [],
			"name": "getCash",
			"outputs": [
				{
					"internalType": "uint256",
					"name": "",
					"type": "uint256"
				}
			],
			"stateMutability": "view",
			"type": "function"
		},
		{
			"inputs": [
				{
					"internalType": "address",
					"name": "spender",
					"type": "address"
				},
				{
					"internalType": "uint256",
					"name": "addedValue",
					"type": "uint256"
				}
			],
			"name": "increaseAllowance",
			"outputs": [
				{
					"internalType": "bool",
					"name": "",
					"type": "bool"
				}
			],
			"stateMutability": "nonpayable",
			"type": "function"
		},
		{
			"inputs": [
				{
					"internalType": "string",
					"name": "_name",
					"type": "string"
				},
				{
					"internalType": "string",
					"name": "_symbol",
					"type": "string"
				},
				{
					"internalType": "contract IControllerInterface",
					"name": "_controller",
					"type": "address"
				},
				{
					"internalType": "contract IInterestRateModelInterface",
					"name": "_interestRateModel",
					"type": "address"
				}
			],
			"name": "initialize",
			"outputs": [],
			"stateMutability": "nonpayable",
			"type": "function"
		},
		{
			"inputs": [],
			"name": "interestRateModel",
			"outputs": [
				{
					"internalType": "contract IInterestRateModelInterface",
					"name": "",
					"type": "address"
				}
			],
			"stateMutability": "view",
			"type": "function"
		},
		{
			"inputs": [],
			"name": "isSupported",
			"outputs": [
				{
					"internalType": "bool",
					"name": "",
					"type": "bool"
				}
			],
			"stateMutability": "view",
			"type": "function"
		},
		{
			"inputs": [],
			"name": "isiToken",
			"outputs": [
				{
					"internalType": "bool",
					"name": "",
					"type": "bool"
				}
			],
			"stateMutability": "pure",
			"type": "function"
		},
		{
			"inputs": [
				{
					"internalType": "address",
					"name": "_borrower",
					"type": "address"
				},
				{
					"internalType": "address",
					"name": "_assetCollateral",
					"type": "address"
				}
			],
			"name": "liquidateBorrow",
			"outputs": [],
			"stateMutability": "payable",
			"type": "function"
		},
		{
			"inputs": [
				{
					"internalType": "address",
					"name": "_recipient",
					"type": "address"
				}
			],
			"name": "mint",
			"outputs": [],
			"stateMutability": "payable",
			"type": "function"
		},
		{
			"inputs": [],
			"name": "name",
			"outputs": [
				{
					"internalType": "string",
					"name": "",
					"type": "string"
				}
			],
			"stateMutability": "view",
			"type": "function"
		},
		{
			"inputs": [
				{
					"internalType": "address",
					"name": "",
					"type": "address"
				}
			],
			"name": "nonces",
			"outputs": [
				{
					"internalType": "uint256",
					"name": "",
					"type": "uint256"
				}
			],
			"stateMutability": "view",
			"type": "function"
		},
		{
			"inputs": [],
			"name": "owner",
			"outputs": [
				{
					"internalType": "address payable",
					"name": "",
					"type": "address"
				}
			],
			"stateMutability": "view",
			"type": "function"
		},
		{
			"inputs": [],
			"name": "pendingOwner",
			"outputs": [
				{
					"internalType": "address payable",
					"name": "",
					"type": "address"
				}
			],
			"stateMutability": "view",
			"type": "function"
		},
		{
			"inputs": [
				{
					"internalType": "address",
					"name": "_owner",
					"type": "address"
				},
				{
					"internalType": "address",
					"name": "_spender",
					"type": "address"
				},
				{
					"internalType": "uint256",
					"name": "_value",
					"type": "uint256"
				},
				{
					"internalType": "uint256",
					"name": "_deadline",
					"type": "uint256"
				},
				{
					"internalType": "uint8",
					"name": "_v",
					"type": "uint8"
				},
				{
					"internalType": "bytes32",
					"name": "_r",
					"type": "bytes32"
				},
				{
					"internalType": "bytes32",
					"name": "_s",
					"type": "bytes32"
				}
			],
			"name": "permit",
			"outputs": [],
			"stateMutability": "nonpayable",
			"type": "function"
		},
		{
			"inputs": [],
			"name": "protocolFeeRatio",
			"outputs": [
				{
					"internalType": "uint256",
					"name": "",
					"type": "uint256"
				}
			],
			"stateMutability": "view",
			"type": "function"
		},
		{
			"inputs": [
				{
					"internalType": "address",
					"name": "_from",
					"type": "address"
				},
				{
					"internalType": "uint256",
					"name": "_redeemiToken",
					"type": "uint256"
				}
			],
			"name": "redeem",
			"outputs": [],
			"stateMutability": "nonpayable",
			"type": "function"
		},
		{
			"inputs": [
				{
					"internalType": "address",
					"name": "_from",
					"type": "address"
				},
				{
					"internalType": "uint256",
					"name": "_redeemUnderlying",
					"type": "uint256"
				}
			],
			"name": "redeemUnderlying",
			"outputs": [],
			"stateMutability": "nonpayable",
			"type": "function"
		},
		{
			"inputs": [],
			"name": "repayBorrow",
			"outputs": [],
			"stateMutability": "payable",
			"type": "function"
		},
		{
			"inputs": [
				{
					"internalType": "address",
					"name": "_borrower",
					"type": "address"
				}
			],
			"name": "repayBorrowBehalf",
			"outputs": [],
			"stateMutability": "payable",
			"type": "function"
		},
		{
			"inputs": [],
			"name": "reserveRatio",
			"outputs": [
				{
					"internalType": "uint256",
					"name": "",
					"type": "uint256"
				}
			],
			"stateMutability": "view",
			"type": "function"
		},
		{
			"inputs": [
				{
					"internalType": "address",
					"name": "_liquidator",
					"type": "address"
				},
				{
					"internalType": "address",
					"name": "_borrower",
					"type": "address"
				},
				{
					"internalType": "uint256",
					"name": "_seizeTokens",
					"type": "uint256"
				}
			],
			"name": "seize",
			"outputs": [],
			"stateMutability": "nonpayable",
			"type": "function"
		},
		{
			"inputs": [],
			"name": "supplyRatePerBlock",
			"outputs": [
				{
					"internalType": "uint256",
					"name": "",
					"type": "uint256"
				}
			],
			"stateMutability": "view",
			"type": "function"
		},
		{
			"inputs": [],
			"name": "symbol",
			"outputs": [
				{
					"internalType": "string",
					"name": "",
					"type": "string"
				}
			],
			"stateMutability": "view",
			"type": "function"
		},
		{
			"inputs": [],
			"name": "totalBorrows",
			"outputs": [
				{
					"internalType": "uint256",
					"name": "",
					"type": "uint256"
				}
			],
			"stateMutability": "view",
			"type": "function"
		},
		{
			"inputs": [],
			"name": "totalBorrowsCurrent",
			"outputs": [
				{
					"internalType": "uint256",
					"name": "",
					"type": "uint256"
				}
			],
			"stateMutability": "nonpayable",
			"type": "function"
		},
		{
			"inputs": [],
			"name": "totalReserves",
			"outputs": [
				{
					"internalType": "uint256",
					"name": "",
					"type": "uint256"
				}
			],
			"stateMutability": "view",
			"type": "function"
		},
		{
			"inputs": [],
			"name": "totalSupply",
			"outputs": [
				{
					"internalType": "uint256",
					"name": "",
					"type": "uint256"
				}
			],
			"stateMutability": "view",
			"type": "function"
		},
		{
			"inputs": [
				{
					"internalType": "address",
					"name": "_recipient",
					"type": "address"
				},
				{
					"internalType": "uint256",
					"name": "_amount",
					"type": "uint256"
				}
			],
			"name": "transfer",
			"outputs": [
				{
					"internalType": "bool",
					"name": "",
					"type": "bool"
				}
			],
			"stateMutability": "nonpayable",
			"type": "function"
		},
		{
			"inputs": [
				{
					"internalType": "address",
					"name": "_sender",
					"type": "address"
				},
				{
					"internalType": "address",
					"name": "_recipient",
					"type": "address"
				},
				{
					"internalType": "uint256",
					"name": "_amount",
					"type": "uint256"
				}
			],
			"name": "transferFrom",
			"outputs": [
				{
					"internalType": "bool",
					"name": "",
					"type": "bool"
				}
			],
			"stateMutability": "nonpayable",
			"type": "function"
		},
		{
			"inputs": [],
			"name": "underlying",
			"outputs": [
				{
					"internalType": "contract IERC20Upgradeable",
					"name": "",
					"type": "address"
				}
			],
			"stateMutability": "view",
			"type": "function"
		},
		{
			"inputs": [],
			"name": "updateInterest",
			"outputs": [
				{
					"internalType": "bool",
					"name": "",
					"type": "bool"
				}
			],
			"stateMutability": "nonpayable",
			"type": "function"
		},
		{
			"stateMutability": "payable",
			"type": "receive"
		}
	]
}