{
  "address": "0xaB7B4c595d3cE8C85e16DA86630f2fc223B05057",
  "abi": [
    {
      "anonymous": false,
      "inputs": [
        {
          "indexed": false,
          "internalType": "uint256",
          "name": "amount",
          "type": "uint256"
        }
      ],
      "name": "Borrowed",
      "type": "event"
    },
    {
      "anonymous": false,
      "inputs": [
        {
          "indexed": true,
          "internalType": "address",
          "name": "previousOwner",
          "type": "address"
        },
        {
          "indexed": true,
          "internalType": "address",
          "name": "newOwner",
          "type": "address"
        }
      ],
      "name": "OwnershipTransferred",
      "type": "event"
    },
    {
      "anonymous": false,
      "inputs": [
        {
          "indexed": false,
          "internalType": "uint256",
          "name": "amount",
          "type": "uint256"
        }
      ],
      "name": "PutInStake",
      "type": "event"
    },
    {
      "anonymous": false,
      "inputs": [
        {
          "indexed": false,
          "internalType": "uint256",
          "name": "amount",
          "type": "uint256"
        }
      ],
      "name": "Redeemed",
      "type": "event"
    },
    {
      "anonymous": false,
      "inputs": [
        {
          "indexed": false,
          "internalType": "uint256",
          "name": "amount",
          "type": "uint256"
        }
      ],
      "name": "ReturnToLender",
      "type": "event"
    },
    {
      "inputs": [
        {
          "internalType": "string",
          "name": "_name",
          "type": "string"
        },
        {
          "internalType": "address",
          "name": "wantAddress",
          "type": "address"
        },
        {
          "internalType": "address",
          "name": "lenderAddress",
          "type": "address"
        }
      ],
      "name": "__BaseStrategy__init",
      "outputs": [],
      "stateMutability": "nonpayable",
      "type": "function"
    },
    {
      "inputs": [],
      "name": "_lender",
      "outputs": [
        {
          "internalType": "contract ILender",
          "name": "",
          "type": "address"
        }
      ],
      "stateMutability": "view",
      "type": "function"
    },
    {
      "inputs": [],
      "name": "assets",
      "outputs": [
        {
          "internalType": "contract IERC20Upgradeable",
          "name": "",
          "type": "address"
        }
      ],
      "stateMutability": "view",
      "type": "function"
    },
    {
      "inputs": [],
      "name": "balanceOfAssetsInStake",
      "outputs": [
        {
          "internalType": "uint256",
          "name": "",
          "type": "uint256"
        }
      ],
      "stateMutability": "view",
      "type": "function"
    },
    {
      "inputs": [
        {
          "internalType": "string",
          "name": "_name",
          "type": "string"
        },
        {
          "internalType": "address",
          "name": "wantTokenAddress",
          "type": "address"
        },
        {
          "internalType": "address",
          "name": "lenderAddress",
          "type": "address"
        },
        {
          "internalType": "address",
          "name": "stakingAddress",
          "type": "address"
        }
      ],
      "name": "initialize",
      "outputs": [],
      "stateMutability": "nonpayable",
      "type": "function"
    },
    {
      "inputs": [],
      "name": "lender",
      "outputs": [
        {
          "internalType": "address",
          "name": "",
          "type": "address"
        }
      ],
      "stateMutability": "view",
      "type": "function"
    },
    {
      "inputs": [],
      "name": "name",
      "outputs": [
        {
          "internalType": "string",
          "name": "",
          "type": "string"
        }
      ],
      "stateMutability": "view",
      "type": "function"
    },
    {
      "inputs": [],
      "name": "owner",
      "outputs": [
        {
          "internalType": "address",
          "name": "",
          "type": "address"
        }
      ],
      "stateMutability": "view",
      "type": "function"
    },
    {
      "inputs": [],
      "name": "renounceOwnership",
      "outputs": [],
      "stateMutability": "nonpayable",
      "type": "function"
    },
    {
      "inputs": [
        {
          "internalType": "address",
          "name": "lender",
          "type": "address"
        }
      ],
      "name": "setLender",
      "outputs": [],
      "stateMutability": "nonpayable",
      "type": "function"
    },
    {
      "inputs": [],
      "name": "totalAssets",
      "outputs": [
        {
          "internalType": "uint256",
          "name": "",
          "type": "uint256"
        }
      ],
      "stateMutability": "view",
      "type": "function"
    },
    {
      "inputs": [
        {
          "internalType": "address",
          "name": "newOwner",
          "type": "address"
        }
      ],
      "name": "transferOwnership",
      "outputs": [],
      "stateMutability": "nonpayable",
      "type": "function"
    },
    {
      "inputs": [],
      "name": "want",
      "outputs": [
        {
          "internalType": "address",
          "name": "",
          "type": "address"
        }
      ],
      "stateMutability": "view",
      "type": "function"
    },
    {
      "inputs": [
        {
          "internalType": "uint256",
          "name": "amount",
          "type": "uint256"
        }
      ],
      "name": "withdraw",
      "outputs": [
        {
          "internalType": "uint256",
          "name": "",
          "type": "uint256"
        }
      ],
      "stateMutability": "nonpayable",
      "type": "function"
    },
    {
      "inputs": [],
      "name": "work",
      "outputs": [],
      "stateMutability": "nonpayable",
      "type": "function"
    }
  ],
  "transactionHash": "0xdf4ad55336cb367568e6cbdce53fca2c7315e7cc56256a727c24cbc288122668",
  "args": [],
  "numDeployments": 1,
  "solcInputHash": "ab5071fd89d984ed6c337b2c553f847e",
  "bytecode": "0x608060405234801561001057600080fd5b506123d9806100206000396000f3fe608060405234801561001057600080fd5b50600436106100f55760003560e01c806371a9730511610097578063d2e0fe6011610066578063d2e0fe601461022c578063f2fde38b1461024a578063f34822b414610266578063fbebb83014610282576100f5565b806371a97305146101b4578063819ed863146101d25780638da5cb5b146101f0578063bcead63e1461020e576100f5565b80632e1a7d4d116100d35780632e1a7d4d14610154578063322e9f041461018457806346e368d41461018e578063715018a6146101aa576100f5565b806301e1d114146100fa57806306fdde03146101185780631f1fcd5114610136575b600080fd5b61010261029e565b60405161010f9190611de0565b60405180910390f35b6101206102bf565b60405161012d9190611c7e565b60405180910390f35b61013e61034d565b60405161014b9190611bdb565b60405180910390f35b61016e6004803603810190610169919061196e565b610377565b60405161017b9190611de0565b60405180910390f35b61018c610502565b005b6101a860048036038101906101a3919061183a565b610532565b005b6101b26105f2565b005b6101bc61067a565b6040516101c99190611c48565b60405180910390f35b6101da6106a0565b6040516101e79190611c63565b60405180910390f35b6101f86106c6565b6040516102059190611bdb565b60405180910390f35b6102166106f0565b6040516102239190611bdb565b60405180910390f35b61023461071a565b6040516102419190611de0565b60405180910390f35b610264600480360381019061025f919061183a565b6107c1565b005b610280600480360381019061027b91906118f3565b6108b9565b005b61029c6004803603810190610297919061188c565b6109ed565b005b60006102a861071a565b6102b0610b3d565b6102ba9190611e83565b905090565b606780546102cc90611fdf565b80601f01602080910402602001604051908101604052809291908181526020018280546102f890611fdf565b80156103455780601f1061031a57610100808354040283529160200191610345565b820191906000526020600020905b81548152906001019060200180831161032857829003601f168201915b505050505081565b6000606560009054906101000a900473ffffffffffffffffffffffffffffffffffffffff16905090565b60003373ffffffffffffffffffffffffffffffffffffffff16606660009054906101000a900473ffffffffffffffffffffffffffffffffffffffff1673ffffffffffffffffffffffffffffffffffffffff1614610409576040517f08c379a000000000000000000000000000000000000000000000000000000000815260040161040090611d40565b60405180910390fd5b6002606854141561044f576040517f08c379a000000000000000000000000000000000000000000000000000000000815260040161044690611dc0565b60405180910390fd5b600260688190555061045f61029e565b8211156104a1576040517f08c379a000000000000000000000000000000000000000000000000000000000815260040161049890611d20565b60405180910390fd5b6104a9610b3d565b82106104c1576104b882610bef565b600090506104f5565b60006104de6104ce610b3d565b846104d99190611ed9565b610c1e565b90506104f06104eb610b3d565b610bef565b809150505b6001606881905550919050565b61050a610ce6565b6000610514610b3d565b905060008114156105255750610530565b61052e81610e61565b505b565b61053a610f56565b73ffffffffffffffffffffffffffffffffffffffff166105586106c6565b73ffffffffffffffffffffffffffffffffffffffff16146105ae576040517f08c379a00000000000000000000000000000000000000000000000000000000081526004016105a590611d00565b60405180910390fd5b80606660006101000a81548173ffffffffffffffffffffffffffffffffffffffff021916908373ffffffffffffffffffffffffffffffffffffffff16021790555050565b6105fa610f56565b73ffffffffffffffffffffffffffffffffffffffff166106186106c6565b73ffffffffffffffffffffffffffffffffffffffff161461066e576040517f08c379a000000000000000000000000000000000000000000000000000000000815260040161066590611d00565b60405180910390fd5b6106786000610f5e565b565b606560009054906101000a900473ffffffffffffffffffffffffffffffffffffffff1681565b606660009054906101000a900473ffffffffffffffffffffffffffffffffffffffff1681565b6000603360009054906101000a900473ffffffffffffffffffffffffffffffffffffffff16905090565b6000606660009054906101000a900473ffffffffffffffffffffffffffffffffffffffff16905090565b6000609a60009054906101000a900473ffffffffffffffffffffffffffffffffffffffff1673ffffffffffffffffffffffffffffffffffffffff16633b1d21a26040518163ffffffff1660e01b815260040160206040518083038186803b15801561078457600080fd5b505afa158015610798573d6000803e3d6000fd5b505050506040513d601f19601f820116820180604052508101906107bc9190611997565b905090565b6107c9610f56565b73ffffffffffffffffffffffffffffffffffffffff166107e76106c6565b73ffffffffffffffffffffffffffffffffffffffff161461083d576040517f08c379a000000000000000000000000000000000000000000000000000000000815260040161083490611d00565b60405180910390fd5b600073ffffffffffffffffffffffffffffffffffffffff168173ffffffffffffffffffffffffffffffffffffffff1614156108ad576040517f08c379a00000000000000000000000000000000000000000000000000000000081526004016108a490611ca0565b60405180910390fd5b6108b681610f5e565b50565b600060019054906101000a900460ff166108e15760008054906101000a900460ff16156108ea565b6108e9611024565b5b610929576040517f08c379a000000000000000000000000000000000000000000000000000000000815260040161092090611ce0565b60405180910390fd5b60008060019054906101000a900460ff161590508015610979576001600060016101000a81548160ff02191690831515021790555060016000806101000a81548160ff0219169083151502179055505b6109848585856109ed565b81609a60006101000a81548173ffffffffffffffffffffffffffffffffffffffff021916908373ffffffffffffffffffffffffffffffffffffffff16021790555080156109e65760008060016101000a81548160ff0219169083151502179055505b5050505050565b600060019054906101000a900460ff16610a155760008054906101000a900460ff1615610a1e565b610a1d611024565b5b610a5d576040517f08c379a0000000000000000000000000000000000000000000000000000000008152600401610a5490611ce0565b60405180910390fd5b60008060019054906101000a900460ff161590508015610aad576001600060016101000a81548160ff02191690831515021790555060016000806101000a81548160ff0219169083151502179055505b610ab5611035565b610abe8361108e565b8360679080519060200190610ad49291906116db565b5081606660006101000a81548173ffffffffffffffffffffffffffffffffffffffff021916908373ffffffffffffffffffffffffffffffffffffffff1602179055508015610b375760008060016101000a81548160ff0219169083151502179055505b50505050565b6000606560009054906101000a900473ffffffffffffffffffffffffffffffffffffffff1673ffffffffffffffffffffffffffffffffffffffff166370a08231306040518263ffffffff1660e01b8152600401610b9a9190611bdb565b60206040518083038186803b158015610bb257600080fd5b505afa158015610bc6573d6000803e3d6000fd5b505050506040513d601f19601f82011682018060405250810190610bea9190611997565b905090565b610c1b606660009054906101000a900473ffffffffffffffffffffffffffffffffffffffff16826111b4565b50565b600080610c29610b3d565b9050609a60009054906101000a900473ffffffffffffffffffffffffffffffffffffffff1673ffffffffffffffffffffffffffffffffffffffff16639629417830856040518363ffffffff1660e01b8152600401610c88929190611c1f565b600060405180830381600087803b158015610ca257600080fd5b505af1158015610cb6573d6000803e3d6000fd5b50505050600081610cc5610b3d565b610ccf9190611ed9565b90508084610cdd9190611ed9565b92505050919050565b6000606660009054906101000a900473ffffffffffffffffffffffffffffffffffffffff1673ffffffffffffffffffffffffffffffffffffffff1663112c1f9b6040518163ffffffff1660e01b815260040160206040518083038186803b158015610d5057600080fd5b505afa158015610d64573d6000803e3d6000fd5b505050506040513d601f19601f82011682018060405250810190610d889190611997565b90506000811415610d995750610e5f565b606660009054906101000a900473ffffffffffffffffffffffffffffffffffffffff1673ffffffffffffffffffffffffffffffffffffffff1663c5ebeaec826040518263ffffffff1660e01b8152600401610df49190611de0565b600060405180830381600087803b158015610e0e57600080fd5b505af1158015610e22573d6000803e3d6000fd5b505050507f69c0ed5a77051ba5f0c42418bb6db6d3f73884dea69811c50bf320298df6ca5c81604051610e559190611de0565b60405180910390a1505b565b610e8d609a60009054906101000a900473ffffffffffffffffffffffffffffffffffffffff1682611205565b609a60009054906101000a900473ffffffffffffffffffffffffffffffffffffffff1673ffffffffffffffffffffffffffffffffffffffff166340c10f1930836040518363ffffffff1660e01b8152600401610eea929190611c1f565b600060405180830381600087803b158015610f0457600080fd5b505af1158015610f18573d6000803e3d6000fd5b505050507f1173f0f4ddef6f5472b33be1444c48f989f7680be122b01a79ee45e5d45a9ecb81604051610f4b9190611de0565b60405180910390a150565b600033905090565b6000603360009054906101000a900473ffffffffffffffffffffffffffffffffffffffff16905081603360006101000a81548173ffffffffffffffffffffffffffffffffffffffff021916908373ffffffffffffffffffffffffffffffffffffffff1602179055508173ffffffffffffffffffffffffffffffffffffffff168173ffffffffffffffffffffffffffffffffffffffff167f8be0079c531659141344cd1fd0a4f28419497f9722a3daafe3b4186f6b6457e060405160405180910390a35050565b600061102f30611256565b15905090565b600060019054906101000a900460ff16611084576040517f08c379a000000000000000000000000000000000000000000000000000000000815260040161107b90611d80565b60405180910390fd5b61108c611279565b565b600060019054906101000a900460ff166110b65760008054906101000a900460ff16156110bf565b6110be611024565b5b6110fe576040517f08c379a00000000000000000000000000000000000000000000000000000000081526004016110f590611ce0565b60405180910390fd5b60008060019054906101000a900460ff16159050801561114e576001600060016101000a81548160ff02191690831515021790555060016000806101000a81548160ff0219169083151502179055505b81606560006101000a81548173ffffffffffffffffffffffffffffffffffffffff021916908373ffffffffffffffffffffffffffffffffffffffff16021790555080156111b05760008060016101000a81548160ff0219169083151502179055505b5050565b6112018282606560009054906101000a900473ffffffffffffffffffffffffffffffffffffffff1673ffffffffffffffffffffffffffffffffffffffff166112da9092919063ffffffff16565b5050565b6112528282606560009054906101000a900473ffffffffffffffffffffffffffffffffffffffff1673ffffffffffffffffffffffffffffffffffffffff166113609092919063ffffffff16565b5050565b6000808273ffffffffffffffffffffffffffffffffffffffff163b119050919050565b600060019054906101000a900460ff166112c8576040517f08c379a00000000000000000000000000000000000000000000000000000000081526004016112bf90611d80565b60405180910390fd5b6112d86112d3610f56565b610f5e565b565b61135b8363a9059cbb60e01b84846040516024016112f9929190611c1f565b604051602081830303815290604052907bffffffffffffffffffffffffffffffffffffffffffffffffffffffff19166020820180517bffffffffffffffffffffffffffffffffffffffffffffffffffffffff8381831617835250505050611481565b505050565b6000818473ffffffffffffffffffffffffffffffffffffffff1663dd62ed3e30866040518363ffffffff1660e01b815260040161139e929190611bf6565b60206040518083038186803b1580156113b657600080fd5b505afa1580156113ca573d6000803e3d6000fd5b505050506040513d601f19601f820116820180604052508101906113ee9190611997565b6113f89190611e83565b905061147b8463095ea7b360e01b8584604051602401611419929190611c1f565b604051602081830303815290604052907bffffffffffffffffffffffffffffffffffffffffffffffffffffffff19166020820180517bffffffffffffffffffffffffffffffffffffffffffffffffffffffff8381831617835250505050611481565b50505050565b60006114e3826040518060400160405280602081526020017f5361666545524332303a206c6f772d6c6576656c2063616c6c206661696c65648152508573ffffffffffffffffffffffffffffffffffffffff166115489092919063ffffffff16565b905060008151111561154357808060200190518101906115039190611863565b611542576040517f08c379a000000000000000000000000000000000000000000000000000000000815260040161153990611da0565b60405180910390fd5b5b505050565b60606115578484600085611560565b90509392505050565b6060824710156115a5576040517f08c379a000000000000000000000000000000000000000000000000000000000815260040161159c90611cc0565b60405180910390fd5b6115ae85611256565b6115ed576040517f08c379a00000000000000000000000000000000000000000000000000000000081526004016115e490611d60565b60405180910390fd5b6000808673ffffffffffffffffffffffffffffffffffffffff1685876040516116169190611bc4565b60006040518083038185875af1925050503d8060008114611653576040519150601f19603f3d011682016040523d82523d6000602084013e611658565b606091505b5091509150611668828286611674565b92505050949350505050565b60608315611684578290506116d4565b6000835111156116975782518084602001fd5b816040517f08c379a00000000000000000000000000000000000000000000000000000000081526004016116cb9190611c7e565b60405180910390fd5b9392505050565b8280546116e790611fdf565b90600052602060002090601f0160209004810192826117095760008555611750565b82601f1061172257805160ff1916838001178555611750565b82800160010185558215611750579182015b8281111561174f578251825591602001919060010190611734565b5b50905061175d9190611761565b5090565b5b8082111561177a576000816000905550600101611762565b5090565b600061179161178c84611e20565b611dfb565b9050828152602081018484840111156117a957600080fd5b6117b4848285611f9d565b509392505050565b6000813590506117cb8161235e565b92915050565b6000815190506117e081612375565b92915050565b600082601f8301126117f757600080fd5b813561180784826020860161177e565b91505092915050565b60008135905061181f8161238c565b92915050565b6000815190506118348161238c565b92915050565b60006020828403121561184c57600080fd5b600061185a848285016117bc565b91505092915050565b60006020828403121561187557600080fd5b6000611883848285016117d1565b91505092915050565b6000806000606084860312156118a157600080fd5b600084013567ffffffffffffffff8111156118bb57600080fd5b6118c7868287016117e6565b93505060206118d8868287016117bc565b92505060406118e9868287016117bc565b9150509250925092565b6000806000806080858703121561190957600080fd5b600085013567ffffffffffffffff81111561192357600080fd5b61192f878288016117e6565b9450506020611940878288016117bc565b9350506040611951878288016117bc565b9250506060611962878288016117bc565b91505092959194509250565b60006020828403121561198057600080fd5b600061198e84828501611810565b91505092915050565b6000602082840312156119a957600080fd5b60006119b784828501611825565b91505092915050565b6119c981611f0d565b82525050565b60006119da82611e51565b6119e48185611e67565b93506119f4818560208601611fac565b80840191505092915050565b611a0981611f55565b82525050565b611a1881611f79565b82525050565b6000611a2982611e5c565b611a338185611e72565b9350611a43818560208601611fac565b611a4c816120cf565b840191505092915050565b6000611a64602683611e72565b9150611a6f826120e0565b604082019050919050565b6000611a87602683611e72565b9150611a928261212f565b604082019050919050565b6000611aaa602e83611e72565b9150611ab58261217e565b604082019050919050565b6000611acd602083611e72565b9150611ad8826121cd565b602082019050919050565b6000611af0602183611e72565b9150611afb826121f6565b604082019050919050565b6000611b13601f83611e72565b9150611b1e82612245565b602082019050919050565b6000611b36601d83611e72565b9150611b418261226e565b602082019050919050565b6000611b59602b83611e72565b9150611b6482612297565b604082019050919050565b6000611b7c602a83611e72565b9150611b87826122e6565b604082019050919050565b6000611b9f601f83611e72565b9150611baa82612335565b602082019050919050565b611bbe81611f4b565b82525050565b6000611bd082846119cf565b915081905092915050565b6000602082019050611bf060008301846119c0565b92915050565b6000604082019050611c0b60008301856119c0565b611c1860208301846119c0565b9392505050565b6000604082019050611c3460008301856119c0565b611c416020830184611bb5565b9392505050565b6000602082019050611c5d6000830184611a00565b92915050565b6000602082019050611c786000830184611a0f565b92915050565b60006020820190508181036000830152611c988184611a1e565b905092915050565b60006020820190508181036000830152611cb981611a57565b9050919050565b60006020820190508181036000830152611cd981611a7a565b9050919050565b60006020820190508181036000830152611cf981611a9d565b9050919050565b60006020820190508181036000830152611d1981611ac0565b9050919050565b60006020820190508181036000830152611d3981611ae3565b9050919050565b60006020820190508181036000830152611d5981611b06565b9050919050565b60006020820190508181036000830152611d7981611b29565b9050919050565b60006020820190508181036000830152611d9981611b4c565b9050919050565b60006020820190508181036000830152611db981611b6f565b9050919050565b60006020820190508181036000830152611dd981611b92565b9050919050565b6000602082019050611df56000830184611bb5565b92915050565b6000611e05611e16565b9050611e118282612011565b919050565b6000604051905090565b600067ffffffffffffffff821115611e3b57611e3a6120a0565b5b611e44826120cf565b9050602081019050919050565b600081519050919050565b600081519050919050565b600081905092915050565b600082825260208201905092915050565b6000611e8e82611f4b565b9150611e9983611f4b565b9250827fffffffffffffffffffffffffffffffffffffffffffffffffffffffffffffffff03821115611ece57611ecd612042565b5b828201905092915050565b6000611ee482611f4b565b9150611eef83611f4b565b925082821015611f0257611f01612042565b5b828203905092915050565b6000611f1882611f2b565b9050919050565b60008115159050919050565b600073ffffffffffffffffffffffffffffffffffffffff82169050919050565b6000819050919050565b6000611f6082611f67565b9050919050565b6000611f7282611f2b565b9050919050565b6000611f8482611f8b565b9050919050565b6000611f9682611f2b565b9050919050565b82818337600083830152505050565b60005b83811015611fca578082015181840152602081019050611faf565b83811115611fd9576000848401525b50505050565b60006002820490506001821680611ff757607f821691505b6020821081141561200b5761200a612071565b5b50919050565b61201a826120cf565b810181811067ffffffffffffffff82111715612039576120386120a0565b5b80604052505050565b7f4e487b7100000000000000000000000000000000000000000000000000000000600052601160045260246000fd5b7f4e487b7100000000000000000000000000000000000000000000000000000000600052602260045260246000fd5b7f4e487b7100000000000000000000000000000000000000000000000000000000600052604160045260246000fd5b6000601f19601f8301169050919050565b7f4f776e61626c653a206e6577206f776e657220697320746865207a65726f206160008201527f6464726573730000000000000000000000000000000000000000000000000000602082015250565b7f416464726573733a20696e73756666696369656e742062616c616e636520666f60008201527f722063616c6c0000000000000000000000000000000000000000000000000000602082015250565b7f496e697469616c697a61626c653a20636f6e747261637420697320616c72656160008201527f647920696e697469616c697a6564000000000000000000000000000000000000602082015250565b7f4f776e61626c653a2063616c6c6572206973206e6f7420746865206f776e6572600082015250565b7f4e6f74206861766520656e6f756768206d6f6e657920746f207769746864726160008201527f7700000000000000000000000000000000000000000000000000000000000000602082015250565b7f53747261746567793a2063616c6c6572206973206e6f742061207661756c7400600082015250565b7f416464726573733a2063616c6c20746f206e6f6e2d636f6e7472616374000000600082015250565b7f496e697469616c697a61626c653a20636f6e7472616374206973206e6f74206960008201527f6e697469616c697a696e67000000000000000000000000000000000000000000602082015250565b7f5361666545524332303a204552433230206f7065726174696f6e20646964206e60008201527f6f74207375636365656400000000000000000000000000000000000000000000602082015250565b7f5265656e7472616e637947756172643a207265656e7472616e742063616c6c00600082015250565b61236781611f0d565b811461237257600080fd5b50565b61237e81611f1f565b811461238957600080fd5b50565b61239581611f4b565b81146123a057600080fd5b5056fea2646970667358221220646cdb9f6f4aa3e935d27884d889af43b5ed26bf97fa02ce7c12b5e22c79192c64736f6c63430008040033",
  "devdoc": {
    "kind": "dev",
    "methods": {
      "owner()": {
        "details": "Returns the address of the current owner."
      },
      "renounceOwnership()": {
        "details": "Leaves the contract without owner. It will not be possible to call `onlyOwner` functions anymore. Can only be called by the current owner. NOTE: Renouncing ownership will leave the contract without an owner, thereby removing any functionality that is only available to the owner."
      },
      "transferOwnership(address)": {
        "details": "Transfers ownership of the contract to a new account (`newOwner`). Can only be called by the current owner."
      }
    },
    "version": 1
  },
  "userdoc": {
    "kind": "user",
    "methods": {
      "__BaseStrategy__init(string,address,address)": {
        "notice": "name - name of the token wantAddress - address of ERC20 token contract which will be stored in fund vaultAddress - address of token where possible stake token"
      },
      "assets()": {
        "notice": "Contract of token which will be stored in this vault"
      },
      "balanceOfAssetsInStake()": {
        "notice": "Return current balance of assets which put in stake"
      },
      "initialize(string,address,address,address)": {
        "notice": "name - name of the token wantTokenAddress - address of ERC20 token contract which will be stored in fund stakingAddress - address of token where possible stake token"
      },
      "lender()": {
        "notice": "Lender address from which this borrower want to request token."
      },
      "totalAssets()": {
        "notice": "Estimated total assets which currently hold in strategy and in stake"
      },
      "want()": {
        "notice": "Contract of token which this strategy want to borrow and increase"
      },
      "withdraw(uint256)": {
        "notice": "Try to widthdraw given amount and return loss"
      },
      "work()": {
        "notice": "Make all work which need for invest or reinvest tokens"
      }
    },
    "version": 1
  },
  "storageLayout": {
    "storage": [
      {
        "astId": 130,
        "contract": "contracts/ERC20DforceStrategy.sol:ERC20DforceStrategy",
        "label": "_initialized",
        "offset": 0,
        "slot": "0",
        "type": "t_bool"
      },
      {
        "astId": 133,
        "contract": "contracts/ERC20DforceStrategy.sol:ERC20DforceStrategy",
        "label": "_initializing",
        "offset": 1,
        "slot": "0",
        "type": "t_bool"
      },
      {
        "astId": 1544,
        "contract": "contracts/ERC20DforceStrategy.sol:ERC20DforceStrategy",
        "label": "__gap",
        "offset": 0,
        "slot": "1",
        "type": "t_array(t_uint256)50_storage"
      },
      {
        "astId": 10,
        "contract": "contracts/ERC20DforceStrategy.sol:ERC20DforceStrategy",
        "label": "_owner",
        "offset": 0,
        "slot": "51",
        "type": "t_address"
      },
      {
        "astId": 122,
        "contract": "contracts/ERC20DforceStrategy.sol:ERC20DforceStrategy",
        "label": "__gap",
        "offset": 0,
        "slot": "52",
        "type": "t_array(t_uint256)49_storage"
      },
      {
        "astId": 3461,
        "contract": "contracts/ERC20DforceStrategy.sol:ERC20DforceStrategy",
        "label": "assets",
        "offset": 0,
        "slot": "101",
        "type": "t_contract(IERC20Upgradeable)947"
      },
      {
        "astId": 2278,
        "contract": "contracts/ERC20DforceStrategy.sol:ERC20DforceStrategy",
        "label": "_lender",
        "offset": 0,
        "slot": "102",
        "type": "t_contract(ILender)3043"
      },
      {
        "astId": 2280,
        "contract": "contracts/ERC20DforceStrategy.sol:ERC20DforceStrategy",
        "label": "name",
        "offset": 0,
        "slot": "103",
        "type": "t_string_storage"
      },
      {
        "astId": 211,
        "contract": "contracts/ERC20DforceStrategy.sol:ERC20DforceStrategy",
        "label": "_status",
        "offset": 0,
        "slot": "104",
        "type": "t_uint256"
      },
      {
        "astId": 255,
        "contract": "contracts/ERC20DforceStrategy.sol:ERC20DforceStrategy",
        "label": "__gap",
        "offset": 0,
        "slot": "105",
        "type": "t_array(t_uint256)49_storage"
      },
      {
        "astId": 2384,
        "contract": "contracts/ERC20DforceStrategy.sol:ERC20DforceStrategy",
        "label": "stake",
        "offset": 0,
        "slot": "154",
        "type": "t_contract(ERC20iToken)3629"
      }
    ],
    "types": {
      "t_address": {
        "encoding": "inplace",
        "label": "address",
        "numberOfBytes": "20"
      },
      "t_array(t_uint256)49_storage": {
        "base": "t_uint256",
        "encoding": "inplace",
        "label": "uint256[49]",
        "numberOfBytes": "1568"
      },
      "t_array(t_uint256)50_storage": {
        "base": "t_uint256",
        "encoding": "inplace",
        "label": "uint256[50]",
        "numberOfBytes": "1600"
      },
      "t_bool": {
        "encoding": "inplace",
        "label": "bool",
        "numberOfBytes": "1"
      },
      "t_contract(ERC20iToken)3629": {
        "encoding": "inplace",
        "label": "contract ERC20iToken",
        "numberOfBytes": "20"
      },
      "t_contract(IERC20Upgradeable)947": {
        "encoding": "inplace",
        "label": "contract IERC20Upgradeable",
        "numberOfBytes": "20"
      },
      "t_contract(ILender)3043": {
        "encoding": "inplace",
        "label": "contract ILender",
        "numberOfBytes": "20"
      },
      "t_string_storage": {
        "encoding": "bytes",
        "label": "string",
        "numberOfBytes": "32"
      },
      "t_uint256": {
        "encoding": "inplace",
        "label": "uint256",
        "numberOfBytes": "32"
      }
    }
  }
}