{
  "address": "0xaB7B4c595d3cE8C85e16DA86630f2fc223B05057",
  "abi": [
    {
      "anonymous": false,
      "inputs": [
        {
          "indexed": true,
          "internalType": "address",
          "name": "owner",
          "type": "address"
        },
        {
          "indexed": true,
          "internalType": "address",
          "name": "spender",
          "type": "address"
        },
        {
          "indexed": false,
          "internalType": "uint256",
          "name": "value",
          "type": "uint256"
        }
      ],
      "name": "Approval",
      "type": "event"
    },
    {
      "anonymous": false,
      "inputs": [
        {
          "indexed": false,
          "internalType": "address",
          "name": "strategy",
          "type": "address"
        },
        {
          "indexed": false,
          "internalType": "uint256",
          "name": "amount",
          "type": "uint256"
        },
        {
          "indexed": false,
          "internalType": "uint256",
          "name": "strategyTotalAssets",
          "type": "uint256"
        },
        {
          "indexed": false,
          "internalType": "uint256",
          "name": "totalDebt",
          "type": "uint256"
        }
      ],
      "name": "Borrowed",
      "type": "event"
    },
    {
      "anonymous": false,
      "inputs": [
        {
          "indexed": false,
          "internalType": "uint256",
          "name": "amount",
          "type": "uint256"
        },
        {
          "indexed": false,
          "internalType": "uint256",
          "name": "shares",
          "type": "uint256"
        },
        {
          "indexed": false,
          "internalType": "address",
          "name": "holder",
          "type": "address"
        }
      ],
      "name": "Deposit",
      "type": "event"
    },
    {
      "anonymous": false,
      "inputs": [
        {
          "indexed": true,
          "internalType": "address",
          "name": "previousOwner",
          "type": "address"
        },
        {
          "indexed": true,
          "internalType": "address",
          "name": "newOwner",
          "type": "address"
        }
      ],
      "name": "OwnershipTransferred",
      "type": "event"
    },
    {
      "anonymous": false,
      "inputs": [
        {
          "indexed": false,
          "internalType": "uint256",
          "name": "previusBalance",
          "type": "uint256"
        },
        {
          "indexed": false,
          "internalType": "uint256",
          "name": "targetBalance",
          "type": "uint256"
        },
        {
          "indexed": false,
          "internalType": "uint256",
          "name": "requestedAmount",
          "type": "uint256"
        },
        {
          "indexed": false,
          "internalType": "uint256",
          "name": "loss",
          "type": "uint256"
        }
      ],
      "name": "ReturnFromStrategy",
      "type": "event"
    },
    {
      "anonymous": false,
      "inputs": [
        {
          "indexed": true,
          "internalType": "address",
          "name": "from",
          "type": "address"
        },
        {
          "indexed": true,
          "internalType": "address",
          "name": "to",
          "type": "address"
        },
        {
          "indexed": false,
          "internalType": "uint256",
          "name": "value",
          "type": "uint256"
        }
      ],
      "name": "Transfer",
      "type": "event"
    },
    {
      "anonymous": false,
      "inputs": [
        {
          "indexed": false,
          "internalType": "address",
          "name": "holder",
          "type": "address"
        },
        {
          "indexed": false,
          "internalType": "uint256",
          "name": "maxShares",
          "type": "uint256"
        },
        {
          "indexed": false,
          "internalType": "uint256",
          "name": "maxLoss",
          "type": "uint256"
        },
        {
          "indexed": false,
          "internalType": "uint256",
          "name": "shares",
          "type": "uint256"
        },
        {
          "indexed": false,
          "internalType": "uint256",
          "name": "amount",
          "type": "uint256"
        },
        {
          "indexed": false,
          "internalType": "uint256",
          "name": "totalShares",
          "type": "uint256"
        }
      ],
      "name": "Withdraw",
      "type": "event"
    },
    {
      "inputs": [
        {
          "internalType": "address",
          "name": "owner",
          "type": "address"
        },
        {
          "internalType": "address",
          "name": "spender",
          "type": "address"
        }
      ],
      "name": "allowance",
      "outputs": [
        {
          "internalType": "uint256",
          "name": "",
          "type": "uint256"
        }
      ],
      "stateMutability": "view",
      "type": "function"
    },
    {
      "inputs": [
        {
          "internalType": "address",
          "name": "spender",
          "type": "address"
        },
        {
          "internalType": "uint256",
          "name": "amount",
          "type": "uint256"
        }
      ],
      "name": "approve",
      "outputs": [
        {
          "internalType": "bool",
          "name": "",
          "type": "bool"
        }
      ],
      "stateMutability": "nonpayable",
      "type": "function"
    },
    {
      "inputs": [],
      "name": "assets",
      "outputs": [
        {
          "internalType": "contract IERC20Upgradeable",
          "name": "",
          "type": "address"
        }
      ],
      "stateMutability": "view",
      "type": "function"
    },
    {
      "inputs": [
        {
          "internalType": "address",
          "name": "account",
          "type": "address"
        }
      ],
      "name": "balanceOf",
      "outputs": [
        {
          "internalType": "uint256",
          "name": "",
          "type": "uint256"
        }
      ],
      "stateMutability": "view",
      "type": "function"
    },
    {
      "inputs": [
        {
          "internalType": "uint256",
          "name": "amount",
          "type": "uint256"
        }
      ],
      "name": "borrow",
      "outputs": [],
      "stateMutability": "nonpayable",
      "type": "function"
    },
    {
      "inputs": [
        {
          "internalType": "uint256",
          "name": "amount",
          "type": "uint256"
        }
      ],
      "name": "burn",
      "outputs": [],
      "stateMutability": "nonpayable",
      "type": "function"
    },
    {
      "inputs": [
        {
          "internalType": "address",
          "name": "account",
          "type": "address"
        },
        {
          "internalType": "uint256",
          "name": "amount",
          "type": "uint256"
        }
      ],
      "name": "burnFrom",
      "outputs": [],
      "stateMutability": "nonpayable",
      "type": "function"
    },
    {
      "inputs": [],
      "name": "creditAvailable",
      "outputs": [
        {
          "internalType": "uint256",
          "name": "",
          "type": "uint256"
        }
      ],
      "stateMutability": "view",
      "type": "function"
    },
    {
      "inputs": [],
      "name": "decimals",
      "outputs": [
        {
          "internalType": "uint8",
          "name": "",
          "type": "uint8"
        }
      ],
      "stateMutability": "view",
      "type": "function"
    },
    {
      "inputs": [
        {
          "internalType": "address",
          "name": "spender",
          "type": "address"
        },
        {
          "internalType": "uint256",
          "name": "subtractedValue",
          "type": "uint256"
        }
      ],
      "name": "decreaseAllowance",
      "outputs": [
        {
          "internalType": "bool",
          "name": "",
          "type": "bool"
        }
      ],
      "stateMutability": "nonpayable",
      "type": "function"
    },
    {
      "inputs": [
        {
          "internalType": "uint256",
          "name": "amount",
          "type": "uint256"
        }
      ],
      "name": "deposit",
      "outputs": [
        {
          "internalType": "uint256",
          "name": "",
          "type": "uint256"
        }
      ],
      "stateMutability": "nonpayable",
      "type": "function"
    },
    {
      "inputs": [
        {
          "internalType": "address",
          "name": "spender",
          "type": "address"
        },
        {
          "internalType": "uint256",
          "name": "addedValue",
          "type": "uint256"
        }
      ],
      "name": "increaseAllowance",
      "outputs": [
        {
          "internalType": "bool",
          "name": "",
          "type": "bool"
        }
      ],
      "stateMutability": "nonpayable",
      "type": "function"
    },
    {
      "inputs": [
        {
          "internalType": "string",
          "name": "name",
          "type": "string"
        },
        {
          "internalType": "string",
          "name": "symbol",
          "type": "string"
        },
        {
          "internalType": "address",
          "name": "storageTokenAddress",
          "type": "address"
        },
        {
          "internalType": "address",
          "name": "strategyAddress",
          "type": "address"
        }
      ],
      "name": "initialize",
      "outputs": [],
      "stateMutability": "nonpayable",
      "type": "function"
    },
    {
      "inputs": [],
      "name": "name",
      "outputs": [
        {
          "internalType": "string",
          "name": "",
          "type": "string"
        }
      ],
      "stateMutability": "view",
      "type": "function"
    },
    {
      "inputs": [],
      "name": "owner",
      "outputs": [
        {
          "internalType": "address",
          "name": "",
          "type": "address"
        }
      ],
      "stateMutability": "view",
      "type": "function"
    },
    {
      "inputs": [],
      "name": "renounceOwnership",
      "outputs": [],
      "stateMutability": "nonpayable",
      "type": "function"
    },
    {
      "inputs": [
        {
          "internalType": "address",
          "name": "strategyAddress",
          "type": "address"
        }
      ],
      "name": "setStrategy",
      "outputs": [],
      "stateMutability": "nonpayable",
      "type": "function"
    },
    {
      "inputs": [],
      "name": "strategy",
      "outputs": [
        {
          "internalType": "contract IBorrower",
          "name": "",
          "type": "address"
        }
      ],
      "stateMutability": "view",
      "type": "function"
    },
    {
      "inputs": [],
      "name": "symbol",
      "outputs": [
        {
          "internalType": "string",
          "name": "",
          "type": "string"
        }
      ],
      "stateMutability": "view",
      "type": "function"
    },
    {
      "inputs": [],
      "name": "totalAssets",
      "outputs": [
        {
          "internalType": "uint256",
          "name": "",
          "type": "uint256"
        }
      ],
      "stateMutability": "view",
      "type": "function"
    },
    {
      "inputs": [],
      "name": "totalDebt",
      "outputs": [
        {
          "internalType": "uint256",
          "name": "",
          "type": "uint256"
        }
      ],
      "stateMutability": "view",
      "type": "function"
    },
    {
      "inputs": [],
      "name": "totalSupply",
      "outputs": [
        {
          "internalType": "uint256",
          "name": "",
          "type": "uint256"
        }
      ],
      "stateMutability": "view",
      "type": "function"
    },
    {
      "inputs": [
        {
          "internalType": "address",
          "name": "to",
          "type": "address"
        },
        {
          "internalType": "uint256",
          "name": "amount",
          "type": "uint256"
        }
      ],
      "name": "transfer",
      "outputs": [
        {
          "internalType": "bool",
          "name": "",
          "type": "bool"
        }
      ],
      "stateMutability": "nonpayable",
      "type": "function"
    },
    {
      "inputs": [
        {
          "internalType": "address",
          "name": "from",
          "type": "address"
        },
        {
          "internalType": "address",
          "name": "to",
          "type": "address"
        },
        {
          "internalType": "uint256",
          "name": "amount",
          "type": "uint256"
        }
      ],
      "name": "transferFrom",
      "outputs": [
        {
          "internalType": "bool",
          "name": "",
          "type": "bool"
        }
      ],
      "stateMutability": "nonpayable",
      "type": "function"
    },
    {
      "inputs": [
        {
          "internalType": "address",
          "name": "newOwner",
          "type": "address"
        }
      ],
      "name": "transferOwnership",
      "outputs": [],
      "stateMutability": "nonpayable",
      "type": "function"
    },
    {
      "inputs": [
        {
          "internalType": "uint256",
          "name": "maxShares",
          "type": "uint256"
        },
        {
          "internalType": "uint256",
          "name": "maxLoss",
          "type": "uint256"
        }
      ],
      "name": "withdraw",
      "outputs": [
        {
          "internalType": "uint256",
          "name": "",
          "type": "uint256"
        }
      ],
      "stateMutability": "nonpayable",
      "type": "function"
    }
  ],
  "transactionHash": "0xcb06113b57714c545383436be9a3cdbbaaafaaf16f6e18fa33bb863e702b83ee",
  "args": [],
  "numDeployments": 1,
  "solcInputHash": "30c1634913c9f9869e170a94d3c0f44c",
  "bytecode": "0x60806040523480156200001157600080fd5b50600060019054906101000a900460ff166200003c5760008054906101000a900460ff16156200004d565b6200004c6200010960201b60201c565b5b6200008f576040517f08c379a0000000000000000000000000000000000000000000000000000000008152600401620000869062000171565b60405180910390fd5b60008060019054906101000a900460ff161590508015620000e0576001600060016101000a81548160ff02191690831515021790555060016000806101000a81548160ff0219169083151502179055505b8015620001025760008060016101000a81548160ff0219169083151502179055505b50620001f3565b600062000121306200012760201b620014971760201c565b15905090565b6000808273ffffffffffffffffffffffffffffffffffffffff163b119050919050565b600062000159602e8362000193565b91506200016682620001a4565b604082019050919050565b600060208201905081810360008301526200018c816200014a565b9050919050565b600082825260208201905092915050565b7f496e697469616c697a61626c653a20636f6e747261637420697320616c72656160008201527f647920696e697469616c697a6564000000000000000000000000000000000000602082015250565b61473d80620002036000396000f3fe608060405234801561001057600080fd5b506004361061018e5760003560e01c806371a97305116100de578063a8c62e7611610097578063c5ebeaec11610071578063c5ebeaec1461049b578063dd62ed3e146104b7578063f2fde38b146104e7578063fc7b9c18146105035761018e565b8063a8c62e761461041d578063a9059cbb1461043b578063b6b55f251461046b5761018e565b806371a973051461035b57806379cc6790146103795780638da5cb5b146103955780638f15b414146103b357806395d89b41146103cf578063a457c2d7146103ed5761018e565b8063313ce5671161014b57806342966c681161012557806342966c68146102d5578063441a3e70146102f157806370a0823114610321578063715018a6146103515761018e565b8063313ce5671461026b57806333a100ca1461028957806339509351146102a55761018e565b806301e1d1141461019357806306fdde03146101b1578063095ea7b3146101cf578063112c1f9b146101ff57806318160ddd1461021d57806323b872dd1461023b575b600080fd5b61019b610521565b6040516101a8919061393f565b60405180910390f35b6101b96105da565b6040516101c691906134fd565b60405180910390f35b6101e960048036038101906101e49190612ca7565b61066c565b6040516101f691906134ac565b60405180910390f35b61020761068f565b604051610214919061393f565b60405180910390f35b610225610735565b604051610232919061393f565b60405180910390f35b61025560048036038101906102509190612c58565b61073f565b60405161026291906134ac565b60405180910390f35b61027361076e565b60405161028091906139d6565b60405180910390f35b6102a3600480360381019061029e9190612bca565b610777565b005b6102bf60048036038101906102ba9190612ca7565b610966565b6040516102cc91906134ac565b60405180910390f35b6102ef60048036038101906102ea9190612d9f565b610a10565b005b61030b60048036038101906103069190612df1565b610a24565b604051610318919061393f565b60405180910390f35b61033b60048036038101906103369190612bca565b610bbd565b604051610348919061393f565b60405180910390f35b610359610c06565b005b610363610c8e565b60405161037091906134e2565b60405180910390f35b610393600480360381019061038e9190612ca7565b610cb4565b005b61039d610cd4565b6040516103aa919061338b565b60405180910390f35b6103cd60048036038101906103c89190612d0c565b610cfe565b005b6103d7610dfa565b6040516103e491906134fd565b60405180910390f35b61040760048036038101906104029190612ca7565b610e8c565b60405161041491906134ac565b60405180910390f35b610425610f76565b60405161043291906134c7565b60405180910390f35b61045560048036038101906104509190612ca7565b610f9c565b60405161046291906134ac565b60405180910390f35b61048560048036038101906104809190612d9f565b610fbf565b604051610492919061393f565b60405180910390f35b6104b560048036038101906104b09190612d9f565b6110b6565b005b6104d160048036038101906104cc9190612c1c565b611312565b6040516104de919061393f565b60405180910390f35b61050160048036038101906104fc9190612bca565b611399565b005b61050b611491565b604051610518919061393f565b60405180910390f35b600060fc60009054906101000a900473ffffffffffffffffffffffffffffffffffffffff1673ffffffffffffffffffffffffffffffffffffffff166301e1d1146040518163ffffffff1660e01b815260040160206040518083038186803b15801561058b57600080fd5b505afa15801561059f573d6000803e3d6000fd5b505050506040513d601f19601f820116820180604052508101906105c39190612dc8565b6105cb6114ba565b6105d59190613a79565b905090565b6060603680546105e990613c6d565b80601f016020809104026020016040519081016040528092919081815260200182805461061590613c6d565b80156106625780601f1061063757610100808354040283529160200191610662565b820191906000526020600020905b81548152906001019060200180831161064557829003601f168201915b5050505050905090565b60008061067761156b565b9050610684818585611573565b600191505092915050565b600061069961156b565b73ffffffffffffffffffffffffffffffffffffffff1660fc60009054906101000a900473ffffffffffffffffffffffffffffffffffffffff1673ffffffffffffffffffffffffffffffffffffffff1614610728576040517f08c379a000000000000000000000000000000000000000000000000000000000815260040161071f906137bf565b60405180910390fd5b6107306114ba565b905090565b6000603554905090565b60008061074a61156b565b905061075785828561173e565b6107628585856117ca565b60019150509392505050565b60006012905090565b61077f61156b565b73ffffffffffffffffffffffffffffffffffffffff1661079d610cd4565b73ffffffffffffffffffffffffffffffffffffffff16146107f3576040517f08c379a00000000000000000000000000000000000000000000000000000000081526004016107ea9061375f565b60405180910390fd5b8060fc60006101000a81548173ffffffffffffffffffffffffffffffffffffffff021916908373ffffffffffffffffffffffffffffffffffffffff160217905550600060029054906101000a900473ffffffffffffffffffffffffffffffffffffffff1673ffffffffffffffffffffffffffffffffffffffff1660fc60009054906101000a900473ffffffffffffffffffffffffffffffffffffffff1673ffffffffffffffffffffffffffffffffffffffff16631f1fcd516040518163ffffffff1660e01b815260040160206040518083038186803b1580156108d557600080fd5b505afa1580156108e9573d6000803e3d6000fd5b505050506040513d601f19601f8201168201806040525081019061090d9190612bf3565b73ffffffffffffffffffffffffffffffffffffffff1614610963576040517f08c379a000000000000000000000000000000000000000000000000000000000815260040161095a906136bf565b60405180910390fd5b50565b60008061097161156b565b9050610a05818585603460008673ffffffffffffffffffffffffffffffffffffffff1673ffffffffffffffffffffffffffffffffffffffff16815260200190815260200160002060008973ffffffffffffffffffffffffffffffffffffffff1673ffffffffffffffffffffffffffffffffffffffff16815260200190815260200160002054610a009190613a79565b611573565b600191505092915050565b610a21610a1b61156b565b82611a4e565b50565b6000600260c9541415610a6c576040517f08c379a0000000000000000000000000000000000000000000000000000000008152600401610a639061389f565b60405180910390fd5b600260c98190555060008311610ab7576040517f08c379a0000000000000000000000000000000000000000000000000000000008152600401610aae9061363f565b60405180910390fd5b612710821115610afc576040517f08c379a0000000000000000000000000000000000000000000000000000000008152600401610af39061377f565b60405180910390fd5b610b0533610bbd565b831115610b47576040517f08c379a0000000000000000000000000000000000000000000000000000000008152600401610b3e9061365f565b60405180910390fd5b600080610b548585611c27565b91509150610b623382611d4b565b7fb7ee00edafdb5db3a1b52a5789a6b562eb48268842d113dbfe860b6f86e5f5953386868585610b90610735565b604051610ba29695949392919061344b565b60405180910390a18092505050600160c98190555092915050565b6000603360008373ffffffffffffffffffffffffffffffffffffffff1673ffffffffffffffffffffffffffffffffffffffff168152602001908152602001600020549050919050565b610c0e61156b565b73ffffffffffffffffffffffffffffffffffffffff16610c2c610cd4565b73ffffffffffffffffffffffffffffffffffffffff1614610c82576040517f08c379a0000000000000000000000000000000000000000000000000000000008152600401610c799061375f565b60405180910390fd5b610c8c6000611d9c565b565b600060029054906101000a900473ffffffffffffffffffffffffffffffffffffffff1681565b610cc682610cc061156b565b8361173e565b610cd08282611a4e565b5050565b6000609760009054906101000a900473ffffffffffffffffffffffffffffffffffffffff16905090565b600060019054906101000a900460ff16610d265760008054906101000a900460ff1615610d2f565b610d2e611e62565b5b610d6e576040517f08c379a0000000000000000000000000000000000000000000000000000000008152600401610d65906136df565b60405180910390fd5b60008060019054906101000a900460ff161590508015610dbe576001600060016101000a81548160ff02191690831515021790555060016000806101000a81548160ff0219169083151502179055505b610dc9858585611e73565b610dd282611e9b565b8015610df35760008060016101000a81548160ff0219169083151502179055505b5050505050565b606060378054610e0990613c6d565b80601f0160208091040260200160405190810160405280929190818152602001828054610e3590613c6d565b8015610e825780601f10610e5757610100808354040283529160200191610e82565b820191906000526020600020905b815481529060010190602001808311610e6557829003601f168201915b5050505050905090565b600080610e9761156b565b90506000603460008373ffffffffffffffffffffffffffffffffffffffff1673ffffffffffffffffffffffffffffffffffffffff16815260200190815260200160002060008673ffffffffffffffffffffffffffffffffffffffff1673ffffffffffffffffffffffffffffffffffffffff16815260200190815260200160002054905083811015610f5d576040517f08c379a0000000000000000000000000000000000000000000000000000000008152600401610f54906138df565b60405180910390fd5b610f6a8286868403611573565b60019250505092915050565b60fc60009054906101000a900473ffffffffffffffffffffffffffffffffffffffff1681565b600080610fa761156b565b9050610fb48185856117ca565b600191505092915050565b6000600260c9541415611007576040517f08c379a0000000000000000000000000000000000000000000000000000000008152600401610ffe9061389f565b60405180910390fd5b600260c98190555060008211611052576040517f08c379a00000000000000000000000000000000000000000000000000000000081526004016110499061369f565b60405180910390fd5b600061105e8333611ea7565b905061106a3384611ec9565b7fd68606c673aecac7ce24ec44fd7d77b401356dfd76fe9b36cb58e579c4220aed83823360405161109d9392919061395a565b60405180910390a180915050600160c981905550919050565b6110be61156b565b73ffffffffffffffffffffffffffffffffffffffff1660fc60009054906101000a900473ffffffffffffffffffffffffffffffffffffffff1673ffffffffffffffffffffffffffffffffffffffff161461114d576040517f08c379a0000000000000000000000000000000000000000000000000000000008152600401611144906137bf565b60405180910390fd5b600260c9541415611193576040517f08c379a000000000000000000000000000000000000000000000000000000000815260040161118a9061389f565b60405180910390fd5b600260c981905550600081116111de576040517f08c379a00000000000000000000000000000000000000000000000000000000081526004016111d5906135bf565b60405180910390fd5b6111e66114ba565b811115611228576040517f08c379a000000000000000000000000000000000000000000000000000000000815260040161121f906135df565b60405180910390fd5b8060fb600082825461123a9190613a79565b9250508190555061124b3382611d4b565b7fc4381c9c7b508979896c55381c1cb8c2aef28d753cff7661f9cd87b9a14584f833823373ffffffffffffffffffffffffffffffffffffffff166301e1d1146040518163ffffffff1660e01b815260040160206040518083038186803b1580156112b457600080fd5b505afa1580156112c8573d6000803e3d6000fd5b505050506040513d601f19601f820116820180604052508101906112ec9190612dc8565b60fb546040516112ff9493929190613406565b60405180910390a1600160c98190555050565b6000603460008473ffffffffffffffffffffffffffffffffffffffff1673ffffffffffffffffffffffffffffffffffffffff16815260200190815260200160002060008373ffffffffffffffffffffffffffffffffffffffff1673ffffffffffffffffffffffffffffffffffffffff16815260200190815260200160002054905092915050565b6113a161156b565b73ffffffffffffffffffffffffffffffffffffffff166113bf610cd4565b73ffffffffffffffffffffffffffffffffffffffff1614611415576040517f08c379a000000000000000000000000000000000000000000000000000000000815260040161140c9061375f565b60405180910390fd5b600073ffffffffffffffffffffffffffffffffffffffff168173ffffffffffffffffffffffffffffffffffffffff161415611485576040517f08c379a000000000000000000000000000000000000000000000000000000000815260040161147c9061355f565b60405180910390fd5b61148e81611d9c565b50565b60fb5481565b6000808273ffffffffffffffffffffffffffffffffffffffff163b119050919050565b60008060029054906101000a900473ffffffffffffffffffffffffffffffffffffffff1673ffffffffffffffffffffffffffffffffffffffff166370a08231306040518263ffffffff1660e01b8152600401611516919061338b565b60206040518083038186803b15801561152e57600080fd5b505afa158015611542573d6000803e3d6000fd5b505050506040513d601f19601f820116820180604052508101906115669190612dc8565b905090565b600033905090565b600073ffffffffffffffffffffffffffffffffffffffff168373ffffffffffffffffffffffffffffffffffffffff1614156115e3576040517f08c379a00000000000000000000000000000000000000000000000000000000081526004016115da906137ff565b60405180910390fd5b600073ffffffffffffffffffffffffffffffffffffffff168273ffffffffffffffffffffffffffffffffffffffff161415611653576040517f08c379a000000000000000000000000000000000000000000000000000000000815260040161164a9061357f565b60405180910390fd5b80603460008573ffffffffffffffffffffffffffffffffffffffff1673ffffffffffffffffffffffffffffffffffffffff16815260200190815260200160002060008473ffffffffffffffffffffffffffffffffffffffff1673ffffffffffffffffffffffffffffffffffffffff168152602001908152602001600020819055508173ffffffffffffffffffffffffffffffffffffffff168373ffffffffffffffffffffffffffffffffffffffff167f8c5be1e5ebec7d5bd14f71427d1e84f3dd0314c0f7b2291e5b200ac8c7c3b92583604051611731919061393f565b60405180910390a3505050565b600061174a8484611312565b90507fffffffffffffffffffffffffffffffffffffffffffffffffffffffffffffffff81146117c457818110156117b6576040517f08c379a00000000000000000000000000000000000000000000000000000000081526004016117ad9061359f565b60405180910390fd5b6117c38484848403611573565b5b50505050565b600073ffffffffffffffffffffffffffffffffffffffff168373ffffffffffffffffffffffffffffffffffffffff16141561183a576040517f08c379a0000000000000000000000000000000000000000000000000000000008152600401611831906137df565b60405180910390fd5b600073ffffffffffffffffffffffffffffffffffffffff168273ffffffffffffffffffffffffffffffffffffffff1614156118aa576040517f08c379a00000000000000000000000000000000000000000000000000000000081526004016118a19061351f565b60405180910390fd5b6118b5838383611ed8565b6000603360008573ffffffffffffffffffffffffffffffffffffffff1673ffffffffffffffffffffffffffffffffffffffff1681526020019081526020016000205490508181101561193c576040517f08c379a0000000000000000000000000000000000000000000000000000000008152600401611933906135ff565b60405180910390fd5b818103603360008673ffffffffffffffffffffffffffffffffffffffff1673ffffffffffffffffffffffffffffffffffffffff1681526020019081526020016000208190555081603360008573ffffffffffffffffffffffffffffffffffffffff1673ffffffffffffffffffffffffffffffffffffffff16815260200190815260200160002060008282546119d19190613a79565b925050819055508273ffffffffffffffffffffffffffffffffffffffff168473ffffffffffffffffffffffffffffffffffffffff167fddf252ad1be2c89b69c2b068fc378daa952ba7f163c4a11628f55a4df523b3ef84604051611a35919061393f565b60405180910390a3611a48848484611edd565b50505050565b600073ffffffffffffffffffffffffffffffffffffffff168273ffffffffffffffffffffffffffffffffffffffff161415611abe576040517f08c379a0000000000000000000000000000000000000000000000000000000008152600401611ab59061379f565b60405180910390fd5b611aca82600083611ed8565b6000603360008473ffffffffffffffffffffffffffffffffffffffff1673ffffffffffffffffffffffffffffffffffffffff16815260200190815260200160002054905081811015611b51576040517f08c379a0000000000000000000000000000000000000000000000000000000008152600401611b489061353f565b60405180910390fd5b818103603360008573ffffffffffffffffffffffffffffffffffffffff1673ffffffffffffffffffffffffffffffffffffffff168152602001908152602001600020819055508160356000828254611ba99190613b5a565b92505081905550600073ffffffffffffffffffffffffffffffffffffffff168373ffffffffffffffffffffffffffffffffffffffff167fddf252ad1be2c89b69c2b068fc378daa952ba7f163c4a11628f55a4df523b3ef84604051611c0e919061393f565b60405180910390a3611c2283600084611edd565b505050565b60008060008490506000611c3a86611ee2565b9050611c446114ba565b811115611d32576000611c5682611fea565b90506000611c626114ba565b905080831115611cc957809250611c838284611c7e9190613a79565b612131565b935087841115611cc8576040517f08c379a0000000000000000000000000000000000000000000000000000000008152600401611cbf9061371f565b60405180910390fd5b5b612710878385611cd99190613a79565b611ce39190613b00565b611ced9190613acf565b821115611d2f576040517f08c379a0000000000000000000000000000000000000000000000000000000008152600401611d26906136ff565b60405180910390fd5b50505b611d3c3383611a4e565b81819350935050509250929050565b611d988282600060029054906101000a900473ffffffffffffffffffffffffffffffffffffffff1673ffffffffffffffffffffffffffffffffffffffff166122039092919063ffffffff16565b5050565b6000609760009054906101000a900473ffffffffffffffffffffffffffffffffffffffff16905081609760006101000a81548173ffffffffffffffffffffffffffffffffffffffff021916908373ffffffffffffffffffffffffffffffffffffffff1602179055508173ffffffffffffffffffffffffffffffffffffffff168173ffffffffffffffffffffffffffffffffffffffff167f8be0079c531659141344cd1fd0a4f28419497f9722a3daafe3b4186f6b6457e060405160405180910390a35050565b6000611e6d30611497565b15905090565b611e7d8383612289565b611e856122e6565b611e8d612337565b611e9681612390565b505050565b611ea481610777565b50565b600080611eb384612131565b9050611ebf83826124b6565b8091505092915050565b611ed4823083612617565b5050565b505050565b505050565b6000808211611f26576040517f08c379a0000000000000000000000000000000000000000000000000000000008152600401611f1d906138ff565b60405180910390fd5b6000611f30610735565b905080831115611f75576040517f08c379a0000000000000000000000000000000000000000000000000000000008152600401611f6c906138bf565b60405180910390fd5b6000611f7f61266b565b90506000828286611f909190613b00565b611f9a9190613acf565b905060008511611fdf576040517f08c379a0000000000000000000000000000000000000000000000000000000008152600401611fd69061373f565b60405180910390fd5b809350505050919050565b600080611ff56114ba565b9050600081846120059190613b5a565b90508060fb54101561201e57600060fb81905550612038565b8060fb60008282546120309190613b5a565b925050819055505b600060fc60009054906101000a900473ffffffffffffffffffffffffffffffffffffffff1673ffffffffffffffffffffffffffffffffffffffff16632e1a7d4d836040518263ffffffff1660e01b8152600401612095919061393f565b602060405180830381600087803b1580156120af57600080fd5b505af11580156120c3573d6000803e3d6000fd5b505050506040513d601f19601f820116820180604052508101906120e79190612dc8565b90507fff55ad369e3b5d0516f3a9185142a1da422388ff2b73e04db4e7fd3fd76d35838386848460405161211e9493929190613991565b60405180910390a1809350505050919050565b6000808211612175576040517f08c379a000000000000000000000000000000000000000000000000000000000815260040161216c9061383f565b60405180910390fd5b600061217f610735565b9050600081141561219357829150506121fe565b600061219d61266b565b82856121a99190613b00565b6121b39190613acf565b9050600081116121f8576040517f08c379a00000000000000000000000000000000000000000000000000000000081526004016121ef9061361f565b60405180910390fd5b80925050505b919050565b6122848363a9059cbb60e01b84846040516024016122229291906133dd565b604051602081830303815290604052907bffffffffffffffffffffffffffffffffffffffffffffffffffffffff19166020820180517bffffffffffffffffffffffffffffffffffffffffffffffffffffffff838183161783525050505061268c565b505050565b600060019054906101000a900460ff166122d8576040517f08c379a00000000000000000000000000000000000000000000000000000000081526004016122cf9061385f565b60405180910390fd5b6122e28282612753565b5050565b600060019054906101000a900460ff16612335576040517f08c379a000000000000000000000000000000000000000000000000000000000815260040161232c9061385f565b60405180910390fd5b565b600060019054906101000a900460ff16612386576040517f08c379a000000000000000000000000000000000000000000000000000000000815260040161237d9061385f565b60405180910390fd5b61238e6127d4565b565b600060019054906101000a900460ff166123b85760008054906101000a900460ff16156123c1565b6123c0611e62565b5b612400576040517f08c379a00000000000000000000000000000000000000000000000000000000081526004016123f7906136df565b60405180910390fd5b60008060019054906101000a900460ff161590508015612450576001600060016101000a81548160ff02191690831515021790555060016000806101000a81548160ff0219169083151502179055505b81600060026101000a81548173ffffffffffffffffffffffffffffffffffffffff021916908373ffffffffffffffffffffffffffffffffffffffff16021790555080156124b25760008060016101000a81548160ff0219169083151502179055505b5050565b600073ffffffffffffffffffffffffffffffffffffffff168273ffffffffffffffffffffffffffffffffffffffff161415612526576040517f08c379a000000000000000000000000000000000000000000000000000000000815260040161251d9061391f565b60405180910390fd5b61253260008383611ed8565b80603560008282546125449190613a79565b9250508190555080603360008473ffffffffffffffffffffffffffffffffffffffff1673ffffffffffffffffffffffffffffffffffffffff168152602001908152602001600020600082825461259a9190613a79565b925050819055508173ffffffffffffffffffffffffffffffffffffffff16600073ffffffffffffffffffffffffffffffffffffffff167fddf252ad1be2c89b69c2b068fc378daa952ba7f163c4a11628f55a4df523b3ef836040516125ff919061393f565b60405180910390a361261360008383611edd565b5050565b612666838383600060029054906101000a900473ffffffffffffffffffffffffffffffffffffffff1673ffffffffffffffffffffffffffffffffffffffff16612835909392919063ffffffff16565b505050565b60006126756128be565b61267d610521565b6126879190613b5a565b905090565b60006126ee826040518060400160405280602081526020017f5361666545524332303a206c6f772d6c6576656c2063616c6c206661696c65648152508573ffffffffffffffffffffffffffffffffffffffff166128c39092919063ffffffff16565b905060008151111561274e578080602001905181019061270e9190612ce3565b61274d576040517f08c379a00000000000000000000000000000000000000000000000000000000081526004016127449061387f565b60405180910390fd5b5b505050565b600060019054906101000a900460ff166127a2576040517f08c379a00000000000000000000000000000000000000000000000000000000081526004016127999061385f565b60405180910390fd5b81603690805190602001906127b8929190612a56565b5080603790805190602001906127cf929190612a56565b505050565b600060019054906101000a900460ff16612823576040517f08c379a000000000000000000000000000000000000000000000000000000000815260040161281a9061385f565b60405180910390fd5b61283361282e61156b565b611d9c565b565b6128b8846323b872dd60e01b858585604051602401612856939291906133a6565b604051602081830303815290604052907bffffffffffffffffffffffffffffffffffffffffffffffffffffffff19166020820180517bffffffffffffffffffffffffffffffffffffffffffffffffffffffff838183161783525050505061268c565b50505050565b600090565b60606128d284846000856128db565b90509392505050565b606082471015612920576040517f08c379a00000000000000000000000000000000000000000000000000000000081526004016129179061367f565b60405180910390fd5b61292985611497565b612968576040517f08c379a000000000000000000000000000000000000000000000000000000000815260040161295f9061381f565b60405180910390fd5b6000808673ffffffffffffffffffffffffffffffffffffffff1685876040516129919190613374565b60006040518083038185875af1925050503d80600081146129ce576040519150601f19603f3d011682016040523d82523d6000602084013e6129d3565b606091505b50915091506129e38282866129ef565b92505050949350505050565b606083156129ff57829050612a4f565b600083511115612a125782518084602001fd5b816040517f08c379a0000000000000000000000000000000000000000000000000000000008152600401612a4691906134fd565b60405180910390fd5b9392505050565b828054612a6290613c6d565b90600052602060002090601f016020900481019282612a845760008555612acb565b82601f10612a9d57805160ff1916838001178555612acb565b82800160010185558215612acb579182015b82811115612aca578251825591602001919060010190612aaf565b5b509050612ad89190612adc565b5090565b5b80821115612af5576000816000905550600101612add565b5090565b6000612b0c612b0784613a16565b6139f1565b905082815260208101848484011115612b2457600080fd5b612b2f848285613c2b565b509392505050565b600081359050612b46816146c2565b92915050565b600081519050612b5b816146c2565b92915050565b600081519050612b70816146d9565b92915050565b600082601f830112612b8757600080fd5b8135612b97848260208601612af9565b91505092915050565b600081359050612baf816146f0565b92915050565b600081519050612bc4816146f0565b92915050565b600060208284031215612bdc57600080fd5b6000612bea84828501612b37565b91505092915050565b600060208284031215612c0557600080fd5b6000612c1384828501612b4c565b91505092915050565b60008060408385031215612c2f57600080fd5b6000612c3d85828601612b37565b9250506020612c4e85828601612b37565b9150509250929050565b600080600060608486031215612c6d57600080fd5b6000612c7b86828701612b37565b9350506020612c8c86828701612b37565b9250506040612c9d86828701612ba0565b9150509250925092565b60008060408385031215612cba57600080fd5b6000612cc885828601612b37565b9250506020612cd985828601612ba0565b9150509250929050565b600060208284031215612cf557600080fd5b6000612d0384828501612b61565b91505092915050565b60008060008060808587031215612d2257600080fd5b600085013567ffffffffffffffff811115612d3c57600080fd5b612d4887828801612b76565b945050602085013567ffffffffffffffff811115612d6557600080fd5b612d7187828801612b76565b9350506040612d8287828801612b37565b9250506060612d9387828801612b37565b91505092959194509250565b600060208284031215612db157600080fd5b6000612dbf84828501612ba0565b91505092915050565b600060208284031215612dda57600080fd5b6000612de884828501612bb5565b91505092915050565b60008060408385031215612e0457600080fd5b6000612e1285828601612ba0565b9250506020612e2385828601612ba0565b9150509250929050565b612e3681613b8e565b82525050565b612e4581613ba0565b82525050565b6000612e5682613a47565b612e608185613a5d565b9350612e70818560208601613c3a565b80840191505092915050565b612e8581613be3565b82525050565b612e9481613c07565b82525050565b6000612ea582613a52565b612eaf8185613a68565b9350612ebf818560208601613c3a565b612ec881613d8c565b840191505092915050565b6000612ee0602383613a68565b9150612eeb82613d9d565b604082019050919050565b6000612f03602283613a68565b9150612f0e82613dec565b604082019050919050565b6000612f26602683613a68565b9150612f3182613e3b565b604082019050919050565b6000612f49602283613a68565b9150612f5482613e8a565b604082019050919050565b6000612f6c601d83613a68565b9150612f7782613ed9565b602082019050919050565b6000612f8f602183613a68565b9150612f9a82613f02565b604082019050919050565b6000612fb2602d83613a68565b9150612fbd82613f51565b604082019050919050565b6000612fd5602683613a68565b9150612fe082613fa0565b604082019050919050565b6000612ff8602d83613a68565b915061300382613fef565b604082019050919050565b600061301b601e83613a68565b91506130268261403e565b602082019050919050565b600061303e602d83613a68565b915061304982614067565b604082019050919050565b6000613061602683613a68565b915061306c826140b6565b604082019050919050565b6000613084602383613a68565b915061308f82614105565b604082019050919050565b60006130a7602183613a68565b91506130b282614154565b604082019050919050565b60006130ca602e83613a68565b91506130d5826141a3565b604082019050919050565b60006130ed602983613a68565b91506130f8826141f2565b604082019050919050565b6000613110604483613a68565b915061311b82614241565b606082019050919050565b6000613133602683613a68565b915061313e826142b6565b604082019050919050565b6000613156602083613a68565b915061316182614305565b602082019050919050565b6000613179601683613a68565b91506131848261432e565b602082019050919050565b600061319c602183613a68565b91506131a782614357565b604082019050919050565b60006131bf602083613a68565b91506131ca826143a6565b602082019050919050565b60006131e2602583613a68565b91506131ed826143cf565b604082019050919050565b6000613205602483613a68565b91506132108261441e565b604082019050919050565b6000613228601d83613a68565b91506132338261446d565b602082019050919050565b600061324b602883613a68565b915061325682614496565b604082019050919050565b600061326e602b83613a68565b9150613279826144e5565b604082019050919050565b6000613291602a83613a68565b915061329c82614534565b604082019050919050565b60006132b4601f83613a68565b91506132bf82614583565b602082019050919050565b60006132d7602e83613a68565b91506132e2826145ac565b604082019050919050565b60006132fa602583613a68565b9150613305826145fb565b604082019050919050565b600061331d603183613a68565b91506133288261464a565b604082019050919050565b6000613340601f83613a68565b915061334b82614699565b602082019050919050565b61335f81613bcc565b82525050565b61336e81613bd6565b82525050565b60006133808284612e4b565b915081905092915050565b60006020820190506133a06000830184612e2d565b92915050565b60006060820190506133bb6000830186612e2d565b6133c86020830185612e2d565b6133d56040830184613356565b949350505050565b60006040820190506133f26000830185612e2d565b6133ff6020830184613356565b9392505050565b600060808201905061341b6000830187612e2d565b6134286020830186613356565b6134356040830185613356565b6134426060830184613356565b95945050505050565b600060c0820190506134606000830189612e2d565b61346d6020830188613356565b61347a6040830187613356565b6134876060830186613356565b6134946080830185613356565b6134a160a0830184613356565b979650505050505050565b60006020820190506134c16000830184612e3c565b92915050565b60006020820190506134dc6000830184612e7c565b92915050565b60006020820190506134f76000830184612e8b565b92915050565b600060208201905081810360008301526135178184612e9a565b905092915050565b6000602082019050818103600083015261353881612ed3565b9050919050565b6000602082019050818103600083015261355881612ef6565b9050919050565b6000602082019050818103600083015261357881612f19565b9050919050565b6000602082019050818103600083015261359881612f3c565b9050919050565b600060208201905081810360008301526135b881612f5f565b9050919050565b600060208201905081810360008301526135d881612f82565b9050919050565b600060208201905081810360008301526135f881612fa5565b9050919050565b6000602082019050818103600083015261361881612fc8565b9050919050565b6000602082019050818103600083015261363881612feb565b9050919050565b600060208201905081810360008301526136588161300e565b9050919050565b6000602082019050818103600083015261367881613031565b9050919050565b6000602082019050818103600083015261369881613054565b9050919050565b600060208201905081810360008301526136b881613077565b9050919050565b600060208201905081810360008301526136d88161309a565b9050919050565b600060208201905081810360008301526136f8816130bd565b9050919050565b60006020820190508181036000830152613718816130e0565b9050919050565b6000602082019050818103600083015261373881613103565b9050919050565b6000602082019050818103600083015261375881613126565b9050919050565b6000602082019050818103600083015261377881613149565b9050919050565b600060208201905081810360008301526137988161316c565b9050919050565b600060208201905081810360008301526137b88161318f565b9050919050565b600060208201905081810360008301526137d8816131b2565b9050919050565b600060208201905081810360008301526137f8816131d5565b9050919050565b60006020820190508181036000830152613818816131f8565b9050919050565b600060208201905081810360008301526138388161321b565b9050919050565b600060208201905081810360008301526138588161323e565b9050919050565b6000602082019050818103600083015261387881613261565b9050919050565b6000602082019050818103600083015261389881613284565b9050919050565b600060208201905081810360008301526138b8816132a7565b9050919050565b600060208201905081810360008301526138d8816132ca565b9050919050565b600060208201905081810360008301526138f8816132ed565b9050919050565b6000602082019050818103600083015261391881613310565b9050919050565b6000602082019050818103600083015261393881613333565b9050919050565b60006020820190506139546000830184613356565b92915050565b600060608201905061396f6000830186613356565b61397c6020830185613356565b6139896040830184612e2d565b949350505050565b60006080820190506139a66000830187613356565b6139b36020830186613356565b6139c06040830185613356565b6139cd6060830184613356565b95945050505050565b60006020820190506139eb6000830184613365565b92915050565b60006139fb613a0c565b9050613a078282613c9f565b919050565b6000604051905090565b600067ffffffffffffffff821115613a3157613a30613d5d565b5b613a3a82613d8c565b9050602081019050919050565b600081519050919050565b600081519050919050565b600081905092915050565b600082825260208201905092915050565b6000613a8482613bcc565b9150613a8f83613bcc565b9250827fffffffffffffffffffffffffffffffffffffffffffffffffffffffffffffffff03821115613ac457613ac3613cd0565b5b828201905092915050565b6000613ada82613bcc565b9150613ae583613bcc565b925082613af557613af4613cff565b5b828204905092915050565b6000613b0b82613bcc565b9150613b1683613bcc565b9250817fffffffffffffffffffffffffffffffffffffffffffffffffffffffffffffffff0483118215151615613b4f57613b4e613cd0565b5b828202905092915050565b6000613b6582613bcc565b9150613b7083613bcc565b925082821015613b8357613b82613cd0565b5b828203905092915050565b6000613b9982613bac565b9050919050565b60008115159050919050565b600073ffffffffffffffffffffffffffffffffffffffff82169050919050565b6000819050919050565b600060ff82169050919050565b6000613bee82613bf5565b9050919050565b6000613c0082613bac565b9050919050565b6000613c1282613c19565b9050919050565b6000613c2482613bac565b9050919050565b82818337600083830152505050565b60005b83811015613c58578082015181840152602081019050613c3d565b83811115613c67576000848401525b50505050565b60006002820490506001821680613c8557607f821691505b60208210811415613c9957613c98613d2e565b5b50919050565b613ca882613d8c565b810181811067ffffffffffffffff82111715613cc757613cc6613d5d565b5b80604052505050565b7f4e487b7100000000000000000000000000000000000000000000000000000000600052601160045260246000fd5b7f4e487b7100000000000000000000000000000000000000000000000000000000600052601260045260246000fd5b7f4e487b7100000000000000000000000000000000000000000000000000000000600052602260045260246000fd5b7f4e487b7100000000000000000000000000000000000000000000000000000000600052604160045260246000fd5b6000601f19601f8301169050919050565b7f45524332303a207472616e7366657220746f20746865207a65726f206164647260008201527f6573730000000000000000000000000000000000000000000000000000000000602082015250565b7f45524332303a206275726e20616d6f756e7420657863656564732062616c616e60008201527f6365000000000000000000000000000000000000000000000000000000000000602082015250565b7f4f776e61626c653a206e6577206f776e657220697320746865207a65726f206160008201527f6464726573730000000000000000000000000000000000000000000000000000602082015250565b7f45524332303a20617070726f766520746f20746865207a65726f20616464726560008201527f7373000000000000000000000000000000000000000000000000000000000000602082015250565b7f45524332303a20696e73756666696369656e7420616c6c6f77616e6365000000600082015250565b7f426f72726f77696e6720616d6f756e74206d75737420626520706f736974697660008201527f6500000000000000000000000000000000000000000000000000000000000000602082015250565b7f526571756573746564206d6f7265207468656e20617661696c61626c6520666f60008201527f72206120626f72726f77696e6700000000000000000000000000000000000000602082015250565b7f45524332303a207472616e7366657220616d6f756e742065786365656473206260008201527f616c616e63650000000000000000000000000000000000000000000000000000602082015250565b7f496e636f72726563742063616c6375616c74696f6e206f66207368617265732060008201527f647572696e6720697373696e6700000000000000000000000000000000000000602082015250565b7f53686172657320616d6f756e74206d757374206265206e6f6e2d7a65726f0000600082015250565b7f4d6f726520736861726573207370656369666965642c2073656e646572206e6f60008201527f74206861766520656e6f75676800000000000000000000000000000000000000602082015250565b7f416464726573733a20696e73756666696369656e742062616c616e636520666f60008201527f722063616c6c0000000000000000000000000000000000000000000000000000602082015250565b7f466f72206465706f73697420616d6f756e74206d757374206265206e6f6e2d7a60008201527f65726f0000000000000000000000000000000000000000000000000000000000602082015250565b7f537472617465677920646f206e6f742077616e74207661756c7420617373657460008201527f7300000000000000000000000000000000000000000000000000000000000000602082015250565b7f496e697469616c697a61626c653a20636f6e747261637420697320616c72656160008201527f647920696e697469616c697a6564000000000000000000000000000000000000602082015250565b7f546f74616c206c6f737320626967676572207468616e2061636365707461626c60008201527f65206d61784c6f73730000000000000000000000000000000000000000000000602082015250565b7f5368617265732077686963682077696c6c206265206275726e2077697468206c60008201527f6f7373657320697320626967676572207468616e20676976656e206d6178536860208201527f6172657300000000000000000000000000000000000000000000000000000000604082015250565b7f496e636f72726563742063616c6375616c74696f6e206f66207368617265277360008201527f2076616c75650000000000000000000000000000000000000000000000000000602082015250565b7f4f776e61626c653a2063616c6c6572206973206e6f7420746865206f776e6572600082015250565b7f6d61784c6f737320697320626967676572203130302500000000000000000000600082015250565b7f45524332303a206275726e2066726f6d20746865207a65726f2061646472657360008201527f7300000000000000000000000000000000000000000000000000000000000000602082015250565b7f4c656e6465723a2063616c6c6572206973206e6f742061207374726174656779600082015250565b7f45524332303a207472616e736665722066726f6d20746865207a65726f20616460008201527f6472657373000000000000000000000000000000000000000000000000000000602082015250565b7f45524332303a20617070726f76652066726f6d20746865207a65726f2061646460008201527f7265737300000000000000000000000000000000000000000000000000000000602082015250565b7f416464726573733a2063616c6c20746f206e6f6e2d636f6e7472616374000000600082015250565b7f466f722069737375652073686172657320616d6f756e74206d7573742062652060008201527f6e6f6e2d7a65726f000000000000000000000000000000000000000000000000602082015250565b7f496e697469616c697a61626c653a20636f6e7472616374206973206e6f74206960008201527f6e697469616c697a696e67000000000000000000000000000000000000000000602082015250565b7f5361666545524332303a204552433230206f7065726174696f6e20646964206e60008201527f6f74207375636365656400000000000000000000000000000000000000000000602082015250565b7f5265656e7472616e637947756172643a207265656e7472616e742063616c6c00600082015250565b7f43616e6e6f742063616c6375616c74652076616c756520666f72206e6f74206560008201527f78697374696e6720736861726573000000000000000000000000000000000000602082015250565b7f45524332303a2064656372656173656420616c6c6f77616e63652062656c6f7760008201527f207a65726f000000000000000000000000000000000000000000000000000000602082015250565b7f466f7220657374696d6174652076616c75652073686172657320616d6f756e7460008201527f206d757374206265206e6f6e2d7a65726f000000000000000000000000000000602082015250565b7f45524332303a206d696e7420746f20746865207a65726f206164647265737300600082015250565b6146cb81613b8e565b81146146d657600080fd5b50565b6146e281613ba0565b81146146ed57600080fd5b50565b6146f981613bcc565b811461470457600080fd5b5056fea26469706673582212205ac755e4526e6605f9e594b949ccab02116c72e2f8a78424c7d0346b77a6fed564736f6c63430008040033",
  "devdoc": {
    "kind": "dev",
    "methods": {
      "allowance(address,address)": {
        "details": "See {IERC20-allowance}."
      },
      "approve(address,uint256)": {
        "details": "See {IERC20-approve}. NOTE: If `amount` is the maximum `uint256`, the allowance is not updated on `transferFrom`. This is semantically equivalent to an infinite approval. Requirements: - `spender` cannot be the zero address."
      },
      "balanceOf(address)": {
        "details": "See {IERC20-balanceOf}."
      },
      "burn(uint256)": {
        "details": "Destroys `amount` tokens from the caller. See {ERC20-_burn}."
      },
      "burnFrom(address,uint256)": {
        "details": "Destroys `amount` tokens from `account`, deducting from the caller's allowance. See {ERC20-_burn} and {ERC20-allowance}. Requirements: - the caller must have allowance for ``accounts``'s tokens of at least `amount`."
      },
      "decimals()": {
        "details": "Returns the number of decimals used to get its user representation. For example, if `decimals` equals `2`, a balance of `505` tokens should be displayed to a user as `5.05` (`505 / 10 ** 2`). Tokens usually opt for a value of 18, imitating the relationship between Ether and Wei. This is the value {ERC20} uses, unless this function is overridden; NOTE: This information is only used for _display_ purposes: it in no way affects any of the arithmetic of the contract, including {IERC20-balanceOf} and {IERC20-transfer}."
      },
      "decreaseAllowance(address,uint256)": {
        "details": "Atomically decreases the allowance granted to `spender` by the caller. This is an alternative to {approve} that can be used as a mitigation for problems described in {IERC20-approve}. Emits an {Approval} event indicating the updated allowance. Requirements: - `spender` cannot be the zero address. - `spender` must have allowance for the caller of at least `subtractedValue`."
      },
      "increaseAllowance(address,uint256)": {
        "details": "Atomically increases the allowance granted to `spender` by the caller. This is an alternative to {approve} that can be used as a mitigation for problems described in {IERC20-approve}. Emits an {Approval} event indicating the updated allowance. Requirements: - `spender` cannot be the zero address."
      },
      "name()": {
        "details": "Returns the name of the token."
      },
      "owner()": {
        "details": "Returns the address of the current owner."
      },
      "renounceOwnership()": {
        "details": "Leaves the contract without owner. It will not be possible to call `onlyOwner` functions anymore. Can only be called by the current owner. NOTE: Renouncing ownership will leave the contract without an owner, thereby removing any functionality that is only available to the owner."
      },
      "symbol()": {
        "details": "Returns the symbol of the token, usually a shorter version of the name."
      },
      "totalSupply()": {
        "details": "See {IERC20-totalSupply}."
      },
      "transfer(address,uint256)": {
        "details": "See {IERC20-transfer}. Requirements: - `to` cannot be the zero address. - the caller must have a balance of at least `amount`."
      },
      "transferFrom(address,address,uint256)": {
        "details": "See {IERC20-transferFrom}. Emits an {Approval} event indicating the updated allowance. This is not required by the EIP. See the note at the beginning of {ERC20}. NOTE: Does not update the allowance if the current allowance is the maximum `uint256`. Requirements: - `from` and `to` cannot be the zero address. - `from` must have a balance of at least `amount`. - the caller must have allowance for ``from``'s tokens of at least `amount`."
      },
      "transferOwnership(address)": {
        "details": "Transfers ownership of the contract to a new account (`newOwner`). Can only be called by the current owner."
      },
      "withdraw(uint256,uint256)": {
        "params": {
          "maxLoss": "- The maximum acceptable loss to sustain on withdrawal.  Up to that amount of shares can be burnt to cover losses on withdrawal.  Represented in uint256, where 1 equal 0.01%.",
          "maxShares": "- How many shares to try redeem for tokens, if will be not possible redeem all, then will be redeemed only available partially"
        }
      }
    },
    "version": 1
  },
  "userdoc": {
    "events": {
      "Borrowed(address,uint256,uint256,uint256)": {
        "notice": "Emit when strategy borrow some assets"
      },
      "Deposit(uint256,uint256,address)": {
        "notice": "Fired when new amount of tokens deposited and shares a issued for holder"
      },
      "ReturnFromStrategy(uint256,uint256,uint256,uint256)": {
        "notice": "Emit when assets returned from strategy"
      },
      "Withdraw(address,uint256,uint256,uint256,uint256,uint256)": {
        "notice": "Fired when assets for a given shares a withdrawn"
      }
    },
    "kind": "user",
    "methods": {
      "assets()": {
        "notice": "Contract of token which will be stored in this vault"
      },
      "borrow(uint256)": {
        "notice": "Strategy can requests some credit which then must return"
      },
      "creditAvailable()": {
        "notice": "Estimate how much strategy can borrow from this Lender."
      },
      "deposit(uint256)": {
        "notice": "Add deposit to fund storage and issues shares for a recepient Mint shares based on expected value under control at the moment Not collect real assets from borrowers, as it allow manipulate issue rate Will transfer `amount` of tokens from `message sender` and issue shares to him"
      },
      "initialize(string,string,address,address)": {
        "notice": "name - name of the token symbol - token symbol storageTokenAddress - address of ERC20 token contract which will be stored in fund strategyAddress - address of strategy which will stake tokens"
      },
      "totalAssets()": {
        "notice": "Returns the total quantity of all assets under control of this fund, whether they're loaned out to a strategy, or currently held in the fund."
      },
      "totalDebt()": {
        "notice": "Amount of tokens that all strategies have borrowed."
      },
      "withdraw(uint256,uint256)": {
        "notice": "Withdraws the calling account's tokens from this Vault, redeeming  amount `maxShares` for an appropriate amount of tokens.  As holder address will be used message sender"
      }
    },
    "notice": "Simple investment vault, which allow store tokens in vault Tokens can be borrowed by strategy and returned with percents And vault allow widthdraw tokens in proportion of shares which user have",
    "version": 1
  },
  "storageLayout": {
    "storage": [
      {
        "astId": 130,
        "contract": "contracts/InvestmentVault.sol:InvestmentVault",
        "label": "_initialized",
        "offset": 0,
        "slot": "0",
        "type": "t_bool"
      },
      {
        "astId": 133,
        "contract": "contracts/InvestmentVault.sol:InvestmentVault",
        "label": "_initializing",
        "offset": 1,
        "slot": "0",
        "type": "t_bool"
      },
      {
        "astId": 3422,
        "contract": "contracts/InvestmentVault.sol:InvestmentVault",
        "label": "assets",
        "offset": 2,
        "slot": "0",
        "type": "t_contract(IERC20Upgradeable)947"
      },
      {
        "astId": 1544,
        "contract": "contracts/InvestmentVault.sol:InvestmentVault",
        "label": "__gap",
        "offset": 0,
        "slot": "1",
        "type": "t_array(t_uint256)50_storage"
      },
      {
        "astId": 275,
        "contract": "contracts/InvestmentVault.sol:InvestmentVault",
        "label": "_balances",
        "offset": 0,
        "slot": "51",
        "type": "t_mapping(t_address,t_uint256)"
      },
      {
        "astId": 281,
        "contract": "contracts/InvestmentVault.sol:InvestmentVault",
        "label": "_allowances",
        "offset": 0,
        "slot": "52",
        "type": "t_mapping(t_address,t_mapping(t_address,t_uint256))"
      },
      {
        "astId": 283,
        "contract": "contracts/InvestmentVault.sol:InvestmentVault",
        "label": "_totalSupply",
        "offset": 0,
        "slot": "53",
        "type": "t_uint256"
      },
      {
        "astId": 285,
        "contract": "contracts/InvestmentVault.sol:InvestmentVault",
        "label": "_name",
        "offset": 0,
        "slot": "54",
        "type": "t_string_storage"
      },
      {
        "astId": 287,
        "contract": "contracts/InvestmentVault.sol:InvestmentVault",
        "label": "_symbol",
        "offset": 0,
        "slot": "55",
        "type": "t_string_storage"
      },
      {
        "astId": 868,
        "contract": "contracts/InvestmentVault.sol:InvestmentVault",
        "label": "__gap",
        "offset": 0,
        "slot": "56",
        "type": "t_array(t_uint256)45_storage"
      },
      {
        "astId": 1010,
        "contract": "contracts/InvestmentVault.sol:InvestmentVault",
        "label": "__gap",
        "offset": 0,
        "slot": "101",
        "type": "t_array(t_uint256)50_storage"
      },
      {
        "astId": 10,
        "contract": "contracts/InvestmentVault.sol:InvestmentVault",
        "label": "_owner",
        "offset": 0,
        "slot": "151",
        "type": "t_address"
      },
      {
        "astId": 122,
        "contract": "contracts/InvestmentVault.sol:InvestmentVault",
        "label": "__gap",
        "offset": 0,
        "slot": "152",
        "type": "t_array(t_uint256)49_storage"
      },
      {
        "astId": 211,
        "contract": "contracts/InvestmentVault.sol:InvestmentVault",
        "label": "_status",
        "offset": 0,
        "slot": "201",
        "type": "t_uint256"
      },
      {
        "astId": 255,
        "contract": "contracts/InvestmentVault.sol:InvestmentVault",
        "label": "__gap",
        "offset": 0,
        "slot": "202",
        "type": "t_array(t_uint256)49_storage"
      },
      {
        "astId": 3202,
        "contract": "contracts/InvestmentVault.sol:InvestmentVault",
        "label": "totalDebt",
        "offset": 0,
        "slot": "251",
        "type": "t_uint256"
      },
      {
        "astId": 3205,
        "contract": "contracts/InvestmentVault.sol:InvestmentVault",
        "label": "strategy",
        "offset": 0,
        "slot": "252",
        "type": "t_contract(IBorrower)3010"
      }
    ],
    "types": {
      "t_address": {
        "encoding": "inplace",
        "label": "address",
        "numberOfBytes": "20"
      },
      "t_array(t_uint256)45_storage": {
        "base": "t_uint256",
        "encoding": "inplace",
        "label": "uint256[45]",
        "numberOfBytes": "1440"
      },
      "t_array(t_uint256)49_storage": {
        "base": "t_uint256",
        "encoding": "inplace",
        "label": "uint256[49]",
        "numberOfBytes": "1568"
      },
      "t_array(t_uint256)50_storage": {
        "base": "t_uint256",
        "encoding": "inplace",
        "label": "uint256[50]",
        "numberOfBytes": "1600"
      },
      "t_bool": {
        "encoding": "inplace",
        "label": "bool",
        "numberOfBytes": "1"
      },
      "t_contract(IBorrower)3010": {
        "encoding": "inplace",
        "label": "contract IBorrower",
        "numberOfBytes": "20"
      },
      "t_contract(IERC20Upgradeable)947": {
        "encoding": "inplace",
        "label": "contract IERC20Upgradeable",
        "numberOfBytes": "20"
      },
      "t_mapping(t_address,t_mapping(t_address,t_uint256))": {
        "encoding": "mapping",
        "key": "t_address",
        "label": "mapping(address => mapping(address => uint256))",
        "numberOfBytes": "32",
        "value": "t_mapping(t_address,t_uint256)"
      },
      "t_mapping(t_address,t_uint256)": {
        "encoding": "mapping",
        "key": "t_address",
        "label": "mapping(address => uint256)",
        "numberOfBytes": "32",
        "value": "t_uint256"
      },
      "t_string_storage": {
        "encoding": "bytes",
        "label": "string",
        "numberOfBytes": "32"
      },
      "t_uint256": {
        "encoding": "inplace",
        "label": "uint256",
        "numberOfBytes": "32"
      }
    }
  }
}