{
  "address": "0xaB7B4c595d3cE8C85e16DA86630f2fc223B05057",
  "abi": [
    {
      "anonymous": false,
      "inputs": [
        {
          "indexed": true,
          "internalType": "address",
          "name": "owner",
          "type": "address"
        },
        {
          "indexed": true,
          "internalType": "address",
          "name": "spender",
          "type": "address"
        },
        {
          "indexed": false,
          "internalType": "uint256",
          "name": "value",
          "type": "uint256"
        }
      ],
      "name": "Approval",
      "type": "event"
    },
    {
      "anonymous": false,
      "inputs": [
        {
          "indexed": false,
          "internalType": "address",
          "name": "strategy",
          "type": "address"
        },
        {
          "indexed": false,
          "internalType": "uint256",
          "name": "amount",
          "type": "uint256"
        },
        {
          "indexed": false,
          "internalType": "uint256",
          "name": "strategyTotalAssets",
          "type": "uint256"
        },
        {
          "indexed": false,
          "internalType": "uint256",
          "name": "totalDebt",
          "type": "uint256"
        }
      ],
      "name": "Borrowed",
      "type": "event"
    },
    {
      "anonymous": false,
      "inputs": [
        {
          "indexed": false,
          "internalType": "uint256",
          "name": "amount",
          "type": "uint256"
        },
        {
          "indexed": false,
          "internalType": "uint256",
          "name": "shares",
          "type": "uint256"
        },
        {
          "indexed": false,
          "internalType": "address",
          "name": "holder",
          "type": "address"
        }
      ],
      "name": "Deposit",
      "type": "event"
    },
    {
      "anonymous": false,
      "inputs": [
        {
          "indexed": true,
          "internalType": "address",
          "name": "previousOwner",
          "type": "address"
        },
        {
          "indexed": true,
          "internalType": "address",
          "name": "newOwner",
          "type": "address"
        }
      ],
      "name": "OwnershipTransferred",
      "type": "event"
    },
    {
      "anonymous": false,
      "inputs": [
        {
          "indexed": false,
          "internalType": "uint256",
          "name": "previusBalance",
          "type": "uint256"
        },
        {
          "indexed": false,
          "internalType": "uint256",
          "name": "targetBalance",
          "type": "uint256"
        },
        {
          "indexed": false,
          "internalType": "uint256",
          "name": "requestedAmount",
          "type": "uint256"
        },
        {
          "indexed": false,
          "internalType": "uint256",
          "name": "loss",
          "type": "uint256"
        }
      ],
      "name": "ReturnFromStrategy",
      "type": "event"
    },
    {
      "anonymous": false,
      "inputs": [
        {
          "indexed": true,
          "internalType": "address",
          "name": "from",
          "type": "address"
        },
        {
          "indexed": true,
          "internalType": "address",
          "name": "to",
          "type": "address"
        },
        {
          "indexed": false,
          "internalType": "uint256",
          "name": "value",
          "type": "uint256"
        }
      ],
      "name": "Transfer",
      "type": "event"
    },
    {
      "anonymous": false,
      "inputs": [
        {
          "indexed": false,
          "internalType": "address",
          "name": "holder",
          "type": "address"
        },
        {
          "indexed": false,
          "internalType": "uint256",
          "name": "maxShares",
          "type": "uint256"
        },
        {
          "indexed": false,
          "internalType": "uint256",
          "name": "maxLoss",
          "type": "uint256"
        },
        {
          "indexed": false,
          "internalType": "uint256",
          "name": "shares",
          "type": "uint256"
        },
        {
          "indexed": false,
          "internalType": "uint256",
          "name": "amount",
          "type": "uint256"
        },
        {
          "indexed": false,
          "internalType": "uint256",
          "name": "totalShares",
          "type": "uint256"
        }
      ],
      "name": "Withdraw",
      "type": "event"
    },
    {
      "inputs": [
        {
          "internalType": "address",
          "name": "owner",
          "type": "address"
        },
        {
          "internalType": "address",
          "name": "spender",
          "type": "address"
        }
      ],
      "name": "allowance",
      "outputs": [
        {
          "internalType": "uint256",
          "name": "",
          "type": "uint256"
        }
      ],
      "stateMutability": "view",
      "type": "function"
    },
    {
      "inputs": [
        {
          "internalType": "address",
          "name": "spender",
          "type": "address"
        },
        {
          "internalType": "uint256",
          "name": "amount",
          "type": "uint256"
        }
      ],
      "name": "approve",
      "outputs": [
        {
          "internalType": "bool",
          "name": "",
          "type": "bool"
        }
      ],
      "stateMutability": "nonpayable",
      "type": "function"
    },
    {
      "inputs": [],
      "name": "assets",
      "outputs": [
        {
          "internalType": "contract IERC20Upgradeable",
          "name": "",
          "type": "address"
        }
      ],
      "stateMutability": "view",
      "type": "function"
    },
    {
      "inputs": [
        {
          "internalType": "address",
          "name": "account",
          "type": "address"
        }
      ],
      "name": "balanceOf",
      "outputs": [
        {
          "internalType": "uint256",
          "name": "",
          "type": "uint256"
        }
      ],
      "stateMutability": "view",
      "type": "function"
    },
    {
      "inputs": [
        {
          "internalType": "uint256",
          "name": "amount",
          "type": "uint256"
        }
      ],
      "name": "borrow",
      "outputs": [],
      "stateMutability": "nonpayable",
      "type": "function"
    },
    {
      "inputs": [
        {
          "internalType": "uint256",
          "name": "amount",
          "type": "uint256"
        }
      ],
      "name": "burn",
      "outputs": [],
      "stateMutability": "nonpayable",
      "type": "function"
    },
    {
      "inputs": [
        {
          "internalType": "address",
          "name": "account",
          "type": "address"
        },
        {
          "internalType": "uint256",
          "name": "amount",
          "type": "uint256"
        }
      ],
      "name": "burnFrom",
      "outputs": [],
      "stateMutability": "nonpayable",
      "type": "function"
    },
    {
      "inputs": [],
      "name": "creditAvailable",
      "outputs": [
        {
          "internalType": "uint256",
          "name": "",
          "type": "uint256"
        }
      ],
      "stateMutability": "view",
      "type": "function"
    },
    {
      "inputs": [],
      "name": "decimals",
      "outputs": [
        {
          "internalType": "uint8",
          "name": "",
          "type": "uint8"
        }
      ],
      "stateMutability": "view",
      "type": "function"
    },
    {
      "inputs": [
        {
          "internalType": "address",
          "name": "spender",
          "type": "address"
        },
        {
          "internalType": "uint256",
          "name": "subtractedValue",
          "type": "uint256"
        }
      ],
      "name": "decreaseAllowance",
      "outputs": [
        {
          "internalType": "bool",
          "name": "",
          "type": "bool"
        }
      ],
      "stateMutability": "nonpayable",
      "type": "function"
    },
    {
      "inputs": [
        {
          "internalType": "uint256",
          "name": "amount",
          "type": "uint256"
        }
      ],
      "name": "deposit",
      "outputs": [
        {
          "internalType": "uint256",
          "name": "",
          "type": "uint256"
        }
      ],
      "stateMutability": "nonpayable",
      "type": "function"
    },
    {
      "inputs": [
        {
          "internalType": "address",
          "name": "spender",
          "type": "address"
        },
        {
          "internalType": "uint256",
          "name": "addedValue",
          "type": "uint256"
        }
      ],
      "name": "increaseAllowance",
      "outputs": [
        {
          "internalType": "bool",
          "name": "",
          "type": "bool"
        }
      ],
      "stateMutability": "nonpayable",
      "type": "function"
    },
    {
      "inputs": [
        {
          "internalType": "string",
          "name": "name",
          "type": "string"
        },
        {
          "internalType": "string",
          "name": "symbol",
          "type": "string"
        },
        {
          "internalType": "address",
          "name": "storageTokenAddress",
          "type": "address"
        }
      ],
      "name": "initialize",
      "outputs": [],
      "stateMutability": "nonpayable",
      "type": "function"
    },
    {
      "inputs": [
        {
          "internalType": "address",
          "name": "strategyAddress",
          "type": "address"
        },
        {
          "internalType": "address",
          "name": "storageTokenAddress",
          "type": "address"
        }
      ],
      "name": "initialize",
      "outputs": [],
      "stateMutability": "nonpayable",
      "type": "function"
    },
    {
      "inputs": [
        {
          "internalType": "string",
          "name": "name",
          "type": "string"
        },
        {
          "internalType": "string",
          "name": "symbol",
          "type": "string"
        },
        {
          "internalType": "address",
          "name": "storageTokenAddress",
          "type": "address"
        },
        {
          "internalType": "address",
          "name": "strategyAddress",
          "type": "address"
        }
      ],
      "name": "initialize",
      "outputs": [],
      "stateMutability": "nonpayable",
      "type": "function"
    },
    {
      "inputs": [],
      "name": "name",
      "outputs": [
        {
          "internalType": "string",
          "name": "",
          "type": "string"
        }
      ],
      "stateMutability": "view",
      "type": "function"
    },
    {
      "inputs": [],
      "name": "owner",
      "outputs": [
        {
          "internalType": "address",
          "name": "",
          "type": "address"
        }
      ],
      "stateMutability": "view",
      "type": "function"
    },
    {
      "inputs": [],
      "name": "renounceOwnership",
      "outputs": [],
      "stateMutability": "nonpayable",
      "type": "function"
    },
    {
      "inputs": [
        {
          "internalType": "address",
          "name": "strategyAddress",
          "type": "address"
        }
      ],
      "name": "setStrategy",
      "outputs": [],
      "stateMutability": "nonpayable",
      "type": "function"
    },
    {
      "inputs": [],
      "name": "strategy",
      "outputs": [
        {
          "internalType": "contract IBorrower",
          "name": "",
          "type": "address"
        }
      ],
      "stateMutability": "view",
      "type": "function"
    },
    {
      "inputs": [],
      "name": "symbol",
      "outputs": [
        {
          "internalType": "string",
          "name": "",
          "type": "string"
        }
      ],
      "stateMutability": "view",
      "type": "function"
    },
    {
      "inputs": [],
      "name": "totalAssets",
      "outputs": [
        {
          "internalType": "uint256",
          "name": "",
          "type": "uint256"
        }
      ],
      "stateMutability": "view",
      "type": "function"
    },
    {
      "inputs": [],
      "name": "totalDebt",
      "outputs": [
        {
          "internalType": "uint256",
          "name": "",
          "type": "uint256"
        }
      ],
      "stateMutability": "view",
      "type": "function"
    },
    {
      "inputs": [],
      "name": "totalSupply",
      "outputs": [
        {
          "internalType": "uint256",
          "name": "",
          "type": "uint256"
        }
      ],
      "stateMutability": "view",
      "type": "function"
    },
    {
      "inputs": [
        {
          "internalType": "address",
          "name": "to",
          "type": "address"
        },
        {
          "internalType": "uint256",
          "name": "amount",
          "type": "uint256"
        }
      ],
      "name": "transfer",
      "outputs": [
        {
          "internalType": "bool",
          "name": "",
          "type": "bool"
        }
      ],
      "stateMutability": "nonpayable",
      "type": "function"
    },
    {
      "inputs": [
        {
          "internalType": "address",
          "name": "from",
          "type": "address"
        },
        {
          "internalType": "address",
          "name": "to",
          "type": "address"
        },
        {
          "internalType": "uint256",
          "name": "amount",
          "type": "uint256"
        }
      ],
      "name": "transferFrom",
      "outputs": [
        {
          "internalType": "bool",
          "name": "",
          "type": "bool"
        }
      ],
      "stateMutability": "nonpayable",
      "type": "function"
    },
    {
      "inputs": [
        {
          "internalType": "address",
          "name": "newOwner",
          "type": "address"
        }
      ],
      "name": "transferOwnership",
      "outputs": [],
      "stateMutability": "nonpayable",
      "type": "function"
    },
    {
      "inputs": [
        {
          "internalType": "uint256",
          "name": "maxShares",
          "type": "uint256"
        },
        {
          "internalType": "uint256",
          "name": "maxLoss",
          "type": "uint256"
        }
      ],
      "name": "withdraw",
      "outputs": [
        {
          "internalType": "uint256",
          "name": "",
          "type": "uint256"
        }
      ],
      "stateMutability": "nonpayable",
      "type": "function"
    }
  ],
  "transactionHash": "0x32585a2566a3bc9faf7ab02015808b86ad0973e7ce80ce6d36c222521b8b020a",
  "args": [],
  "numDeployments": 1,
  "solcInputHash": "70de806827e755a5c7cf2f2cf781a0c8",
  "bytecode": "0x60806040523480156200001157600080fd5b50600060019054906101000a900460ff166200003c5760008054906101000a900460ff16156200004d565b6200004c6200010960201b60201c565b5b6200008f576040517f08c379a0000000000000000000000000000000000000000000000000000000008152600401620000869062000171565b60405180910390fd5b60008060019054906101000a900460ff161590508015620000e0576001600060016101000a81548160ff02191690831515021790555060016000806101000a81548160ff0219169083151502179055505b8015620001025760008060016101000a81548160ff0219169083151502179055505b50620001f3565b600062000121306200012760201b620016f71760201c565b15905090565b6000808273ffffffffffffffffffffffffffffffffffffffff163b119050919050565b600062000159602e8362000193565b91506200016682620001a4565b604082019050919050565b600060208201905081810360008301526200018c816200014a565b9050919050565b600082825260208201905092915050565b7f496e697469616c697a61626c653a20636f6e747261637420697320616c72656160008201527f647920696e697469616c697a6564000000000000000000000000000000000000602082015250565b614a1c80620002036000396000f3fe608060405234801561001057600080fd5b50600436106101c45760003560e01c8063715018a6116100f9578063a8c62e7611610097578063c5ebeaec11610071578063c5ebeaec14610509578063dd62ed3e14610525578063f2fde38b14610555578063fc7b9c1814610571576101c4565b8063a8c62e761461048b578063a9059cbb146104a9578063b6b55f25146104d9576101c4565b80638da5cb5b116100d35780638da5cb5b146104035780638f15b4141461042157806395d89b411461043d578063a457c2d71461045b576101c4565b8063715018a6146103bf57806371a97305146103c957806379cc6790146103e7576101c4565b8063313ce5671161016657806342966c681161014057806342966c6814610327578063441a3e7014610343578063485cc9551461037357806370a082311461038f576101c4565b8063313ce567146102bd57806333a100ca146102db57806339509351146102f7576101c4565b8063095ea7b3116101a2578063095ea7b314610221578063112c1f9b1461025157806318160ddd1461026f57806323b872dd1461028d576101c4565b806301e1d114146101c957806306fdde03146101e7578063077f224a14610205575b600080fd5b6101d161058f565b6040516101de9190613c1e565b60405180910390f35b6101ef610648565b6040516101fc91906137dc565b60405180910390f35b61021f600480360381019061021a9190612f6c565b6106da565b005b61023b60048036038101906102369190612f07565b6107cc565b604051610248919061378b565b60405180910390f35b6102596107ef565b6040516102669190613c1e565b60405180910390f35b610277610895565b6040516102849190613c1e565b60405180910390f35b6102a760048036038101906102a29190612eb8565b61089f565b6040516102b4919061378b565b60405180910390f35b6102c56108ce565b6040516102d29190613cb5565b60405180910390f35b6102f560048036038101906102f09190612e2a565b6108d7565b005b610311600480360381019061030c9190612f07565b610ac6565b60405161031e919061378b565b60405180910390f35b610341600480360381019061033c919061307e565b610b70565b005b61035d600480360381019061035891906130d0565b610b84565b60405161036a9190613c1e565b60405180910390f35b61038d60048036038101906103889190612e7c565b610d1d565b005b6103a960048036038101906103a49190612e2a565b610e1d565b6040516103b69190613c1e565b60405180910390f35b6103c7610e66565b005b6103d1610eee565b6040516103de91906137c1565b60405180910390f35b61040160048036038101906103fc9190612f07565b610f14565b005b61040b610f34565b604051610418919061366a565b60405180910390f35b61043b60048036038101906104369190612feb565b610f5e565b005b61044561105a565b60405161045291906137dc565b60405180910390f35b61047560048036038101906104709190612f07565b6110ec565b604051610482919061378b565b60405180910390f35b6104936111d6565b6040516104a091906137a6565b60405180910390f35b6104c360048036038101906104be9190612f07565b6111fc565b6040516104d0919061378b565b60405180910390f35b6104f360048036038101906104ee919061307e565b61121f565b6040516105009190613c1e565b60405180910390f35b610523600480360381019061051e919061307e565b611316565b005b61053f600480360381019061053a9190612e7c565b611572565b60405161054c9190613c1e565b60405180910390f35b61056f600480360381019061056a9190612e2a565b6115f9565b005b6105796116f1565b6040516105869190613c1e565b60405180910390f35b600060fc60009054906101000a900473ffffffffffffffffffffffffffffffffffffffff1673ffffffffffffffffffffffffffffffffffffffff166301e1d1146040518163ffffffff1660e01b815260040160206040518083038186803b1580156105f957600080fd5b505afa15801561060d573d6000803e3d6000fd5b505050506040513d601f19601f8201168201806040525081019061063191906130a7565b61063961171a565b6106439190613d58565b905090565b60606036805461065790613f4c565b80601f016020809104026020016040519081016040528092919081815260200182805461068390613f4c565b80156106d05780601f106106a5576101008083540402835291602001916106d0565b820191906000526020600020905b8154815290600101906020018083116106b357829003601f168201915b5050505050905090565b600060019054906101000a900460ff166107025760008054906101000a900460ff161561070b565b61070a6117cb565b5b61074a576040517f08c379a0000000000000000000000000000000000000000000000000000000008152600401610741906139be565b60405180910390fd5b60008060019054906101000a900460ff16159050801561079a576001600060016101000a81548160ff02191690831515021790555060016000806101000a81548160ff0219169083151502179055505b6107a58484846117dc565b80156107c65760008060016101000a81548160ff0219169083151502179055505b50505050565b6000806107d7611804565b90506107e481858561180c565b600191505092915050565b60006107f9611804565b73ffffffffffffffffffffffffffffffffffffffff1660fc60009054906101000a900473ffffffffffffffffffffffffffffffffffffffff1673ffffffffffffffffffffffffffffffffffffffff1614610888576040517f08c379a000000000000000000000000000000000000000000000000000000000815260040161087f90613a9e565b60405180910390fd5b61089061171a565b905090565b6000603554905090565b6000806108aa611804565b90506108b78582856119d7565b6108c2858585611a63565b60019150509392505050565b60006012905090565b6108df611804565b73ffffffffffffffffffffffffffffffffffffffff166108fd610f34565b73ffffffffffffffffffffffffffffffffffffffff1614610953576040517f08c379a000000000000000000000000000000000000000000000000000000000815260040161094a90613a3e565b60405180910390fd5b8060fc60006101000a81548173ffffffffffffffffffffffffffffffffffffffff021916908373ffffffffffffffffffffffffffffffffffffffff160217905550600060029054906101000a900473ffffffffffffffffffffffffffffffffffffffff1673ffffffffffffffffffffffffffffffffffffffff1660fc60009054906101000a900473ffffffffffffffffffffffffffffffffffffffff1673ffffffffffffffffffffffffffffffffffffffff16631f1fcd516040518163ffffffff1660e01b815260040160206040518083038186803b158015610a3557600080fd5b505afa158015610a49573d6000803e3d6000fd5b505050506040513d601f19601f82011682018060405250810190610a6d9190612e53565b73ffffffffffffffffffffffffffffffffffffffff1614610ac3576040517f08c379a0000000000000000000000000000000000000000000000000000000008152600401610aba9061399e565b60405180910390fd5b50565b600080610ad1611804565b9050610b65818585603460008673ffffffffffffffffffffffffffffffffffffffff1673ffffffffffffffffffffffffffffffffffffffff16815260200190815260200160002060008973ffffffffffffffffffffffffffffffffffffffff1673ffffffffffffffffffffffffffffffffffffffff16815260200190815260200160002054610b609190613d58565b61180c565b600191505092915050565b610b81610b7b611804565b82611ce7565b50565b6000600260c9541415610bcc576040517f08c379a0000000000000000000000000000000000000000000000000000000008152600401610bc390613b7e565b60405180910390fd5b600260c98190555060008311610c17576040517f08c379a0000000000000000000000000000000000000000000000000000000008152600401610c0e9061391e565b60405180910390fd5b612710821115610c5c576040517f08c379a0000000000000000000000000000000000000000000000000000000008152600401610c5390613a5e565b60405180910390fd5b610c6533610e1d565b831115610ca7576040517f08c379a0000000000000000000000000000000000000000000000000000000008152600401610c9e9061393e565b60405180910390fd5b600080610cb48585611ec0565b91509150610cc23382611fe4565b7fb7ee00edafdb5db3a1b52a5789a6b562eb48268842d113dbfe860b6f86e5f5953386868585610cf0610895565b604051610d029695949392919061372a565b60405180910390a18092505050600160c98190555092915050565b600060019054906101000a900460ff16610d455760008054906101000a900460ff1615610d4e565b610d4d6117cb565b5b610d8d576040517f08c379a0000000000000000000000000000000000000000000000000000000008152600401610d84906139be565b60405180910390fd5b60008060019054906101000a900460ff161590508015610ddd576001600060016101000a81548160ff02191690831515021790555060016000806101000a81548160ff0219169083151502179055505b610de5612035565b610dee8261208e565b610df7836121b4565b8015610e185760008060016101000a81548160ff0219169083151502179055505b505050565b6000603360008373ffffffffffffffffffffffffffffffffffffffff1673ffffffffffffffffffffffffffffffffffffffff168152602001908152602001600020549050919050565b610e6e611804565b73ffffffffffffffffffffffffffffffffffffffff16610e8c610f34565b73ffffffffffffffffffffffffffffffffffffffff1614610ee2576040517f08c379a0000000000000000000000000000000000000000000000000000000008152600401610ed990613a3e565b60405180910390fd5b610eec60006121c0565b565b600060029054906101000a900473ffffffffffffffffffffffffffffffffffffffff1681565b610f2682610f20611804565b836119d7565b610f308282611ce7565b5050565b6000609760009054906101000a900473ffffffffffffffffffffffffffffffffffffffff16905090565b600060019054906101000a900460ff16610f865760008054906101000a900460ff1615610f8f565b610f8e6117cb565b5b610fce576040517f08c379a0000000000000000000000000000000000000000000000000000000008152600401610fc5906139be565b60405180910390fd5b60008060019054906101000a900460ff16159050801561101e576001600060016101000a81548160ff02191690831515021790555060016000806101000a81548160ff0219169083151502179055505b6110298585856117dc565b611032826121b4565b80156110535760008060016101000a81548160ff0219169083151502179055505b5050505050565b60606037805461106990613f4c565b80601f016020809104026020016040519081016040528092919081815260200182805461109590613f4c565b80156110e25780601f106110b7576101008083540402835291602001916110e2565b820191906000526020600020905b8154815290600101906020018083116110c557829003601f168201915b5050505050905090565b6000806110f7611804565b90506000603460008373ffffffffffffffffffffffffffffffffffffffff1673ffffffffffffffffffffffffffffffffffffffff16815260200190815260200160002060008673ffffffffffffffffffffffffffffffffffffffff1673ffffffffffffffffffffffffffffffffffffffff168152602001908152602001600020549050838110156111bd576040517f08c379a00000000000000000000000000000000000000000000000000000000081526004016111b490613bbe565b60405180910390fd5b6111ca828686840361180c565b60019250505092915050565b60fc60009054906101000a900473ffffffffffffffffffffffffffffffffffffffff1681565b600080611207611804565b9050611214818585611a63565b600191505092915050565b6000600260c9541415611267576040517f08c379a000000000000000000000000000000000000000000000000000000000815260040161125e90613b7e565b60405180910390fd5b600260c981905550600082116112b2576040517f08c379a00000000000000000000000000000000000000000000000000000000081526004016112a99061397e565b60405180910390fd5b60006112be8333612286565b90506112ca33846122a8565b7fd68606c673aecac7ce24ec44fd7d77b401356dfd76fe9b36cb58e579c4220aed8382336040516112fd93929190613c39565b60405180910390a180915050600160c981905550919050565b61131e611804565b73ffffffffffffffffffffffffffffffffffffffff1660fc60009054906101000a900473ffffffffffffffffffffffffffffffffffffffff1673ffffffffffffffffffffffffffffffffffffffff16146113ad576040517f08c379a00000000000000000000000000000000000000000000000000000000081526004016113a490613a9e565b60405180910390fd5b600260c95414156113f3576040517f08c379a00000000000000000000000000000000000000000000000000000000081526004016113ea90613b7e565b60405180910390fd5b600260c9819055506000811161143e576040517f08c379a00000000000000000000000000000000000000000000000000000000081526004016114359061389e565b60405180910390fd5b61144661171a565b811115611488576040517f08c379a000000000000000000000000000000000000000000000000000000000815260040161147f906138be565b60405180910390fd5b8060fb600082825461149a9190613d58565b925050819055506114ab3382611fe4565b7fc4381c9c7b508979896c55381c1cb8c2aef28d753cff7661f9cd87b9a14584f833823373ffffffffffffffffffffffffffffffffffffffff166301e1d1146040518163ffffffff1660e01b815260040160206040518083038186803b15801561151457600080fd5b505afa158015611528573d6000803e3d6000fd5b505050506040513d601f19601f8201168201806040525081019061154c91906130a7565b60fb5460405161155f94939291906136e5565b60405180910390a1600160c98190555050565b6000603460008473ffffffffffffffffffffffffffffffffffffffff1673ffffffffffffffffffffffffffffffffffffffff16815260200190815260200160002060008373ffffffffffffffffffffffffffffffffffffffff1673ffffffffffffffffffffffffffffffffffffffff16815260200190815260200160002054905092915050565b611601611804565b73ffffffffffffffffffffffffffffffffffffffff1661161f610f34565b73ffffffffffffffffffffffffffffffffffffffff1614611675576040517f08c379a000000000000000000000000000000000000000000000000000000000815260040161166c90613a3e565b60405180910390fd5b600073ffffffffffffffffffffffffffffffffffffffff168173ffffffffffffffffffffffffffffffffffffffff1614156116e5576040517f08c379a00000000000000000000000000000000000000000000000000000000081526004016116dc9061383e565b60405180910390fd5b6116ee816121c0565b50565b60fb5481565b6000808273ffffffffffffffffffffffffffffffffffffffff163b119050919050565b60008060029054906101000a900473ffffffffffffffffffffffffffffffffffffffff1673ffffffffffffffffffffffffffffffffffffffff166370a08231306040518263ffffffff1660e01b8152600401611776919061366a565b60206040518083038186803b15801561178e57600080fd5b505afa1580156117a2573d6000803e3d6000fd5b505050506040513d601f19601f820116820180604052508101906117c691906130a7565b905090565b60006117d6306116f7565b15905090565b6117e683836122b7565b6117ee612314565b6117f6612035565b6117ff8161208e565b505050565b600033905090565b600073ffffffffffffffffffffffffffffffffffffffff168373ffffffffffffffffffffffffffffffffffffffff16141561187c576040517f08c379a000000000000000000000000000000000000000000000000000000000815260040161187390613ade565b60405180910390fd5b600073ffffffffffffffffffffffffffffffffffffffff168273ffffffffffffffffffffffffffffffffffffffff1614156118ec576040517f08c379a00000000000000000000000000000000000000000000000000000000081526004016118e39061385e565b60405180910390fd5b80603460008573ffffffffffffffffffffffffffffffffffffffff1673ffffffffffffffffffffffffffffffffffffffff16815260200190815260200160002060008473ffffffffffffffffffffffffffffffffffffffff1673ffffffffffffffffffffffffffffffffffffffff168152602001908152602001600020819055508173ffffffffffffffffffffffffffffffffffffffff168373ffffffffffffffffffffffffffffffffffffffff167f8c5be1e5ebec7d5bd14f71427d1e84f3dd0314c0f7b2291e5b200ac8c7c3b925836040516119ca9190613c1e565b60405180910390a3505050565b60006119e38484611572565b90507fffffffffffffffffffffffffffffffffffffffffffffffffffffffffffffffff8114611a5d5781811015611a4f576040517f08c379a0000000000000000000000000000000000000000000000000000000008152600401611a469061387e565b60405180910390fd5b611a5c848484840361180c565b5b50505050565b600073ffffffffffffffffffffffffffffffffffffffff168373ffffffffffffffffffffffffffffffffffffffff161415611ad3576040517f08c379a0000000000000000000000000000000000000000000000000000000008152600401611aca90613abe565b60405180910390fd5b600073ffffffffffffffffffffffffffffffffffffffff168273ffffffffffffffffffffffffffffffffffffffff161415611b43576040517f08c379a0000000000000000000000000000000000000000000000000000000008152600401611b3a906137fe565b60405180910390fd5b611b4e838383612365565b6000603360008573ffffffffffffffffffffffffffffffffffffffff1673ffffffffffffffffffffffffffffffffffffffff16815260200190815260200160002054905081811015611bd5576040517f08c379a0000000000000000000000000000000000000000000000000000000008152600401611bcc906138de565b60405180910390fd5b818103603360008673ffffffffffffffffffffffffffffffffffffffff1673ffffffffffffffffffffffffffffffffffffffff1681526020019081526020016000208190555081603360008573ffffffffffffffffffffffffffffffffffffffff1673ffffffffffffffffffffffffffffffffffffffff1681526020019081526020016000206000828254611c6a9190613d58565b925050819055508273ffffffffffffffffffffffffffffffffffffffff168473ffffffffffffffffffffffffffffffffffffffff167fddf252ad1be2c89b69c2b068fc378daa952ba7f163c4a11628f55a4df523b3ef84604051611cce9190613c1e565b60405180910390a3611ce184848461236a565b50505050565b600073ffffffffffffffffffffffffffffffffffffffff168273ffffffffffffffffffffffffffffffffffffffff161415611d57576040517f08c379a0000000000000000000000000000000000000000000000000000000008152600401611d4e90613a7e565b60405180910390fd5b611d6382600083612365565b6000603360008473ffffffffffffffffffffffffffffffffffffffff1673ffffffffffffffffffffffffffffffffffffffff16815260200190815260200160002054905081811015611dea576040517f08c379a0000000000000000000000000000000000000000000000000000000008152600401611de19061381e565b60405180910390fd5b818103603360008573ffffffffffffffffffffffffffffffffffffffff1673ffffffffffffffffffffffffffffffffffffffff168152602001908152602001600020819055508160356000828254611e429190613e39565b92505081905550600073ffffffffffffffffffffffffffffffffffffffff168373ffffffffffffffffffffffffffffffffffffffff167fddf252ad1be2c89b69c2b068fc378daa952ba7f163c4a11628f55a4df523b3ef84604051611ea79190613c1e565b60405180910390a3611ebb8360008461236a565b505050565b60008060008490506000611ed38661236f565b9050611edd61171a565b811115611fcb576000611eef82612477565b90506000611efb61171a565b905080831115611f6257809250611f1c8284611f179190613d58565b6125be565b935087841115611f61576040517f08c379a0000000000000000000000000000000000000000000000000000000008152600401611f58906139fe565b60405180910390fd5b5b612710878385611f729190613d58565b611f7c9190613ddf565b611f869190613dae565b821115611fc8576040517f08c379a0000000000000000000000000000000000000000000000000000000008152600401611fbf906139de565b60405180910390fd5b50505b611fd53383611ce7565b81819350935050509250929050565b6120318282600060029054906101000a900473ffffffffffffffffffffffffffffffffffffffff1673ffffffffffffffffffffffffffffffffffffffff166126909092919063ffffffff16565b5050565b600060019054906101000a900460ff16612084576040517f08c379a000000000000000000000000000000000000000000000000000000000815260040161207b90613b3e565b60405180910390fd5b61208c612716565b565b600060019054906101000a900460ff166120b65760008054906101000a900460ff16156120bf565b6120be6117cb565b5b6120fe576040517f08c379a00000000000000000000000000000000000000000000000000000000081526004016120f5906139be565b60405180910390fd5b60008060019054906101000a900460ff16159050801561214e576001600060016101000a81548160ff02191690831515021790555060016000806101000a81548160ff0219169083151502179055505b81600060026101000a81548173ffffffffffffffffffffffffffffffffffffffff021916908373ffffffffffffffffffffffffffffffffffffffff16021790555080156121b05760008060016101000a81548160ff0219169083151502179055505b5050565b6121bd816108d7565b50565b6000609760009054906101000a900473ffffffffffffffffffffffffffffffffffffffff16905081609760006101000a81548173ffffffffffffffffffffffffffffffffffffffff021916908373ffffffffffffffffffffffffffffffffffffffff1602179055508173ffffffffffffffffffffffffffffffffffffffff168173ffffffffffffffffffffffffffffffffffffffff167f8be0079c531659141344cd1fd0a4f28419497f9722a3daafe3b4186f6b6457e060405160405180910390a35050565b600080612292846125be565b905061229e8382612777565b8091505092915050565b6122b38230836128d8565b5050565b600060019054906101000a900460ff16612306576040517f08c379a00000000000000000000000000000000000000000000000000000000081526004016122fd90613b3e565b60405180910390fd5b612310828261292c565b5050565b600060019054906101000a900460ff16612363576040517f08c379a000000000000000000000000000000000000000000000000000000000815260040161235a90613b3e565b60405180910390fd5b565b505050565b505050565b60008082116123b3576040517f08c379a00000000000000000000000000000000000000000000000000000000081526004016123aa90613bde565b60405180910390fd5b60006123bd610895565b905080831115612402576040517f08c379a00000000000000000000000000000000000000000000000000000000081526004016123f990613b9e565b60405180910390fd5b600061240c6129ad565b9050600082828661241d9190613ddf565b6124279190613dae565b90506000851161246c576040517f08c379a000000000000000000000000000000000000000000000000000000000815260040161246390613a1e565b60405180910390fd5b809350505050919050565b60008061248261171a565b9050600081846124929190613e39565b90508060fb5410156124ab57600060fb819055506124c5565b8060fb60008282546124bd9190613e39565b925050819055505b600060fc60009054906101000a900473ffffffffffffffffffffffffffffffffffffffff1673ffffffffffffffffffffffffffffffffffffffff16632e1a7d4d836040518263ffffffff1660e01b81526004016125229190613c1e565b602060405180830381600087803b15801561253c57600080fd5b505af1158015612550573d6000803e3d6000fd5b505050506040513d601f19601f8201168201806040525081019061257491906130a7565b90507fff55ad369e3b5d0516f3a9185142a1da422388ff2b73e04db4e7fd3fd76d3583838684846040516125ab9493929190613c70565b60405180910390a1809350505050919050565b6000808211612602576040517f08c379a00000000000000000000000000000000000000000000000000000000081526004016125f990613b1e565b60405180910390fd5b600061260c610895565b90506000811415612620578291505061268b565b600061262a6129ad565b82856126369190613ddf565b6126409190613dae565b905060008111612685576040517f08c379a000000000000000000000000000000000000000000000000000000000815260040161267c906138fe565b60405180910390fd5b80925050505b919050565b6127118363a9059cbb60e01b84846040516024016126af9291906136bc565b604051602081830303815290604052907bffffffffffffffffffffffffffffffffffffffffffffffffffffffff19166020820180517bffffffffffffffffffffffffffffffffffffffffffffffffffffffff83818316178352505050506129ce565b505050565b600060019054906101000a900460ff16612765576040517f08c379a000000000000000000000000000000000000000000000000000000000815260040161275c90613b3e565b60405180910390fd5b612775612770611804565b6121c0565b565b600073ffffffffffffffffffffffffffffffffffffffff168273ffffffffffffffffffffffffffffffffffffffff1614156127e7576040517f08c379a00000000000000000000000000000000000000000000000000000000081526004016127de90613bfe565b60405180910390fd5b6127f360008383612365565b80603560008282546128059190613d58565b9250508190555080603360008473ffffffffffffffffffffffffffffffffffffffff1673ffffffffffffffffffffffffffffffffffffffff168152602001908152602001600020600082825461285b9190613d58565b925050819055508173ffffffffffffffffffffffffffffffffffffffff16600073ffffffffffffffffffffffffffffffffffffffff167fddf252ad1be2c89b69c2b068fc378daa952ba7f163c4a11628f55a4df523b3ef836040516128c09190613c1e565b60405180910390a36128d46000838361236a565b5050565b612927838383600060029054906101000a900473ffffffffffffffffffffffffffffffffffffffff1673ffffffffffffffffffffffffffffffffffffffff16612a95909392919063ffffffff16565b505050565b600060019054906101000a900460ff1661297b576040517f08c379a000000000000000000000000000000000000000000000000000000000815260040161297290613b3e565b60405180910390fd5b8160369080519060200190612991929190612cb6565b5080603790805190602001906129a8929190612cb6565b505050565b60006129b7612b1e565b6129bf61058f565b6129c99190613e39565b905090565b6000612a30826040518060400160405280602081526020017f5361666545524332303a206c6f772d6c6576656c2063616c6c206661696c65648152508573ffffffffffffffffffffffffffffffffffffffff16612b239092919063ffffffff16565b9050600081511115612a905780806020019051810190612a509190612f43565b612a8f576040517f08c379a0000000000000000000000000000000000000000000000000000000008152600401612a8690613b5e565b60405180910390fd5b5b505050565b612b18846323b872dd60e01b858585604051602401612ab693929190613685565b604051602081830303815290604052907bffffffffffffffffffffffffffffffffffffffffffffffffffffffff19166020820180517bffffffffffffffffffffffffffffffffffffffffffffffffffffffff83818316178352505050506129ce565b50505050565b600090565b6060612b328484600085612b3b565b90509392505050565b606082471015612b80576040517f08c379a0000000000000000000000000000000000000000000000000000000008152600401612b779061395e565b60405180910390fd5b612b89856116f7565b612bc8576040517f08c379a0000000000000000000000000000000000000000000000000000000008152600401612bbf90613afe565b60405180910390fd5b6000808673ffffffffffffffffffffffffffffffffffffffff168587604051612bf19190613653565b60006040518083038185875af1925050503d8060008114612c2e576040519150601f19603f3d011682016040523d82523d6000602084013e612c33565b606091505b5091509150612c43828286612c4f565b92505050949350505050565b60608315612c5f57829050612caf565b600083511115612c725782518084602001fd5b816040517f08c379a0000000000000000000000000000000000000000000000000000000008152600401612ca691906137dc565b60405180910390fd5b9392505050565b828054612cc290613f4c565b90600052602060002090601f016020900481019282612ce45760008555612d2b565b82601f10612cfd57805160ff1916838001178555612d2b565b82800160010185558215612d2b579182015b82811115612d2a578251825591602001919060010190612d0f565b5b509050612d389190612d3c565b5090565b5b80821115612d55576000816000905550600101612d3d565b5090565b6000612d6c612d6784613cf5565b613cd0565b905082815260208101848484011115612d8457600080fd5b612d8f848285613f0a565b509392505050565b600081359050612da6816149a1565b92915050565b600081519050612dbb816149a1565b92915050565b600081519050612dd0816149b8565b92915050565b600082601f830112612de757600080fd5b8135612df7848260208601612d59565b91505092915050565b600081359050612e0f816149cf565b92915050565b600081519050612e24816149cf565b92915050565b600060208284031215612e3c57600080fd5b6000612e4a84828501612d97565b91505092915050565b600060208284031215612e6557600080fd5b6000612e7384828501612dac565b91505092915050565b60008060408385031215612e8f57600080fd5b6000612e9d85828601612d97565b9250506020612eae85828601612d97565b9150509250929050565b600080600060608486031215612ecd57600080fd5b6000612edb86828701612d97565b9350506020612eec86828701612d97565b9250506040612efd86828701612e00565b9150509250925092565b60008060408385031215612f1a57600080fd5b6000612f2885828601612d97565b9250506020612f3985828601612e00565b9150509250929050565b600060208284031215612f5557600080fd5b6000612f6384828501612dc1565b91505092915050565b600080600060608486031215612f8157600080fd5b600084013567ffffffffffffffff811115612f9b57600080fd5b612fa786828701612dd6565b935050602084013567ffffffffffffffff811115612fc457600080fd5b612fd086828701612dd6565b9250506040612fe186828701612d97565b9150509250925092565b6000806000806080858703121561300157600080fd5b600085013567ffffffffffffffff81111561301b57600080fd5b61302787828801612dd6565b945050602085013567ffffffffffffffff81111561304457600080fd5b61305087828801612dd6565b935050604061306187828801612d97565b925050606061307287828801612d97565b91505092959194509250565b60006020828403121561309057600080fd5b600061309e84828501612e00565b91505092915050565b6000602082840312156130b957600080fd5b60006130c784828501612e15565b91505092915050565b600080604083850312156130e357600080fd5b60006130f185828601612e00565b925050602061310285828601612e00565b9150509250929050565b61311581613e6d565b82525050565b61312481613e7f565b82525050565b600061313582613d26565b61313f8185613d3c565b935061314f818560208601613f19565b80840191505092915050565b61316481613ec2565b82525050565b61317381613ee6565b82525050565b600061318482613d31565b61318e8185613d47565b935061319e818560208601613f19565b6131a78161406b565b840191505092915050565b60006131bf602383613d47565b91506131ca8261407c565b604082019050919050565b60006131e2602283613d47565b91506131ed826140cb565b604082019050919050565b6000613205602683613d47565b91506132108261411a565b604082019050919050565b6000613228602283613d47565b915061323382614169565b604082019050919050565b600061324b601d83613d47565b9150613256826141b8565b602082019050919050565b600061326e602183613d47565b9150613279826141e1565b604082019050919050565b6000613291602d83613d47565b915061329c82614230565b604082019050919050565b60006132b4602683613d47565b91506132bf8261427f565b604082019050919050565b60006132d7602d83613d47565b91506132e2826142ce565b604082019050919050565b60006132fa601e83613d47565b91506133058261431d565b602082019050919050565b600061331d602d83613d47565b915061332882614346565b604082019050919050565b6000613340602683613d47565b915061334b82614395565b604082019050919050565b6000613363602383613d47565b915061336e826143e4565b604082019050919050565b6000613386602183613d47565b915061339182614433565b604082019050919050565b60006133a9602e83613d47565b91506133b482614482565b604082019050919050565b60006133cc602983613d47565b91506133d7826144d1565b604082019050919050565b60006133ef604483613d47565b91506133fa82614520565b606082019050919050565b6000613412602683613d47565b915061341d82614595565b604082019050919050565b6000613435602083613d47565b9150613440826145e4565b602082019050919050565b6000613458601683613d47565b91506134638261460d565b602082019050919050565b600061347b602183613d47565b915061348682614636565b604082019050919050565b600061349e602083613d47565b91506134a982614685565b602082019050919050565b60006134c1602583613d47565b91506134cc826146ae565b604082019050919050565b60006134e4602483613d47565b91506134ef826146fd565b604082019050919050565b6000613507601d83613d47565b91506135128261474c565b602082019050919050565b600061352a602883613d47565b915061353582614775565b604082019050919050565b600061354d602b83613d47565b9150613558826147c4565b604082019050919050565b6000613570602a83613d47565b915061357b82614813565b604082019050919050565b6000613593601f83613d47565b915061359e82614862565b602082019050919050565b60006135b6602e83613d47565b91506135c18261488b565b604082019050919050565b60006135d9602583613d47565b91506135e4826148da565b604082019050919050565b60006135fc603183613d47565b915061360782614929565b604082019050919050565b600061361f601f83613d47565b915061362a82614978565b602082019050919050565b61363e81613eab565b82525050565b61364d81613eb5565b82525050565b600061365f828461312a565b915081905092915050565b600060208201905061367f600083018461310c565b92915050565b600060608201905061369a600083018661310c565b6136a7602083018561310c565b6136b46040830184613635565b949350505050565b60006040820190506136d1600083018561310c565b6136de6020830184613635565b9392505050565b60006080820190506136fa600083018761310c565b6137076020830186613635565b6137146040830185613635565b6137216060830184613635565b95945050505050565b600060c08201905061373f600083018961310c565b61374c6020830188613635565b6137596040830187613635565b6137666060830186613635565b6137736080830185613635565b61378060a0830184613635565b979650505050505050565b60006020820190506137a0600083018461311b565b92915050565b60006020820190506137bb600083018461315b565b92915050565b60006020820190506137d6600083018461316a565b92915050565b600060208201905081810360008301526137f68184613179565b905092915050565b60006020820190508181036000830152613817816131b2565b9050919050565b60006020820190508181036000830152613837816131d5565b9050919050565b60006020820190508181036000830152613857816131f8565b9050919050565b600060208201905081810360008301526138778161321b565b9050919050565b600060208201905081810360008301526138978161323e565b9050919050565b600060208201905081810360008301526138b781613261565b9050919050565b600060208201905081810360008301526138d781613284565b9050919050565b600060208201905081810360008301526138f7816132a7565b9050919050565b60006020820190508181036000830152613917816132ca565b9050919050565b60006020820190508181036000830152613937816132ed565b9050919050565b6000602082019050818103600083015261395781613310565b9050919050565b6000602082019050818103600083015261397781613333565b9050919050565b6000602082019050818103600083015261399781613356565b9050919050565b600060208201905081810360008301526139b781613379565b9050919050565b600060208201905081810360008301526139d78161339c565b9050919050565b600060208201905081810360008301526139f7816133bf565b9050919050565b60006020820190508181036000830152613a17816133e2565b9050919050565b60006020820190508181036000830152613a3781613405565b9050919050565b60006020820190508181036000830152613a5781613428565b9050919050565b60006020820190508181036000830152613a778161344b565b9050919050565b60006020820190508181036000830152613a978161346e565b9050919050565b60006020820190508181036000830152613ab781613491565b9050919050565b60006020820190508181036000830152613ad7816134b4565b9050919050565b60006020820190508181036000830152613af7816134d7565b9050919050565b60006020820190508181036000830152613b17816134fa565b9050919050565b60006020820190508181036000830152613b378161351d565b9050919050565b60006020820190508181036000830152613b5781613540565b9050919050565b60006020820190508181036000830152613b7781613563565b9050919050565b60006020820190508181036000830152613b9781613586565b9050919050565b60006020820190508181036000830152613bb7816135a9565b9050919050565b60006020820190508181036000830152613bd7816135cc565b9050919050565b60006020820190508181036000830152613bf7816135ef565b9050919050565b60006020820190508181036000830152613c1781613612565b9050919050565b6000602082019050613c336000830184613635565b92915050565b6000606082019050613c4e6000830186613635565b613c5b6020830185613635565b613c68604083018461310c565b949350505050565b6000608082019050613c856000830187613635565b613c926020830186613635565b613c9f6040830185613635565b613cac6060830184613635565b95945050505050565b6000602082019050613cca6000830184613644565b92915050565b6000613cda613ceb565b9050613ce68282613f7e565b919050565b6000604051905090565b600067ffffffffffffffff821115613d1057613d0f61403c565b5b613d198261406b565b9050602081019050919050565b600081519050919050565b600081519050919050565b600081905092915050565b600082825260208201905092915050565b6000613d6382613eab565b9150613d6e83613eab565b9250827fffffffffffffffffffffffffffffffffffffffffffffffffffffffffffffffff03821115613da357613da2613faf565b5b828201905092915050565b6000613db982613eab565b9150613dc483613eab565b925082613dd457613dd3613fde565b5b828204905092915050565b6000613dea82613eab565b9150613df583613eab565b9250817fffffffffffffffffffffffffffffffffffffffffffffffffffffffffffffffff0483118215151615613e2e57613e2d613faf565b5b828202905092915050565b6000613e4482613eab565b9150613e4f83613eab565b925082821015613e6257613e61613faf565b5b828203905092915050565b6000613e7882613e8b565b9050919050565b60008115159050919050565b600073ffffffffffffffffffffffffffffffffffffffff82169050919050565b6000819050919050565b600060ff82169050919050565b6000613ecd82613ed4565b9050919050565b6000613edf82613e8b565b9050919050565b6000613ef182613ef8565b9050919050565b6000613f0382613e8b565b9050919050565b82818337600083830152505050565b60005b83811015613f37578082015181840152602081019050613f1c565b83811115613f46576000848401525b50505050565b60006002820490506001821680613f6457607f821691505b60208210811415613f7857613f7761400d565b5b50919050565b613f878261406b565b810181811067ffffffffffffffff82111715613fa657613fa561403c565b5b80604052505050565b7f4e487b7100000000000000000000000000000000000000000000000000000000600052601160045260246000fd5b7f4e487b7100000000000000000000000000000000000000000000000000000000600052601260045260246000fd5b7f4e487b7100000000000000000000000000000000000000000000000000000000600052602260045260246000fd5b7f4e487b7100000000000000000000000000000000000000000000000000000000600052604160045260246000fd5b6000601f19601f8301169050919050565b7f45524332303a207472616e7366657220746f20746865207a65726f206164647260008201527f6573730000000000000000000000000000000000000000000000000000000000602082015250565b7f45524332303a206275726e20616d6f756e7420657863656564732062616c616e60008201527f6365000000000000000000000000000000000000000000000000000000000000602082015250565b7f4f776e61626c653a206e6577206f776e657220697320746865207a65726f206160008201527f6464726573730000000000000000000000000000000000000000000000000000602082015250565b7f45524332303a20617070726f766520746f20746865207a65726f20616464726560008201527f7373000000000000000000000000000000000000000000000000000000000000602082015250565b7f45524332303a20696e73756666696369656e7420616c6c6f77616e6365000000600082015250565b7f426f72726f77696e6720616d6f756e74206d75737420626520706f736974697660008201527f6500000000000000000000000000000000000000000000000000000000000000602082015250565b7f526571756573746564206d6f7265207468656e20617661696c61626c6520666f60008201527f72206120626f72726f77696e6700000000000000000000000000000000000000602082015250565b7f45524332303a207472616e7366657220616d6f756e742065786365656473206260008201527f616c616e63650000000000000000000000000000000000000000000000000000602082015250565b7f496e636f72726563742063616c6375616c74696f6e206f66207368617265732060008201527f647572696e6720697373696e6700000000000000000000000000000000000000602082015250565b7f53686172657320616d6f756e74206d757374206265206e6f6e2d7a65726f0000600082015250565b7f4d6f726520736861726573207370656369666965642c2073656e646572206e6f60008201527f74206861766520656e6f75676800000000000000000000000000000000000000602082015250565b7f416464726573733a20696e73756666696369656e742062616c616e636520666f60008201527f722063616c6c0000000000000000000000000000000000000000000000000000602082015250565b7f466f72206465706f73697420616d6f756e74206d757374206265206e6f6e2d7a60008201527f65726f0000000000000000000000000000000000000000000000000000000000602082015250565b7f537472617465677920646f206e6f742077616e74207661756c7420617373657460008201527f7300000000000000000000000000000000000000000000000000000000000000602082015250565b7f496e697469616c697a61626c653a20636f6e747261637420697320616c72656160008201527f647920696e697469616c697a6564000000000000000000000000000000000000602082015250565b7f546f74616c206c6f737320626967676572207468616e2061636365707461626c60008201527f65206d61784c6f73730000000000000000000000000000000000000000000000602082015250565b7f5368617265732077686963682077696c6c206265206275726e2077697468206c60008201527f6f7373657320697320626967676572207468616e20676976656e206d6178536860208201527f6172657300000000000000000000000000000000000000000000000000000000604082015250565b7f496e636f72726563742063616c6375616c74696f6e206f66207368617265277360008201527f2076616c75650000000000000000000000000000000000000000000000000000602082015250565b7f4f776e61626c653a2063616c6c6572206973206e6f7420746865206f776e6572600082015250565b7f6d61784c6f737320697320626967676572203130302500000000000000000000600082015250565b7f45524332303a206275726e2066726f6d20746865207a65726f2061646472657360008201527f7300000000000000000000000000000000000000000000000000000000000000602082015250565b7f4c656e6465723a2063616c6c6572206973206e6f742061207374726174656779600082015250565b7f45524332303a207472616e736665722066726f6d20746865207a65726f20616460008201527f6472657373000000000000000000000000000000000000000000000000000000602082015250565b7f45524332303a20617070726f76652066726f6d20746865207a65726f2061646460008201527f7265737300000000000000000000000000000000000000000000000000000000602082015250565b7f416464726573733a2063616c6c20746f206e6f6e2d636f6e7472616374000000600082015250565b7f466f722069737375652073686172657320616d6f756e74206d7573742062652060008201527f6e6f6e2d7a65726f000000000000000000000000000000000000000000000000602082015250565b7f496e697469616c697a61626c653a20636f6e7472616374206973206e6f74206960008201527f6e697469616c697a696e67000000000000000000000000000000000000000000602082015250565b7f5361666545524332303a204552433230206f7065726174696f6e20646964206e60008201527f6f74207375636365656400000000000000000000000000000000000000000000602082015250565b7f5265656e7472616e637947756172643a207265656e7472616e742063616c6c00600082015250565b7f43616e6e6f742063616c6375616c74652076616c756520666f72206e6f74206560008201527f78697374696e6720736861726573000000000000000000000000000000000000602082015250565b7f45524332303a2064656372656173656420616c6c6f77616e63652062656c6f7760008201527f207a65726f000000000000000000000000000000000000000000000000000000602082015250565b7f466f7220657374696d6174652076616c75652073686172657320616d6f756e7460008201527f206d757374206265206e6f6e2d7a65726f000000000000000000000000000000602082015250565b7f45524332303a206d696e7420746f20746865207a65726f206164647265737300600082015250565b6149aa81613e6d565b81146149b557600080fd5b50565b6149c181613e7f565b81146149cc57600080fd5b50565b6149d881613eab565b81146149e357600080fd5b5056fea2646970667358221220125a7359541d565250a65d18fd5d5f3c2f4d96b8b6e8878b4ac30886699ee2d264736f6c63430008040033",
  "devdoc": {
    "kind": "dev",
    "methods": {
      "allowance(address,address)": {
        "details": "See {IERC20-allowance}."
      },
      "approve(address,uint256)": {
        "details": "See {IERC20-approve}. NOTE: If `amount` is the maximum `uint256`, the allowance is not updated on `transferFrom`. This is semantically equivalent to an infinite approval. Requirements: - `spender` cannot be the zero address."
      },
      "balanceOf(address)": {
        "details": "See {IERC20-balanceOf}."
      },
      "burn(uint256)": {
        "details": "Destroys `amount` tokens from the caller. See {ERC20-_burn}."
      },
      "burnFrom(address,uint256)": {
        "details": "Destroys `amount` tokens from `account`, deducting from the caller's allowance. See {ERC20-_burn} and {ERC20-allowance}. Requirements: - the caller must have allowance for ``accounts``'s tokens of at least `amount`."
      },
      "decimals()": {
        "details": "Returns the number of decimals used to get its user representation. For example, if `decimals` equals `2`, a balance of `505` tokens should be displayed to a user as `5.05` (`505 / 10 ** 2`). Tokens usually opt for a value of 18, imitating the relationship between Ether and Wei. This is the value {ERC20} uses, unless this function is overridden; NOTE: This information is only used for _display_ purposes: it in no way affects any of the arithmetic of the contract, including {IERC20-balanceOf} and {IERC20-transfer}."
      },
      "decreaseAllowance(address,uint256)": {
        "details": "Atomically decreases the allowance granted to `spender` by the caller. This is an alternative to {approve} that can be used as a mitigation for problems described in {IERC20-approve}. Emits an {Approval} event indicating the updated allowance. Requirements: - `spender` cannot be the zero address. - `spender` must have allowance for the caller of at least `subtractedValue`."
      },
      "increaseAllowance(address,uint256)": {
        "details": "Atomically increases the allowance granted to `spender` by the caller. This is an alternative to {approve} that can be used as a mitigation for problems described in {IERC20-approve}. Emits an {Approval} event indicating the updated allowance. Requirements: - `spender` cannot be the zero address."
      },
      "initialize(string,string,address)": {
        "params": {
          "name": "- name of the token",
          "storageTokenAddress": "- address of ERC20 token contract which will be stored in fund",
          "symbol": "- token symbol"
        }
      },
      "name()": {
        "details": "Returns the name of the token."
      },
      "owner()": {
        "details": "Returns the address of the current owner."
      },
      "renounceOwnership()": {
        "details": "Leaves the contract without owner. It will not be possible to call `onlyOwner` functions anymore. Can only be called by the current owner. NOTE: Renouncing ownership will leave the contract without an owner, thereby removing any functionality that is only available to the owner."
      },
      "symbol()": {
        "details": "Returns the symbol of the token, usually a shorter version of the name."
      },
      "totalSupply()": {
        "details": "See {IERC20-totalSupply}."
      },
      "transfer(address,uint256)": {
        "details": "See {IERC20-transfer}. Requirements: - `to` cannot be the zero address. - the caller must have a balance of at least `amount`."
      },
      "transferFrom(address,address,uint256)": {
        "details": "See {IERC20-transferFrom}. Emits an {Approval} event indicating the updated allowance. This is not required by the EIP. See the note at the beginning of {ERC20}. NOTE: Does not update the allowance if the current allowance is the maximum `uint256`. Requirements: - `from` and `to` cannot be the zero address. - `from` must have a balance of at least `amount`. - the caller must have allowance for ``from``'s tokens of at least `amount`."
      },
      "transferOwnership(address)": {
        "details": "Transfers ownership of the contract to a new account (`newOwner`). Can only be called by the current owner."
      },
      "withdraw(uint256,uint256)": {
        "params": {
          "maxLoss": "- The maximum acceptable loss to sustain on withdrawal.  Up to that amount of shares can be burnt to cover losses on withdrawal.  Represented in uint256, where 1 equal 0.01%.",
          "maxShares": "- How many shares to try redeem for tokens, if will be not possible redeem all, then will be redeemed only available partially"
        }
      }
    },
    "version": 1
  },
  "userdoc": {
    "events": {
      "Borrowed(address,uint256,uint256,uint256)": {
        "notice": "Emit when strategy borrow some assets"
      },
      "Deposit(uint256,uint256,address)": {
        "notice": "Fired when new amount of tokens deposited and shares a issued for holder"
      },
      "ReturnFromStrategy(uint256,uint256,uint256,uint256)": {
        "notice": "Emit when assets returned from strategy"
      },
      "Withdraw(address,uint256,uint256,uint256,uint256,uint256)": {
        "notice": "Fired when assets for a given shares a withdrawn"
      }
    },
    "kind": "user",
    "methods": {
      "assets()": {
        "notice": "Contract of token which will be stored in this vault"
      },
      "borrow(uint256)": {
        "notice": "Strategy can requests some credit which then must return"
      },
      "creditAvailable()": {
        "notice": "Estimate how much strategy can borrow from this Lender."
      },
      "deposit(uint256)": {
        "notice": "Add deposit to fund storage and issues shares for a recepient Mint shares based on expected value under control at the moment Not collect real assets from borrowers, as it allow manipulate issue rate Will transfer `amount` of tokens from `message sender` and issue shares to him"
      },
      "initialize(string,string,address,address)": {
        "notice": "name - name of the token symbol - token symbol storageTokenAddress - address of ERC20 token contract which will be stored in fund strategyAddress - address of strategy which will stake tokens"
      },
      "totalAssets()": {
        "notice": "Returns the total quantity of all assets under control of this fund, whether they're loaned out to a strategy, or currently held in the fund."
      },
      "totalDebt()": {
        "notice": "Amount of tokens that all strategies have borrowed."
      },
      "withdraw(uint256,uint256)": {
        "notice": "Withdraws the calling account's tokens from this Vault, redeeming  amount `maxShares` for an appropriate amount of tokens.  As holder address will be used message sender"
      }
    },
    "notice": "Simple investment vault, which allow store tokens in vault Tokens can be borrowed by strategy and returned with percents And vault allow widthdraw tokens in proportion of shares which user have",
    "version": 1
  },
  "storageLayout": {
    "storage": [
      {
        "astId": 130,
        "contract": "contracts/InvestmentVault.sol:InvestmentVault",
        "label": "_initialized",
        "offset": 0,
        "slot": "0",
        "type": "t_bool"
      },
      {
        "astId": 133,
        "contract": "contracts/InvestmentVault.sol:InvestmentVault",
        "label": "_initializing",
        "offset": 1,
        "slot": "0",
        "type": "t_bool"
      },
      {
        "astId": 3459,
        "contract": "contracts/InvestmentVault.sol:InvestmentVault",
        "label": "assets",
        "offset": 2,
        "slot": "0",
        "type": "t_contract(IERC20Upgradeable)947"
      },
      {
        "astId": 1544,
        "contract": "contracts/InvestmentVault.sol:InvestmentVault",
        "label": "__gap",
        "offset": 0,
        "slot": "1",
        "type": "t_array(t_uint256)50_storage"
      },
      {
        "astId": 275,
        "contract": "contracts/InvestmentVault.sol:InvestmentVault",
        "label": "_balances",
        "offset": 0,
        "slot": "51",
        "type": "t_mapping(t_address,t_uint256)"
      },
      {
        "astId": 281,
        "contract": "contracts/InvestmentVault.sol:InvestmentVault",
        "label": "_allowances",
        "offset": 0,
        "slot": "52",
        "type": "t_mapping(t_address,t_mapping(t_address,t_uint256))"
      },
      {
        "astId": 283,
        "contract": "contracts/InvestmentVault.sol:InvestmentVault",
        "label": "_totalSupply",
        "offset": 0,
        "slot": "53",
        "type": "t_uint256"
      },
      {
        "astId": 285,
        "contract": "contracts/InvestmentVault.sol:InvestmentVault",
        "label": "_name",
        "offset": 0,
        "slot": "54",
        "type": "t_string_storage"
      },
      {
        "astId": 287,
        "contract": "contracts/InvestmentVault.sol:InvestmentVault",
        "label": "_symbol",
        "offset": 0,
        "slot": "55",
        "type": "t_string_storage"
      },
      {
        "astId": 868,
        "contract": "contracts/InvestmentVault.sol:InvestmentVault",
        "label": "__gap",
        "offset": 0,
        "slot": "56",
        "type": "t_array(t_uint256)45_storage"
      },
      {
        "astId": 1010,
        "contract": "contracts/InvestmentVault.sol:InvestmentVault",
        "label": "__gap",
        "offset": 0,
        "slot": "101",
        "type": "t_array(t_uint256)50_storage"
      },
      {
        "astId": 10,
        "contract": "contracts/InvestmentVault.sol:InvestmentVault",
        "label": "_owner",
        "offset": 0,
        "slot": "151",
        "type": "t_address"
      },
      {
        "astId": 122,
        "contract": "contracts/InvestmentVault.sol:InvestmentVault",
        "label": "__gap",
        "offset": 0,
        "slot": "152",
        "type": "t_array(t_uint256)49_storage"
      },
      {
        "astId": 211,
        "contract": "contracts/InvestmentVault.sol:InvestmentVault",
        "label": "_status",
        "offset": 0,
        "slot": "201",
        "type": "t_uint256"
      },
      {
        "astId": 255,
        "contract": "contracts/InvestmentVault.sol:InvestmentVault",
        "label": "__gap",
        "offset": 0,
        "slot": "202",
        "type": "t_array(t_uint256)49_storage"
      },
      {
        "astId": 3218,
        "contract": "contracts/InvestmentVault.sol:InvestmentVault",
        "label": "totalDebt",
        "offset": 0,
        "slot": "251",
        "type": "t_uint256"
      },
      {
        "astId": 3221,
        "contract": "contracts/InvestmentVault.sol:InvestmentVault",
        "label": "strategy",
        "offset": 0,
        "slot": "252",
        "type": "t_contract(IBorrower)3026"
      }
    ],
    "types": {
      "t_address": {
        "encoding": "inplace",
        "label": "address",
        "numberOfBytes": "20"
      },
      "t_array(t_uint256)45_storage": {
        "base": "t_uint256",
        "encoding": "inplace",
        "label": "uint256[45]",
        "numberOfBytes": "1440"
      },
      "t_array(t_uint256)49_storage": {
        "base": "t_uint256",
        "encoding": "inplace",
        "label": "uint256[49]",
        "numberOfBytes": "1568"
      },
      "t_array(t_uint256)50_storage": {
        "base": "t_uint256",
        "encoding": "inplace",
        "label": "uint256[50]",
        "numberOfBytes": "1600"
      },
      "t_bool": {
        "encoding": "inplace",
        "label": "bool",
        "numberOfBytes": "1"
      },
      "t_contract(IBorrower)3026": {
        "encoding": "inplace",
        "label": "contract IBorrower",
        "numberOfBytes": "20"
      },
      "t_contract(IERC20Upgradeable)947": {
        "encoding": "inplace",
        "label": "contract IERC20Upgradeable",
        "numberOfBytes": "20"
      },
      "t_mapping(t_address,t_mapping(t_address,t_uint256))": {
        "encoding": "mapping",
        "key": "t_address",
        "label": "mapping(address => mapping(address => uint256))",
        "numberOfBytes": "32",
        "value": "t_mapping(t_address,t_uint256)"
      },
      "t_mapping(t_address,t_uint256)": {
        "encoding": "mapping",
        "key": "t_address",
        "label": "mapping(address => uint256)",
        "numberOfBytes": "32",
        "value": "t_uint256"
      },
      "t_string_storage": {
        "encoding": "bytes",
        "label": "string",
        "numberOfBytes": "32"
      },
      "t_uint256": {
        "encoding": "inplace",
        "label": "uint256",
        "numberOfBytes": "32"
      }
    }
  }
}