{
	"contracts/StakingVault.sol": {
		"StakingVault": {
			"abi": [
				{
					"inputs": [
						{
							"internalType": "address",
							"name": "stakeTokenContractAddress",
							"type": "address"
						}
					],
					"stateMutability": "nonpayable",
					"type": "constructor"
				},
				{
					"inputs": [
						{
							"internalType": "address",
							"name": "",
							"type": "address"
						}
					],
					"name": "cells",
					"outputs": [
						{
							"internalType": "uint256",
							"name": "balance",
							"type": "uint256"
						}
					],
					"stateMutability": "view",
					"type": "function"
				},
				{
					"inputs": [],
					"name": "deposit",
					"outputs": [],
					"stateMutability": "payable",
					"type": "function"
				},
				{
					"inputs": [],
					"name": "getCurrentBalance",
					"outputs": [
						{
							"internalType": "uint256",
							"name": "",
							"type": "uint256"
						}
					],
					"stateMutability": "view",
					"type": "function"
				},
				{
					"inputs": [
						{
							"internalType": "uint256",
							"name": "amount",
							"type": "uint256"
						}
					],
					"name": "withdraw",
					"outputs": [],
					"stateMutability": "nonpayable",
					"type": "function"
				}
			],
			"devdoc": {
				"kind": "dev",
				"methods": {},
				"version": 1
			},
			"evm": {
				"assembly": "    /* \"contracts/StakingVault.sol\":259:1201  contract StakingVault {... */\n  mstore(0x40, 0x80)\n    /* \"contracts/StakingVault.sol\":411:519  constructor(address stakeTokenContractAddress) {... */\n  callvalue\n  dup1\n  iszero\n  tag_1\n  jumpi\n  0x00\n  dup1\n  revert\ntag_1:\n  pop\n  mload(0x40)\n  sub(codesize, bytecodeSize)\n  dup1\n  bytecodeSize\n  dup4\n  codecopy\n  dup2\n  dup2\n  add\n  0x40\n  mstore\n  dup2\n  add\n  swap1\n  tag_2\n  swap2\n  swap1\n  tag_3\n  jump\t// in\ntag_2:\n    /* \"contracts/StakingVault.sol\":486:511  stakeTokenContractAddress */\n  dup1\n    /* \"contracts/StakingVault.sol\":468:478  stakeToken */\n  0x00\n  dup1\n    /* \"contracts/StakingVault.sol\":468:512  stakeToken = iETH(stakeTokenContractAddress) */\n  0x0100\n  exp\n  dup2\n  sload\n  dup2\n  0xffffffffffffffffffffffffffffffffffffffff\n  mul\n  not\n  and\n  swap1\n  dup4\n  0xffffffffffffffffffffffffffffffffffffffff\n  and\n  mul\n  or\n  swap1\n  sstore\n  pop\n    /* \"contracts/StakingVault.sol\":411:519  constructor(address stakeTokenContractAddress) {... */\n  pop\n    /* \"contracts/StakingVault.sol\":259:1201  contract StakingVault {... */\n  jump(tag_6)\n    /* \"#utility.yul\":7:150   */\ntag_8:\n    /* \"#utility.yul\":64:69   */\n  0x00\n    /* \"#utility.yul\":95:101   */\n  dup2\n    /* \"#utility.yul\":89:102   */\n  mload\n    /* \"#utility.yul\":80:102   */\n  swap1\n  pop\n    /* \"#utility.yul\":111:144   */\n  tag_10\n    /* \"#utility.yul\":138:143   */\n  dup2\n    /* \"#utility.yul\":111:144   */\n  tag_11\n  jump\t// in\ntag_10:\n    /* \"#utility.yul\":7:150   */\n  swap3\n  swap2\n  pop\n  pop\n  jump\t// out\n    /* \"#utility.yul\":156:507   */\ntag_3:\n    /* \"#utility.yul\":226:232   */\n  0x00\n    /* \"#utility.yul\":275:277   */\n  0x20\n    /* \"#utility.yul\":263:272   */\n  dup3\n    /* \"#utility.yul\":254:261   */\n  dup5\n    /* \"#utility.yul\":250:273   */\n  sub\n    /* \"#utility.yul\":246:278   */\n  slt\n    /* \"#utility.yul\":243:362   */\n  iszero\n  tag_13\n  jumpi\n    /* \"#utility.yul\":281:360   */\n  tag_14\n  tag_15\n  jump\t// in\ntag_14:\n    /* \"#utility.yul\":243:362   */\ntag_13:\n    /* \"#utility.yul\":401:402   */\n  0x00\n    /* \"#utility.yul\":426:490   */\n  tag_16\n    /* \"#utility.yul\":482:489   */\n  dup5\n    /* \"#utility.yul\":473:479   */\n  dup3\n    /* \"#utility.yul\":462:471   */\n  dup6\n    /* \"#utility.yul\":458:480   */\n  add\n    /* \"#utility.yul\":426:490   */\n  tag_8\n  jump\t// in\ntag_16:\n    /* \"#utility.yul\":416:490   */\n  swap2\n  pop\n    /* \"#utility.yul\":372:500   */\n  pop\n    /* \"#utility.yul\":156:507   */\n  swap3\n  swap2\n  pop\n  pop\n  jump\t// out\n    /* \"#utility.yul\":594:690   */\ntag_19:\n    /* \"#utility.yul\":631:638   */\n  0x00\n    /* \"#utility.yul\":660:684   */\n  tag_21\n    /* \"#utility.yul\":678:683   */\n  dup3\n    /* \"#utility.yul\":660:684   */\n  tag_22\n  jump\t// in\ntag_21:\n    /* \"#utility.yul\":649:684   */\n  swap1\n  pop\n    /* \"#utility.yul\":594:690   */\n  swap2\n  swap1\n  pop\n  jump\t// out\n    /* \"#utility.yul\":696:822   */\ntag_22:\n    /* \"#utility.yul\":733:740   */\n  0x00\n    /* \"#utility.yul\":773:815   */\n  0xffffffffffffffffffffffffffffffffffffffff\n    /* \"#utility.yul\":766:771   */\n  dup3\n    /* \"#utility.yul\":762:816   */\n  and\n    /* \"#utility.yul\":751:816   */\n  swap1\n  pop\n    /* \"#utility.yul\":696:822   */\n  swap2\n  swap1\n  pop\n  jump\t// out\n    /* \"#utility.yul\":951:1068   */\ntag_15:\n    /* \"#utility.yul\":1060:1061   */\n  0x00\n    /* \"#utility.yul\":1057:1058   */\n  dup1\n    /* \"#utility.yul\":1050:1062   */\n  revert\n    /* \"#utility.yul\":1074:1196   */\ntag_11:\n    /* \"#utility.yul\":1147:1171   */\n  tag_28\n    /* \"#utility.yul\":1165:1170   */\n  dup2\n    /* \"#utility.yul\":1147:1171   */\n  tag_19\n  jump\t// in\ntag_28:\n    /* \"#utility.yul\":1140:1145   */\n  dup2\n    /* \"#utility.yul\":1137:1172   */\n  eq\n    /* \"#utility.yul\":1127:1190   */\n  tag_29\n  jumpi\n    /* \"#utility.yul\":1186:1187   */\n  0x00\n    /* \"#utility.yul\":1183:1184   */\n  dup1\n    /* \"#utility.yul\":1176:1188   */\n  revert\n    /* \"#utility.yul\":1127:1190   */\ntag_29:\n    /* \"#utility.yul\":1074:1196   */\n  pop\n  jump\t// out\n    /* \"contracts/StakingVault.sol\":259:1201  contract StakingVault {... */\ntag_6:\n  dataSize(sub_0)\n  dup1\n  dataOffset(sub_0)\n  0x00\n  codecopy\n  0x00\n  return\nstop\n\nsub_0: assembly {\n        /* \"contracts/StakingVault.sol\":259:1201  contract StakingVault {... */\n      mstore(0x40, 0x80)\n      jumpi(tag_1, lt(calldatasize, 0x04))\n      shr(0xe0, calldataload(0x00))\n      dup1\n      0x2e1a7d4d\n      eq\n      tag_2\n      jumpi\n      dup1\n      0xa5749710\n      eq\n      tag_3\n      jumpi\n      dup1\n      0xd0e30db0\n      eq\n      tag_4\n      jumpi\n      dup1\n      0xfd1f09b2\n      eq\n      tag_5\n      jumpi\n    tag_1:\n      0x00\n      dup1\n      revert\n        /* \"contracts/StakingVault.sol\":765:1085  function withdraw(uint256 amount) external {... */\n    tag_2:\n      callvalue\n      dup1\n      iszero\n      tag_6\n      jumpi\n      0x00\n      dup1\n      revert\n    tag_6:\n      pop\n      tag_7\n      0x04\n      dup1\n      calldatasize\n      sub\n      dup2\n      add\n      swap1\n      tag_8\n      swap2\n      swap1\n      tag_9\n      jump\t// in\n    tag_8:\n      tag_10\n      jump\t// in\n    tag_7:\n      stop\n        /* \"contracts/StakingVault.sol\":1091:1198  function getCurrentBalance() external view returns (uint) {... */\n    tag_3:\n      callvalue\n      dup1\n      iszero\n      tag_11\n      jumpi\n      0x00\n      dup1\n      revert\n    tag_11:\n      pop\n      tag_12\n      tag_13\n      jump\t// in\n    tag_12:\n      mload(0x40)\n      tag_14\n      swap2\n      swap1\n      tag_15\n      jump\t// in\n    tag_14:\n      mload(0x40)\n      dup1\n      swap2\n      sub\n      swap1\n      return\n        /* \"contracts/StakingVault.sol\":525:758  function deposit() payable external {... */\n    tag_4:\n      tag_16\n      tag_17\n      jump\t// in\n    tag_16:\n      stop\n        /* \"contracts/StakingVault.sol\":366:404  mapping (address => Cell) public cells */\n    tag_5:\n      callvalue\n      dup1\n      iszero\n      tag_18\n      jumpi\n      0x00\n      dup1\n      revert\n    tag_18:\n      pop\n      tag_19\n      0x04\n      dup1\n      calldatasize\n      sub\n      dup2\n      add\n      swap1\n      tag_20\n      swap2\n      swap1\n      tag_21\n      jump\t// in\n    tag_20:\n      tag_22\n      jump\t// in\n    tag_19:\n      mload(0x40)\n      tag_23\n      swap2\n      swap1\n      tag_15\n      jump\t// in\n    tag_23:\n      mload(0x40)\n      dup1\n      swap2\n      sub\n      swap1\n      return\n        /* \"contracts/StakingVault.sol\":765:1085  function withdraw(uint256 amount) external {... */\n    tag_10:\n        /* \"contracts/StakingVault.sol\":835:836  0 */\n      0x00\n        /* \"contracts/StakingVault.sol\":826:832  amount */\n      dup2\n        /* \"contracts/StakingVault.sol\":826:836  amount > 0 */\n      gt\n        /* \"contracts/StakingVault.sol\":818:837  require(amount > 0) */\n      tag_25\n      jumpi\n      0x00\n      dup1\n      revert\n    tag_25:\n        /* \"contracts/StakingVault.sol\":848:865  Cell storage cell */\n      0x00\n        /* \"contracts/StakingVault.sol\":868:873  cells */\n      0x01\n        /* \"contracts/StakingVault.sol\":868:885  cells[msg.sender] */\n      0x00\n        /* \"contracts/StakingVault.sol\":874:884  msg.sender */\n      caller\n        /* \"contracts/StakingVault.sol\":868:885  cells[msg.sender] */\n      0xffffffffffffffffffffffffffffffffffffffff\n      and\n      0xffffffffffffffffffffffffffffffffffffffff\n      and\n      dup2\n      mstore\n      0x20\n      add\n      swap1\n      dup2\n      mstore\n      0x20\n      add\n      0x00\n      keccak256\n        /* \"contracts/StakingVault.sol\":848:885  Cell storage cell = cells[msg.sender] */\n      swap1\n      pop\n        /* \"contracts/StakingVault.sol\":919:925  amount */\n      dup2\n        /* \"contracts/StakingVault.sol\":903:907  cell */\n      dup2\n        /* \"contracts/StakingVault.sol\":903:915  cell.balance */\n      0x00\n      add\n      sload\n        /* \"contracts/StakingVault.sol\":903:925  cell.balance >= amount */\n      lt\n      iszero\n        /* \"contracts/StakingVault.sol\":895:926  require(cell.balance >= amount) */\n      tag_26\n      jumpi\n      0x00\n      dup1\n      revert\n    tag_26:\n        /* \"contracts/StakingVault.sol\":967:973  amount */\n      dup2\n        /* \"contracts/StakingVault.sol\":952:956  cell */\n      dup2\n        /* \"contracts/StakingVault.sol\":952:964  cell.balance */\n      0x00\n      add\n      sload\n        /* \"contracts/StakingVault.sol\":952:973  cell.balance - amount */\n      tag_27\n      swap2\n      swap1\n      tag_28\n      jump\t// in\n    tag_27:\n        /* \"contracts/StakingVault.sol\":937:941  cell */\n      dup2\n        /* \"contracts/StakingVault.sol\":937:949  cell.balance */\n      0x00\n      add\n        /* \"contracts/StakingVault.sol\":937:973  cell.balance = cell.balance - amount */\n      dup2\n      swap1\n      sstore\n      pop\n        /* \"contracts/StakingVault.sol\":992:1002  stakeToken */\n      0x00\n      dup1\n      sload\n      swap1\n      0x0100\n      exp\n      swap1\n      div\n      0xffffffffffffffffffffffffffffffffffffffff\n      and\n        /* \"contracts/StakingVault.sol\":992:1009  stakeToken.redeem */\n      0xffffffffffffffffffffffffffffffffffffffff\n      and\n      0x1e9a6950\n        /* \"contracts/StakingVault.sol\":1018:1022  this */\n      address\n        /* \"contracts/StakingVault.sol\":1025:1031  amount */\n      dup5\n        /* \"contracts/StakingVault.sol\":992:1032  stakeToken.redeem(address(this), amount) */\n      mload(0x40)\n      dup4\n      0xffffffff\n      and\n      0xe0\n      shl\n      dup2\n      mstore\n      0x04\n      add\n      tag_29\n      swap3\n      swap2\n      swap1\n      tag_30\n      jump\t// in\n    tag_29:\n      0x00\n      mload(0x40)\n      dup1\n      dup4\n      sub\n      dup2\n      0x00\n      dup8\n      dup1\n      extcodesize\n      iszero\n      dup1\n      iszero\n      tag_31\n      jumpi\n      0x00\n      dup1\n      revert\n    tag_31:\n      pop\n      gas\n      call\n      iszero\n      dup1\n      iszero\n      tag_33\n      jumpi\n      returndatasize\n      0x00\n      dup1\n      returndatacopy\n      revert(0x00, returndatasize)\n    tag_33:\n      pop\n      pop\n      pop\n      pop\n        /* \"contracts/StakingVault.sol\":1050:1060  msg.sender */\n      caller\n        /* \"contracts/StakingVault.sol\":1042:1070  payable(msg.sender).transfer */\n      0xffffffffffffffffffffffffffffffffffffffff\n      and\n        /* \"contracts/StakingVault.sol\":1042:1078  payable(msg.sender).transfer(amount) */\n      0x08fc\n        /* \"contracts/StakingVault.sol\":1071:1077  amount */\n      dup4\n        /* \"contracts/StakingVault.sol\":1042:1078  payable(msg.sender).transfer(amount) */\n      swap1\n      dup2\n      iszero\n      mul\n      swap1\n      mload(0x40)\n      0x00\n      mload(0x40)\n      dup1\n      dup4\n      sub\n      dup2\n      dup6\n      dup9\n      dup9\n      call\n      swap4\n      pop\n      pop\n      pop\n      pop\n      iszero\n      dup1\n      iszero\n      tag_35\n      jumpi\n      returndatasize\n      0x00\n      dup1\n      returndatacopy\n      revert(0x00, returndatasize)\n    tag_35:\n      pop\n        /* \"contracts/StakingVault.sol\":808:1085  {... */\n      pop\n        /* \"contracts/StakingVault.sol\":765:1085  function withdraw(uint256 amount) external {... */\n      pop\n      jump\t// out\n        /* \"contracts/StakingVault.sol\":1091:1198  function getCurrentBalance() external view returns (uint) {... */\n    tag_13:\n        /* \"contracts/StakingVault.sol\":1143:1147  uint */\n      0x00\n        /* \"contracts/StakingVault.sol\":1166:1171  cells */\n      0x01\n        /* \"contracts/StakingVault.sol\":1166:1183  cells[msg.sender] */\n      0x00\n        /* \"contracts/StakingVault.sol\":1172:1182  msg.sender */\n      caller\n        /* \"contracts/StakingVault.sol\":1166:1183  cells[msg.sender] */\n      0xffffffffffffffffffffffffffffffffffffffff\n      and\n      0xffffffffffffffffffffffffffffffffffffffff\n      and\n      dup2\n      mstore\n      0x20\n      add\n      swap1\n      dup2\n      mstore\n      0x20\n      add\n      0x00\n      keccak256\n        /* \"contracts/StakingVault.sol\":1166:1191  cells[msg.sender].balance */\n      0x00\n      add\n      sload\n        /* \"contracts/StakingVault.sol\":1159:1191  return cells[msg.sender].balance */\n      swap1\n      pop\n        /* \"contracts/StakingVault.sol\":1091:1198  function getCurrentBalance() external view returns (uint) {... */\n      swap1\n      jump\t// out\n        /* \"contracts/StakingVault.sol\":525:758  function deposit() payable external {... */\n    tag_17:\n        /* \"contracts/StakingVault.sol\":591:592  0 */\n      0x00\n        /* \"contracts/StakingVault.sol\":579:588  msg.value */\n      callvalue\n        /* \"contracts/StakingVault.sol\":579:592  msg.value > 0 */\n      gt\n        /* \"contracts/StakingVault.sol\":571:593  require(msg.value > 0) */\n      tag_38\n      jumpi\n      0x00\n      dup1\n      revert\n    tag_38:\n        /* \"contracts/StakingVault.sol\":604:621  Cell storage cell */\n      0x00\n        /* \"contracts/StakingVault.sol\":624:629  cells */\n      0x01\n        /* \"contracts/StakingVault.sol\":624:641  cells[msg.sender] */\n      0x00\n        /* \"contracts/StakingVault.sol\":630:640  msg.sender */\n      caller\n        /* \"contracts/StakingVault.sol\":624:641  cells[msg.sender] */\n      0xffffffffffffffffffffffffffffffffffffffff\n      and\n      0xffffffffffffffffffffffffffffffffffffffff\n      and\n      dup2\n      mstore\n      0x20\n      add\n      swap1\n      dup2\n      mstore\n      0x20\n      add\n      0x00\n      keccak256\n        /* \"contracts/StakingVault.sol\":604:641  Cell storage cell = cells[msg.sender] */\n      swap1\n      pop\n        /* \"contracts/StakingVault.sol\":681:690  msg.value */\n      callvalue\n        /* \"contracts/StakingVault.sol\":666:670  cell */\n      dup2\n        /* \"contracts/StakingVault.sol\":666:678  cell.balance */\n      0x00\n      add\n      sload\n        /* \"contracts/StakingVault.sol\":666:690  cell.balance + msg.value */\n      tag_39\n      swap2\n      swap1\n      tag_40\n      jump\t// in\n    tag_39:\n        /* \"contracts/StakingVault.sol\":651:655  cell */\n      dup2\n        /* \"contracts/StakingVault.sol\":651:663  cell.balance */\n      0x00\n      add\n        /* \"contracts/StakingVault.sol\":651:690  cell.balance = cell.balance + msg.value */\n      dup2\n      swap1\n      sstore\n      pop\n        /* \"contracts/StakingVault.sol\":701:711  stakeToken */\n      0x00\n      dup1\n      sload\n      swap1\n      0x0100\n      exp\n      swap1\n      div\n      0xffffffffffffffffffffffffffffffffffffffff\n      and\n        /* \"contracts/StakingVault.sol\":701:716  stakeToken.mint */\n      0xffffffffffffffffffffffffffffffffffffffff\n      and\n      0x6a627842\n        /* \"contracts/StakingVault.sol\":725:734  msg.value */\n      callvalue\n        /* \"contracts/StakingVault.sol\":745:749  this */\n      address\n        /* \"contracts/StakingVault.sol\":701:751  stakeToken.mint{ value: msg.value }(address(this)) */\n      mload(0x40)\n      dup4\n      0xffffffff\n      and\n      0xe0\n      shl\n      dup2\n      mstore\n      0x04\n      add\n      tag_41\n      swap2\n      swap1\n      tag_42\n      jump\t// in\n    tag_41:\n      0x00\n      mload(0x40)\n      dup1\n      dup4\n      sub\n      dup2\n      dup6\n      dup9\n      dup1\n      extcodesize\n      iszero\n      dup1\n      iszero\n      tag_43\n      jumpi\n      0x00\n      dup1\n      revert\n    tag_43:\n      pop\n      gas\n      call\n      iszero\n      dup1\n      iszero\n      tag_45\n      jumpi\n      returndatasize\n      0x00\n      dup1\n      returndatacopy\n      revert(0x00, returndatasize)\n    tag_45:\n      pop\n      pop\n      pop\n      pop\n      pop\n        /* \"contracts/StakingVault.sol\":561:758  {... */\n      pop\n        /* \"contracts/StakingVault.sol\":525:758  function deposit() payable external {... */\n      jump\t// out\n        /* \"contracts/StakingVault.sol\":366:404  mapping (address => Cell) public cells */\n    tag_22:\n      mstore(0x20, 0x01)\n      dup1\n      0x00\n      mstore\n      keccak256(0x00, 0x40)\n      0x00\n      swap2\n      pop\n      swap1\n      pop\n      dup1\n      0x00\n      add\n      sload\n      swap1\n      pop\n      dup2\n      jump\t// out\n        /* \"#utility.yul\":7:146   */\n    tag_47:\n        /* \"#utility.yul\":53:58   */\n      0x00\n        /* \"#utility.yul\":91:97   */\n      dup2\n        /* \"#utility.yul\":78:98   */\n      calldataload\n        /* \"#utility.yul\":69:98   */\n      swap1\n      pop\n        /* \"#utility.yul\":107:140   */\n      tag_49\n        /* \"#utility.yul\":134:139   */\n      dup2\n        /* \"#utility.yul\":107:140   */\n      tag_50\n      jump\t// in\n    tag_49:\n        /* \"#utility.yul\":7:146   */\n      swap3\n      swap2\n      pop\n      pop\n      jump\t// out\n        /* \"#utility.yul\":152:291   */\n    tag_51:\n        /* \"#utility.yul\":198:203   */\n      0x00\n        /* \"#utility.yul\":236:242   */\n      dup2\n        /* \"#utility.yul\":223:243   */\n      calldataload\n        /* \"#utility.yul\":214:243   */\n      swap1\n      pop\n        /* \"#utility.yul\":252:285   */\n      tag_53\n        /* \"#utility.yul\":279:284   */\n      dup2\n        /* \"#utility.yul\":252:285   */\n      tag_54\n      jump\t// in\n    tag_53:\n        /* \"#utility.yul\":152:291   */\n      swap3\n      swap2\n      pop\n      pop\n      jump\t// out\n        /* \"#utility.yul\":297:626   */\n    tag_21:\n        /* \"#utility.yul\":356:362   */\n      0x00\n        /* \"#utility.yul\":405:407   */\n      0x20\n        /* \"#utility.yul\":393:402   */\n      dup3\n        /* \"#utility.yul\":384:391   */\n      dup5\n        /* \"#utility.yul\":380:403   */\n      sub\n        /* \"#utility.yul\":376:408   */\n      slt\n        /* \"#utility.yul\":373:492   */\n      iszero\n      tag_56\n      jumpi\n        /* \"#utility.yul\":411:490   */\n      tag_57\n      tag_58\n      jump\t// in\n    tag_57:\n        /* \"#utility.yul\":373:492   */\n    tag_56:\n        /* \"#utility.yul\":531:532   */\n      0x00\n        /* \"#utility.yul\":556:609   */\n      tag_59\n        /* \"#utility.yul\":601:608   */\n      dup5\n        /* \"#utility.yul\":592:598   */\n      dup3\n        /* \"#utility.yul\":581:590   */\n      dup6\n        /* \"#utility.yul\":577:599   */\n      add\n        /* \"#utility.yul\":556:609   */\n      tag_47\n      jump\t// in\n    tag_59:\n        /* \"#utility.yul\":546:609   */\n      swap2\n      pop\n        /* \"#utility.yul\":502:619   */\n      pop\n        /* \"#utility.yul\":297:626   */\n      swap3\n      swap2\n      pop\n      pop\n      jump\t// out\n        /* \"#utility.yul\":632:961   */\n    tag_9:\n        /* \"#utility.yul\":691:697   */\n      0x00\n        /* \"#utility.yul\":740:742   */\n      0x20\n        /* \"#utility.yul\":728:737   */\n      dup3\n        /* \"#utility.yul\":719:726   */\n      dup5\n        /* \"#utility.yul\":715:738   */\n      sub\n        /* \"#utility.yul\":711:743   */\n      slt\n        /* \"#utility.yul\":708:827   */\n      iszero\n      tag_61\n      jumpi\n        /* \"#utility.yul\":746:825   */\n      tag_62\n      tag_58\n      jump\t// in\n    tag_62:\n        /* \"#utility.yul\":708:827   */\n    tag_61:\n        /* \"#utility.yul\":866:867   */\n      0x00\n        /* \"#utility.yul\":891:944   */\n      tag_63\n        /* \"#utility.yul\":936:943   */\n      dup5\n        /* \"#utility.yul\":927:933   */\n      dup3\n        /* \"#utility.yul\":916:925   */\n      dup6\n        /* \"#utility.yul\":912:934   */\n      add\n        /* \"#utility.yul\":891:944   */\n      tag_51\n      jump\t// in\n    tag_63:\n        /* \"#utility.yul\":881:944   */\n      swap2\n      pop\n        /* \"#utility.yul\":837:954   */\n      pop\n        /* \"#utility.yul\":632:961   */\n      swap3\n      swap2\n      pop\n      pop\n      jump\t// out\n        /* \"#utility.yul\":967:1085   */\n    tag_64:\n        /* \"#utility.yul\":1054:1078   */\n      tag_66\n        /* \"#utility.yul\":1072:1077   */\n      dup2\n        /* \"#utility.yul\":1054:1078   */\n      tag_67\n      jump\t// in\n    tag_66:\n        /* \"#utility.yul\":1049:1052   */\n      dup3\n        /* \"#utility.yul\":1042:1079   */\n      mstore\n        /* \"#utility.yul\":967:1085   */\n      pop\n      pop\n      jump\t// out\n        /* \"#utility.yul\":1091:1209   */\n    tag_68:\n        /* \"#utility.yul\":1178:1202   */\n      tag_70\n        /* \"#utility.yul\":1196:1201   */\n      dup2\n        /* \"#utility.yul\":1178:1202   */\n      tag_71\n      jump\t// in\n    tag_70:\n        /* \"#utility.yul\":1173:1176   */\n      dup3\n        /* \"#utility.yul\":1166:1203   */\n      mstore\n        /* \"#utility.yul\":1091:1209   */\n      pop\n      pop\n      jump\t// out\n        /* \"#utility.yul\":1215:1437   */\n    tag_42:\n        /* \"#utility.yul\":1308:1312   */\n      0x00\n        /* \"#utility.yul\":1346:1348   */\n      0x20\n        /* \"#utility.yul\":1335:1344   */\n      dup3\n        /* \"#utility.yul\":1331:1349   */\n      add\n        /* \"#utility.yul\":1323:1349   */\n      swap1\n      pop\n        /* \"#utility.yul\":1359:1430   */\n      tag_73\n        /* \"#utility.yul\":1427:1428   */\n      0x00\n        /* \"#utility.yul\":1416:1425   */\n      dup4\n        /* \"#utility.yul\":1412:1429   */\n      add\n        /* \"#utility.yul\":1403:1409   */\n      dup5\n        /* \"#utility.yul\":1359:1430   */\n      tag_64\n      jump\t// in\n    tag_73:\n        /* \"#utility.yul\":1215:1437   */\n      swap3\n      swap2\n      pop\n      pop\n      jump\t// out\n        /* \"#utility.yul\":1443:1775   */\n    tag_30:\n        /* \"#utility.yul\":1564:1568   */\n      0x00\n        /* \"#utility.yul\":1602:1604   */\n      0x40\n        /* \"#utility.yul\":1591:1600   */\n      dup3\n        /* \"#utility.yul\":1587:1605   */\n      add\n        /* \"#utility.yul\":1579:1605   */\n      swap1\n      pop\n        /* \"#utility.yul\":1615:1686   */\n      tag_75\n        /* \"#utility.yul\":1683:1684   */\n      0x00\n        /* \"#utility.yul\":1672:1681   */\n      dup4\n        /* \"#utility.yul\":1668:1685   */\n      add\n        /* \"#utility.yul\":1659:1665   */\n      dup6\n        /* \"#utility.yul\":1615:1686   */\n      tag_64\n      jump\t// in\n    tag_75:\n        /* \"#utility.yul\":1696:1768   */\n      tag_76\n        /* \"#utility.yul\":1764:1766   */\n      0x20\n        /* \"#utility.yul\":1753:1762   */\n      dup4\n        /* \"#utility.yul\":1749:1767   */\n      add\n        /* \"#utility.yul\":1740:1746   */\n      dup5\n        /* \"#utility.yul\":1696:1768   */\n      tag_68\n      jump\t// in\n    tag_76:\n        /* \"#utility.yul\":1443:1775   */\n      swap4\n      swap3\n      pop\n      pop\n      pop\n      jump\t// out\n        /* \"#utility.yul\":1781:2003   */\n    tag_15:\n        /* \"#utility.yul\":1874:1878   */\n      0x00\n        /* \"#utility.yul\":1912:1914   */\n      0x20\n        /* \"#utility.yul\":1901:1910   */\n      dup3\n        /* \"#utility.yul\":1897:1915   */\n      add\n        /* \"#utility.yul\":1889:1915   */\n      swap1\n      pop\n        /* \"#utility.yul\":1925:1996   */\n      tag_78\n        /* \"#utility.yul\":1993:1994   */\n      0x00\n        /* \"#utility.yul\":1982:1991   */\n      dup4\n        /* \"#utility.yul\":1978:1995   */\n      add\n        /* \"#utility.yul\":1969:1975   */\n      dup5\n        /* \"#utility.yul\":1925:1996   */\n      tag_68\n      jump\t// in\n    tag_78:\n        /* \"#utility.yul\":1781:2003   */\n      swap3\n      swap2\n      pop\n      pop\n      jump\t// out\n        /* \"#utility.yul\":2090:2395   */\n    tag_40:\n        /* \"#utility.yul\":2130:2133   */\n      0x00\n        /* \"#utility.yul\":2149:2169   */\n      tag_82\n        /* \"#utility.yul\":2167:2168   */\n      dup3\n        /* \"#utility.yul\":2149:2169   */\n      tag_71\n      jump\t// in\n    tag_82:\n        /* \"#utility.yul\":2144:2169   */\n      swap2\n      pop\n        /* \"#utility.yul\":2183:2203   */\n      tag_83\n        /* \"#utility.yul\":2201:2202   */\n      dup4\n        /* \"#utility.yul\":2183:2203   */\n      tag_71\n      jump\t// in\n    tag_83:\n        /* \"#utility.yul\":2178:2203   */\n      swap3\n      pop\n        /* \"#utility.yul\":2337:2338   */\n      dup3\n        /* \"#utility.yul\":2269:2335   */\n      0xffffffffffffffffffffffffffffffffffffffffffffffffffffffffffffffff\n        /* \"#utility.yul\":2265:2339   */\n      sub\n        /* \"#utility.yul\":2262:2263   */\n      dup3\n        /* \"#utility.yul\":2259:2340   */\n      gt\n        /* \"#utility.yul\":2256:2363   */\n      iszero\n      tag_84\n      jumpi\n        /* \"#utility.yul\":2343:2361   */\n      tag_85\n      tag_86\n      jump\t// in\n    tag_85:\n        /* \"#utility.yul\":2256:2363   */\n    tag_84:\n        /* \"#utility.yul\":2387:2388   */\n      dup3\n        /* \"#utility.yul\":2384:2385   */\n      dup3\n        /* \"#utility.yul\":2380:2389   */\n      add\n        /* \"#utility.yul\":2373:2389   */\n      swap1\n      pop\n        /* \"#utility.yul\":2090:2395   */\n      swap3\n      swap2\n      pop\n      pop\n      jump\t// out\n        /* \"#utility.yul\":2401:2592   */\n    tag_28:\n        /* \"#utility.yul\":2441:2445   */\n      0x00\n        /* \"#utility.yul\":2461:2481   */\n      tag_88\n        /* \"#utility.yul\":2479:2480   */\n      dup3\n        /* \"#utility.yul\":2461:2481   */\n      tag_71\n      jump\t// in\n    tag_88:\n        /* \"#utility.yul\":2456:2481   */\n      swap2\n      pop\n        /* \"#utility.yul\":2495:2515   */\n      tag_89\n        /* \"#utility.yul\":2513:2514   */\n      dup4\n        /* \"#utility.yul\":2495:2515   */\n      tag_71\n      jump\t// in\n    tag_89:\n        /* \"#utility.yul\":2490:2515   */\n      swap3\n      pop\n        /* \"#utility.yul\":2534:2535   */\n      dup3\n        /* \"#utility.yul\":2531:2532   */\n      dup3\n        /* \"#utility.yul\":2528:2536   */\n      lt\n        /* \"#utility.yul\":2525:2559   */\n      iszero\n      tag_90\n      jumpi\n        /* \"#utility.yul\":2539:2557   */\n      tag_91\n      tag_86\n      jump\t// in\n    tag_91:\n        /* \"#utility.yul\":2525:2559   */\n    tag_90:\n        /* \"#utility.yul\":2584:2585   */\n      dup3\n        /* \"#utility.yul\":2581:2582   */\n      dup3\n        /* \"#utility.yul\":2577:2586   */\n      sub\n        /* \"#utility.yul\":2569:2586   */\n      swap1\n      pop\n        /* \"#utility.yul\":2401:2592   */\n      swap3\n      swap2\n      pop\n      pop\n      jump\t// out\n        /* \"#utility.yul\":2598:2694   */\n    tag_67:\n        /* \"#utility.yul\":2635:2642   */\n      0x00\n        /* \"#utility.yul\":2664:2688   */\n      tag_93\n        /* \"#utility.yul\":2682:2687   */\n      dup3\n        /* \"#utility.yul\":2664:2688   */\n      tag_94\n      jump\t// in\n    tag_93:\n        /* \"#utility.yul\":2653:2688   */\n      swap1\n      pop\n        /* \"#utility.yul\":2598:2694   */\n      swap2\n      swap1\n      pop\n      jump\t// out\n        /* \"#utility.yul\":2700:2826   */\n    tag_94:\n        /* \"#utility.yul\":2737:2744   */\n      0x00\n        /* \"#utility.yul\":2777:2819   */\n      0xffffffffffffffffffffffffffffffffffffffff\n        /* \"#utility.yul\":2770:2775   */\n      dup3\n        /* \"#utility.yul\":2766:2820   */\n      and\n        /* \"#utility.yul\":2755:2820   */\n      swap1\n      pop\n        /* \"#utility.yul\":2700:2826   */\n      swap2\n      swap1\n      pop\n      jump\t// out\n        /* \"#utility.yul\":2832:2909   */\n    tag_71:\n        /* \"#utility.yul\":2869:2876   */\n      0x00\n        /* \"#utility.yul\":2898:2903   */\n      dup2\n        /* \"#utility.yul\":2887:2903   */\n      swap1\n      pop\n        /* \"#utility.yul\":2832:2909   */\n      swap2\n      swap1\n      pop\n      jump\t// out\n        /* \"#utility.yul\":2915:3095   */\n    tag_86:\n        /* \"#utility.yul\":2963:3040   */\n      0x4e487b7100000000000000000000000000000000000000000000000000000000\n        /* \"#utility.yul\":2960:2961   */\n      0x00\n        /* \"#utility.yul\":2953:3041   */\n      mstore\n        /* \"#utility.yul\":3060:3064   */\n      0x11\n        /* \"#utility.yul\":3057:3058   */\n      0x04\n        /* \"#utility.yul\":3050:3065   */\n      mstore\n        /* \"#utility.yul\":3084:3088   */\n      0x24\n        /* \"#utility.yul\":3081:3082   */\n      0x00\n        /* \"#utility.yul\":3074:3089   */\n      revert\n        /* \"#utility.yul\":3224:3341   */\n    tag_58:\n        /* \"#utility.yul\":3333:3334   */\n      0x00\n        /* \"#utility.yul\":3330:3331   */\n      dup1\n        /* \"#utility.yul\":3323:3335   */\n      revert\n        /* \"#utility.yul\":3347:3469   */\n    tag_50:\n        /* \"#utility.yul\":3420:3444   */\n      tag_102\n        /* \"#utility.yul\":3438:3443   */\n      dup2\n        /* \"#utility.yul\":3420:3444   */\n      tag_67\n      jump\t// in\n    tag_102:\n        /* \"#utility.yul\":3413:3418   */\n      dup2\n        /* \"#utility.yul\":3410:3445   */\n      eq\n        /* \"#utility.yul\":3400:3463   */\n      tag_103\n      jumpi\n        /* \"#utility.yul\":3459:3460   */\n      0x00\n        /* \"#utility.yul\":3456:3457   */\n      dup1\n        /* \"#utility.yul\":3449:3461   */\n      revert\n        /* \"#utility.yul\":3400:3463   */\n    tag_103:\n        /* \"#utility.yul\":3347:3469   */\n      pop\n      jump\t// out\n        /* \"#utility.yul\":3475:3597   */\n    tag_54:\n        /* \"#utility.yul\":3548:3572   */\n      tag_105\n        /* \"#utility.yul\":3566:3571   */\n      dup2\n        /* \"#utility.yul\":3548:3572   */\n      tag_71\n      jump\t// in\n    tag_105:\n        /* \"#utility.yul\":3541:3546   */\n      dup2\n        /* \"#utility.yul\":3538:3573   */\n      eq\n        /* \"#utility.yul\":3528:3591   */\n      tag_106\n      jumpi\n        /* \"#utility.yul\":3587:3588   */\n      0x00\n        /* \"#utility.yul\":3584:3585   */\n      dup1\n        /* \"#utility.yul\":3577:3589   */\n      revert\n        /* \"#utility.yul\":3528:3591   */\n    tag_106:\n        /* \"#utility.yul\":3475:3597   */\n      pop\n      jump\t// out\n\n    auxdata: 0xa26469706673582212200fc0927c54b931add94b1704375a49c1a3c9d42eada37d89ed5b92e99ac6257964736f6c63430008070033\n}\n",
				"bytecode": {
					"linkReferences": {},
					"object": "608060405234801561001057600080fd5b506040516107053803806107058339818101604052810190610032919061008d565b806000806101000a81548173ffffffffffffffffffffffffffffffffffffffff021916908373ffffffffffffffffffffffffffffffffffffffff16021790555050610108565b600081519050610087816100f1565b92915050565b6000602082840312156100a3576100a26100ec565b5b60006100b184828501610078565b91505092915050565b60006100c5826100cc565b9050919050565b600073ffffffffffffffffffffffffffffffffffffffff82169050919050565b600080fd5b6100fa816100ba565b811461010557600080fd5b50565b6105ee806101176000396000f3fe60806040526004361061003f5760003560e01c80632e1a7d4d14610044578063a57497101461006d578063d0e30db014610098578063fd1f09b2146100a2575b600080fd5b34801561005057600080fd5b5061006b600480360381019061006691906103e6565b6100df565b005b34801561007957600080fd5b50610082610230565b60405161008f9190610475565b60405180910390f35b6100a061027a565b005b3480156100ae57600080fd5b506100c960048036038101906100c491906103b9565b610371565b6040516100d69190610475565b60405180910390f35b600081116100ec57600080fd5b6000600160003373ffffffffffffffffffffffffffffffffffffffff1673ffffffffffffffffffffffffffffffffffffffff1681526020019081526020016000209050818160000154101561014057600080fd5b81816000015461015091906104e6565b816000018190555060008054906101000a900473ffffffffffffffffffffffffffffffffffffffff1673ffffffffffffffffffffffffffffffffffffffff16631e9a695030846040518363ffffffff1660e01b81526004016101b392919061044c565b600060405180830381600087803b1580156101cd57600080fd5b505af11580156101e1573d6000803e3d6000fd5b505050503373ffffffffffffffffffffffffffffffffffffffff166108fc839081150290604051600060405180830381858888f1935050505015801561022b573d6000803e3d6000fd5b505050565b6000600160003373ffffffffffffffffffffffffffffffffffffffff1673ffffffffffffffffffffffffffffffffffffffff16815260200190815260200160002060000154905090565b6000341161028757600080fd5b6000600160003373ffffffffffffffffffffffffffffffffffffffff1673ffffffffffffffffffffffffffffffffffffffff16815260200190815260200160002090503481600001546102da9190610490565b816000018190555060008054906101000a900473ffffffffffffffffffffffffffffffffffffffff1673ffffffffffffffffffffffffffffffffffffffff16636a62784234306040518363ffffffff1660e01b815260040161033c9190610431565b6000604051808303818588803b15801561035557600080fd5b505af1158015610369573d6000803e3d6000fd5b505050505050565b60016020528060005260406000206000915090508060000154905081565b60008135905061039e8161058a565b92915050565b6000813590506103b3816105a1565b92915050565b6000602082840312156103cf576103ce610585565b5b60006103dd8482850161038f565b91505092915050565b6000602082840312156103fc576103fb610585565b5b600061040a848285016103a4565b91505092915050565b61041c8161051a565b82525050565b61042b8161054c565b82525050565b60006020820190506104466000830184610413565b92915050565b60006040820190506104616000830185610413565b61046e6020830184610422565b9392505050565b600060208201905061048a6000830184610422565b92915050565b600061049b8261054c565b91506104a68361054c565b9250827fffffffffffffffffffffffffffffffffffffffffffffffffffffffffffffffff038211156104db576104da610556565b5b828201905092915050565b60006104f18261054c565b91506104fc8361054c565b92508282101561050f5761050e610556565b5b828203905092915050565b60006105258261052c565b9050919050565b600073ffffffffffffffffffffffffffffffffffffffff82169050919050565b6000819050919050565b7f4e487b7100000000000000000000000000000000000000000000000000000000600052601160045260246000fd5b600080fd5b6105938161051a565b811461059e57600080fd5b50565b6105aa8161054c565b81146105b557600080fd5b5056fea26469706673582212200fc0927c54b931add94b1704375a49c1a3c9d42eada37d89ed5b92e99ac6257964736f6c63430008070033",
					"opcodes": "PUSH1 0x80 PUSH1 0x40 MSTORE CALLVALUE DUP1 ISZERO PUSH2 0x10 JUMPI PUSH1 0x0 DUP1 REVERT JUMPDEST POP PUSH1 0x40 MLOAD PUSH2 0x705 CODESIZE SUB DUP1 PUSH2 0x705 DUP4 CODECOPY DUP2 DUP2 ADD PUSH1 0x40 MSTORE DUP2 ADD SWAP1 PUSH2 0x32 SWAP2 SWAP1 PUSH2 0x8D JUMP JUMPDEST DUP1 PUSH1 0x0 DUP1 PUSH2 0x100 EXP DUP2 SLOAD DUP2 PUSH20 0xFFFFFFFFFFFFFFFFFFFFFFFFFFFFFFFFFFFFFFFF MUL NOT AND SWAP1 DUP4 PUSH20 0xFFFFFFFFFFFFFFFFFFFFFFFFFFFFFFFFFFFFFFFF AND MUL OR SWAP1 SSTORE POP POP PUSH2 0x108 JUMP JUMPDEST PUSH1 0x0 DUP2 MLOAD SWAP1 POP PUSH2 0x87 DUP2 PUSH2 0xF1 JUMP JUMPDEST SWAP3 SWAP2 POP POP JUMP JUMPDEST PUSH1 0x0 PUSH1 0x20 DUP3 DUP5 SUB SLT ISZERO PUSH2 0xA3 JUMPI PUSH2 0xA2 PUSH2 0xEC JUMP JUMPDEST JUMPDEST PUSH1 0x0 PUSH2 0xB1 DUP5 DUP3 DUP6 ADD PUSH2 0x78 JUMP JUMPDEST SWAP2 POP POP SWAP3 SWAP2 POP POP JUMP JUMPDEST PUSH1 0x0 PUSH2 0xC5 DUP3 PUSH2 0xCC JUMP JUMPDEST SWAP1 POP SWAP2 SWAP1 POP JUMP JUMPDEST PUSH1 0x0 PUSH20 0xFFFFFFFFFFFFFFFFFFFFFFFFFFFFFFFFFFFFFFFF DUP3 AND SWAP1 POP SWAP2 SWAP1 POP JUMP JUMPDEST PUSH1 0x0 DUP1 REVERT JUMPDEST PUSH2 0xFA DUP2 PUSH2 0xBA JUMP JUMPDEST DUP2 EQ PUSH2 0x105 JUMPI PUSH1 0x0 DUP1 REVERT JUMPDEST POP JUMP JUMPDEST PUSH2 0x5EE DUP1 PUSH2 0x117 PUSH1 0x0 CODECOPY PUSH1 0x0 RETURN INVALID PUSH1 0x80 PUSH1 0x40 MSTORE PUSH1 0x4 CALLDATASIZE LT PUSH2 0x3F JUMPI PUSH1 0x0 CALLDATALOAD PUSH1 0xE0 SHR DUP1 PUSH4 0x2E1A7D4D EQ PUSH2 0x44 JUMPI DUP1 PUSH4 0xA5749710 EQ PUSH2 0x6D JUMPI DUP1 PUSH4 0xD0E30DB0 EQ PUSH2 0x98 JUMPI DUP1 PUSH4 0xFD1F09B2 EQ PUSH2 0xA2 JUMPI JUMPDEST PUSH1 0x0 DUP1 REVERT JUMPDEST CALLVALUE DUP1 ISZERO PUSH2 0x50 JUMPI PUSH1 0x0 DUP1 REVERT JUMPDEST POP PUSH2 0x6B PUSH1 0x4 DUP1 CALLDATASIZE SUB DUP2 ADD SWAP1 PUSH2 0x66 SWAP2 SWAP1 PUSH2 0x3E6 JUMP JUMPDEST PUSH2 0xDF JUMP JUMPDEST STOP JUMPDEST CALLVALUE DUP1 ISZERO PUSH2 0x79 JUMPI PUSH1 0x0 DUP1 REVERT JUMPDEST POP PUSH2 0x82 PUSH2 0x230 JUMP JUMPDEST PUSH1 0x40 MLOAD PUSH2 0x8F SWAP2 SWAP1 PUSH2 0x475 JUMP JUMPDEST PUSH1 0x40 MLOAD DUP1 SWAP2 SUB SWAP1 RETURN JUMPDEST PUSH2 0xA0 PUSH2 0x27A JUMP JUMPDEST STOP JUMPDEST CALLVALUE DUP1 ISZERO PUSH2 0xAE JUMPI PUSH1 0x0 DUP1 REVERT JUMPDEST POP PUSH2 0xC9 PUSH1 0x4 DUP1 CALLDATASIZE SUB DUP2 ADD SWAP1 PUSH2 0xC4 SWAP2 SWAP1 PUSH2 0x3B9 JUMP JUMPDEST PUSH2 0x371 JUMP JUMPDEST PUSH1 0x40 MLOAD PUSH2 0xD6 SWAP2 SWAP1 PUSH2 0x475 JUMP JUMPDEST PUSH1 0x40 MLOAD DUP1 SWAP2 SUB SWAP1 RETURN JUMPDEST PUSH1 0x0 DUP2 GT PUSH2 0xEC JUMPI PUSH1 0x0 DUP1 REVERT JUMPDEST PUSH1 0x0 PUSH1 0x1 PUSH1 0x0 CALLER PUSH20 0xFFFFFFFFFFFFFFFFFFFFFFFFFFFFFFFFFFFFFFFF AND PUSH20 0xFFFFFFFFFFFFFFFFFFFFFFFFFFFFFFFFFFFFFFFF AND DUP2 MSTORE PUSH1 0x20 ADD SWAP1 DUP2 MSTORE PUSH1 0x20 ADD PUSH1 0x0 KECCAK256 SWAP1 POP DUP2 DUP2 PUSH1 0x0 ADD SLOAD LT ISZERO PUSH2 0x140 JUMPI PUSH1 0x0 DUP1 REVERT JUMPDEST DUP2 DUP2 PUSH1 0x0 ADD SLOAD PUSH2 0x150 SWAP2 SWAP1 PUSH2 0x4E6 JUMP JUMPDEST DUP2 PUSH1 0x0 ADD DUP2 SWAP1 SSTORE POP PUSH1 0x0 DUP1 SLOAD SWAP1 PUSH2 0x100 EXP SWAP1 DIV PUSH20 0xFFFFFFFFFFFFFFFFFFFFFFFFFFFFFFFFFFFFFFFF AND PUSH20 0xFFFFFFFFFFFFFFFFFFFFFFFFFFFFFFFFFFFFFFFF AND PUSH4 0x1E9A6950 ADDRESS DUP5 PUSH1 0x40 MLOAD DUP4 PUSH4 0xFFFFFFFF AND PUSH1 0xE0 SHL DUP2 MSTORE PUSH1 0x4 ADD PUSH2 0x1B3 SWAP3 SWAP2 SWAP1 PUSH2 0x44C JUMP JUMPDEST PUSH1 0x0 PUSH1 0x40 MLOAD DUP1 DUP4 SUB DUP2 PUSH1 0x0 DUP8 DUP1 EXTCODESIZE ISZERO DUP1 ISZERO PUSH2 0x1CD JUMPI PUSH1 0x0 DUP1 REVERT JUMPDEST POP GAS CALL ISZERO DUP1 ISZERO PUSH2 0x1E1 JUMPI RETURNDATASIZE PUSH1 0x0 DUP1 RETURNDATACOPY RETURNDATASIZE PUSH1 0x0 REVERT JUMPDEST POP POP POP POP CALLER PUSH20 0xFFFFFFFFFFFFFFFFFFFFFFFFFFFFFFFFFFFFFFFF AND PUSH2 0x8FC DUP4 SWAP1 DUP2 ISZERO MUL SWAP1 PUSH1 0x40 MLOAD PUSH1 0x0 PUSH1 0x40 MLOAD DUP1 DUP4 SUB DUP2 DUP6 DUP9 DUP9 CALL SWAP4 POP POP POP POP ISZERO DUP1 ISZERO PUSH2 0x22B JUMPI RETURNDATASIZE PUSH1 0x0 DUP1 RETURNDATACOPY RETURNDATASIZE PUSH1 0x0 REVERT JUMPDEST POP POP POP JUMP JUMPDEST PUSH1 0x0 PUSH1 0x1 PUSH1 0x0 CALLER PUSH20 0xFFFFFFFFFFFFFFFFFFFFFFFFFFFFFFFFFFFFFFFF AND PUSH20 0xFFFFFFFFFFFFFFFFFFFFFFFFFFFFFFFFFFFFFFFF AND DUP2 MSTORE PUSH1 0x20 ADD SWAP1 DUP2 MSTORE PUSH1 0x20 ADD PUSH1 0x0 KECCAK256 PUSH1 0x0 ADD SLOAD SWAP1 POP SWAP1 JUMP JUMPDEST PUSH1 0x0 CALLVALUE GT PUSH2 0x287 JUMPI PUSH1 0x0 DUP1 REVERT JUMPDEST PUSH1 0x0 PUSH1 0x1 PUSH1 0x0 CALLER PUSH20 0xFFFFFFFFFFFFFFFFFFFFFFFFFFFFFFFFFFFFFFFF AND PUSH20 0xFFFFFFFFFFFFFFFFFFFFFFFFFFFFFFFFFFFFFFFF AND DUP2 MSTORE PUSH1 0x20 ADD SWAP1 DUP2 MSTORE PUSH1 0x20 ADD PUSH1 0x0 KECCAK256 SWAP1 POP CALLVALUE DUP2 PUSH1 0x0 ADD SLOAD PUSH2 0x2DA SWAP2 SWAP1 PUSH2 0x490 JUMP JUMPDEST DUP2 PUSH1 0x0 ADD DUP2 SWAP1 SSTORE POP PUSH1 0x0 DUP1 SLOAD SWAP1 PUSH2 0x100 EXP SWAP1 DIV PUSH20 0xFFFFFFFFFFFFFFFFFFFFFFFFFFFFFFFFFFFFFFFF AND PUSH20 0xFFFFFFFFFFFFFFFFFFFFFFFFFFFFFFFFFFFFFFFF AND PUSH4 0x6A627842 CALLVALUE ADDRESS PUSH1 0x40 MLOAD DUP4 PUSH4 0xFFFFFFFF AND PUSH1 0xE0 SHL DUP2 MSTORE PUSH1 0x4 ADD PUSH2 0x33C SWAP2 SWAP1 PUSH2 0x431 JUMP JUMPDEST PUSH1 0x0 PUSH1 0x40 MLOAD DUP1 DUP4 SUB DUP2 DUP6 DUP9 DUP1 EXTCODESIZE ISZERO DUP1 ISZERO PUSH2 0x355 JUMPI PUSH1 0x0 DUP1 REVERT JUMPDEST POP GAS CALL ISZERO DUP1 ISZERO PUSH2 0x369 JUMPI RETURNDATASIZE PUSH1 0x0 DUP1 RETURNDATACOPY RETURNDATASIZE PUSH1 0x0 REVERT JUMPDEST POP POP POP POP POP POP JUMP JUMPDEST PUSH1 0x1 PUSH1 0x20 MSTORE DUP1 PUSH1 0x0 MSTORE PUSH1 0x40 PUSH1 0x0 KECCAK256 PUSH1 0x0 SWAP2 POP SWAP1 POP DUP1 PUSH1 0x0 ADD SLOAD SWAP1 POP DUP2 JUMP JUMPDEST PUSH1 0x0 DUP2 CALLDATALOAD SWAP1 POP PUSH2 0x39E DUP2 PUSH2 0x58A JUMP JUMPDEST SWAP3 SWAP2 POP POP JUMP JUMPDEST PUSH1 0x0 DUP2 CALLDATALOAD SWAP1 POP PUSH2 0x3B3 DUP2 PUSH2 0x5A1 JUMP JUMPDEST SWAP3 SWAP2 POP POP JUMP JUMPDEST PUSH1 0x0 PUSH1 0x20 DUP3 DUP5 SUB SLT ISZERO PUSH2 0x3CF JUMPI PUSH2 0x3CE PUSH2 0x585 JUMP JUMPDEST JUMPDEST PUSH1 0x0 PUSH2 0x3DD DUP5 DUP3 DUP6 ADD PUSH2 0x38F JUMP JUMPDEST SWAP2 POP POP SWAP3 SWAP2 POP POP JUMP JUMPDEST PUSH1 0x0 PUSH1 0x20 DUP3 DUP5 SUB SLT ISZERO PUSH2 0x3FC JUMPI PUSH2 0x3FB PUSH2 0x585 JUMP JUMPDEST JUMPDEST PUSH1 0x0 PUSH2 0x40A DUP5 DUP3 DUP6 ADD PUSH2 0x3A4 JUMP JUMPDEST SWAP2 POP POP SWAP3 SWAP2 POP POP JUMP JUMPDEST PUSH2 0x41C DUP2 PUSH2 0x51A JUMP JUMPDEST DUP3 MSTORE POP POP JUMP JUMPDEST PUSH2 0x42B DUP2 PUSH2 0x54C JUMP JUMPDEST DUP3 MSTORE POP POP JUMP JUMPDEST PUSH1 0x0 PUSH1 0x20 DUP3 ADD SWAP1 POP PUSH2 0x446 PUSH1 0x0 DUP4 ADD DUP5 PUSH2 0x413 JUMP JUMPDEST SWAP3 SWAP2 POP POP JUMP JUMPDEST PUSH1 0x0 PUSH1 0x40 DUP3 ADD SWAP1 POP PUSH2 0x461 PUSH1 0x0 DUP4 ADD DUP6 PUSH2 0x413 JUMP JUMPDEST PUSH2 0x46E PUSH1 0x20 DUP4 ADD DUP5 PUSH2 0x422 JUMP JUMPDEST SWAP4 SWAP3 POP POP POP JUMP JUMPDEST PUSH1 0x0 PUSH1 0x20 DUP3 ADD SWAP1 POP PUSH2 0x48A PUSH1 0x0 DUP4 ADD DUP5 PUSH2 0x422 JUMP JUMPDEST SWAP3 SWAP2 POP POP JUMP JUMPDEST PUSH1 0x0 PUSH2 0x49B DUP3 PUSH2 0x54C JUMP JUMPDEST SWAP2 POP PUSH2 0x4A6 DUP4 PUSH2 0x54C JUMP JUMPDEST SWAP3 POP DUP3 PUSH32 0xFFFFFFFFFFFFFFFFFFFFFFFFFFFFFFFFFFFFFFFFFFFFFFFFFFFFFFFFFFFFFFFF SUB DUP3 GT ISZERO PUSH2 0x4DB JUMPI PUSH2 0x4DA PUSH2 0x556 JUMP JUMPDEST JUMPDEST DUP3 DUP3 ADD SWAP1 POP SWAP3 SWAP2 POP POP JUMP JUMPDEST PUSH1 0x0 PUSH2 0x4F1 DUP3 PUSH2 0x54C JUMP JUMPDEST SWAP2 POP PUSH2 0x4FC DUP4 PUSH2 0x54C JUMP JUMPDEST SWAP3 POP DUP3 DUP3 LT ISZERO PUSH2 0x50F JUMPI PUSH2 0x50E PUSH2 0x556 JUMP JUMPDEST JUMPDEST DUP3 DUP3 SUB SWAP1 POP SWAP3 SWAP2 POP POP JUMP JUMPDEST PUSH1 0x0 PUSH2 0x525 DUP3 PUSH2 0x52C JUMP JUMPDEST SWAP1 POP SWAP2 SWAP1 POP JUMP JUMPDEST PUSH1 0x0 PUSH20 0xFFFFFFFFFFFFFFFFFFFFFFFFFFFFFFFFFFFFFFFF DUP3 AND SWAP1 POP SWAP2 SWAP1 POP JUMP JUMPDEST PUSH1 0x0 DUP2 SWAP1 POP SWAP2 SWAP1 POP JUMP JUMPDEST PUSH32 0x4E487B7100000000000000000000000000000000000000000000000000000000 PUSH1 0x0 MSTORE PUSH1 0x11 PUSH1 0x4 MSTORE PUSH1 0x24 PUSH1 0x0 REVERT JUMPDEST PUSH1 0x0 DUP1 REVERT JUMPDEST PUSH2 0x593 DUP2 PUSH2 0x51A JUMP JUMPDEST DUP2 EQ PUSH2 0x59E JUMPI PUSH1 0x0 DUP1 REVERT JUMPDEST POP JUMP JUMPDEST PUSH2 0x5AA DUP2 PUSH2 0x54C JUMP JUMPDEST DUP2 EQ PUSH2 0x5B5 JUMPI PUSH1 0x0 DUP1 REVERT JUMPDEST POP JUMP INVALID LOG2 PUSH5 0x6970667358 0x22 SLT KECCAK256 0xF 0xC0 SWAP3 PUSH29 0x54B931ADD94B1704375A49C1A3C9D42EADA37D89ED5B92E99AC6257964 PUSH20 0x6F6C634300080700330000000000000000000000 "
				},
				"gasEstimates": {
					"creation": {
						"codeDepositCost": "303600",
						"executionCost": "infinite",
						"totalCost": "infinite"
					},
					"external": {
						"cells(address)": "2872",
						"deposit()": "infinite",
						"getCurrentBalance()": "2532",
						"withdraw(uint256)": "infinite"
					}
				},
				"methodIdentifiers": {
					"cells(address)": "fd1f09b2",
					"deposit()": "d0e30db0",
					"getCurrentBalance()": "a5749710",
					"withdraw(uint256)": "2e1a7d4d"
				}
			},
			"userdoc": {
				"kind": "user",
				"methods": {},
				"version": 1
			}
		}
	}
}