{
  "address": "0x3c234573bF7b0Db6BAF8ffFcD4514735390CCFac",
  "abi": [
    {
      "anonymous": false,
      "inputs": [
        {
          "indexed": false,
          "internalType": "uint256",
          "name": "amount",
          "type": "uint256"
        }
      ],
      "name": "Borrowed",
      "type": "event"
    },
    {
      "anonymous": false,
      "inputs": [
        {
          "indexed": false,
          "internalType": "uint256",
          "name": "amount",
          "type": "uint256"
        },
        {
          "indexed": false,
          "internalType": "uint256",
          "name": "availableAssets",
          "type": "uint256"
        }
      ],
      "name": "DuringWithdraw",
      "type": "event"
    },
    {
      "anonymous": false,
      "inputs": [
        {
          "indexed": false,
          "internalType": "uint8",
          "name": "version",
          "type": "uint8"
        }
      ],
      "name": "Initialized",
      "type": "event"
    },
    {
      "anonymous": false,
      "inputs": [
        {
          "indexed": true,
          "internalType": "address",
          "name": "previousOwner",
          "type": "address"
        },
        {
          "indexed": true,
          "internalType": "address",
          "name": "newOwner",
          "type": "address"
        }
      ],
      "name": "OwnershipTransferred",
      "type": "event"
    },
    {
      "anonymous": false,
      "inputs": [
        {
          "indexed": false,
          "internalType": "uint256",
          "name": "amount",
          "type": "uint256"
        },
        {
          "indexed": false,
          "internalType": "uint256",
          "name": "balanceBeforeMint",
          "type": "uint256"
        },
        {
          "indexed": false,
          "internalType": "uint256",
          "name": "balanceAfterMint",
          "type": "uint256"
        },
        {
          "indexed": false,
          "internalType": "uint256",
          "name": "balanceOfUnderlying",
          "type": "uint256"
        }
      ],
      "name": "PutInStake",
      "type": "event"
    },
    {
      "anonymous": false,
      "inputs": [
        {
          "indexed": false,
          "internalType": "uint256",
          "name": "amount",
          "type": "uint256"
        }
      ],
      "name": "Redeemed",
      "type": "event"
    },
    {
      "anonymous": false,
      "inputs": [
        {
          "indexed": false,
          "internalType": "uint256",
          "name": "amount",
          "type": "uint256"
        },
        {
          "indexed": false,
          "internalType": "uint256",
          "name": "balanceBeforeRedeem",
          "type": "uint256"
        },
        {
          "indexed": false,
          "internalType": "uint256",
          "name": "withdrawn",
          "type": "uint256"
        },
        {
          "indexed": false,
          "internalType": "uint256",
          "name": "lost",
          "type": "uint256"
        }
      ],
      "name": "Redeemed",
      "type": "event"
    },
    {
      "anonymous": false,
      "inputs": [
        {
          "indexed": false,
          "internalType": "uint256",
          "name": "amount",
          "type": "uint256"
        }
      ],
      "name": "ReturnToLender",
      "type": "event"
    },
    {
      "inputs": [
        {
          "internalType": "string",
          "name": "_name",
          "type": "string"
        },
        {
          "internalType": "address",
          "name": "wantAddress",
          "type": "address"
        },
        {
          "internalType": "address",
          "name": "lenderAddress",
          "type": "address"
        }
      ],
      "name": "__BaseStrategy__init",
      "outputs": [],
      "stateMutability": "nonpayable",
      "type": "function"
    },
    {
      "inputs": [],
      "name": "_lender",
      "outputs": [
        {
          "internalType": "contract ILender",
          "name": "",
          "type": "address"
        }
      ],
      "stateMutability": "view",
      "type": "function"
    },
    {
      "inputs": [],
      "name": "assets",
      "outputs": [
        {
          "internalType": "contract IERC20Upgradeable",
          "name": "",
          "type": "address"
        }
      ],
      "stateMutability": "view",
      "type": "function"
    },
    {
      "inputs": [],
      "name": "balanceOfAssetsInStake",
      "outputs": [
        {
          "internalType": "uint256",
          "name": "",
          "type": "uint256"
        },
        {
          "internalType": "uint256",
          "name": "",
          "type": "uint256"
        },
        {
          "internalType": "uint256",
          "name": "",
          "type": "uint256"
        }
      ],
      "stateMutability": "view",
      "type": "function"
    },
    {
      "inputs": [],
      "name": "directBalanceOfAssetsInStake",
      "outputs": [
        {
          "internalType": "uint256",
          "name": "",
          "type": "uint256"
        }
      ],
      "stateMutability": "nonpayable",
      "type": "function"
    },
    {
      "inputs": [
        {
          "internalType": "string",
          "name": "_name",
          "type": "string"
        },
        {
          "internalType": "address",
          "name": "wantTokenAddress",
          "type": "address"
        },
        {
          "internalType": "address",
          "name": "lenderAddress",
          "type": "address"
        },
        {
          "internalType": "address",
          "name": "stakingAddress",
          "type": "address"
        }
      ],
      "name": "initialize",
      "outputs": [],
      "stateMutability": "nonpayable",
      "type": "function"
    },
    {
      "inputs": [],
      "name": "lender",
      "outputs": [
        {
          "internalType": "address",
          "name": "",
          "type": "address"
        }
      ],
      "stateMutability": "view",
      "type": "function"
    },
    {
      "inputs": [],
      "name": "name",
      "outputs": [
        {
          "internalType": "string",
          "name": "",
          "type": "string"
        }
      ],
      "stateMutability": "view",
      "type": "function"
    },
    {
      "inputs": [],
      "name": "owner",
      "outputs": [
        {
          "internalType": "address",
          "name": "",
          "type": "address"
        }
      ],
      "stateMutability": "view",
      "type": "function"
    },
    {
      "inputs": [],
      "name": "renounceOwnership",
      "outputs": [],
      "stateMutability": "nonpayable",
      "type": "function"
    },
    {
      "inputs": [
        {
          "internalType": "address",
          "name": "lender",
          "type": "address"
        }
      ],
      "name": "setLender",
      "outputs": [],
      "stateMutability": "nonpayable",
      "type": "function"
    },
    {
      "inputs": [],
      "name": "supplyRatePerBlock",
      "outputs": [
        {
          "internalType": "uint256",
          "name": "",
          "type": "uint256"
        }
      ],
      "stateMutability": "view",
      "type": "function"
    },
    {
      "inputs": [],
      "name": "totalAssets",
      "outputs": [
        {
          "internalType": "uint256",
          "name": "",
          "type": "uint256"
        }
      ],
      "stateMutability": "view",
      "type": "function"
    },
    {
      "inputs": [
        {
          "internalType": "address",
          "name": "newOwner",
          "type": "address"
        }
      ],
      "name": "transferOwnership",
      "outputs": [],
      "stateMutability": "nonpayable",
      "type": "function"
    },
    {
      "inputs": [],
      "name": "want",
      "outputs": [
        {
          "internalType": "address",
          "name": "",
          "type": "address"
        }
      ],
      "stateMutability": "view",
      "type": "function"
    },
    {
      "inputs": [
        {
          "internalType": "uint256",
          "name": "amount",
          "type": "uint256"
        }
      ],
      "name": "withdraw",
      "outputs": [
        {
          "internalType": "uint256",
          "name": "",
          "type": "uint256"
        }
      ],
      "stateMutability": "nonpayable",
      "type": "function"
    },
    {
      "inputs": [],
      "name": "work",
      "outputs": [],
      "stateMutability": "nonpayable",
      "type": "function"
    }
  ],
  "transactionHash": "0xb6ad3d4739941cbac8850ba43a32e84e08212ec9f3c1c90254d19dfe8840bb11",
  "args": [],
  "numDeployments": 1,
  "solcInputHash": "e71a9365e9fe2ec9522ba39fb8014d1d",
  "bytecode": "0x608060405234801561001057600080fd5b50612ad2806100206000396000f3fe608060405234801561001057600080fd5b506004361061010b5760003560e01c8063819ed863116100a2578063bcead63e11610071578063bcead63e14610260578063d2e0fe601461027e578063f2fde38b1461029e578063f34822b4146102ba578063fbebb830146102d65761010b565b8063819ed863146101e85780638da5cb5b1461020657806399189dc914610224578063ae9d70b0146102425761010b565b8063322e9f04116100de578063322e9f041461019a57806346e368d4146101a4578063715018a6146101c057806371a97305146101ca5761010b565b806301e1d1141461011057806306fdde031461012e5780631f1fcd511461014c5780632e1a7d4d1461016a575b600080fd5b6101186102f2565b604051610125919061235b565b60405180910390f35b61013661031a565b60405161014391906121f9565b60405180910390f35b6101546103a8565b604051610161919061213b565b60405180910390f35b610184600480360381019061017f9190611ebf565b6103d2565b604051610191919061235b565b60405180910390f35b6101a261059d565b005b6101be60048036038101906101b99190611d8b565b6105cd565b005b6101c861068d565b005b6101d2610715565b6040516101df91906121a8565b60405180910390f35b6101f061073b565b6040516101fd91906121c3565b60405180910390f35b61020e610761565b60405161021b919061213b565b60405180910390f35b61022c61078b565b604051610239919061235b565b60405180910390f35b61024a61083f565b604051610257919061235b565b60405180910390f35b6102686108e6565b604051610275919061213b565b60405180910390f35b610286610910565b6040516102959392919061239f565b60405180910390f35b6102b860048036038101906102b39190611d8b565b610a89565b005b6102d460048036038101906102cf9190611e44565b610b81565b005b6102f060048036038101906102eb9190611ddd565b610c5d565b005b6000806102fd610910565b505090508061030a610d55565b61031491906124a3565b91505090565b60678054610327906126a9565b80601f0160208091040260200160405190810160405280929190818152602001828054610353906126a9565b80156103a05780601f10610375576101008083540402835291602001916103a0565b820191906000526020600020905b81548152906001019060200180831161038357829003601f168201915b505050505081565b6000606560009054906101000a900473ffffffffffffffffffffffffffffffffffffffff16905090565b60003373ffffffffffffffffffffffffffffffffffffffff16606660009054906101000a900473ffffffffffffffffffffffffffffffffffffffff1673ffffffffffffffffffffffffffffffffffffffff1614610464576040517f08c379a000000000000000000000000000000000000000000000000000000000815260040161045b906122bb565b60405180910390fd5b600260685414156104aa576040517f08c379a00000000000000000000000000000000000000000000000000000000081526004016104a19061233b565b60405180910390fd5b60026068819055506104ba6102f2565b8211156104fc576040517f08c379a00000000000000000000000000000000000000000000000000000000081526004016104f39061229b565b60405180910390fd5b7fd982696658cace6e0854cebe8f1ddca77da4c1c46566284fcc6b0a5d5cd6553c82610526610d55565b604051610534929190612376565b60405180910390a1610544610d55565b821161055c5761055382610e07565b60009050610590565b6000610579610569610d55565b846105749190612584565b610e36565b905061058b610586610d55565b610e07565b809150505b6001606881905550919050565b6105a5610f41565b60006105af610d55565b905060008114156105c057506105cb565b6105c9816110bc565b505b565b6105d56113bd565b73ffffffffffffffffffffffffffffffffffffffff166105f3610761565b73ffffffffffffffffffffffffffffffffffffffff1614610649576040517f08c379a00000000000000000000000000000000000000000000000000000000081526004016106409061227b565b60405180910390fd5b80606660006101000a81548173ffffffffffffffffffffffffffffffffffffffff021916908373ffffffffffffffffffffffffffffffffffffffff16021790555050565b6106956113bd565b73ffffffffffffffffffffffffffffffffffffffff166106b3610761565b73ffffffffffffffffffffffffffffffffffffffff1614610709576040517f08c379a00000000000000000000000000000000000000000000000000000000081526004016107009061227b565b60405180910390fd5b61071360006113c5565b565b606560009054906101000a900473ffffffffffffffffffffffffffffffffffffffff1681565b606660009054906101000a900473ffffffffffffffffffffffffffffffffffffffff1681565b6000603360009054906101000a900473ffffffffffffffffffffffffffffffffffffffff16905090565b6000609a60009054906101000a900473ffffffffffffffffffffffffffffffffffffffff1673ffffffffffffffffffffffffffffffffffffffff16633af9e669306040518263ffffffff1660e01b81526004016107e8919061213b565b602060405180830381600087803b15801561080257600080fd5b505af1158015610816573d6000803e3d6000fd5b505050506040513d601f19601f8201168201806040525081019061083a9190611ee8565b905090565b6000609a60009054906101000a900473ffffffffffffffffffffffffffffffffffffffff1673ffffffffffffffffffffffffffffffffffffffff1663ae9d70b06040518163ffffffff1660e01b815260040160206040518083038186803b1580156108a957600080fd5b505afa1580156108bd573d6000803e3d6000fd5b505050506040513d601f19601f820116820180604052508101906108e19190611ee8565b905090565b6000606660009054906101000a900473ffffffffffffffffffffffffffffffffffffffff16905090565b600080600080609a60009054906101000a900473ffffffffffffffffffffffffffffffffffffffff1673ffffffffffffffffffffffffffffffffffffffff1663182df0f56040518163ffffffff1660e01b815260040160206040518083038186803b15801561097e57600080fd5b505afa158015610992573d6000803e3d6000fd5b505050506040513d601f19601f820116820180604052508101906109b69190611ee8565b90506000609a60009054906101000a900473ffffffffffffffffffffffffffffffffffffffff1673ffffffffffffffffffffffffffffffffffffffff166370a08231306040518263ffffffff1660e01b8152600401610a15919061213b565b60206040518083038186803b158015610a2d57600080fd5b505afa158015610a41573d6000803e3d6000fd5b505050506040513d601f19601f82011682018060405250810190610a659190611ee8565b9050610a7a818361148b90919063ffffffff16565b82829450945094505050909192565b610a916113bd565b73ffffffffffffffffffffffffffffffffffffffff16610aaf610761565b73ffffffffffffffffffffffffffffffffffffffff1614610b05576040517f08c379a0000000000000000000000000000000000000000000000000000000008152600401610afc9061227b565b60405180910390fd5b600073ffffffffffffffffffffffffffffffffffffffff168173ffffffffffffffffffffffffffffffffffffffff161415610b75576040517f08c379a0000000000000000000000000000000000000000000000000000000008152600401610b6c9061221b565b60405180910390fd5b610b7e816113c5565b50565b6000610b8d60016114c2565b90508015610bb1576001600060016101000a81548160ff0219169083151502179055505b610bbc858585610c5d565b81609a60006101000a81548173ffffffffffffffffffffffffffffffffffffffff021916908373ffffffffffffffffffffffffffffffffffffffff1602179055508015610c565760008060016101000a81548160ff0219169083151502179055507f7f26b83ff96e1f2b6a682f133852f6798a09c465da95921460cefb38474024986001604051610c4d91906121de565b60405180910390a15b5050505050565b6000610c6960016114c2565b90508015610c8d576001600060016101000a81548160ff0219169083151502179055505b610c956115b2565b610c9e8361160b565b8360679080519060200190610cb4929190611c2c565b5081606660006101000a81548173ffffffffffffffffffffffffffffffffffffffff021916908373ffffffffffffffffffffffffffffffffffffffff1602179055508015610d4f5760008060016101000a81548160ff0219169083151502179055507f7f26b83ff96e1f2b6a682f133852f6798a09c465da95921460cefb38474024986001604051610d4691906121de565b60405180910390a15b50505050565b6000606560009054906101000a900473ffffffffffffffffffffffffffffffffffffffff1673ffffffffffffffffffffffffffffffffffffffff166370a08231306040518263ffffffff1660e01b8152600401610db2919061213b565b60206040518083038186803b158015610dca57600080fd5b505afa158015610dde573d6000803e3d6000fd5b505050506040513d601f19601f82011682018060405250810190610e029190611ee8565b905090565b610e33606660009054906101000a900473ffffffffffffffffffffffffffffffffffffffff16826116d9565b50565b600080610e41610d55565b9050609a60009054906101000a900473ffffffffffffffffffffffffffffffffffffffff1673ffffffffffffffffffffffffffffffffffffffff16639629417830856040518363ffffffff1660e01b8152600401610ea092919061217f565b600060405180830381600087803b158015610eba57600080fd5b505af1158015610ece573d6000803e3d6000fd5b50505050600081610edd610d55565b610ee79190612584565b905060008185610ef79190612584565b90507f40b4917d239fd114b0fc50f974ae5716ca27912c5b6608e2132ccf49b22561b185848484604051610f2e94939291906123d6565b60405180910390a1809350505050919050565b6000606660009054906101000a900473ffffffffffffffffffffffffffffffffffffffff1673ffffffffffffffffffffffffffffffffffffffff1663112c1f9b6040518163ffffffff1660e01b815260040160206040518083038186803b158015610fab57600080fd5b505afa158015610fbf573d6000803e3d6000fd5b505050506040513d601f19601f82011682018060405250810190610fe39190611ee8565b90506000811415610ff457506110ba565b606660009054906101000a900473ffffffffffffffffffffffffffffffffffffffff1673ffffffffffffffffffffffffffffffffffffffff1663c5ebeaec826040518263ffffffff1660e01b815260040161104f919061235b565b600060405180830381600087803b15801561106957600080fd5b505af115801561107d573d6000803e3d6000fd5b505050507f69c0ed5a77051ba5f0c42418bb6db6d3f73884dea69811c50bf320298df6ca5c816040516110b0919061235b565b60405180910390a1505b565b6110e8609a60009054906101000a900473ffffffffffffffffffffffffffffffffffffffff168261172a565b6000609a60009054906101000a900473ffffffffffffffffffffffffffffffffffffffff1673ffffffffffffffffffffffffffffffffffffffff166370a08231306040518263ffffffff1660e01b8152600401611145919061213b565b60206040518083038186803b15801561115d57600080fd5b505afa158015611171573d6000803e3d6000fd5b505050506040513d601f19601f820116820180604052508101906111959190611ee8565b9050609a60009054906101000a900473ffffffffffffffffffffffffffffffffffffffff1673ffffffffffffffffffffffffffffffffffffffff166340c10f1930846040518363ffffffff1660e01b81526004016111f492919061217f565b600060405180830381600087803b15801561120e57600080fd5b505af1158015611222573d6000803e3d6000fd5b505050507ffa34ebae1defb74447b51cc3cebc758dc2a4053f484434dfb8a455203e7a13b88282609a60009054906101000a900473ffffffffffffffffffffffffffffffffffffffff1673ffffffffffffffffffffffffffffffffffffffff166370a08231306040518263ffffffff1660e01b81526004016112a4919061213b565b60206040518083038186803b1580156112bc57600080fd5b505afa1580156112d0573d6000803e3d6000fd5b505050506040513d601f19601f820116820180604052508101906112f49190611ee8565b609a60009054906101000a900473ffffffffffffffffffffffffffffffffffffffff1673ffffffffffffffffffffffffffffffffffffffff16633af9e669306040518263ffffffff1660e01b815260040161134f919061213b565b602060405180830381600087803b15801561136957600080fd5b505af115801561137d573d6000803e3d6000fd5b505050506040513d601f19601f820116820180604052508101906113a19190611ee8565b6040516113b194939291906123d6565b60405180910390a15050565b600033905090565b6000603360009054906101000a900473ffffffffffffffffffffffffffffffffffffffff16905081603360006101000a81548173ffffffffffffffffffffffffffffffffffffffff021916908373ffffffffffffffffffffffffffffffffffffffff1602179055508173ffffffffffffffffffffffffffffffffffffffff168173ffffffffffffffffffffffffffffffffffffffff167f8be0079c531659141344cd1fd0a4f28419497f9722a3daafe3b4186f6b6457e060405160405180910390a35050565b60006114ba670de0b6b3a76400006114ac848661177b90919063ffffffff16565b61179190919063ffffffff16565b905092915050565b60008060019054906101000a900460ff16156115395760018260ff161480156114f157506114ef306117a7565b155b611530576040517f08c379a00000000000000000000000000000000000000000000000000000000081526004016115279061225b565b60405180910390fd5b600090506115ad565b8160ff1660008054906101000a900460ff1660ff161061158e576040517f08c379a00000000000000000000000000000000000000000000000000000000081526004016115859061225b565b60405180910390fd5b816000806101000a81548160ff021916908360ff160217905550600190505b919050565b600060019054906101000a900460ff16611601576040517f08c379a00000000000000000000000000000000000000000000000000000000081526004016115f8906122fb565b60405180910390fd5b6116096117ca565b565b600061161760016114c2565b9050801561163b576001600060016101000a81548160ff0219169083151502179055505b81606560006101000a81548173ffffffffffffffffffffffffffffffffffffffff021916908373ffffffffffffffffffffffffffffffffffffffff16021790555080156116d55760008060016101000a81548160ff0219169083151502179055507f7f26b83ff96e1f2b6a682f133852f6798a09c465da95921460cefb384740249860016040516116cc91906121de565b60405180910390a15b5050565b6117268282606560009054906101000a900473ffffffffffffffffffffffffffffffffffffffff1673ffffffffffffffffffffffffffffffffffffffff1661182b9092919063ffffffff16565b5050565b6117778282606560009054906101000a900473ffffffffffffffffffffffffffffffffffffffff1673ffffffffffffffffffffffffffffffffffffffff166118b19092919063ffffffff16565b5050565b60008183611789919061252a565b905092915050565b6000818361179f91906124f9565b905092915050565b6000808273ffffffffffffffffffffffffffffffffffffffff163b119050919050565b600060019054906101000a900460ff16611819576040517f08c379a0000000000000000000000000000000000000000000000000000000008152600401611810906122fb565b60405180910390fd5b6118296118246113bd565b6113c5565b565b6118ac8363a9059cbb60e01b848460405160240161184a92919061217f565b604051602081830303815290604052907bffffffffffffffffffffffffffffffffffffffffffffffffffffffff19166020820180517bffffffffffffffffffffffffffffffffffffffffffffffffffffffff83818316178352505050506119d2565b505050565b6000818473ffffffffffffffffffffffffffffffffffffffff1663dd62ed3e30866040518363ffffffff1660e01b81526004016118ef929190612156565b60206040518083038186803b15801561190757600080fd5b505afa15801561191b573d6000803e3d6000fd5b505050506040513d601f19601f8201168201806040525081019061193f9190611ee8565b61194991906124a3565b90506119cc8463095ea7b360e01b858460405160240161196a92919061217f565b604051602081830303815290604052907bffffffffffffffffffffffffffffffffffffffffffffffffffffffff19166020820180517bffffffffffffffffffffffffffffffffffffffffffffffffffffffff83818316178352505050506119d2565b50505050565b6000611a34826040518060400160405280602081526020017f5361666545524332303a206c6f772d6c6576656c2063616c6c206661696c65648152508573ffffffffffffffffffffffffffffffffffffffff16611a999092919063ffffffff16565b9050600081511115611a945780806020019051810190611a549190611db4565b611a93576040517f08c379a0000000000000000000000000000000000000000000000000000000008152600401611a8a9061231b565b60405180910390fd5b5b505050565b6060611aa88484600085611ab1565b90509392505050565b606082471015611af6576040517f08c379a0000000000000000000000000000000000000000000000000000000008152600401611aed9061223b565b60405180910390fd5b611aff856117a7565b611b3e576040517f08c379a0000000000000000000000000000000000000000000000000000000008152600401611b35906122db565b60405180910390fd5b6000808673ffffffffffffffffffffffffffffffffffffffff168587604051611b679190612124565b60006040518083038185875af1925050503d8060008114611ba4576040519150601f19603f3d011682016040523d82523d6000602084013e611ba9565b606091505b5091509150611bb9828286611bc5565b92505050949350505050565b60608315611bd557829050611c25565b600083511115611be85782518084602001fd5b816040517f08c379a0000000000000000000000000000000000000000000000000000000008152600401611c1c91906121f9565b60405180910390fd5b9392505050565b828054611c38906126a9565b90600052602060002090601f016020900481019282611c5a5760008555611ca1565b82601f10611c7357805160ff1916838001178555611ca1565b82800160010185558215611ca1579182015b82811115611ca0578251825591602001919060010190611c85565b5b509050611cae9190611cb2565b5090565b5b80821115611ccb576000816000905550600101611cb3565b5090565b6000611ce2611cdd84612440565b61241b565b905082815260208101848484011115611cfa57600080fd5b611d05848285612667565b509392505050565b600081359050611d1c81612a57565b92915050565b600081519050611d3181612a6e565b92915050565b600082601f830112611d4857600080fd5b8135611d58848260208601611ccf565b91505092915050565b600081359050611d7081612a85565b92915050565b600081519050611d8581612a85565b92915050565b600060208284031215611d9d57600080fd5b6000611dab84828501611d0d565b91505092915050565b600060208284031215611dc657600080fd5b6000611dd484828501611d22565b91505092915050565b600080600060608486031215611df257600080fd5b600084013567ffffffffffffffff811115611e0c57600080fd5b611e1886828701611d37565b9350506020611e2986828701611d0d565b9250506040611e3a86828701611d0d565b9150509250925092565b60008060008060808587031215611e5a57600080fd5b600085013567ffffffffffffffff811115611e7457600080fd5b611e8087828801611d37565b9450506020611e9187828801611d0d565b9350506040611ea287828801611d0d565b9250506060611eb387828801611d0d565b91505092959194509250565b600060208284031215611ed157600080fd5b6000611edf84828501611d61565b91505092915050565b600060208284031215611efa57600080fd5b6000611f0884828501611d76565b91505092915050565b611f1a816125b8565b82525050565b6000611f2b82612471565b611f358185612487565b9350611f45818560208601612676565b80840191505092915050565b611f5a8161260d565b82525050565b611f6981612631565b82525050565b611f7881612655565b82525050565b6000611f898261247c565b611f938185612492565b9350611fa3818560208601612676565b611fac816127c8565b840191505092915050565b6000611fc4602683612492565b9150611fcf826127d9565b604082019050919050565b6000611fe7602683612492565b9150611ff282612828565b604082019050919050565b600061200a602e83612492565b915061201582612877565b604082019050919050565b600061202d602083612492565b9150612038826128c6565b602082019050919050565b6000612050602183612492565b915061205b826128ef565b604082019050919050565b6000612073601f83612492565b915061207e8261293e565b602082019050919050565b6000612096601d83612492565b91506120a182612967565b602082019050919050565b60006120b9602b83612492565b91506120c482612990565b604082019050919050565b60006120dc602a83612492565b91506120e7826129df565b604082019050919050565b60006120ff601f83612492565b915061210a82612a2e565b602082019050919050565b61211e816125f6565b82525050565b60006121308284611f20565b915081905092915050565b60006020820190506121506000830184611f11565b92915050565b600060408201905061216b6000830185611f11565b6121786020830184611f11565b9392505050565b60006040820190506121946000830185611f11565b6121a16020830184612115565b9392505050565b60006020820190506121bd6000830184611f51565b92915050565b60006020820190506121d86000830184611f60565b92915050565b60006020820190506121f36000830184611f6f565b92915050565b600060208201905081810360008301526122138184611f7e565b905092915050565b6000602082019050818103600083015261223481611fb7565b9050919050565b6000602082019050818103600083015261225481611fda565b9050919050565b6000602082019050818103600083015261227481611ffd565b9050919050565b6000602082019050818103600083015261229481612020565b9050919050565b600060208201905081810360008301526122b481612043565b9050919050565b600060208201905081810360008301526122d481612066565b9050919050565b600060208201905081810360008301526122f481612089565b9050919050565b60006020820190508181036000830152612314816120ac565b9050919050565b60006020820190508181036000830152612334816120cf565b9050919050565b60006020820190508181036000830152612354816120f2565b9050919050565b60006020820190506123706000830184612115565b92915050565b600060408201905061238b6000830185612115565b6123986020830184612115565b9392505050565b60006060820190506123b46000830186612115565b6123c16020830185612115565b6123ce6040830184612115565b949350505050565b60006080820190506123eb6000830187612115565b6123f86020830186612115565b6124056040830185612115565b6124126060830184612115565b95945050505050565b6000612425612436565b905061243182826126db565b919050565b6000604051905090565b600067ffffffffffffffff82111561245b5761245a612799565b5b612464826127c8565b9050602081019050919050565b600081519050919050565b600081519050919050565b600081905092915050565b600082825260208201905092915050565b60006124ae826125f6565b91506124b9836125f6565b9250827fffffffffffffffffffffffffffffffffffffffffffffffffffffffffffffffff038211156124ee576124ed61270c565b5b828201905092915050565b6000612504826125f6565b915061250f836125f6565b92508261251f5761251e61273b565b5b828204905092915050565b6000612535826125f6565b9150612540836125f6565b9250817fffffffffffffffffffffffffffffffffffffffffffffffffffffffffffffffff04831182151516156125795761257861270c565b5b828202905092915050565b600061258f826125f6565b915061259a836125f6565b9250828210156125ad576125ac61270c565b5b828203905092915050565b60006125c3826125d6565b9050919050565b60008115159050919050565b600073ffffffffffffffffffffffffffffffffffffffff82169050919050565b6000819050919050565b600060ff82169050919050565b60006126188261261f565b9050919050565b600061262a826125d6565b9050919050565b600061263c82612643565b9050919050565b600061264e826125d6565b9050919050565b600061266082612600565b9050919050565b82818337600083830152505050565b60005b83811015612694578082015181840152602081019050612679565b838111156126a3576000848401525b50505050565b600060028204905060018216806126c157607f821691505b602082108114156126d5576126d461276a565b5b50919050565b6126e4826127c8565b810181811067ffffffffffffffff8211171561270357612702612799565b5b80604052505050565b7f4e487b7100000000000000000000000000000000000000000000000000000000600052601160045260246000fd5b7f4e487b7100000000000000000000000000000000000000000000000000000000600052601260045260246000fd5b7f4e487b7100000000000000000000000000000000000000000000000000000000600052602260045260246000fd5b7f4e487b7100000000000000000000000000000000000000000000000000000000600052604160045260246000fd5b6000601f19601f8301169050919050565b7f4f776e61626c653a206e6577206f776e657220697320746865207a65726f206160008201527f6464726573730000000000000000000000000000000000000000000000000000602082015250565b7f416464726573733a20696e73756666696369656e742062616c616e636520666f60008201527f722063616c6c0000000000000000000000000000000000000000000000000000602082015250565b7f496e697469616c697a61626c653a20636f6e747261637420697320616c72656160008201527f647920696e697469616c697a6564000000000000000000000000000000000000602082015250565b7f4f776e61626c653a2063616c6c6572206973206e6f7420746865206f776e6572600082015250565b7f4e6f74206861766520656e6f756768206d6f6e657920746f207769746864726160008201527f7700000000000000000000000000000000000000000000000000000000000000602082015250565b7f53747261746567793a2063616c6c6572206973206e6f742061207661756c7400600082015250565b7f416464726573733a2063616c6c20746f206e6f6e2d636f6e7472616374000000600082015250565b7f496e697469616c697a61626c653a20636f6e7472616374206973206e6f74206960008201527f6e697469616c697a696e67000000000000000000000000000000000000000000602082015250565b7f5361666545524332303a204552433230206f7065726174696f6e20646964206e60008201527f6f74207375636365656400000000000000000000000000000000000000000000602082015250565b7f5265656e7472616e637947756172643a207265656e7472616e742063616c6c00600082015250565b612a60816125b8565b8114612a6b57600080fd5b50565b612a77816125ca565b8114612a8257600080fd5b50565b612a8e816125f6565b8114612a9957600080fd5b5056fea264697066735822122061cbd6dd97de7d3afbc44b6c01c688bd87d623db321f28b53375afa371be76c664736f6c63430008040033",
  "devdoc": {
    "kind": "dev",
    "methods": {
      "owner()": {
        "details": "Returns the address of the current owner."
      },
      "renounceOwnership()": {
        "details": "Leaves the contract without owner. It will not be possible to call `onlyOwner` functions anymore. Can only be called by the current owner. NOTE: Renouncing ownership will leave the contract without an owner, thereby removing any functionality that is only available to the owner."
      },
      "supplyRatePerBlock()": {
        "details": "Returns the current per-block supply interest rate.  Calculates the supply rate:  underlying = totalSupply  exchangeRate  borrowsPer = totalBorrows  underlying  supplyRate = borrowRate  (1-reserveFactor)  borrowsPer"
      },
      "transferOwnership(address)": {
        "details": "Transfers ownership of the contract to a new account (`newOwner`). Can only be called by the current owner."
      }
    },
    "version": 1
  },
  "userdoc": {
    "kind": "user",
    "methods": {
      "__BaseStrategy__init(string,address,address)": {
        "notice": "name - name of the token wantAddress - address of ERC20 token contract which will be stored in fund vaultAddress - address of token where possible stake token"
      },
      "assets()": {
        "notice": "Contract of token which will be stored in this vault"
      },
      "balanceOfAssetsInStake()": {
        "notice": "Return current balance of assets which put in stake"
      },
      "directBalanceOfAssetsInStake()": {
        "notice": "Return current balance of assets which put in stake, as transaction, because can modify state"
      },
      "initialize(string,address,address,address)": {
        "notice": "name - name of the token wantTokenAddress - address of ERC20 token contract which will be stored in fund stakingAddress - address of token where possible stake token"
      },
      "lender()": {
        "notice": "Lender address from which this borrower want to request token."
      },
      "totalAssets()": {
        "notice": "Estimated total assets which currently hold in strategy and in stake"
      },
      "want()": {
        "notice": "Contract of token which this strategy want to borrow and increase"
      },
      "withdraw(uint256)": {
        "notice": "Try to widthdraw given amount and return loss"
      },
      "work()": {
        "notice": "Make all work which need for invest or reinvest tokens"
      }
    },
    "version": 1
  },
  "storageLayout": {
    "storage": [
      {
        "astId": 130,
        "contract": "contracts/ERC20DforceStrategy.sol:ERC20DforceStrategy",
        "label": "_initialized",
        "offset": 0,
        "slot": "0",
        "type": "t_uint8"
      },
      {
        "astId": 133,
        "contract": "contracts/ERC20DforceStrategy.sol:ERC20DforceStrategy",
        "label": "_initializing",
        "offset": 1,
        "slot": "0",
        "type": "t_bool"
      },
      {
        "astId": 910,
        "contract": "contracts/ERC20DforceStrategy.sol:ERC20DforceStrategy",
        "label": "__gap",
        "offset": 0,
        "slot": "1",
        "type": "t_array(t_uint256)50_storage"
      },
      {
        "astId": 10,
        "contract": "contracts/ERC20DforceStrategy.sol:ERC20DforceStrategy",
        "label": "_owner",
        "offset": 0,
        "slot": "51",
        "type": "t_address"
      },
      {
        "astId": 122,
        "contract": "contracts/ERC20DforceStrategy.sol:ERC20DforceStrategy",
        "label": "__gap",
        "offset": 0,
        "slot": "52",
        "type": "t_array(t_uint256)49_storage"
      },
      {
        "astId": 2489,
        "contract": "contracts/ERC20DforceStrategy.sol:ERC20DforceStrategy",
        "label": "assets",
        "offset": 0,
        "slot": "101",
        "type": "t_contract(IERC20Upgradeable)402"
      },
      {
        "astId": 1954,
        "contract": "contracts/ERC20DforceStrategy.sol:ERC20DforceStrategy",
        "label": "_lender",
        "offset": 0,
        "slot": "102",
        "type": "t_contract(ILender)2473"
      },
      {
        "astId": 1956,
        "contract": "contracts/ERC20DforceStrategy.sol:ERC20DforceStrategy",
        "label": "name",
        "offset": 0,
        "slot": "103",
        "type": "t_string_storage"
      },
      {
        "astId": 279,
        "contract": "contracts/ERC20DforceStrategy.sol:ERC20DforceStrategy",
        "label": "_status",
        "offset": 0,
        "slot": "104",
        "type": "t_uint256"
      },
      {
        "astId": 323,
        "contract": "contracts/ERC20DforceStrategy.sol:ERC20DforceStrategy",
        "label": "__gap",
        "offset": 0,
        "slot": "105",
        "type": "t_array(t_uint256)49_storage"
      },
      {
        "astId": 2061,
        "contract": "contracts/ERC20DforceStrategy.sol:ERC20DforceStrategy",
        "label": "stake",
        "offset": 0,
        "slot": "154",
        "type": "t_contract(ERC20iToken)2672"
      }
    ],
    "types": {
      "t_address": {
        "encoding": "inplace",
        "label": "address",
        "numberOfBytes": "20"
      },
      "t_array(t_uint256)49_storage": {
        "base": "t_uint256",
        "encoding": "inplace",
        "label": "uint256[49]",
        "numberOfBytes": "1568"
      },
      "t_array(t_uint256)50_storage": {
        "base": "t_uint256",
        "encoding": "inplace",
        "label": "uint256[50]",
        "numberOfBytes": "1600"
      },
      "t_bool": {
        "encoding": "inplace",
        "label": "bool",
        "numberOfBytes": "1"
      },
      "t_contract(ERC20iToken)2672": {
        "encoding": "inplace",
        "label": "contract ERC20iToken",
        "numberOfBytes": "20"
      },
      "t_contract(IERC20Upgradeable)402": {
        "encoding": "inplace",
        "label": "contract IERC20Upgradeable",
        "numberOfBytes": "20"
      },
      "t_contract(ILender)2473": {
        "encoding": "inplace",
        "label": "contract ILender",
        "numberOfBytes": "20"
      },
      "t_string_storage": {
        "encoding": "bytes",
        "label": "string",
        "numberOfBytes": "32"
      },
      "t_uint256": {
        "encoding": "inplace",
        "label": "uint256",
        "numberOfBytes": "32"
      },
      "t_uint8": {
        "encoding": "inplace",
        "label": "uint8",
        "numberOfBytes": "1"
      }
    }
  }
}